{
	"contracts/7_Structs.sol": {
		"structure": {
			"abi": [
				{
					"inputs": [],
					"name": "getData",
					"outputs": [
						{
							"internalType": "uint256",
							"name": "",
							"type": "uint256"
						}
					],
					"stateMutability": "view",
					"type": "function"
				}
			],
			"devdoc": {
				"kind": "dev",
				"methods": {},
				"version": 1
			},
			"evm": {
				"assembly": "    /* \"contracts/7_Structs.sol\":71:396  contract structure {... */\n  mstore(0x40, 0x80)\n    /* \"contracts/7_Structs.sol\":214:247  student_data(1, \"xxxx\", 49857495) */\n  mload(0x40)\n  dup1\n  0x60\n  add\n  0x40\n  mstore\n  dup1\n    /* \"contracts/7_Structs.sol\":227:228  1 */\n  0x01\n    /* \"contracts/7_Structs.sol\":214:247  student_data(1, \"xxxx\", 49857495) */\n  dup2\n  mstore\n  0x20\n  add\n  mload(0x40)\n  dup1\n  0x40\n  add\n  0x40\n  mstore\n  dup1\n  0x04\n  dup2\n  mstore\n  0x20\n  add\n  0x7878787800000000000000000000000000000000000000000000000000000000\n  dup2\n  mstore\n  pop\n  dup2\n  mstore\n  0x20\n  add\n    /* \"contracts/7_Structs.sol\":238:246  49857495 */\n  0x02f8c3d7\n    /* \"contracts/7_Structs.sol\":214:247  student_data(1, \"xxxx\", 49857495) */\n  dup2\n  mstore\n  pop\n    /* \"contracts/7_Structs.sol\":196:247  student_data s1 = student_data(1, \"xxxx\", 49857495) */\n  0x00\n  dup1\n  dup3\n  add\n  mload\n  dup2\n  0x00\n  add\n  sstore\n  0x20\n  dup3\n  add\n  mload\n  dup2\n  0x01\n  add\n  swap1\n  dup1\n  mload\n  swap1\n  0x20\n  add\n  swap1\n  tag_1\n  swap3\n  swap2\n  swap1\n  tag_2\n  jump\t// in\ntag_1:\n  pop\n  0x40\n  dup3\n  add\n  mload\n  dup2\n  0x02\n  add\n  sstore\n  pop\n  pop\n    /* \"contracts/7_Structs.sol\":272:305  student_data(2, \"yyyy\", 69857495) */\n  mload(0x40)\n  dup1\n  0x60\n  add\n  0x40\n  mstore\n  dup1\n    /* \"contracts/7_Structs.sol\":285:286  2 */\n  0x02\n    /* \"contracts/7_Structs.sol\":272:305  student_data(2, \"yyyy\", 69857495) */\n  dup2\n  mstore\n  0x20\n  add\n  mload(0x40)\n  dup1\n  0x40\n  add\n  0x40\n  mstore\n  dup1\n  0x04\n  dup2\n  mstore\n  0x20\n  add\n  0x7979797900000000000000000000000000000000000000000000000000000000\n  dup2\n  mstore\n  pop\n  dup2\n  mstore\n  0x20\n  add\n    /* \"contracts/7_Structs.sol\":296:304  69857495 */\n  0x0429f0d7\n    /* \"contracts/7_Structs.sol\":272:305  student_data(2, \"yyyy\", 69857495) */\n  dup2\n  mstore\n  pop\n    /* \"contracts/7_Structs.sol\":254:305  student_data s2 = student_data(2, \"yyyy\", 69857495) */\n  0x03\n  0x00\n  dup3\n  add\n  mload\n  dup2\n  0x00\n  add\n  sstore\n  0x20\n  dup3\n  add\n  mload\n  dup2\n  0x01\n  add\n  swap1\n  dup1\n  mload\n  swap1\n  0x20\n  add\n  swap1\n  tag_3\n  swap3\n  swap2\n  swap1\n  tag_2\n  jump\t// in\ntag_3:\n  pop\n  0x40\n  dup3\n  add\n  mload\n  dup2\n  0x02\n  add\n  sstore\n  pop\n  pop\n    /* \"contracts/7_Structs.sol\":71:396  contract structure {... */\n  callvalue\n  dup1\n  iszero\n  tag_4\n  jumpi\n  0x00\n  dup1\n  revert\ntag_4:\n  pop\n  jump(tag_5)\ntag_2:\n  dup3\n  dup1\n  sload\n  tag_6\n  swap1\n  tag_7\n  jump\t// in\ntag_6:\n  swap1\n  0x00\n  mstore\n  keccak256(0x00, 0x20)\n  swap1\n  0x1f\n  add\n  0x20\n  swap1\n  div\n  dup2\n  add\n  swap3\n  dup3\n  tag_9\n  jumpi\n  0x00\n  dup6\n  sstore\n  jump(tag_8)\ntag_9:\n  dup3\n  0x1f\n  lt\n  tag_10\n  jumpi\n  dup1\n  mload\n  not(0xff)\n  and\n  dup4\n  dup1\n  add\n  or\n  dup6\n  sstore\n  jump(tag_8)\ntag_10:\n  dup3\n  dup1\n  add\n  0x01\n  add\n  dup6\n  sstore\n  dup3\n  iszero\n  tag_8\n  jumpi\n  swap2\n  dup3\n  add\ntag_11:\n  dup3\n  dup2\n  gt\n  iszero\n  tag_12\n  jumpi\n  dup3\n  mload\n  dup3\n  sstore\n  swap2\n  0x20\n  add\n  swap2\n  swap1\n  0x01\n  add\n  swap1\n  jump(tag_11)\ntag_12:\ntag_8:\n  pop\n  swap1\n  pop\n  tag_13\n  swap2\n  swap1\n  tag_14\n  jump\t// in\ntag_13:\n  pop\n  swap1\n  jump\t// out\ntag_14:\ntag_15:\n  dup1\n  dup3\n  gt\n  iszero\n  tag_16\n  jumpi\n  0x00\n  dup2\n  0x00\n  swap1\n  sstore\n  pop\n  0x01\n  add\n  jump(tag_15)\ntag_16:\n  pop\n  swap1\n  jump\t// out\n    /* \"#utility.yul\":7:187   */\ntag_17:\n    /* \"#utility.yul\":55:132   */\n  0x4e487b7100000000000000000000000000000000000000000000000000000000\n    /* \"#utility.yul\":52:53   */\n  0x00\n    /* \"#utility.yul\":45:133   */\n  mstore\n    /* \"#utility.yul\":152:156   */\n  0x22\n    /* \"#utility.yul\":149:150   */\n  0x04\n    /* \"#utility.yul\":142:157   */\n  mstore\n    /* \"#utility.yul\":176:180   */\n  0x24\n    /* \"#utility.yul\":173:174   */\n  0x00\n    /* \"#utility.yul\":166:181   */\n  revert\n    /* \"#utility.yul\":193:513   */\ntag_7:\n    /* \"#utility.yul\":237:243   */\n  0x00\n    /* \"#utility.yul\":274:275   */\n  0x02\n    /* \"#utility.yul\":268:272   */\n  dup3\n    /* \"#utility.yul\":264:276   */\n  div\n    /* \"#utility.yul\":254:276   */\n  swap1\n  pop\n    /* \"#utility.yul\":321:322   */\n  0x01\n    /* \"#utility.yul\":315:319   */\n  dup3\n    /* \"#utility.yul\":311:323   */\n  and\n    /* \"#utility.yul\":342:360   */\n  dup1\n    /* \"#utility.yul\":332:413   */\n  tag_21\n  jumpi\n    /* \"#utility.yul\":398:402   */\n  0x7f\n    /* \"#utility.yul\":390:396   */\n  dup3\n    /* \"#utility.yul\":386:403   */\n  and\n    /* \"#utility.yul\":376:403   */\n  swap2\n  pop\n    /* \"#utility.yul\":332:413   */\ntag_21:\n    /* \"#utility.yul\":460:462   */\n  0x20\n    /* \"#utility.yul\":452:458   */\n  dup3\n    /* \"#utility.yul\":449:463   */\n  lt\n    /* \"#utility.yul\":429:447   */\n  dup2\n    /* \"#utility.yul\":426:464   */\n  eq\n    /* \"#utility.yul\":423:507   */\n  iszero\n  tag_22\n  jumpi\n    /* \"#utility.yul\":479:497   */\n  tag_23\n  tag_17\n  jump\t// in\ntag_23:\n    /* \"#utility.yul\":423:507   */\ntag_22:\n    /* \"#utility.yul\":244:513   */\n  pop\n    /* \"#utility.yul\":193:513   */\n  swap2\n  swap1\n  pop\n  jump\t// out\n    /* \"contracts/7_Structs.sol\":71:396  contract structure {... */\ntag_5:\n  dataSize(sub_0)\n  dup1\n  dataOffset(sub_0)\n  0x00\n  codecopy\n  0x00\n  return\nstop\n\nsub_0: assembly {\n        /* \"contracts/7_Structs.sol\":71:396  contract structure {... */\n      mstore(0x40, 0x80)\n      callvalue\n      dup1\n      iszero\n      tag_1\n      jumpi\n      0x00\n      dup1\n      revert\n    tag_1:\n      pop\n      jumpi(tag_2, lt(calldatasize, 0x04))\n      shr(0xe0, calldataload(0x00))\n      dup1\n      0x3bc5de30\n      eq\n      tag_3\n      jumpi\n    tag_2:\n      0x00\n      dup1\n      revert\n        /* \"contracts/7_Structs.sol\":314:393  function getData() public view returns(uint ) {... */\n    tag_3:\n      tag_4\n      tag_5\n      jump\t// in\n    tag_4:\n      mload(0x40)\n      tag_6\n      swap2\n      swap1\n      tag_7\n      jump\t// in\n    tag_6:\n      mload(0x40)\n      dup1\n      swap2\n      sub\n      swap1\n      return\n    tag_5:\n        /* \"contracts/7_Structs.sol\":353:357  uint */\n      0x00\n        /* \"contracts/7_Structs.sol\":378:380  s1 */\n      dup1\n        /* \"contracts/7_Structs.sol\":378:385  s1.roll */\n      0x00\n      add\n      sload\n        /* \"contracts/7_Structs.sol\":371:385  return s1.roll */\n      swap1\n      pop\n        /* \"contracts/7_Structs.sol\":314:393  function getData() public view returns(uint ) {... */\n      swap1\n      jump\t// out\n        /* \"#utility.yul\":7:84   */\n    tag_9:\n        /* \"#utility.yul\":44:51   */\n      0x00\n        /* \"#utility.yul\":73:78   */\n      dup2\n        /* \"#utility.yul\":62:78   */\n      swap1\n      pop\n        /* \"#utility.yul\":7:84   */\n      swap2\n      swap1\n      pop\n      jump\t// out\n        /* \"#utility.yul\":90:208   */\n    tag_10:\n        /* \"#utility.yul\":177:201   */\n      tag_14\n        /* \"#utility.yul\":195:200   */\n      dup2\n        /* \"#utility.yul\":177:201   */\n      tag_9\n      jump\t// in\n    tag_14:\n        /* \"#utility.yul\":172:175   */\n      dup3\n        /* \"#utility.yul\":165:202   */\n      mstore\n        /* \"#utility.yul\":90:208   */\n      pop\n      pop\n      jump\t// out\n        /* \"#utility.yul\":214:436   */\n    tag_7:\n        /* \"#utility.yul\":307:311   */\n      0x00\n        /* \"#utility.yul\":345:347   */\n      0x20\n        /* \"#utility.yul\":334:343   */\n      dup3\n        /* \"#utility.yul\":330:348   */\n      add\n        /* \"#utility.yul\":322:348   */\n      swap1\n      pop\n        /* \"#utility.yul\":358:429   */\n      tag_16\n        /* \"#utility.yul\":426:427   */\n      0x00\n        /* \"#utility.yul\":415:424   */\n      dup4\n        /* \"#utility.yul\":411:428   */\n      add\n        /* \"#utility.yul\":402:408   */\n      dup5\n        /* \"#utility.yul\":358:429   */\n      tag_10\n      jump\t// in\n    tag_16:\n        /* \"#utility.yul\":214:436   */\n      swap3\n      swap2\n      pop\n      pop\n      jump\t// out\n\n    auxdata: 0xa2646970667358221220dae695135ddad5ae75128bbbcc999d5f2b51ba9a8daed138978eabd9eea6911264736f6c634300080b0033\n}\n",
				"bytecode": {
					"linkReferences": {},
					"object": "60806040526040518060600160405280600181526020016040518060400160405280600481526020017f787878780000000000000000000000000000000000000000000000000000000081525081526020016302f8c3d781525060008082015181600001556020820151816001019080519060200190610080929190610129565b506040820151816002015550506040518060600160405280600281526020016040518060400160405280600481526020017f79797979000000000000000000000000000000000000000000000000000000008152508152602001630429f0d7815250600360008201518160000155602082015181600101908051906020019061010a929190610129565b5060408201518160020155505034801561012357600080fd5b5061022d565b828054610135906101fb565b90600052602060002090601f016020900481019282610157576000855561019e565b82601f1061017057805160ff191683800117855561019e565b8280016001018555821561019e579182015b8281111561019d578251825591602001919060010190610182565b5b5090506101ab91906101af565b5090565b5b808211156101c85760008160009055506001016101b0565b5090565b7f4e487b7100000000000000000000000000000000000000000000000000000000600052602260045260246000fd5b6000600282049050600182168061021357607f821691505b60208210811415610227576102266101cc565b5b50919050565b60b98061023b6000396000f3fe6080604052348015600f57600080fd5b506004361060285760003560e01c80633bc5de3014602d575b600080fd5b60336047565b604051603e9190606a565b60405180910390f35b60008060000154905090565b6000819050919050565b6064816053565b82525050565b6000602082019050607d6000830184605d565b9291505056fea2646970667358221220dae695135ddad5ae75128bbbcc999d5f2b51ba9a8daed138978eabd9eea6911264736f6c634300080b0033",
					"opcodes": "PUSH1 0x80 PUSH1 0x40 MSTORE PUSH1 0x40 MLOAD DUP1 PUSH1 0x60 ADD PUSH1 0x40 MSTORE DUP1 PUSH1 0x1 DUP2 MSTORE PUSH1 0x20 ADD PUSH1 0x40 MLOAD DUP1 PUSH1 0x40 ADD PUSH1 0x40 MSTORE DUP1 PUSH1 0x4 DUP2 MSTORE PUSH1 0x20 ADD PUSH32 0x7878787800000000000000000000000000000000000000000000000000000000 DUP2 MSTORE POP DUP2 MSTORE PUSH1 0x20 ADD PUSH4 0x2F8C3D7 DUP2 MSTORE POP PUSH1 0x0 DUP1 DUP3 ADD MLOAD DUP2 PUSH1 0x0 ADD SSTORE PUSH1 0x20 DUP3 ADD MLOAD DUP2 PUSH1 0x1 ADD SWAP1 DUP1 MLOAD SWAP1 PUSH1 0x20 ADD SWAP1 PUSH2 0x80 SWAP3 SWAP2 SWAP1 PUSH2 0x129 JUMP JUMPDEST POP PUSH1 0x40 DUP3 ADD MLOAD DUP2 PUSH1 0x2 ADD SSTORE POP POP PUSH1 0x40 MLOAD DUP1 PUSH1 0x60 ADD PUSH1 0x40 MSTORE DUP1 PUSH1 0x2 DUP2 MSTORE PUSH1 0x20 ADD PUSH1 0x40 MLOAD DUP1 PUSH1 0x40 ADD PUSH1 0x40 MSTORE DUP1 PUSH1 0x4 DUP2 MSTORE PUSH1 0x20 ADD PUSH32 0x7979797900000000000000000000000000000000000000000000000000000000 DUP2 MSTORE POP DUP2 MSTORE PUSH1 0x20 ADD PUSH4 0x429F0D7 DUP2 MSTORE POP PUSH1 0x3 PUSH1 0x0 DUP3 ADD MLOAD DUP2 PUSH1 0x0 ADD SSTORE PUSH1 0x20 DUP3 ADD MLOAD DUP2 PUSH1 0x1 ADD SWAP1 DUP1 MLOAD SWAP1 PUSH1 0x20 ADD SWAP1 PUSH2 0x10A SWAP3 SWAP2 SWAP1 PUSH2 0x129 JUMP JUMPDEST POP PUSH1 0x40 DUP3 ADD MLOAD DUP2 PUSH1 0x2 ADD SSTORE POP POP CALLVALUE DUP1 ISZERO PUSH2 0x123 JUMPI PUSH1 0x0 DUP1 REVERT JUMPDEST POP PUSH2 0x22D JUMP JUMPDEST DUP3 DUP1 SLOAD PUSH2 0x135 SWAP1 PUSH2 0x1FB JUMP JUMPDEST SWAP1 PUSH1 0x0 MSTORE PUSH1 0x20 PUSH1 0x0 KECCAK256 SWAP1 PUSH1 0x1F ADD PUSH1 0x20 SWAP1 DIV DUP2 ADD SWAP3 DUP3 PUSH2 0x157 JUMPI PUSH1 0x0 DUP6 SSTORE PUSH2 0x19E JUMP JUMPDEST DUP3 PUSH1 0x1F LT PUSH2 0x170 JUMPI DUP1 MLOAD PUSH1 0xFF NOT AND DUP4 DUP1 ADD OR DUP6 SSTORE PUSH2 0x19E JUMP JUMPDEST DUP3 DUP1 ADD PUSH1 0x1 ADD DUP6 SSTORE DUP3 ISZERO PUSH2 0x19E JUMPI SWAP2 DUP3 ADD JUMPDEST DUP3 DUP2 GT ISZERO PUSH2 0x19D JUMPI DUP3 MLOAD DUP3 SSTORE SWAP2 PUSH1 0x20 ADD SWAP2 SWAP1 PUSH1 0x1 ADD SWAP1 PUSH2 0x182 JUMP JUMPDEST JUMPDEST POP SWAP1 POP PUSH2 0x1AB SWAP2 SWAP1 PUSH2 0x1AF JUMP JUMPDEST POP SWAP1 JUMP JUMPDEST JUMPDEST DUP1 DUP3 GT ISZERO PUSH2 0x1C8 JUMPI PUSH1 0x0 DUP2 PUSH1 0x0 SWAP1 SSTORE POP PUSH1 0x1 ADD PUSH2 0x1B0 JUMP JUMPDEST POP SWAP1 JUMP JUMPDEST PUSH32 0x4E487B7100000000000000000000000000000000000000000000000000000000 PUSH1 0x0 MSTORE PUSH1 0x22 PUSH1 0x4 MSTORE PUSH1 0x24 PUSH1 0x0 REVERT JUMPDEST PUSH1 0x0 PUSH1 0x2 DUP3 DIV SWAP1 POP PUSH1 0x1 DUP3 AND DUP1 PUSH2 0x213 JUMPI PUSH1 0x7F DUP3 AND SWAP2 POP JUMPDEST PUSH1 0x20 DUP3 LT DUP2 EQ ISZERO PUSH2 0x227 JUMPI PUSH2 0x226 PUSH2 0x1CC JUMP JUMPDEST JUMPDEST POP SWAP2 SWAP1 POP JUMP JUMPDEST PUSH1 0xB9 DUP1 PUSH2 0x23B PUSH1 0x0 CODECOPY PUSH1 0x0 RETURN INVALID PUSH1 0x80 PUSH1 0x40 MSTORE CALLVALUE DUP1 ISZERO PUSH1 0xF JUMPI PUSH1 0x0 DUP1 REVERT JUMPDEST POP PUSH1 0x4 CALLDATASIZE LT PUSH1 0x28 JUMPI PUSH1 0x0 CALLDATALOAD PUSH1 0xE0 SHR DUP1 PUSH4 0x3BC5DE30 EQ PUSH1 0x2D JUMPI JUMPDEST PUSH1 0x0 DUP1 REVERT JUMPDEST PUSH1 0x33 PUSH1 0x47 JUMP JUMPDEST PUSH1 0x40 MLOAD PUSH1 0x3E SWAP2 SWAP1 PUSH1 0x6A JUMP JUMPDEST PUSH1 0x40 MLOAD DUP1 SWAP2 SUB SWAP1 RETURN JUMPDEST PUSH1 0x0 DUP1 PUSH1 0x0 ADD SLOAD SWAP1 POP SWAP1 JUMP JUMPDEST PUSH1 0x0 DUP2 SWAP1 POP SWAP2 SWAP1 POP JUMP JUMPDEST PUSH1 0x64 DUP2 PUSH1 0x53 JUMP JUMPDEST DUP3 MSTORE POP POP JUMP JUMPDEST PUSH1 0x0 PUSH1 0x20 DUP3 ADD SWAP1 POP PUSH1 0x7D PUSH1 0x0 DUP4 ADD DUP5 PUSH1 0x5D JUMP JUMPDEST SWAP3 SWAP2 POP POP JUMP INVALID LOG2 PUSH5 0x6970667358 0x22 SLT KECCAK256 0xDA 0xE6 SWAP6 SGT 0x5D 0xDA 0xD5 0xAE PUSH22 0x128BBBCC999D5F2B51BA9A8DAED138978EABD9EEA691 SLT PUSH5 0x736F6C6343 STOP ADDMOD SIGNEXTEND STOP CALLER "
				},
				"gasEstimates": {
					"creation": {
						"codeDepositCost": "37000",
						"executionCost": "infinite",
						"totalCost": "infinite"
					},
					"external": {
						"getData()": "2421"
					}
				},
				"methodIdentifiers": {
					"getData()": "3bc5de30"
				}
			},
			"storageLayout": {
				"storage": [
					{
						"astId": 16,
						"contract": "contracts/7_Structs.sol:structure",
						"label": "s1",
						"offset": 0,
						"slot": "0",
						"type": "t_struct(student_data)8_storage"
					},
					{
						"astId": 24,
						"contract": "contracts/7_Structs.sol:structure",
						"label": "s2",
						"offset": 0,
						"slot": "3",
						"type": "t_struct(student_data)8_storage"
					}
				],
				"types": {
					"t_string_storage": {
						"encoding": "bytes",
						"label": "string",
						"numberOfBytes": "32"
					},
					"t_struct(student_data)8_storage": {
						"encoding": "inplace",
						"label": "struct structure.student_data",
						"members": [
							{
								"astId": 3,
								"contract": "contracts/7_Structs.sol:structure",
								"label": "roll",
								"offset": 0,
								"slot": "0",
								"type": "t_uint256"
							},
							{
								"astId": 5,
								"contract": "contracts/7_Structs.sol:structure",
								"label": "name",
								"offset": 0,
								"slot": "1",
								"type": "t_string_storage"
							},
							{
								"astId": 7,
								"contract": "contracts/7_Structs.sol:structure",
								"label": "contact",
								"offset": 0,
								"slot": "2",
								"type": "t_uint256"
							}
						],
						"numberOfBytes": "96"
					},
					"t_uint256": {
						"encoding": "inplace",
						"label": "uint256",
						"numberOfBytes": "32"
					}
				}
			},
			"userdoc": {
				"kind": "user",
				"methods": {},
				"version": 1
			}
		}
	}
}