{
	"contracts/9_Modifier.sol": {
		"modifier_experiment": {
			"abi": [
				{
					"inputs": [],
					"stateMutability": "nonpayable",
					"type": "constructor"
				},
				{
					"inputs": [
						{
							"internalType": "uint256",
							"name": "a",
							"type": "uint256"
						},
						{
							"internalType": "uint256",
							"name": "b",
							"type": "uint256"
						}
					],
					"name": "f",
					"outputs": [
						{
							"internalType": "uint256",
							"name": "",
							"type": "uint256"
						}
					],
					"stateMutability": "view",
					"type": "function"
				}
			],
			"devdoc": {
				"kind": "dev",
				"methods": {},
				"version": 1
			},
			"evm": {
				"assembly": "    /* \"contracts/9_Modifier.sol\":71:564  contract modifier_experiment {... */\n  mstore(0x40, 0x80)\n    /* \"contracts/9_Modifier.sol\":127:178  constructor() {... */\n  callvalue\n  dup1\n  iszero\n  tag_1\n  jumpi\n  0x00\n  dup1\n  revert\ntag_1:\n  pop\n    /* \"contracts/9_Modifier.sol\":160:170  msg.sender */\n  caller\n    /* \"contracts/9_Modifier.sol\":152:157  owner */\n  0x00\n  dup1\n    /* \"contracts/9_Modifier.sol\":152:170  owner = msg.sender */\n  0x0100\n  exp\n  dup2\n  sload\n  dup2\n  0xffffffffffffffffffffffffffffffffffffffff\n  mul\n  not\n  and\n  swap1\n  dup4\n  0xffffffffffffffffffffffffffffffffffffffff\n  and\n  mul\n  or\n  swap1\n  sstore\n  pop\n    /* \"contracts/9_Modifier.sol\":71:564  contract modifier_experiment {... */\n  dataSize(sub_0)\n  dup1\n  dataOffset(sub_0)\n  0x00\n  codecopy\n  0x00\n  return\nstop\n\nsub_0: assembly {\n        /* \"contracts/9_Modifier.sol\":71:564  contract modifier_experiment {... */\n      mstore(0x40, 0x80)\n      callvalue\n      dup1\n      iszero\n      tag_1\n      jumpi\n      0x00\n      dup1\n      revert\n    tag_1:\n      pop\n      jumpi(tag_2, lt(calldatasize, 0x04))\n      shr(0xe0, calldataload(0x00))\n      dup1\n      0x13d1aa2e\n      eq\n      tag_3\n      jumpi\n    tag_2:\n      0x00\n      dup1\n      revert\n        /* \"contracts/9_Modifier.sol\":471:561  function f(uint a, uint b) public view m(a, b) returns(uint) {... */\n    tag_3:\n      tag_4\n      0x04\n      dup1\n      calldatasize\n      sub\n      dup2\n      add\n      swap1\n      tag_5\n      swap2\n      swap1\n      tag_6\n      jump\t// in\n    tag_5:\n      tag_7\n      jump\t// in\n    tag_4:\n      mload(0x40)\n      tag_8\n      swap2\n      swap1\n      tag_9\n      jump\t// in\n    tag_8:\n      mload(0x40)\n      dup1\n      swap2\n      sub\n      swap1\n      return\n    tag_7:\n        /* \"contracts/9_Modifier.sol\":526:530  uint */\n      0x00\n        /* \"contracts/9_Modifier.sol\":512:513  a */\n      dup3\n        /* \"contracts/9_Modifier.sol\":515:516  b */\n      dup3\n        /* \"contracts/9_Modifier.sol\":418:419  0 */\n      0x00\n        /* \"contracts/9_Modifier.sol\":415:416  a */\n      dup3\n        /* \"contracts/9_Modifier.sol\":415:419  a!=0 */\n      eq\n      iszero\n        /* \"contracts/9_Modifier.sol\":415:428  a!=0 &&  b!=0 */\n      dup1\n      iszero\n      tag_11\n      jumpi\n      pop\n        /* \"contracts/9_Modifier.sol\":427:428  0 */\n      0x00\n        /* \"contracts/9_Modifier.sol\":424:425  b */\n      dup2\n        /* \"contracts/9_Modifier.sol\":424:428  b!=0 */\n      eq\n      iszero\n        /* \"contracts/9_Modifier.sol\":415:428  a!=0 &&  b!=0 */\n    tag_11:\n        /* \"contracts/9_Modifier.sol\":412:458  if(a!=0 &&  b!=0) {... */\n      iszero\n      tag_12\n      jumpi\n        /* \"contracts/9_Modifier.sol\":552:553  b */\n      dup4\n        /* \"contracts/9_Modifier.sol\":550:551  a */\n      dup6\n        /* \"contracts/9_Modifier.sol\":550:553  a*b */\n      tag_14\n      swap2\n      swap1\n      tag_15\n      jump\t// in\n    tag_14:\n        /* \"contracts/9_Modifier.sol\":543:553  return a*b */\n      swap3\n      pop\n        /* \"contracts/9_Modifier.sol\":412:458  if(a!=0 &&  b!=0) {... */\n    tag_12:\n        /* \"contracts/9_Modifier.sol\":471:561  function f(uint a, uint b) public view m(a, b) returns(uint) {... */\n      pop\n      pop\n      swap3\n      swap2\n      pop\n      pop\n      jump\t// out\n        /* \"#utility.yul\":88:205   */\n    tag_17:\n        /* \"#utility.yul\":197:198   */\n      0x00\n        /* \"#utility.yul\":194:195   */\n      dup1\n        /* \"#utility.yul\":187:199   */\n      revert\n        /* \"#utility.yul\":334:411   */\n    tag_19:\n        /* \"#utility.yul\":371:378   */\n      0x00\n        /* \"#utility.yul\":400:405   */\n      dup2\n        /* \"#utility.yul\":389:405   */\n      swap1\n      pop\n        /* \"#utility.yul\":334:411   */\n      swap2\n      swap1\n      pop\n      jump\t// out\n        /* \"#utility.yul\":417:539   */\n    tag_20:\n        /* \"#utility.yul\":490:514   */\n      tag_30\n        /* \"#utility.yul\":508:513   */\n      dup2\n        /* \"#utility.yul\":490:514   */\n      tag_19\n      jump\t// in\n    tag_30:\n        /* \"#utility.yul\":483:488   */\n      dup2\n        /* \"#utility.yul\":480:515   */\n      eq\n        /* \"#utility.yul\":470:533   */\n      tag_31\n      jumpi\n        /* \"#utility.yul\":529:530   */\n      0x00\n        /* \"#utility.yul\":526:527   */\n      dup1\n        /* \"#utility.yul\":519:531   */\n      revert\n        /* \"#utility.yul\":470:533   */\n    tag_31:\n        /* \"#utility.yul\":417:539   */\n      pop\n      jump\t// out\n        /* \"#utility.yul\":545:684   */\n    tag_21:\n        /* \"#utility.yul\":591:596   */\n      0x00\n        /* \"#utility.yul\":629:635   */\n      dup2\n        /* \"#utility.yul\":616:636   */\n      calldataload\n        /* \"#utility.yul\":607:636   */\n      swap1\n      pop\n        /* \"#utility.yul\":645:678   */\n      tag_33\n        /* \"#utility.yul\":672:677   */\n      dup2\n        /* \"#utility.yul\":645:678   */\n      tag_20\n      jump\t// in\n    tag_33:\n        /* \"#utility.yul\":545:684   */\n      swap3\n      swap2\n      pop\n      pop\n      jump\t// out\n        /* \"#utility.yul\":690:1164   */\n    tag_6:\n        /* \"#utility.yul\":758:764   */\n      0x00\n        /* \"#utility.yul\":766:772   */\n      dup1\n        /* \"#utility.yul\":815:817   */\n      0x40\n        /* \"#utility.yul\":803:812   */\n      dup4\n        /* \"#utility.yul\":794:801   */\n      dup6\n        /* \"#utility.yul\":790:813   */\n      sub\n        /* \"#utility.yul\":786:818   */\n      slt\n        /* \"#utility.yul\":783:902   */\n      iszero\n      tag_35\n      jumpi\n        /* \"#utility.yul\":821:900   */\n      tag_36\n      tag_17\n      jump\t// in\n    tag_36:\n        /* \"#utility.yul\":783:902   */\n    tag_35:\n        /* \"#utility.yul\":941:942   */\n      0x00\n        /* \"#utility.yul\":966:1019   */\n      tag_37\n        /* \"#utility.yul\":1011:1018   */\n      dup6\n        /* \"#utility.yul\":1002:1008   */\n      dup3\n        /* \"#utility.yul\":991:1000   */\n      dup7\n        /* \"#utility.yul\":987:1009   */\n      add\n        /* \"#utility.yul\":966:1019   */\n      tag_21\n      jump\t// in\n    tag_37:\n        /* \"#utility.yul\":956:1019   */\n      swap3\n      pop\n        /* \"#utility.yul\":912:1029   */\n      pop\n        /* \"#utility.yul\":1068:1070   */\n      0x20\n        /* \"#utility.yul\":1094:1147   */\n      tag_38\n        /* \"#utility.yul\":1139:1146   */\n      dup6\n        /* \"#utility.yul\":1130:1136   */\n      dup3\n        /* \"#utility.yul\":1119:1128   */\n      dup7\n        /* \"#utility.yul\":1115:1137   */\n      add\n        /* \"#utility.yul\":1094:1147   */\n      tag_21\n      jump\t// in\n    tag_38:\n        /* \"#utility.yul\":1084:1147   */\n      swap2\n      pop\n        /* \"#utility.yul\":1039:1157   */\n      pop\n        /* \"#utility.yul\":690:1164   */\n      swap3\n      pop\n      swap3\n      swap1\n      pop\n      jump\t// out\n        /* \"#utility.yul\":1170:1288   */\n    tag_22:\n        /* \"#utility.yul\":1257:1281   */\n      tag_40\n        /* \"#utility.yul\":1275:1280   */\n      dup2\n        /* \"#utility.yul\":1257:1281   */\n      tag_19\n      jump\t// in\n    tag_40:\n        /* \"#utility.yul\":1252:1255   */\n      dup3\n        /* \"#utility.yul\":1245:1282   */\n      mstore\n        /* \"#utility.yul\":1170:1288   */\n      pop\n      pop\n      jump\t// out\n        /* \"#utility.yul\":1294:1516   */\n    tag_9:\n        /* \"#utility.yul\":1387:1391   */\n      0x00\n        /* \"#utility.yul\":1425:1427   */\n      0x20\n        /* \"#utility.yul\":1414:1423   */\n      dup3\n        /* \"#utility.yul\":1410:1428   */\n      add\n        /* \"#utility.yul\":1402:1428   */\n      swap1\n      pop\n        /* \"#utility.yul\":1438:1509   */\n      tag_42\n        /* \"#utility.yul\":1506:1507   */\n      0x00\n        /* \"#utility.yul\":1495:1504   */\n      dup4\n        /* \"#utility.yul\":1491:1508   */\n      add\n        /* \"#utility.yul\":1482:1488   */\n      dup5\n        /* \"#utility.yul\":1438:1509   */\n      tag_22\n      jump\t// in\n    tag_42:\n        /* \"#utility.yul\":1294:1516   */\n      swap3\n      swap2\n      pop\n      pop\n      jump\t// out\n        /* \"#utility.yul\":1522:1702   */\n    tag_23:\n        /* \"#utility.yul\":1570:1647   */\n      0x4e487b7100000000000000000000000000000000000000000000000000000000\n        /* \"#utility.yul\":1567:1568   */\n      0x00\n        /* \"#utility.yul\":1560:1648   */\n      mstore\n        /* \"#utility.yul\":1667:1671   */\n      0x11\n        /* \"#utility.yul\":1664:1665   */\n      0x04\n        /* \"#utility.yul\":1657:1672   */\n      mstore\n        /* \"#utility.yul\":1691:1695   */\n      0x24\n        /* \"#utility.yul\":1688:1689   */\n      0x00\n        /* \"#utility.yul\":1681:1696   */\n      revert\n        /* \"#utility.yul\":1708:2056   */\n    tag_15:\n        /* \"#utility.yul\":1748:1755   */\n      0x00\n        /* \"#utility.yul\":1771:1791   */\n      tag_45\n        /* \"#utility.yul\":1789:1790   */\n      dup3\n        /* \"#utility.yul\":1771:1791   */\n      tag_19\n      jump\t// in\n    tag_45:\n        /* \"#utility.yul\":1766:1791   */\n      swap2\n      pop\n        /* \"#utility.yul\":1805:1825   */\n      tag_46\n        /* \"#utility.yul\":1823:1824   */\n      dup4\n        /* \"#utility.yul\":1805:1825   */\n      tag_19\n      jump\t// in\n    tag_46:\n        /* \"#utility.yul\":1800:1825   */\n      swap3\n      pop\n        /* \"#utility.yul\":1993:1994   */\n      dup2\n        /* \"#utility.yul\":1925:1991   */\n      0xffffffffffffffffffffffffffffffffffffffffffffffffffffffffffffffff\n        /* \"#utility.yul\":1921:1995   */\n      div\n        /* \"#utility.yul\":1918:1919   */\n      dup4\n        /* \"#utility.yul\":1915:1996   */\n      gt\n        /* \"#utility.yul\":1910:1911   */\n      dup3\n        /* \"#utility.yul\":1903:1912   */\n      iszero\n        /* \"#utility.yul\":1896:1913   */\n      iszero\n        /* \"#utility.yul\":1892:1997   */\n      and\n        /* \"#utility.yul\":1889:2020   */\n      iszero\n      tag_47\n      jumpi\n        /* \"#utility.yul\":2000:2018   */\n      tag_48\n      tag_23\n      jump\t// in\n    tag_48:\n        /* \"#utility.yul\":1889:2020   */\n    tag_47:\n        /* \"#utility.yul\":2048:2049   */\n      dup3\n        /* \"#utility.yul\":2045:2046   */\n      dup3\n        /* \"#utility.yul\":2041:2050   */\n      mul\n        /* \"#utility.yul\":2030:2050   */\n      swap1\n      pop\n        /* \"#utility.yul\":1708:2056   */\n      swap3\n      swap2\n      pop\n      pop\n      jump\t// out\n\n    auxdata: 0xa264697066735822122096e2e42ad85cb7163888cf437d8d0b3333aa46b4c21cbe78f54b3d69a877940564736f6c634300080b0033\n}\n",
				"bytecode": {
					"linkReferences": {},
					"object": "608060405234801561001057600080fd5b50336000806101000a81548173ffffffffffffffffffffffffffffffffffffffff021916908373ffffffffffffffffffffffffffffffffffffffff1602179055506101f6806100606000396000f3fe608060405234801561001057600080fd5b506004361061002b5760003560e01c806313d1aa2e14610030575b600080fd5b61004a600480360381019061004591906100cd565b610060565b604051610057919061011c565b60405180910390f35b6000828260008214158015610076575060008114155b1561008a5783856100879190610166565b92505b505092915050565b600080fd5b6000819050919050565b6100aa81610097565b81146100b557600080fd5b50565b6000813590506100c7816100a1565b92915050565b600080604083850312156100e4576100e3610092565b5b60006100f2858286016100b8565b9250506020610103858286016100b8565b9150509250929050565b61011681610097565b82525050565b6000602082019050610131600083018461010d565b92915050565b7f4e487b7100000000000000000000000000000000000000000000000000000000600052601160045260246000fd5b600061017182610097565b915061017c83610097565b9250817fffffffffffffffffffffffffffffffffffffffffffffffffffffffffffffffff04831182151516156101b5576101b4610137565b5b82820290509291505056fea264697066735822122096e2e42ad85cb7163888cf437d8d0b3333aa46b4c21cbe78f54b3d69a877940564736f6c634300080b0033",
					"opcodes": "PUSH1 0x80 PUSH1 0x40 MSTORE CALLVALUE DUP1 ISZERO PUSH2 0x10 JUMPI PUSH1 0x0 DUP1 REVERT JUMPDEST POP CALLER PUSH1 0x0 DUP1 PUSH2 0x100 EXP DUP2 SLOAD DUP2 PUSH20 0xFFFFFFFFFFFFFFFFFFFFFFFFFFFFFFFFFFFFFFFF MUL NOT AND SWAP1 DUP4 PUSH20 0xFFFFFFFFFFFFFFFFFFFFFFFFFFFFFFFFFFFFFFFF AND MUL OR SWAP1 SSTORE POP PUSH2 0x1F6 DUP1 PUSH2 0x60 PUSH1 0x0 CODECOPY PUSH1 0x0 RETURN INVALID PUSH1 0x80 PUSH1 0x40 MSTORE CALLVALUE DUP1 ISZERO PUSH2 0x10 JUMPI PUSH1 0x0 DUP1 REVERT JUMPDEST POP PUSH1 0x4 CALLDATASIZE LT PUSH2 0x2B JUMPI PUSH1 0x0 CALLDATALOAD PUSH1 0xE0 SHR DUP1 PUSH4 0x13D1AA2E EQ PUSH2 0x30 JUMPI JUMPDEST PUSH1 0x0 DUP1 REVERT JUMPDEST PUSH2 0x4A PUSH1 0x4 DUP1 CALLDATASIZE SUB DUP2 ADD SWAP1 PUSH2 0x45 SWAP2 SWAP1 PUSH2 0xCD JUMP JUMPDEST PUSH2 0x60 JUMP JUMPDEST PUSH1 0x40 MLOAD PUSH2 0x57 SWAP2 SWAP1 PUSH2 0x11C JUMP JUMPDEST PUSH1 0x40 MLOAD DUP1 SWAP2 SUB SWAP1 RETURN JUMPDEST PUSH1 0x0 DUP3 DUP3 PUSH1 0x0 DUP3 EQ ISZERO DUP1 ISZERO PUSH2 0x76 JUMPI POP PUSH1 0x0 DUP2 EQ ISZERO JUMPDEST ISZERO PUSH2 0x8A JUMPI DUP4 DUP6 PUSH2 0x87 SWAP2 SWAP1 PUSH2 0x166 JUMP JUMPDEST SWAP3 POP JUMPDEST POP POP SWAP3 SWAP2 POP POP JUMP JUMPDEST PUSH1 0x0 DUP1 REVERT JUMPDEST PUSH1 0x0 DUP2 SWAP1 POP SWAP2 SWAP1 POP JUMP JUMPDEST PUSH2 0xAA DUP2 PUSH2 0x97 JUMP JUMPDEST DUP2 EQ PUSH2 0xB5 JUMPI PUSH1 0x0 DUP1 REVERT JUMPDEST POP JUMP JUMPDEST PUSH1 0x0 DUP2 CALLDATALOAD SWAP1 POP PUSH2 0xC7 DUP2 PUSH2 0xA1 JUMP JUMPDEST SWAP3 SWAP2 POP POP JUMP JUMPDEST PUSH1 0x0 DUP1 PUSH1 0x40 DUP4 DUP6 SUB SLT ISZERO PUSH2 0xE4 JUMPI PUSH2 0xE3 PUSH2 0x92 JUMP JUMPDEST JUMPDEST PUSH1 0x0 PUSH2 0xF2 DUP6 DUP3 DUP7 ADD PUSH2 0xB8 JUMP JUMPDEST SWAP3 POP POP PUSH1 0x20 PUSH2 0x103 DUP6 DUP3 DUP7 ADD PUSH2 0xB8 JUMP JUMPDEST SWAP2 POP POP SWAP3 POP SWAP3 SWAP1 POP JUMP JUMPDEST PUSH2 0x116 DUP2 PUSH2 0x97 JUMP JUMPDEST DUP3 MSTORE POP POP JUMP JUMPDEST PUSH1 0x0 PUSH1 0x20 DUP3 ADD SWAP1 POP PUSH2 0x131 PUSH1 0x0 DUP4 ADD DUP5 PUSH2 0x10D JUMP JUMPDEST SWAP3 SWAP2 POP POP JUMP JUMPDEST PUSH32 0x4E487B7100000000000000000000000000000000000000000000000000000000 PUSH1 0x0 MSTORE PUSH1 0x11 PUSH1 0x4 MSTORE PUSH1 0x24 PUSH1 0x0 REVERT JUMPDEST PUSH1 0x0 PUSH2 0x171 DUP3 PUSH2 0x97 JUMP JUMPDEST SWAP2 POP PUSH2 0x17C DUP4 PUSH2 0x97 JUMP JUMPDEST SWAP3 POP DUP2 PUSH32 0xFFFFFFFFFFFFFFFFFFFFFFFFFFFFFFFFFFFFFFFFFFFFFFFFFFFFFFFFFFFFFFFF DIV DUP4 GT DUP3 ISZERO ISZERO AND ISZERO PUSH2 0x1B5 JUMPI PUSH2 0x1B4 PUSH2 0x137 JUMP JUMPDEST JUMPDEST DUP3 DUP3 MUL SWAP1 POP SWAP3 SWAP2 POP POP JUMP INVALID LOG2 PUSH5 0x6970667358 0x22 SLT KECCAK256 SWAP7 0xE2 0xE4 0x2A 0xD8 0x5C 0xB7 AND CODESIZE DUP9 0xCF NUMBER PUSH30 0x8D0B3333AA46B4C21CBE78F54B3D69A877940564736F6C634300080B0033 "
				},
				"gasEstimates": {
					"creation": {
						"codeDepositCost": "100400",
						"executionCost": "24413",
						"totalCost": "124813"
					},
					"external": {
						"f(uint256,uint256)": "infinite"
					}
				},
				"methodIdentifiers": {
					"f(uint256,uint256)": "13d1aa2e"
				}
			},
			"storageLayout": {
				"storage": [
					{
						"astId": 3,
						"contract": "contracts/9_Modifier.sol:modifier_experiment",
						"label": "owner",
						"offset": 0,
						"slot": "0",
						"type": "t_address"
					}
				],
				"types": {
					"t_address": {
						"encoding": "inplace",
						"label": "address",
						"numberOfBytes": "20"
					}
				}
			},
			"userdoc": {
				"kind": "user",
				"methods": {},
				"version": 1
			}
		}
	}
}