{
	"contracts/9_Modifier.sol": {
		"modifier_experiment": {
			"abi": [
				{
					"inputs": [],
					"stateMutability": "nonpayable",
					"type": "constructor"
				},
				{
					"inputs": [
						{
							"internalType": "uint256",
							"name": "a",
							"type": "uint256"
						},
						{
							"internalType": "uint256",
							"name": "b",
							"type": "uint256"
						}
					],
					"name": "f",
					"outputs": [
						{
							"internalType": "uint256",
							"name": "",
							"type": "uint256"
						}
					],
					"stateMutability": "view",
					"type": "function"
				}
			],
			"devdoc": {
				"kind": "dev",
				"methods": {},
				"version": 1
			},
			"evm": {
				"assembly": "    /* \"contracts/9_Modifier.sol\":71:642  contract modifier_experiment {... */\n  mstore(0x40, 0x80)\n    /* \"contracts/9_Modifier.sol\":127:178  constructor() {... */\n  callvalue\n  dup1\n  iszero\n  tag_1\n  jumpi\n  0x00\n  dup1\n  revert\ntag_1:\n  pop\n    /* \"contracts/9_Modifier.sol\":160:170  msg.sender */\n  caller\n    /* \"contracts/9_Modifier.sol\":152:157  owner */\n  0x00\n  dup1\n    /* \"contracts/9_Modifier.sol\":152:170  owner = msg.sender */\n  0x0100\n  exp\n  dup2\n  sload\n  dup2\n  0xffffffffffffffffffffffffffffffffffffffff\n  mul\n  not\n  and\n  swap1\n  dup4\n  0xffffffffffffffffffffffffffffffffffffffff\n  and\n  mul\n  or\n  swap1\n  sstore\n  pop\n    /* \"contracts/9_Modifier.sol\":71:642  contract modifier_experiment {... */\n  dataSize(sub_0)\n  dup1\n  dataOffset(sub_0)\n  0x00\n  codecopy\n  0x00\n  return\nstop\n\nsub_0: assembly {\n        /* \"contracts/9_Modifier.sol\":71:642  contract modifier_experiment {... */\n      mstore(0x40, 0x80)\n      callvalue\n      dup1\n      iszero\n      tag_1\n      jumpi\n      0x00\n      dup1\n      revert\n    tag_1:\n      pop\n      jumpi(tag_2, lt(calldatasize, 0x04))\n      shr(0xe0, calldataload(0x00))\n      dup1\n      0x13d1aa2e\n      eq\n      tag_3\n      jumpi\n    tag_2:\n      0x00\n      dup1\n      revert\n        /* \"contracts/9_Modifier.sol\":549:639  function f(uint a, uint b) public view m(a, b) returns(uint) {... */\n    tag_3:\n      tag_4\n      0x04\n      dup1\n      calldatasize\n      sub\n      dup2\n      add\n      swap1\n      tag_5\n      swap2\n      swap1\n      tag_6\n      jump\t// in\n    tag_5:\n      tag_7\n      jump\t// in\n    tag_4:\n      mload(0x40)\n      tag_8\n      swap2\n      swap1\n      tag_9\n      jump\t// in\n    tag_8:\n      mload(0x40)\n      dup1\n      swap2\n      sub\n      swap1\n      return\n    tag_7:\n        /* \"contracts/9_Modifier.sol\":604:608  uint */\n      0x00\n        /* \"contracts/9_Modifier.sol\":590:591  a */\n      dup3\n        /* \"contracts/9_Modifier.sol\":593:594  b */\n      dup3\n        /* \"contracts/9_Modifier.sol\":418:419  0 */\n      0x00\n        /* \"contracts/9_Modifier.sol\":415:416  a */\n      dup3\n        /* \"contracts/9_Modifier.sol\":415:419  a!=0 */\n      eq\n      iszero\n        /* \"contracts/9_Modifier.sol\":415:428  a!=0 &&  b!=0 */\n      dup1\n      iszero\n      tag_11\n      jumpi\n      pop\n        /* \"contracts/9_Modifier.sol\":427:428  0 */\n      0x00\n        /* \"contracts/9_Modifier.sol\":424:425  b */\n      dup2\n        /* \"contracts/9_Modifier.sol\":424:428  b!=0 */\n      eq\n      iszero\n        /* \"contracts/9_Modifier.sol\":415:428  a!=0 &&  b!=0 */\n    tag_11:\n        /* \"contracts/9_Modifier.sol\":412:536  if(a!=0 &&  b!=0) {... */\n      iszero\n      tag_12\n      jumpi\n        /* \"contracts/9_Modifier.sol\":630:631  b */\n      dup4\n        /* \"contracts/9_Modifier.sol\":628:629  a */\n      dup6\n        /* \"contracts/9_Modifier.sol\":628:631  a*b */\n      tag_14\n      swap2\n      swap1\n      tag_15\n      jump\t// in\n    tag_14:\n        /* \"contracts/9_Modifier.sol\":621:631  return a*b */\n      swap3\n      pop\n        /* \"contracts/9_Modifier.sol\":412:536  if(a!=0 &&  b!=0) {... */\n      jump(tag_16)\n    tag_12:\n        /* \"contracts/9_Modifier.sol\":498:499  0 */\n      0x00\n        /* \"contracts/9_Modifier.sol\":496:497  a */\n      dup3\n        /* \"contracts/9_Modifier.sol\":496:499  a>0 */\n      gt\n        /* \"contracts/9_Modifier.sol\":496:506  a>0 && b>0 */\n      dup1\n      iszero\n      tag_17\n      jumpi\n      pop\n        /* \"contracts/9_Modifier.sol\":505:506  0 */\n      0x00\n        /* \"contracts/9_Modifier.sol\":503:504  b */\n      dup2\n        /* \"contracts/9_Modifier.sol\":503:506  b>0 */\n      gt\n        /* \"contracts/9_Modifier.sol\":496:506  a>0 && b>0 */\n    tag_17:\n        /* \"contracts/9_Modifier.sol\":488:524  require(a>0 && b>0, \"Invalid input\") */\n      tag_18\n      jumpi\n      mload(0x40)\n      0x08c379a000000000000000000000000000000000000000000000000000000000\n      dup2\n      mstore\n      0x04\n      add\n      tag_19\n      swap1\n      tag_20\n      jump\t// in\n    tag_19:\n      mload(0x40)\n      dup1\n      swap2\n      sub\n      swap1\n      revert\n    tag_18:\n        /* \"contracts/9_Modifier.sol\":412:536  if(a!=0 &&  b!=0) {... */\n    tag_16:\n        /* \"contracts/9_Modifier.sol\":549:639  function f(uint a, uint b) public view m(a, b) returns(uint) {... */\n      pop\n      pop\n      swap3\n      swap2\n      pop\n      pop\n      jump\t// out\n        /* \"#utility.yul\":88:205   */\n    tag_22:\n        /* \"#utility.yul\":197:198   */\n      0x00\n        /* \"#utility.yul\":194:195   */\n      dup1\n        /* \"#utility.yul\":187:199   */\n      revert\n        /* \"#utility.yul\":334:411   */\n    tag_24:\n        /* \"#utility.yul\":371:378   */\n      0x00\n        /* \"#utility.yul\":400:405   */\n      dup2\n        /* \"#utility.yul\":389:405   */\n      swap1\n      pop\n        /* \"#utility.yul\":334:411   */\n      swap2\n      swap1\n      pop\n      jump\t// out\n        /* \"#utility.yul\":417:539   */\n    tag_25:\n        /* \"#utility.yul\":490:514   */\n      tag_38\n        /* \"#utility.yul\":508:513   */\n      dup2\n        /* \"#utility.yul\":490:514   */\n      tag_24\n      jump\t// in\n    tag_38:\n        /* \"#utility.yul\":483:488   */\n      dup2\n        /* \"#utility.yul\":480:515   */\n      eq\n        /* \"#utility.yul\":470:533   */\n      tag_39\n      jumpi\n        /* \"#utility.yul\":529:530   */\n      0x00\n        /* \"#utility.yul\":526:527   */\n      dup1\n        /* \"#utility.yul\":519:531   */\n      revert\n        /* \"#utility.yul\":470:533   */\n    tag_39:\n        /* \"#utility.yul\":417:539   */\n      pop\n      jump\t// out\n        /* \"#utility.yul\":545:684   */\n    tag_26:\n        /* \"#utility.yul\":591:596   */\n      0x00\n        /* \"#utility.yul\":629:635   */\n      dup2\n        /* \"#utility.yul\":616:636   */\n      calldataload\n        /* \"#utility.yul\":607:636   */\n      swap1\n      pop\n        /* \"#utility.yul\":645:678   */\n      tag_41\n        /* \"#utility.yul\":672:677   */\n      dup2\n        /* \"#utility.yul\":645:678   */\n      tag_25\n      jump\t// in\n    tag_41:\n        /* \"#utility.yul\":545:684   */\n      swap3\n      swap2\n      pop\n      pop\n      jump\t// out\n        /* \"#utility.yul\":690:1164   */\n    tag_6:\n        /* \"#utility.yul\":758:764   */\n      0x00\n        /* \"#utility.yul\":766:772   */\n      dup1\n        /* \"#utility.yul\":815:817   */\n      0x40\n        /* \"#utility.yul\":803:812   */\n      dup4\n        /* \"#utility.yul\":794:801   */\n      dup6\n        /* \"#utility.yul\":790:813   */\n      sub\n        /* \"#utility.yul\":786:818   */\n      slt\n        /* \"#utility.yul\":783:902   */\n      iszero\n      tag_43\n      jumpi\n        /* \"#utility.yul\":821:900   */\n      tag_44\n      tag_22\n      jump\t// in\n    tag_44:\n        /* \"#utility.yul\":783:902   */\n    tag_43:\n        /* \"#utility.yul\":941:942   */\n      0x00\n        /* \"#utility.yul\":966:1019   */\n      tag_45\n        /* \"#utility.yul\":1011:1018   */\n      dup6\n        /* \"#utility.yul\":1002:1008   */\n      dup3\n        /* \"#utility.yul\":991:1000   */\n      dup7\n        /* \"#utility.yul\":987:1009   */\n      add\n        /* \"#utility.yul\":966:1019   */\n      tag_26\n      jump\t// in\n    tag_45:\n        /* \"#utility.yul\":956:1019   */\n      swap3\n      pop\n        /* \"#utility.yul\":912:1029   */\n      pop\n        /* \"#utility.yul\":1068:1070   */\n      0x20\n        /* \"#utility.yul\":1094:1147   */\n      tag_46\n        /* \"#utility.yul\":1139:1146   */\n      dup6\n        /* \"#utility.yul\":1130:1136   */\n      dup3\n        /* \"#utility.yul\":1119:1128   */\n      dup7\n        /* \"#utility.yul\":1115:1137   */\n      add\n        /* \"#utility.yul\":1094:1147   */\n      tag_26\n      jump\t// in\n    tag_46:\n        /* \"#utility.yul\":1084:1147   */\n      swap2\n      pop\n        /* \"#utility.yul\":1039:1157   */\n      pop\n        /* \"#utility.yul\":690:1164   */\n      swap3\n      pop\n      swap3\n      swap1\n      pop\n      jump\t// out\n        /* \"#utility.yul\":1170:1288   */\n    tag_27:\n        /* \"#utility.yul\":1257:1281   */\n      tag_48\n        /* \"#utility.yul\":1275:1280   */\n      dup2\n        /* \"#utility.yul\":1257:1281   */\n      tag_24\n      jump\t// in\n    tag_48:\n        /* \"#utility.yul\":1252:1255   */\n      dup3\n        /* \"#utility.yul\":1245:1282   */\n      mstore\n        /* \"#utility.yul\":1170:1288   */\n      pop\n      pop\n      jump\t// out\n        /* \"#utility.yul\":1294:1516   */\n    tag_9:\n        /* \"#utility.yul\":1387:1391   */\n      0x00\n        /* \"#utility.yul\":1425:1427   */\n      0x20\n        /* \"#utility.yul\":1414:1423   */\n      dup3\n        /* \"#utility.yul\":1410:1428   */\n      add\n        /* \"#utility.yul\":1402:1428   */\n      swap1\n      pop\n        /* \"#utility.yul\":1438:1509   */\n      tag_50\n        /* \"#utility.yul\":1506:1507   */\n      0x00\n        /* \"#utility.yul\":1495:1504   */\n      dup4\n        /* \"#utility.yul\":1491:1508   */\n      add\n        /* \"#utility.yul\":1482:1488   */\n      dup5\n        /* \"#utility.yul\":1438:1509   */\n      tag_27\n      jump\t// in\n    tag_50:\n        /* \"#utility.yul\":1294:1516   */\n      swap3\n      swap2\n      pop\n      pop\n      jump\t// out\n        /* \"#utility.yul\":1522:1702   */\n    tag_28:\n        /* \"#utility.yul\":1570:1647   */\n      0x4e487b7100000000000000000000000000000000000000000000000000000000\n        /* \"#utility.yul\":1567:1568   */\n      0x00\n        /* \"#utility.yul\":1560:1648   */\n      mstore\n        /* \"#utility.yul\":1667:1671   */\n      0x11\n        /* \"#utility.yul\":1664:1665   */\n      0x04\n        /* \"#utility.yul\":1657:1672   */\n      mstore\n        /* \"#utility.yul\":1691:1695   */\n      0x24\n        /* \"#utility.yul\":1688:1689   */\n      0x00\n        /* \"#utility.yul\":1681:1696   */\n      revert\n        /* \"#utility.yul\":1708:2056   */\n    tag_15:\n        /* \"#utility.yul\":1748:1755   */\n      0x00\n        /* \"#utility.yul\":1771:1791   */\n      tag_53\n        /* \"#utility.yul\":1789:1790   */\n      dup3\n        /* \"#utility.yul\":1771:1791   */\n      tag_24\n      jump\t// in\n    tag_53:\n        /* \"#utility.yul\":1766:1791   */\n      swap2\n      pop\n        /* \"#utility.yul\":1805:1825   */\n      tag_54\n        /* \"#utility.yul\":1823:1824   */\n      dup4\n        /* \"#utility.yul\":1805:1825   */\n      tag_24\n      jump\t// in\n    tag_54:\n        /* \"#utility.yul\":1800:1825   */\n      swap3\n      pop\n        /* \"#utility.yul\":1993:1994   */\n      dup2\n        /* \"#utility.yul\":1925:1991   */\n      0xffffffffffffffffffffffffffffffffffffffffffffffffffffffffffffffff\n        /* \"#utility.yul\":1921:1995   */\n      div\n        /* \"#utility.yul\":1918:1919   */\n      dup4\n        /* \"#utility.yul\":1915:1996   */\n      gt\n        /* \"#utility.yul\":1910:1911   */\n      dup3\n        /* \"#utility.yul\":1903:1912   */\n      iszero\n        /* \"#utility.yul\":1896:1913   */\n      iszero\n        /* \"#utility.yul\":1892:1997   */\n      and\n        /* \"#utility.yul\":1889:2020   */\n      iszero\n      tag_55\n      jumpi\n        /* \"#utility.yul\":2000:2018   */\n      tag_56\n      tag_28\n      jump\t// in\n    tag_56:\n        /* \"#utility.yul\":1889:2020   */\n    tag_55:\n        /* \"#utility.yul\":2048:2049   */\n      dup3\n        /* \"#utility.yul\":2045:2046   */\n      dup3\n        /* \"#utility.yul\":2041:2050   */\n      mul\n        /* \"#utility.yul\":2030:2050   */\n      swap1\n      pop\n        /* \"#utility.yul\":1708:2056   */\n      swap3\n      swap2\n      pop\n      pop\n      jump\t// out\n        /* \"#utility.yul\":2062:2231   */\n    tag_29:\n        /* \"#utility.yul\":2146:2157   */\n      0x00\n        /* \"#utility.yul\":2180:2186   */\n      dup3\n        /* \"#utility.yul\":2175:2178   */\n      dup3\n        /* \"#utility.yul\":2168:2187   */\n      mstore\n        /* \"#utility.yul\":2220:2224   */\n      0x20\n        /* \"#utility.yul\":2215:2218   */\n      dup3\n        /* \"#utility.yul\":2211:2225   */\n      add\n        /* \"#utility.yul\":2196:2225   */\n      swap1\n      pop\n        /* \"#utility.yul\":2062:2231   */\n      swap3\n      swap2\n      pop\n      pop\n      jump\t// out\n        /* \"#utility.yul\":2237:2400   */\n    tag_30:\n        /* \"#utility.yul\":2377:2392   */\n      0x496e76616c696420696e70757400000000000000000000000000000000000000\n        /* \"#utility.yul\":2373:2374   */\n      0x00\n        /* \"#utility.yul\":2365:2371   */\n      dup3\n        /* \"#utility.yul\":2361:2375   */\n      add\n        /* \"#utility.yul\":2354:2393   */\n      mstore\n        /* \"#utility.yul\":2237:2400   */\n      pop\n      jump\t// out\n        /* \"#utility.yul\":2406:2772   */\n    tag_31:\n        /* \"#utility.yul\":2548:2551   */\n      0x00\n        /* \"#utility.yul\":2569:2636   */\n      tag_60\n        /* \"#utility.yul\":2633:2635   */\n      0x0d\n        /* \"#utility.yul\":2628:2631   */\n      dup4\n        /* \"#utility.yul\":2569:2636   */\n      tag_29\n      jump\t// in\n    tag_60:\n        /* \"#utility.yul\":2562:2636   */\n      swap2\n      pop\n        /* \"#utility.yul\":2645:2738   */\n      tag_61\n        /* \"#utility.yul\":2734:2737   */\n      dup3\n        /* \"#utility.yul\":2645:2738   */\n      tag_30\n      jump\t// in\n    tag_61:\n        /* \"#utility.yul\":2763:2765   */\n      0x20\n        /* \"#utility.yul\":2758:2761   */\n      dup3\n        /* \"#utility.yul\":2754:2766   */\n      add\n        /* \"#utility.yul\":2747:2766   */\n      swap1\n      pop\n        /* \"#utility.yul\":2406:2772   */\n      swap2\n      swap1\n      pop\n      jump\t// out\n        /* \"#utility.yul\":2778:3197   */\n    tag_20:\n        /* \"#utility.yul\":2944:2948   */\n      0x00\n        /* \"#utility.yul\":2982:2984   */\n      0x20\n        /* \"#utility.yul\":2971:2980   */\n      dup3\n        /* \"#utility.yul\":2967:2985   */\n      add\n        /* \"#utility.yul\":2959:2985   */\n      swap1\n      pop\n        /* \"#utility.yul\":3031:3040   */\n      dup2\n        /* \"#utility.yul\":3025:3029   */\n      dup2\n        /* \"#utility.yul\":3021:3041   */\n      sub\n        /* \"#utility.yul\":3017:3018   */\n      0x00\n        /* \"#utility.yul\":3006:3015   */\n      dup4\n        /* \"#utility.yul\":3002:3019   */\n      add\n        /* \"#utility.yul\":2995:3042   */\n      mstore\n        /* \"#utility.yul\":3059:3190   */\n      tag_63\n        /* \"#utility.yul\":3185:3189   */\n      dup2\n        /* \"#utility.yul\":3059:3190   */\n      tag_31\n      jump\t// in\n    tag_63:\n        /* \"#utility.yul\":3051:3190   */\n      swap1\n      pop\n        /* \"#utility.yul\":2778:3197   */\n      swap2\n      swap1\n      pop\n      jump\t// out\n\n    auxdata: 0xa264697066735822122004dd1f04fb8f6d29c63e41c10db187b69b589c0c387660c30e85512e29003c6664736f6c634300080b0033\n}\n",
				"bytecode": {
					"linkReferences": {},
					"object": "608060405234801561001057600080fd5b50336000806101000a81548173ffffffffffffffffffffffffffffffffffffffff021916908373ffffffffffffffffffffffffffffffffffffffff1602179055506102c7806100606000396000f3fe608060405234801561001057600080fd5b506004361061002b5760003560e01c806313d1aa2e14610030575b600080fd5b61004a60048036038101906100459190610121565b610060565b6040516100579190610170565b60405180910390f35b6000828260008214158015610076575060008114155b1561008e57838561008791906101ba565b92506100de565b60008211801561009e5750600081115b6100dd576040517f08c379a00000000000000000000000000000000000000000000000000000000081526004016100d490610271565b60405180910390fd5b5b505092915050565b600080fd5b6000819050919050565b6100fe816100eb565b811461010957600080fd5b50565b60008135905061011b816100f5565b92915050565b60008060408385031215610138576101376100e6565b5b60006101468582860161010c565b92505060206101578582860161010c565b9150509250929050565b61016a816100eb565b82525050565b60006020820190506101856000830184610161565b92915050565b7f4e487b7100000000000000000000000000000000000000000000000000000000600052601160045260246000fd5b60006101c5826100eb565b91506101d0836100eb565b9250817fffffffffffffffffffffffffffffffffffffffffffffffffffffffffffffffff04831182151516156102095761020861018b565b5b828202905092915050565b600082825260208201905092915050565b7f496e76616c696420696e70757400000000000000000000000000000000000000600082015250565b600061025b600d83610214565b915061026682610225565b602082019050919050565b6000602082019050818103600083015261028a8161024e565b905091905056fea264697066735822122004dd1f04fb8f6d29c63e41c10db187b69b589c0c387660c30e85512e29003c6664736f6c634300080b0033",
					"opcodes": "PUSH1 0x80 PUSH1 0x40 MSTORE CALLVALUE DUP1 ISZERO PUSH2 0x10 JUMPI PUSH1 0x0 DUP1 REVERT JUMPDEST POP CALLER PUSH1 0x0 DUP1 PUSH2 0x100 EXP DUP2 SLOAD DUP2 PUSH20 0xFFFFFFFFFFFFFFFFFFFFFFFFFFFFFFFFFFFFFFFF MUL NOT AND SWAP1 DUP4 PUSH20 0xFFFFFFFFFFFFFFFFFFFFFFFFFFFFFFFFFFFFFFFF AND MUL OR SWAP1 SSTORE POP PUSH2 0x2C7 DUP1 PUSH2 0x60 PUSH1 0x0 CODECOPY PUSH1 0x0 RETURN INVALID PUSH1 0x80 PUSH1 0x40 MSTORE CALLVALUE DUP1 ISZERO PUSH2 0x10 JUMPI PUSH1 0x0 DUP1 REVERT JUMPDEST POP PUSH1 0x4 CALLDATASIZE LT PUSH2 0x2B JUMPI PUSH1 0x0 CALLDATALOAD PUSH1 0xE0 SHR DUP1 PUSH4 0x13D1AA2E EQ PUSH2 0x30 JUMPI JUMPDEST PUSH1 0x0 DUP1 REVERT JUMPDEST PUSH2 0x4A PUSH1 0x4 DUP1 CALLDATASIZE SUB DUP2 ADD SWAP1 PUSH2 0x45 SWAP2 SWAP1 PUSH2 0x121 JUMP JUMPDEST PUSH2 0x60 JUMP JUMPDEST PUSH1 0x40 MLOAD PUSH2 0x57 SWAP2 SWAP1 PUSH2 0x170 JUMP JUMPDEST PUSH1 0x40 MLOAD DUP1 SWAP2 SUB SWAP1 RETURN JUMPDEST PUSH1 0x0 DUP3 DUP3 PUSH1 0x0 DUP3 EQ ISZERO DUP1 ISZERO PUSH2 0x76 JUMPI POP PUSH1 0x0 DUP2 EQ ISZERO JUMPDEST ISZERO PUSH2 0x8E JUMPI DUP4 DUP6 PUSH2 0x87 SWAP2 SWAP1 PUSH2 0x1BA JUMP JUMPDEST SWAP3 POP PUSH2 0xDE JUMP JUMPDEST PUSH1 0x0 DUP3 GT DUP1 ISZERO PUSH2 0x9E JUMPI POP PUSH1 0x0 DUP2 GT JUMPDEST PUSH2 0xDD JUMPI PUSH1 0x40 MLOAD PUSH32 0x8C379A000000000000000000000000000000000000000000000000000000000 DUP2 MSTORE PUSH1 0x4 ADD PUSH2 0xD4 SWAP1 PUSH2 0x271 JUMP JUMPDEST PUSH1 0x40 MLOAD DUP1 SWAP2 SUB SWAP1 REVERT JUMPDEST JUMPDEST POP POP SWAP3 SWAP2 POP POP JUMP JUMPDEST PUSH1 0x0 DUP1 REVERT JUMPDEST PUSH1 0x0 DUP2 SWAP1 POP SWAP2 SWAP1 POP JUMP JUMPDEST PUSH2 0xFE DUP2 PUSH2 0xEB JUMP JUMPDEST DUP2 EQ PUSH2 0x109 JUMPI PUSH1 0x0 DUP1 REVERT JUMPDEST POP JUMP JUMPDEST PUSH1 0x0 DUP2 CALLDATALOAD SWAP1 POP PUSH2 0x11B DUP2 PUSH2 0xF5 JUMP JUMPDEST SWAP3 SWAP2 POP POP JUMP JUMPDEST PUSH1 0x0 DUP1 PUSH1 0x40 DUP4 DUP6 SUB SLT ISZERO PUSH2 0x138 JUMPI PUSH2 0x137 PUSH2 0xE6 JUMP JUMPDEST JUMPDEST PUSH1 0x0 PUSH2 0x146 DUP6 DUP3 DUP7 ADD PUSH2 0x10C JUMP JUMPDEST SWAP3 POP POP PUSH1 0x20 PUSH2 0x157 DUP6 DUP3 DUP7 ADD PUSH2 0x10C JUMP JUMPDEST SWAP2 POP POP SWAP3 POP SWAP3 SWAP1 POP JUMP JUMPDEST PUSH2 0x16A DUP2 PUSH2 0xEB JUMP JUMPDEST DUP3 MSTORE POP POP JUMP JUMPDEST PUSH1 0x0 PUSH1 0x20 DUP3 ADD SWAP1 POP PUSH2 0x185 PUSH1 0x0 DUP4 ADD DUP5 PUSH2 0x161 JUMP JUMPDEST SWAP3 SWAP2 POP POP JUMP JUMPDEST PUSH32 0x4E487B7100000000000000000000000000000000000000000000000000000000 PUSH1 0x0 MSTORE PUSH1 0x11 PUSH1 0x4 MSTORE PUSH1 0x24 PUSH1 0x0 REVERT JUMPDEST PUSH1 0x0 PUSH2 0x1C5 DUP3 PUSH2 0xEB JUMP JUMPDEST SWAP2 POP PUSH2 0x1D0 DUP4 PUSH2 0xEB JUMP JUMPDEST SWAP3 POP DUP2 PUSH32 0xFFFFFFFFFFFFFFFFFFFFFFFFFFFFFFFFFFFFFFFFFFFFFFFFFFFFFFFFFFFFFFFF DIV DUP4 GT DUP3 ISZERO ISZERO AND ISZERO PUSH2 0x209 JUMPI PUSH2 0x208 PUSH2 0x18B JUMP JUMPDEST JUMPDEST DUP3 DUP3 MUL SWAP1 POP SWAP3 SWAP2 POP POP JUMP JUMPDEST PUSH1 0x0 DUP3 DUP3 MSTORE PUSH1 0x20 DUP3 ADD SWAP1 POP SWAP3 SWAP2 POP POP JUMP JUMPDEST PUSH32 0x496E76616C696420696E70757400000000000000000000000000000000000000 PUSH1 0x0 DUP3 ADD MSTORE POP JUMP JUMPDEST PUSH1 0x0 PUSH2 0x25B PUSH1 0xD DUP4 PUSH2 0x214 JUMP JUMPDEST SWAP2 POP PUSH2 0x266 DUP3 PUSH2 0x225 JUMP JUMPDEST PUSH1 0x20 DUP3 ADD SWAP1 POP SWAP2 SWAP1 POP JUMP JUMPDEST PUSH1 0x0 PUSH1 0x20 DUP3 ADD SWAP1 POP DUP2 DUP2 SUB PUSH1 0x0 DUP4 ADD MSTORE PUSH2 0x28A DUP2 PUSH2 0x24E JUMP JUMPDEST SWAP1 POP SWAP2 SWAP1 POP JUMP INVALID LOG2 PUSH5 0x6970667358 0x22 SLT KECCAK256 DIV 0xDD 0x1F DIV 0xFB DUP16 PUSH14 0x29C63E41C10DB187B69B589C0C38 PUSH23 0x60C30E85512E29003C6664736F6C634300080B00330000 "
				},
				"gasEstimates": {
					"creation": {
						"codeDepositCost": "142200",
						"executionCost": "24456",
						"totalCost": "166656"
					},
					"external": {
						"f(uint256,uint256)": "infinite"
					}
				},
				"methodIdentifiers": {
					"f(uint256,uint256)": "13d1aa2e"
				}
			},
			"storageLayout": {
				"storage": [
					{
						"astId": 3,
						"contract": "contracts/9_Modifier.sol:modifier_experiment",
						"label": "owner",
						"offset": 0,
						"slot": "0",
						"type": "t_address"
					}
				],
				"types": {
					"t_address": {
						"encoding": "inplace",
						"label": "address",
						"numberOfBytes": "20"
					}
				}
			},
			"userdoc": {
				"kind": "user",
				"methods": {},
				"version": 1
			}
		}
	}
}