{
	"contracts/Wallet.sol": {
		"Wallet": {
			"abi": [
				{
					"inputs": [
						{
							"internalType": "address[]",
							"name": "_approvers",
							"type": "address[]"
						},
						{
							"internalType": "uint256",
							"name": "_quorum",
							"type": "uint256"
						}
					],
					"stateMutability": "nonpayable",
					"type": "constructor"
				},
				{
					"inputs": [
						{
							"internalType": "address",
							"name": "",
							"type": "address"
						},
						{
							"internalType": "uint256",
							"name": "",
							"type": "uint256"
						}
					],
					"name": "approvals",
					"outputs": [
						{
							"internalType": "bool",
							"name": "",
							"type": "bool"
						}
					],
					"stateMutability": "view",
					"type": "function"
				},
				{
					"inputs": [
						{
							"internalType": "uint256",
							"name": "id",
							"type": "uint256"
						}
					],
					"name": "approveTransfer",
					"outputs": [],
					"stateMutability": "nonpayable",
					"type": "function"
				},
				{
					"inputs": [
						{
							"internalType": "uint256",
							"name": "",
							"type": "uint256"
						}
					],
					"name": "approvers",
					"outputs": [
						{
							"internalType": "address",
							"name": "",
							"type": "address"
						}
					],
					"stateMutability": "view",
					"type": "function"
				},
				{
					"inputs": [
						{
							"internalType": "uint256",
							"name": "amount",
							"type": "uint256"
						},
						{
							"internalType": "address payable",
							"name": "to",
							"type": "address"
						}
					],
					"name": "createTransfer",
					"outputs": [],
					"stateMutability": "nonpayable",
					"type": "function"
				},
				{
					"inputs": [],
					"name": "getApprovers",
					"outputs": [
						{
							"internalType": "address[]",
							"name": "",
							"type": "address[]"
						}
					],
					"stateMutability": "view",
					"type": "function"
				},
				{
					"inputs": [],
					"name": "getTransfers",
					"outputs": [
						{
							"components": [
								{
									"internalType": "uint256",
									"name": "id",
									"type": "uint256"
								},
								{
									"internalType": "uint256",
									"name": "amount",
									"type": "uint256"
								},
								{
									"internalType": "address payable",
									"name": "to",
									"type": "address"
								},
								{
									"internalType": "uint256",
									"name": "approvals",
									"type": "uint256"
								},
								{
									"internalType": "bool",
									"name": "sent",
									"type": "bool"
								}
							],
							"internalType": "struct Wallet.Transfer[]",
							"name": "",
							"type": "tuple[]"
						}
					],
					"stateMutability": "view",
					"type": "function"
				},
				{
					"inputs": [],
					"name": "quorum",
					"outputs": [
						{
							"internalType": "uint256",
							"name": "",
							"type": "uint256"
						}
					],
					"stateMutability": "view",
					"type": "function"
				},
				{
					"inputs": [
						{
							"internalType": "uint256",
							"name": "",
							"type": "uint256"
						}
					],
					"name": "transfers",
					"outputs": [
						{
							"internalType": "uint256",
							"name": "id",
							"type": "uint256"
						},
						{
							"internalType": "uint256",
							"name": "amount",
							"type": "uint256"
						},
						{
							"internalType": "address payable",
							"name": "to",
							"type": "address"
						},
						{
							"internalType": "uint256",
							"name": "approvals",
							"type": "uint256"
						},
						{
							"internalType": "bool",
							"name": "sent",
							"type": "bool"
						}
					],
					"stateMutability": "view",
					"type": "function"
				},
				{
					"stateMutability": "payable",
					"type": "receive"
				}
			],
			"devdoc": {
				"kind": "dev",
				"methods": {},
				"version": 1
			},
			"evm": {
				"assembly": "    /* \"contracts/Wallet.sol\":100:2260  contract Wallet{\r... */\n  mstore(0x40, 0x80)\n    /* \"contracts/Wallet.sol\":503:635  constructor(address[] memory _approvers, uint _quorum) public{\r... */\n  callvalue\n  dup1\n  iszero\n  tag_1\n  jumpi\n  0x00\n  dup1\n  revert\ntag_1:\n  pop\n  mload(0x40)\n  sub(codesize, bytecodeSize)\n  dup1\n  bytecodeSize\n  dup4\n  codecopy\n  dup2\n  dup2\n  add\n  0x40\n  mstore\n  dup2\n  add\n  swap1\n  tag_2\n  swap2\n  swap1\n  tag_3\n  jump\t// in\ntag_2:\n    /* \"contracts/Wallet.sol\":587:597  _approvers */\n  dup2\n    /* \"contracts/Wallet.sol\":575:584  approvers */\n  0x00\n    /* \"contracts/Wallet.sol\":575:597  approvers = _approvers */\n  swap1\n  dup1\n  mload\n  swap1\n  0x20\n  add\n  swap1\n  tag_6\n  swap3\n  swap2\n  swap1\n  tag_7\n  jump\t// in\ntag_6:\n  pop\n    /* \"contracts/Wallet.sol\":620:627  _quorum */\n  dup1\n    /* \"contracts/Wallet.sol\":608:614  quorum */\n  0x01\n    /* \"contracts/Wallet.sol\":608:627  quorum    = _quorum */\n  dup2\n  swap1\n  sstore\n  pop\n    /* \"contracts/Wallet.sol\":503:635  constructor(address[] memory _approvers, uint _quorum) public{\r... */\n  pop\n  pop\n    /* \"contracts/Wallet.sol\":100:2260  contract Wallet{\r... */\n  jump(tag_8)\ntag_7:\n  dup3\n  dup1\n  sload\n  dup3\n  dup3\n  sstore\n  swap1\n  0x00\n  mstore\n  keccak256(0x00, 0x20)\n  swap1\n  dup2\n  add\n  swap3\n  dup3\n  iszero\n  tag_9\n  jumpi\n  swap2\n  0x20\n  mul\n  dup3\n  add\ntag_10:\n  dup3\n  dup2\n  gt\n  iszero\n  tag_11\n  jumpi\n  dup3\n  mload\n  dup3\n  exp(0x0100, 0x00)\n  dup2\n  sload\n  dup2\n  0xffffffffffffffffffffffffffffffffffffffff\n  mul\n  not\n  and\n  swap1\n  dup4\n  0xffffffffffffffffffffffffffffffffffffffff\n  and\n  mul\n  or\n  swap1\n  sstore\n  pop\n  swap2\n  0x20\n  add\n  swap2\n  swap1\n  0x01\n  add\n  swap1\n  jump(tag_10)\ntag_11:\ntag_9:\n  pop\n  swap1\n  pop\n  tag_12\n  swap2\n  swap1\n  tag_13\n  jump\t// in\ntag_12:\n  pop\n  swap1\n  jump\t// out\ntag_13:\ntag_14:\n  dup1\n  dup3\n  gt\n  iszero\n  tag_15\n  jumpi\n  0x00\n  dup2\n  0x00\n  swap1\n  sstore\n  pop\n  0x01\n  add\n  jump(tag_14)\ntag_15:\n  pop\n  swap1\n  jump\t// out\n    /* \"#utility.yul\":24:768   */\ntag_17:\n    /* \"#utility.yul\":131:136   */\n  0x00\n    /* \"#utility.yul\":156:237   */\n  tag_19\n    /* \"#utility.yul\":172:236   */\n  tag_20\n    /* \"#utility.yul\":229:235   */\n  dup5\n    /* \"#utility.yul\":172:236   */\n  tag_21\n  jump\t// in\ntag_20:\n    /* \"#utility.yul\":156:237   */\n  tag_22\n  jump\t// in\ntag_19:\n    /* \"#utility.yul\":147:237   */\n  swap1\n  pop\n    /* \"#utility.yul\":257:262   */\n  dup1\n    /* \"#utility.yul\":286:292   */\n  dup4\n    /* \"#utility.yul\":279:284   */\n  dup3\n    /* \"#utility.yul\":272:293   */\n  mstore\n    /* \"#utility.yul\":320:324   */\n  0x20\n    /* \"#utility.yul\":313:318   */\n  dup3\n    /* \"#utility.yul\":309:325   */\n  add\n    /* \"#utility.yul\":302:325   */\n  swap1\n  pop\n    /* \"#utility.yul\":346:352   */\n  dup3\n    /* \"#utility.yul\":396:399   */\n  dup6\n    /* \"#utility.yul\":388:392   */\n  0x20\n    /* \"#utility.yul\":380:386   */\n  dup7\n    /* \"#utility.yul\":376:393   */\n  mul\n    /* \"#utility.yul\":371:374   */\n  dup3\n    /* \"#utility.yul\":367:394   */\n  add\n    /* \"#utility.yul\":364:400   */\n  gt\n    /* \"#utility.yul\":361:504   */\n  iszero\n  tag_23\n  jumpi\n    /* \"#utility.yul\":415:494   */\n  tag_24\n  tag_25\n  jump\t// in\ntag_24:\n    /* \"#utility.yul\":361:504   */\ntag_23:\n    /* \"#utility.yul\":528:529   */\n  0x00\n    /* \"#utility.yul\":513:762   */\ntag_26:\n    /* \"#utility.yul\":538:544   */\n  dup6\n    /* \"#utility.yul\":535:536   */\n  dup2\n    /* \"#utility.yul\":532:545   */\n  lt\n    /* \"#utility.yul\":513:762   */\n  iszero\n  tag_28\n  jumpi\n    /* \"#utility.yul\":606:609   */\n  dup2\n    /* \"#utility.yul\":635:683   */\n  tag_29\n    /* \"#utility.yul\":679:682   */\n  dup9\n    /* \"#utility.yul\":667:677   */\n  dup3\n    /* \"#utility.yul\":635:683   */\n  tag_30\n  jump\t// in\ntag_29:\n    /* \"#utility.yul\":630:633   */\n  dup5\n    /* \"#utility.yul\":623:684   */\n  mstore\n    /* \"#utility.yul\":713:717   */\n  0x20\n    /* \"#utility.yul\":708:711   */\n  dup5\n    /* \"#utility.yul\":704:718   */\n  add\n    /* \"#utility.yul\":697:718   */\n  swap4\n  pop\n    /* \"#utility.yul\":747:751   */\n  0x20\n    /* \"#utility.yul\":742:745   */\n  dup4\n    /* \"#utility.yul\":738:752   */\n  add\n    /* \"#utility.yul\":731:752   */\n  swap3\n  pop\n    /* \"#utility.yul\":573:762   */\n  pop\n    /* \"#utility.yul\":560:561   */\n  0x01\n    /* \"#utility.yul\":557:558   */\n  dup2\n    /* \"#utility.yul\":553:562   */\n  add\n    /* \"#utility.yul\":548:562   */\n  swap1\n  pop\n    /* \"#utility.yul\":513:762   */\n  jump(tag_26)\ntag_28:\n    /* \"#utility.yul\":517:531   */\n  pop\n    /* \"#utility.yul\":137:768   */\n  pop\n  pop\n    /* \"#utility.yul\":24:768   */\n  swap4\n  swap3\n  pop\n  pop\n  pop\n  jump\t// out\n    /* \"#utility.yul\":774:917   */\ntag_30:\n    /* \"#utility.yul\":831:836   */\n  0x00\n    /* \"#utility.yul\":862:868   */\n  dup2\n    /* \"#utility.yul\":856:869   */\n  mload\n    /* \"#utility.yul\":847:869   */\n  swap1\n  pop\n    /* \"#utility.yul\":878:911   */\n  tag_32\n    /* \"#utility.yul\":905:910   */\n  dup2\n    /* \"#utility.yul\":878:911   */\n  tag_33\n  jump\t// in\ntag_32:\n    /* \"#utility.yul\":774:917   */\n  swap3\n  swap2\n  pop\n  pop\n  jump\t// out\n    /* \"#utility.yul\":940:1325   */\ntag_34:\n    /* \"#utility.yul\":1022:1027   */\n  0x00\n    /* \"#utility.yul\":1071:1074   */\n  dup3\n    /* \"#utility.yul\":1064:1068   */\n  0x1f\n    /* \"#utility.yul\":1056:1062   */\n  dup4\n    /* \"#utility.yul\":1052:1069   */\n  add\n    /* \"#utility.yul\":1048:1075   */\n  slt\n    /* \"#utility.yul\":1038:1160   */\n  tag_36\n  jumpi\n    /* \"#utility.yul\":1079:1158   */\n  tag_37\n  tag_38\n  jump\t// in\ntag_37:\n    /* \"#utility.yul\":1038:1160   */\ntag_36:\n    /* \"#utility.yul\":1189:1195   */\n  dup2\n    /* \"#utility.yul\":1183:1196   */\n  mload\n    /* \"#utility.yul\":1214:1319   */\n  tag_39\n    /* \"#utility.yul\":1315:1318   */\n  dup5\n    /* \"#utility.yul\":1307:1313   */\n  dup3\n    /* \"#utility.yul\":1300:1304   */\n  0x20\n    /* \"#utility.yul\":1292:1298   */\n  dup7\n    /* \"#utility.yul\":1288:1305   */\n  add\n    /* \"#utility.yul\":1214:1319   */\n  tag_17\n  jump\t// in\ntag_39:\n    /* \"#utility.yul\":1205:1319   */\n  swap2\n  pop\n    /* \"#utility.yul\":1028:1325   */\n  pop\n    /* \"#utility.yul\":940:1325   */\n  swap3\n  swap2\n  pop\n  pop\n  jump\t// out\n    /* \"#utility.yul\":1331:1474   */\ntag_40:\n    /* \"#utility.yul\":1388:1393   */\n  0x00\n    /* \"#utility.yul\":1419:1425   */\n  dup2\n    /* \"#utility.yul\":1413:1426   */\n  mload\n    /* \"#utility.yul\":1404:1426   */\n  swap1\n  pop\n    /* \"#utility.yul\":1435:1468   */\n  tag_42\n    /* \"#utility.yul\":1462:1467   */\n  dup2\n    /* \"#utility.yul\":1435:1468   */\n  tag_43\n  jump\t// in\ntag_42:\n    /* \"#utility.yul\":1331:1474   */\n  swap3\n  swap2\n  pop\n  pop\n  jump\t// out\n    /* \"#utility.yul\":1480:2190   */\ntag_3:\n    /* \"#utility.yul\":1584:1590   */\n  0x00\n    /* \"#utility.yul\":1592:1598   */\n  dup1\n    /* \"#utility.yul\":1641:1643   */\n  0x40\n    /* \"#utility.yul\":1629:1638   */\n  dup4\n    /* \"#utility.yul\":1620:1627   */\n  dup6\n    /* \"#utility.yul\":1616:1639   */\n  sub\n    /* \"#utility.yul\":1612:1644   */\n  slt\n    /* \"#utility.yul\":1609:1728   */\n  iszero\n  tag_45\n  jumpi\n    /* \"#utility.yul\":1647:1726   */\n  tag_46\n  tag_47\n  jump\t// in\ntag_46:\n    /* \"#utility.yul\":1609:1728   */\ntag_45:\n    /* \"#utility.yul\":1788:1789   */\n  0x00\n    /* \"#utility.yul\":1777:1786   */\n  dup4\n    /* \"#utility.yul\":1773:1790   */\n  add\n    /* \"#utility.yul\":1767:1791   */\n  mload\n    /* \"#utility.yul\":1818:1836   */\n  0xffffffffffffffff\n    /* \"#utility.yul\":1810:1816   */\n  dup2\n    /* \"#utility.yul\":1807:1837   */\n  gt\n    /* \"#utility.yul\":1804:1921   */\n  iszero\n  tag_48\n  jumpi\n    /* \"#utility.yul\":1840:1919   */\n  tag_49\n  tag_50\n  jump\t// in\ntag_49:\n    /* \"#utility.yul\":1804:1921   */\ntag_48:\n    /* \"#utility.yul\":1945:2034   */\n  tag_51\n    /* \"#utility.yul\":2026:2033   */\n  dup6\n    /* \"#utility.yul\":2017:2023   */\n  dup3\n    /* \"#utility.yul\":2006:2015   */\n  dup7\n    /* \"#utility.yul\":2002:2024   */\n  add\n    /* \"#utility.yul\":1945:2034   */\n  tag_34\n  jump\t// in\ntag_51:\n    /* \"#utility.yul\":1935:2034   */\n  swap3\n  pop\n    /* \"#utility.yul\":1738:2044   */\n  pop\n    /* \"#utility.yul\":2083:2085   */\n  0x20\n    /* \"#utility.yul\":2109:2173   */\n  tag_52\n    /* \"#utility.yul\":2165:2172   */\n  dup6\n    /* \"#utility.yul\":2156:2162   */\n  dup3\n    /* \"#utility.yul\":2145:2154   */\n  dup7\n    /* \"#utility.yul\":2141:2163   */\n  add\n    /* \"#utility.yul\":2109:2173   */\n  tag_40\n  jump\t// in\ntag_52:\n    /* \"#utility.yul\":2099:2173   */\n  swap2\n  pop\n    /* \"#utility.yul\":2054:2183   */\n  pop\n    /* \"#utility.yul\":1480:2190   */\n  swap3\n  pop\n  swap3\n  swap1\n  pop\n  jump\t// out\n    /* \"#utility.yul\":2196:2325   */\ntag_22:\n    /* \"#utility.yul\":2230:2236   */\n  0x00\n    /* \"#utility.yul\":2257:2277   */\n  tag_54\n  tag_55\n  jump\t// in\ntag_54:\n    /* \"#utility.yul\":2247:2277   */\n  swap1\n  pop\n    /* \"#utility.yul\":2286:2319   */\n  tag_56\n    /* \"#utility.yul\":2314:2318   */\n  dup3\n    /* \"#utility.yul\":2306:2312   */\n  dup3\n    /* \"#utility.yul\":2286:2319   */\n  tag_57\n  jump\t// in\ntag_56:\n    /* \"#utility.yul\":2196:2325   */\n  swap2\n  swap1\n  pop\n  jump\t// out\n    /* \"#utility.yul\":2331:2406   */\ntag_55:\n    /* \"#utility.yul\":2364:2370   */\n  0x00\n    /* \"#utility.yul\":2397:2399   */\n  0x40\n    /* \"#utility.yul\":2391:2400   */\n  mload\n    /* \"#utility.yul\":2381:2400   */\n  swap1\n  pop\n    /* \"#utility.yul\":2331:2406   */\n  swap1\n  jump\t// out\n    /* \"#utility.yul\":2412:2723   */\ntag_21:\n    /* \"#utility.yul\":2489:2493   */\n  0x00\n    /* \"#utility.yul\":2579:2597   */\n  0xffffffffffffffff\n    /* \"#utility.yul\":2571:2577   */\n  dup3\n    /* \"#utility.yul\":2568:2598   */\n  gt\n    /* \"#utility.yul\":2565:2621   */\n  iszero\n  tag_60\n  jumpi\n    /* \"#utility.yul\":2601:2619   */\n  tag_61\n  tag_62\n  jump\t// in\ntag_61:\n    /* \"#utility.yul\":2565:2621   */\ntag_60:\n    /* \"#utility.yul\":2651:2655   */\n  0x20\n    /* \"#utility.yul\":2643:2649   */\n  dup3\n    /* \"#utility.yul\":2639:2656   */\n  mul\n    /* \"#utility.yul\":2631:2656   */\n  swap1\n  pop\n    /* \"#utility.yul\":2711:2715   */\n  0x20\n    /* \"#utility.yul\":2705:2709   */\n  dup2\n    /* \"#utility.yul\":2701:2716   */\n  add\n    /* \"#utility.yul\":2693:2716   */\n  swap1\n  pop\n    /* \"#utility.yul\":2412:2723   */\n  swap2\n  swap1\n  pop\n  jump\t// out\n    /* \"#utility.yul\":2729:2825   */\ntag_63:\n    /* \"#utility.yul\":2766:2773   */\n  0x00\n    /* \"#utility.yul\":2795:2819   */\n  tag_65\n    /* \"#utility.yul\":2813:2818   */\n  dup3\n    /* \"#utility.yul\":2795:2819   */\n  tag_66\n  jump\t// in\ntag_65:\n    /* \"#utility.yul\":2784:2819   */\n  swap1\n  pop\n    /* \"#utility.yul\":2729:2825   */\n  swap2\n  swap1\n  pop\n  jump\t// out\n    /* \"#utility.yul\":2831:2957   */\ntag_66:\n    /* \"#utility.yul\":2868:2875   */\n  0x00\n    /* \"#utility.yul\":2908:2950   */\n  0xffffffffffffffffffffffffffffffffffffffff\n    /* \"#utility.yul\":2901:2906   */\n  dup3\n    /* \"#utility.yul\":2897:2951   */\n  and\n    /* \"#utility.yul\":2886:2951   */\n  swap1\n  pop\n    /* \"#utility.yul\":2831:2957   */\n  swap2\n  swap1\n  pop\n  jump\t// out\n    /* \"#utility.yul\":2963:3040   */\ntag_68:\n    /* \"#utility.yul\":3000:3007   */\n  0x00\n    /* \"#utility.yul\":3029:3034   */\n  dup2\n    /* \"#utility.yul\":3018:3034   */\n  swap1\n  pop\n    /* \"#utility.yul\":2963:3040   */\n  swap2\n  swap1\n  pop\n  jump\t// out\n    /* \"#utility.yul\":3046:3327   */\ntag_57:\n    /* \"#utility.yul\":3129:3156   */\n  tag_71\n    /* \"#utility.yul\":3151:3155   */\n  dup3\n    /* \"#utility.yul\":3129:3156   */\n  tag_72\n  jump\t// in\ntag_71:\n    /* \"#utility.yul\":3121:3127   */\n  dup2\n    /* \"#utility.yul\":3117:3157   */\n  add\n    /* \"#utility.yul\":3259:3265   */\n  dup2\n    /* \"#utility.yul\":3247:3257   */\n  dup2\n    /* \"#utility.yul\":3244:3266   */\n  lt\n    /* \"#utility.yul\":3223:3241   */\n  0xffffffffffffffff\n    /* \"#utility.yul\":3211:3221   */\n  dup3\n    /* \"#utility.yul\":3208:3242   */\n  gt\n    /* \"#utility.yul\":3205:3267   */\n  or\n    /* \"#utility.yul\":3202:3290   */\n  iszero\n  tag_73\n  jumpi\n    /* \"#utility.yul\":3270:3288   */\n  tag_74\n  tag_62\n  jump\t// in\ntag_74:\n    /* \"#utility.yul\":3202:3290   */\ntag_73:\n    /* \"#utility.yul\":3310:3320   */\n  dup1\n    /* \"#utility.yul\":3306:3308   */\n  0x40\n    /* \"#utility.yul\":3299:3321   */\n  mstore\n    /* \"#utility.yul\":3089:3327   */\n  pop\n    /* \"#utility.yul\":3046:3327   */\n  pop\n  pop\n  jump\t// out\n    /* \"#utility.yul\":3333:3513   */\ntag_62:\n    /* \"#utility.yul\":3381:3458   */\n  0x4e487b7100000000000000000000000000000000000000000000000000000000\n    /* \"#utility.yul\":3378:3379   */\n  0x00\n    /* \"#utility.yul\":3371:3459   */\n  mstore\n    /* \"#utility.yul\":3478:3482   */\n  0x41\n    /* \"#utility.yul\":3475:3476   */\n  0x04\n    /* \"#utility.yul\":3468:3483   */\n  mstore\n    /* \"#utility.yul\":3502:3506   */\n  0x24\n    /* \"#utility.yul\":3499:3500   */\n  0x00\n    /* \"#utility.yul\":3492:3507   */\n  revert\n    /* \"#utility.yul\":3519:3636   */\ntag_38:\n    /* \"#utility.yul\":3628:3629   */\n  0x00\n    /* \"#utility.yul\":3625:3626   */\n  dup1\n    /* \"#utility.yul\":3618:3630   */\n  revert\n    /* \"#utility.yul\":3642:3759   */\ntag_25:\n    /* \"#utility.yul\":3751:3752   */\n  0x00\n    /* \"#utility.yul\":3748:3749   */\n  dup1\n    /* \"#utility.yul\":3741:3753   */\n  revert\n    /* \"#utility.yul\":3765:3882   */\ntag_50:\n    /* \"#utility.yul\":3874:3875   */\n  0x00\n    /* \"#utility.yul\":3871:3872   */\n  dup1\n    /* \"#utility.yul\":3864:3876   */\n  revert\n    /* \"#utility.yul\":3888:4005   */\ntag_47:\n    /* \"#utility.yul\":3997:3998   */\n  0x00\n    /* \"#utility.yul\":3994:3995   */\n  dup1\n    /* \"#utility.yul\":3987:3999   */\n  revert\n    /* \"#utility.yul\":4011:4113   */\ntag_72:\n    /* \"#utility.yul\":4052:4058   */\n  0x00\n    /* \"#utility.yul\":4103:4105   */\n  0x1f\n    /* \"#utility.yul\":4099:4106   */\n  not\n    /* \"#utility.yul\":4094:4096   */\n  0x1f\n    /* \"#utility.yul\":4087:4092   */\n  dup4\n    /* \"#utility.yul\":4083:4097   */\n  add\n    /* \"#utility.yul\":4079:4107   */\n  and\n    /* \"#utility.yul\":4069:4107   */\n  swap1\n  pop\n    /* \"#utility.yul\":4011:4113   */\n  swap2\n  swap1\n  pop\n  jump\t// out\n    /* \"#utility.yul\":4119:4241   */\ntag_33:\n    /* \"#utility.yul\":4192:4216   */\n  tag_82\n    /* \"#utility.yul\":4210:4215   */\n  dup2\n    /* \"#utility.yul\":4192:4216   */\n  tag_63\n  jump\t// in\ntag_82:\n    /* \"#utility.yul\":4185:4190   */\n  dup2\n    /* \"#utility.yul\":4182:4217   */\n  eq\n    /* \"#utility.yul\":4172:4235   */\n  tag_83\n  jumpi\n    /* \"#utility.yul\":4231:4232   */\n  0x00\n    /* \"#utility.yul\":4228:4229   */\n  dup1\n    /* \"#utility.yul\":4221:4233   */\n  revert\n    /* \"#utility.yul\":4172:4235   */\ntag_83:\n    /* \"#utility.yul\":4119:4241   */\n  pop\n  jump\t// out\n    /* \"#utility.yul\":4247:4369   */\ntag_43:\n    /* \"#utility.yul\":4320:4344   */\n  tag_85\n    /* \"#utility.yul\":4338:4343   */\n  dup2\n    /* \"#utility.yul\":4320:4344   */\n  tag_68\n  jump\t// in\ntag_85:\n    /* \"#utility.yul\":4313:4318   */\n  dup2\n    /* \"#utility.yul\":4310:4345   */\n  eq\n    /* \"#utility.yul\":4300:4363   */\n  tag_86\n  jumpi\n    /* \"#utility.yul\":4359:4360   */\n  0x00\n    /* \"#utility.yul\":4356:4357   */\n  dup1\n    /* \"#utility.yul\":4349:4361   */\n  revert\n    /* \"#utility.yul\":4300:4363   */\ntag_86:\n    /* \"#utility.yul\":4247:4369   */\n  pop\n  jump\t// out\n    /* \"contracts/Wallet.sol\":100:2260  contract Wallet{\r... */\ntag_8:\n  dataSize(sub_0)\n  dup1\n  dataOffset(sub_0)\n  0x00\n  codecopy\n  0x00\n  return\nstop\n\nsub_0: assembly {\n        /* \"contracts/Wallet.sol\":100:2260  contract Wallet{\r... */\n      mstore(0x40, 0x80)\n      jumpi(tag_1, lt(calldatasize, 0x04))\n      shr(0xe0, calldataload(0x00))\n      dup1\n      0x9377d711\n      gt\n      tag_11\n      jumpi\n      dup1\n      0x9377d711\n      eq\n      tag_7\n      jumpi\n      dup1\n      0xcacca4a0\n      eq\n      tag_8\n      jumpi\n      dup1\n      0xd3650fb8\n      eq\n      tag_9\n      jumpi\n      dup1\n      0xffabc673\n      eq\n      tag_10\n      jumpi\n      jump(tag_2)\n    tag_11:\n      dup1\n      0x1703a018\n      eq\n      tag_3\n      jumpi\n      dup1\n      0x2f65142c\n      eq\n      tag_4\n      jumpi\n      dup1\n      0x4c12fa47\n      eq\n      tag_5\n      jumpi\n      dup1\n      0x6cb3e8ef\n      eq\n      tag_6\n      jumpi\n      jump(tag_2)\n    tag_1:\n      jumpi(tag_2, calldatasize)\n      stop\n    tag_2:\n      0x00\n      dup1\n      revert\n        /* \"contracts/Wallet.sol\":155:173  uint public quorum */\n    tag_3:\n      callvalue\n      dup1\n      iszero\n      tag_14\n      jumpi\n      0x00\n      dup1\n      revert\n    tag_14:\n      pop\n      tag_15\n      tag_16\n      jump\t// in\n    tag_15:\n      mload(0x40)\n      tag_17\n      swap2\n      swap1\n      tag_18\n      jump\t// in\n    tag_17:\n      mload(0x40)\n      dup1\n      swap2\n      sub\n      swap1\n      return\n        /* \"contracts/Wallet.sol\":746:846  function getTransfers() external view returns(Transfer[] memory) {\r... */\n    tag_4:\n      callvalue\n      dup1\n      iszero\n      tag_19\n      jumpi\n      0x00\n      dup1\n      revert\n    tag_19:\n      pop\n      tag_20\n      tag_21\n      jump\t// in\n    tag_20:\n      mload(0x40)\n      tag_22\n      swap2\n      swap1\n      tag_23\n      jump\t// in\n    tag_22:\n      mload(0x40)\n      dup1\n      swap2\n      sub\n      swap1\n      return\n        /* \"contracts/Wallet.sol\":852:1092  function createTransfer(uint amount, address payable to) external onlyApprover() {\r... */\n    tag_5:\n      callvalue\n      dup1\n      iszero\n      tag_24\n      jumpi\n      0x00\n      dup1\n      revert\n    tag_24:\n      pop\n      tag_25\n      0x04\n      dup1\n      calldatasize\n      sub\n      dup2\n      add\n      swap1\n      tag_26\n      swap2\n      swap1\n      tag_27\n      jump\t// in\n    tag_26:\n      tag_28\n      jump\t// in\n    tag_25:\n      stop\n        /* \"contracts/Wallet.sol\":641:740  function getApprovers() external view returns(address[] memory) {\r... */\n    tag_6:\n      callvalue\n      dup1\n      iszero\n      tag_29\n      jumpi\n      0x00\n      dup1\n      revert\n    tag_29:\n      pop\n      tag_30\n      tag_31\n      jump\t// in\n    tag_30:\n      mload(0x40)\n      tag_32\n      swap2\n      swap1\n      tag_33\n      jump\t// in\n    tag_32:\n      mload(0x40)\n      dup1\n      swap2\n      sub\n      swap1\n      return\n        /* \"contracts/Wallet.sol\":324:351  Transfer[] public transfers */\n    tag_7:\n      callvalue\n      dup1\n      iszero\n      tag_34\n      jumpi\n      0x00\n      dup1\n      revert\n    tag_34:\n      pop\n      tag_35\n      0x04\n      dup1\n      calldatasize\n      sub\n      dup2\n      add\n      swap1\n      tag_36\n      swap2\n      swap1\n      tag_37\n      jump\t// in\n    tag_36:\n      tag_38\n      jump\t// in\n    tag_35:\n      mload(0x40)\n      tag_39\n      swap6\n      swap5\n      swap4\n      swap3\n      swap2\n      swap1\n      tag_40\n      jump\t// in\n    tag_39:\n      mload(0x40)\n      dup1\n      swap2\n      sub\n      swap1\n      return\n        /* \"contracts/Wallet.sol\":1360:1907  function approveTransfer(uint id) external onlyApprover() {\r... */\n    tag_8:\n      callvalue\n      dup1\n      iszero\n      tag_41\n      jumpi\n      0x00\n      dup1\n      revert\n    tag_41:\n      pop\n      tag_42\n      0x04\n      dup1\n      calldatasize\n      sub\n      dup2\n      add\n      swap1\n      tag_43\n      swap2\n      swap1\n      tag_37\n      jump\t// in\n    tag_43:\n      tag_44\n      jump\t// in\n    tag_42:\n      stop\n        /* \"contracts/Wallet.sol\":122:148  address[] public approvers */\n    tag_9:\n      callvalue\n      dup1\n      iszero\n      tag_45\n      jumpi\n      0x00\n      dup1\n      revert\n    tag_45:\n      pop\n      tag_46\n      0x04\n      dup1\n      calldatasize\n      sub\n      dup2\n      add\n      swap1\n      tag_47\n      swap2\n      swap1\n      tag_37\n      jump\t// in\n    tag_47:\n      tag_48\n      jump\t// in\n    tag_46:\n      mload(0x40)\n      tag_49\n      swap2\n      swap1\n      tag_50\n      jump\t// in\n    tag_49:\n      mload(0x40)\n      dup1\n      swap2\n      sub\n      swap1\n      return\n        /* \"contracts/Wallet.sol\":358:416  mapping(address => mapping(uint => bool)) public approvals */\n    tag_10:\n      callvalue\n      dup1\n      iszero\n      tag_51\n      jumpi\n      0x00\n      dup1\n      revert\n    tag_51:\n      pop\n      tag_52\n      0x04\n      dup1\n      calldatasize\n      sub\n      dup2\n      add\n      swap1\n      tag_53\n      swap2\n      swap1\n      tag_54\n      jump\t// in\n    tag_53:\n      tag_55\n      jump\t// in\n    tag_52:\n      mload(0x40)\n      tag_56\n      swap2\n      swap1\n      tag_57\n      jump\t// in\n    tag_56:\n      mload(0x40)\n      dup1\n      swap2\n      sub\n      swap1\n      return\n        /* \"contracts/Wallet.sol\":155:173  uint public quorum */\n    tag_16:\n      sload(0x01)\n      dup2\n      jump\t// out\n        /* \"contracts/Wallet.sol\":746:846  function getTransfers() external view returns(Transfer[] memory) {\r... */\n    tag_21:\n        /* \"contracts/Wallet.sol\":792:809  Transfer[] memory */\n      0x60\n        /* \"contracts/Wallet.sol\":829:838  transfers */\n      0x02\n        /* \"contracts/Wallet.sol\":822:838  return transfers */\n      dup1\n      sload\n      dup1\n      0x20\n      mul\n      0x20\n      add\n      mload(0x40)\n      swap1\n      dup2\n      add\n      0x40\n      mstore\n      dup1\n      swap3\n      swap2\n      swap1\n      dup2\n      dup2\n      mstore\n      0x20\n      add\n      0x00\n      swap1\n    tag_59:\n      dup3\n      dup3\n      lt\n      iszero\n      tag_60\n      jumpi\n      dup4\n      dup3\n      swap1\n      0x00\n      mstore\n      keccak256(0x00, 0x20)\n      swap1\n      0x05\n      mul\n      add\n      mload(0x40)\n      dup1\n      0xa0\n      add\n      0x40\n      mstore\n      swap1\n      dup2\n      0x00\n      dup3\n      add\n      sload\n      dup2\n      mstore\n      0x20\n      add\n      0x01\n      dup3\n      add\n      sload\n      dup2\n      mstore\n      0x20\n      add\n      0x02\n      dup3\n      add\n      0x00\n      swap1\n      sload\n      swap1\n      0x0100\n      exp\n      swap1\n      div\n      0xffffffffffffffffffffffffffffffffffffffff\n      and\n      0xffffffffffffffffffffffffffffffffffffffff\n      and\n      0xffffffffffffffffffffffffffffffffffffffff\n      and\n      dup2\n      mstore\n      0x20\n      add\n      0x03\n      dup3\n      add\n      sload\n      dup2\n      mstore\n      0x20\n      add\n      0x04\n      dup3\n      add\n      0x00\n      swap1\n      sload\n      swap1\n      0x0100\n      exp\n      swap1\n      div\n      0xff\n      and\n      iszero\n      iszero\n      iszero\n      iszero\n      dup2\n      mstore\n      pop\n      pop\n      dup2\n      mstore\n      0x20\n      add\n      swap1\n      0x01\n      add\n      swap1\n      jump(tag_59)\n    tag_60:\n      pop\n      pop\n      pop\n      pop\n      swap1\n      pop\n        /* \"contracts/Wallet.sol\":746:846  function getTransfers() external view returns(Transfer[] memory) {\r... */\n      swap1\n      jump\t// out\n        /* \"contracts/Wallet.sol\":852:1092  function createTransfer(uint amount, address payable to) external onlyApprover() {\r... */\n    tag_28:\n        /* \"contracts/Wallet.sol\":1991:2003  bool allowed */\n      0x00\n        /* \"contracts/Wallet.sol\":2026:2032  uint i */\n      dup1\n        /* \"contracts/Wallet.sol\":2022:2166  for(uint i=0; i<approvers.length; i++){\r... */\n    tag_63:\n        /* \"contracts/Wallet.sol\":2038:2047  approvers */\n      0x00\n        /* \"contracts/Wallet.sol\":2038:2054  approvers.length */\n      dup1\n      sload\n      swap1\n      pop\n        /* \"contracts/Wallet.sol\":2036:2037  i */\n      dup2\n        /* \"contracts/Wallet.sol\":2036:2054  i<approvers.length */\n      lt\n        /* \"contracts/Wallet.sol\":2022:2166  for(uint i=0; i<approvers.length; i++){\r... */\n      iszero\n      tag_64\n      jumpi\n        /* \"contracts/Wallet.sol\":2094:2104  msg.sender */\n      caller\n        /* \"contracts/Wallet.sol\":2078:2104  approvers[i] == msg.sender */\n      0xffffffffffffffffffffffffffffffffffffffff\n      and\n        /* \"contracts/Wallet.sol\":2078:2087  approvers */\n      0x00\n        /* \"contracts/Wallet.sol\":2088:2089  i */\n      dup3\n        /* \"contracts/Wallet.sol\":2078:2090  approvers[i] */\n      dup2\n      sload\n      dup2\n      lt\n      tag_66\n      jumpi\n      tag_67\n      tag_68\n      jump\t// in\n    tag_67:\n    tag_66:\n      swap1\n      0x00\n      mstore\n      keccak256(0x00, 0x20)\n      add\n      0x00\n      swap1\n      sload\n      swap1\n      0x0100\n      exp\n      swap1\n      div\n      0xffffffffffffffffffffffffffffffffffffffff\n      and\n        /* \"contracts/Wallet.sol\":2078:2104  approvers[i] == msg.sender */\n      0xffffffffffffffffffffffffffffffffffffffff\n      and\n      eq\n        /* \"contracts/Wallet.sol\":2075:2155  if(approvers[i] == msg.sender) {\r... */\n      iszero\n      tag_70\n      jumpi\n        /* \"contracts/Wallet.sol\":2135:2139  true */\n      0x01\n        /* \"contracts/Wallet.sol\":2125:2139  allowed = true */\n      swap2\n      pop\n        /* \"contracts/Wallet.sol\":2075:2155  if(approvers[i] == msg.sender) {\r... */\n    tag_70:\n        /* \"contracts/Wallet.sol\":2056:2059  i++ */\n      dup1\n      dup1\n      tag_71\n      swap1\n      tag_72\n      jump\t// in\n    tag_71:\n      swap2\n      pop\n      pop\n        /* \"contracts/Wallet.sol\":2022:2166  for(uint i=0; i<approvers.length; i++){\r... */\n      jump(tag_63)\n    tag_64:\n      pop\n        /* \"contracts/Wallet.sol\":2195:2199  true */\n      0x01\n        /* \"contracts/Wallet.sol\":2184:2199  allowed == true */\n      iszero\n      iszero\n        /* \"contracts/Wallet.sol\":2184:2191  allowed */\n      dup2\n        /* \"contracts/Wallet.sol\":2184:2199  allowed == true */\n      iszero\n      iszero\n      eq\n        /* \"contracts/Wallet.sol\":2176:2229  require(allowed == true, \"Only Approver Allowed ..!\") */\n      tag_73\n      jumpi\n      mload(0x40)\n      0x08c379a000000000000000000000000000000000000000000000000000000000\n      dup2\n      mstore\n      0x04\n      add\n      tag_74\n      swap1\n      tag_75\n      jump\t// in\n    tag_74:\n      mload(0x40)\n      dup1\n      swap2\n      sub\n      swap1\n      revert\n    tag_73:\n        /* \"contracts/Wallet.sol\":944:953  transfers */\n      0x02\n        /* \"contracts/Wallet.sol\":959:1083  Transfer(\r... */\n      mload(0x40)\n      dup1\n      0xa0\n      add\n      0x40\n      mstore\n      dup1\n        /* \"contracts/Wallet.sol\":982:991  transfers */\n      0x02\n        /* \"contracts/Wallet.sol\":982:998  transfers.length */\n      dup1\n      sload\n      swap1\n      pop\n        /* \"contracts/Wallet.sol\":959:1083  Transfer(\r... */\n      dup2\n      mstore\n      0x20\n      add\n        /* \"contracts/Wallet.sol\":1013:1019  amount */\n      dup6\n        /* \"contracts/Wallet.sol\":959:1083  Transfer(\r... */\n      dup2\n      mstore\n      0x20\n      add\n        /* \"contracts/Wallet.sol\":1034:1036  to */\n      dup5\n        /* \"contracts/Wallet.sol\":959:1083  Transfer(\r... */\n      0xffffffffffffffffffffffffffffffffffffffff\n      and\n      dup2\n      mstore\n      0x20\n      add\n        /* \"contracts/Wallet.sol\":1051:1052  0 */\n      0x00\n        /* \"contracts/Wallet.sol\":959:1083  Transfer(\r... */\n      dup2\n      mstore\n      0x20\n      add\n        /* \"contracts/Wallet.sol\":1067:1072  false */\n      0x00\n        /* \"contracts/Wallet.sol\":959:1083  Transfer(\r... */\n      iszero\n      iszero\n      dup2\n      mstore\n      pop\n        /* \"contracts/Wallet.sol\":944:1084  transfers.push(Transfer(\r... */\n      swap1\n      dup1\n      0x01\n      dup2\n      sload\n      add\n      dup1\n      dup3\n      sstore\n      dup1\n      swap2\n      pop\n      pop\n      0x01\n      swap1\n      sub\n      swap1\n      0x00\n      mstore\n      keccak256(0x00, 0x20)\n      swap1\n      0x05\n      mul\n      add\n      0x00\n      swap1\n      swap2\n      swap1\n      swap2\n      swap1\n      swap2\n      pop\n      0x00\n      dup3\n      add\n      mload\n      dup2\n      0x00\n      add\n      sstore\n      0x20\n      dup3\n      add\n      mload\n      dup2\n      0x01\n      add\n      sstore\n      0x40\n      dup3\n      add\n      mload\n      dup2\n      0x02\n      add\n      exp(0x0100, 0x00)\n      dup2\n      sload\n      dup2\n      0xffffffffffffffffffffffffffffffffffffffff\n      mul\n      not\n      and\n      swap1\n      dup4\n      0xffffffffffffffffffffffffffffffffffffffff\n      and\n      mul\n      or\n      swap1\n      sstore\n      pop\n      0x60\n      dup3\n      add\n      mload\n      dup2\n      0x03\n      add\n      sstore\n      0x80\n      dup3\n      add\n      mload\n      dup2\n      0x04\n      add\n      exp(0x0100, 0x00)\n      dup2\n      sload\n      dup2\n      0xff\n      mul\n      not\n      and\n      swap1\n      dup4\n      iszero\n      iszero\n      mul\n      or\n      swap1\n      sstore\n      pop\n      pop\n      pop\n        /* \"contracts/Wallet.sol\":1980:2249  {\r... */\n      pop\n        /* \"contracts/Wallet.sol\":852:1092  function createTransfer(uint amount, address payable to) external onlyApprover() {\r... */\n      pop\n      pop\n      jump\t// out\n        /* \"contracts/Wallet.sol\":641:740  function getApprovers() external view returns(address[] memory) {\r... */\n    tag_31:\n        /* \"contracts/Wallet.sol\":687:703  address[] memory */\n      0x60\n        /* \"contracts/Wallet.sol\":723:732  approvers */\n      0x00\n        /* \"contracts/Wallet.sol\":716:732  return approvers */\n      dup1\n      sload\n      dup1\n      0x20\n      mul\n      0x20\n      add\n      mload(0x40)\n      swap1\n      dup2\n      add\n      0x40\n      mstore\n      dup1\n      swap3\n      swap2\n      swap1\n      dup2\n      dup2\n      mstore\n      0x20\n      add\n      dup3\n      dup1\n      sload\n      dup1\n      iszero\n      tag_79\n      jumpi\n      0x20\n      mul\n      dup3\n      add\n      swap2\n      swap1\n      0x00\n      mstore\n      keccak256(0x00, 0x20)\n      swap1\n    tag_80:\n      dup2\n      0x00\n      swap1\n      sload\n      swap1\n      0x0100\n      exp\n      swap1\n      div\n      0xffffffffffffffffffffffffffffffffffffffff\n      and\n      0xffffffffffffffffffffffffffffffffffffffff\n      and\n      dup2\n      mstore\n      0x20\n      add\n      swap1\n      0x01\n      add\n      swap1\n      dup1\n      dup4\n      gt\n      tag_80\n      jumpi\n    tag_79:\n      pop\n      pop\n      pop\n      pop\n      pop\n      swap1\n      pop\n        /* \"contracts/Wallet.sol\":641:740  function getApprovers() external view returns(address[] memory) {\r... */\n      swap1\n      jump\t// out\n        /* \"contracts/Wallet.sol\":324:351  Transfer[] public transfers */\n    tag_38:\n      0x02\n      dup2\n      dup2\n      sload\n      dup2\n      lt\n      tag_81\n      jumpi\n      0x00\n      dup1\n      revert\n    tag_81:\n      swap1\n      0x00\n      mstore\n      keccak256(0x00, 0x20)\n      swap1\n      0x05\n      mul\n      add\n      0x00\n      swap2\n      pop\n      swap1\n      pop\n      dup1\n      0x00\n      add\n      sload\n      swap1\n      dup1\n      0x01\n      add\n      sload\n      swap1\n      dup1\n      0x02\n      add\n      0x00\n      swap1\n      sload\n      swap1\n      0x0100\n      exp\n      swap1\n      div\n      0xffffffffffffffffffffffffffffffffffffffff\n      and\n      swap1\n      dup1\n      0x03\n      add\n      sload\n      swap1\n      dup1\n      0x04\n      add\n      0x00\n      swap1\n      sload\n      swap1\n      0x0100\n      exp\n      swap1\n      div\n      0xff\n      and\n      swap1\n      pop\n      dup6\n      jump\t// out\n        /* \"contracts/Wallet.sol\":1360:1907  function approveTransfer(uint id) external onlyApprover() {\r... */\n    tag_44:\n        /* \"contracts/Wallet.sol\":1991:2003  bool allowed */\n      0x00\n        /* \"contracts/Wallet.sol\":2026:2032  uint i */\n      dup1\n        /* \"contracts/Wallet.sol\":2022:2166  for(uint i=0; i<approvers.length; i++){\r... */\n    tag_84:\n        /* \"contracts/Wallet.sol\":2038:2047  approvers */\n      0x00\n        /* \"contracts/Wallet.sol\":2038:2054  approvers.length */\n      dup1\n      sload\n      swap1\n      pop\n        /* \"contracts/Wallet.sol\":2036:2037  i */\n      dup2\n        /* \"contracts/Wallet.sol\":2036:2054  i<approvers.length */\n      lt\n        /* \"contracts/Wallet.sol\":2022:2166  for(uint i=0; i<approvers.length; i++){\r... */\n      iszero\n      tag_85\n      jumpi\n        /* \"contracts/Wallet.sol\":2094:2104  msg.sender */\n      caller\n        /* \"contracts/Wallet.sol\":2078:2104  approvers[i] == msg.sender */\n      0xffffffffffffffffffffffffffffffffffffffff\n      and\n        /* \"contracts/Wallet.sol\":2078:2087  approvers */\n      0x00\n        /* \"contracts/Wallet.sol\":2088:2089  i */\n      dup3\n        /* \"contracts/Wallet.sol\":2078:2090  approvers[i] */\n      dup2\n      sload\n      dup2\n      lt\n      tag_87\n      jumpi\n      tag_88\n      tag_68\n      jump\t// in\n    tag_88:\n    tag_87:\n      swap1\n      0x00\n      mstore\n      keccak256(0x00, 0x20)\n      add\n      0x00\n      swap1\n      sload\n      swap1\n      0x0100\n      exp\n      swap1\n      div\n      0xffffffffffffffffffffffffffffffffffffffff\n      and\n        /* \"contracts/Wallet.sol\":2078:2104  approvers[i] == msg.sender */\n      0xffffffffffffffffffffffffffffffffffffffff\n      and\n      eq\n        /* \"contracts/Wallet.sol\":2075:2155  if(approvers[i] == msg.sender) {\r... */\n      iszero\n      tag_90\n      jumpi\n        /* \"contracts/Wallet.sol\":2135:2139  true */\n      0x01\n        /* \"contracts/Wallet.sol\":2125:2139  allowed = true */\n      swap2\n      pop\n        /* \"contracts/Wallet.sol\":2075:2155  if(approvers[i] == msg.sender) {\r... */\n    tag_90:\n        /* \"contracts/Wallet.sol\":2056:2059  i++ */\n      dup1\n      dup1\n      tag_91\n      swap1\n      tag_72\n      jump\t// in\n    tag_91:\n      swap2\n      pop\n      pop\n        /* \"contracts/Wallet.sol\":2022:2166  for(uint i=0; i<approvers.length; i++){\r... */\n      jump(tag_84)\n    tag_85:\n      pop\n        /* \"contracts/Wallet.sol\":2195:2199  true */\n      0x01\n        /* \"contracts/Wallet.sol\":2184:2199  allowed == true */\n      iszero\n      iszero\n        /* \"contracts/Wallet.sol\":2184:2191  allowed */\n      dup2\n        /* \"contracts/Wallet.sol\":2184:2199  allowed == true */\n      iszero\n      iszero\n      eq\n        /* \"contracts/Wallet.sol\":2176:2229  require(allowed == true, \"Only Approver Allowed ..!\") */\n      tag_92\n      jumpi\n      mload(0x40)\n      0x08c379a000000000000000000000000000000000000000000000000000000000\n      dup2\n      mstore\n      0x04\n      add\n      tag_93\n      swap1\n      tag_75\n      jump\t// in\n    tag_93:\n      mload(0x40)\n      dup1\n      swap2\n      sub\n      swap1\n      revert\n    tag_92:\n        /* \"contracts/Wallet.sol\":1459:1464  false */\n      0x00\n        /* \"contracts/Wallet.sol\":1437:1464  transfers[id].sent == false */\n      iszero\n      iszero\n        /* \"contracts/Wallet.sol\":1437:1446  transfers */\n      0x02\n        /* \"contracts/Wallet.sol\":1447:1449  id */\n      dup4\n        /* \"contracts/Wallet.sol\":1437:1450  transfers[id] */\n      dup2\n      sload\n      dup2\n      lt\n      tag_95\n      jumpi\n      tag_96\n      tag_68\n      jump\t// in\n    tag_96:\n    tag_95:\n      swap1\n      0x00\n      mstore\n      keccak256(0x00, 0x20)\n      swap1\n      0x05\n      mul\n      add\n        /* \"contracts/Wallet.sol\":1437:1455  transfers[id].sent */\n      0x04\n      add\n      0x00\n      swap1\n      sload\n      swap1\n      0x0100\n      exp\n      swap1\n      div\n      0xff\n      and\n        /* \"contracts/Wallet.sol\":1437:1464  transfers[id].sent == false */\n      iszero\n      iszero\n      eq\n        /* \"contracts/Wallet.sol\":1429:1497  require(transfers[id].sent == false, \"Transaction Already Done !!!\") */\n      tag_98\n      jumpi\n      mload(0x40)\n      0x08c379a000000000000000000000000000000000000000000000000000000000\n      dup2\n      mstore\n      0x04\n      add\n      tag_99\n      swap1\n      tag_100\n      jump\t// in\n    tag_99:\n      mload(0x40)\n      dup1\n      swap2\n      sub\n      swap1\n      revert\n    tag_98:\n        /* \"contracts/Wallet.sol\":1545:1550  false */\n      0x00\n        /* \"contracts/Wallet.sol\":1516:1550  approvals[msg.sender][id] == false */\n      iszero\n      iszero\n        /* \"contracts/Wallet.sol\":1516:1525  approvals */\n      0x03\n        /* \"contracts/Wallet.sol\":1516:1537  approvals[msg.sender] */\n      0x00\n        /* \"contracts/Wallet.sol\":1526:1536  msg.sender */\n      caller\n        /* \"contracts/Wallet.sol\":1516:1537  approvals[msg.sender] */\n      0xffffffffffffffffffffffffffffffffffffffff\n      and\n      0xffffffffffffffffffffffffffffffffffffffff\n      and\n      dup2\n      mstore\n      0x20\n      add\n      swap1\n      dup2\n      mstore\n      0x20\n      add\n      0x00\n      keccak256\n        /* \"contracts/Wallet.sol\":1516:1541  approvals[msg.sender][id] */\n      0x00\n        /* \"contracts/Wallet.sol\":1538:1540  id */\n      dup5\n        /* \"contracts/Wallet.sol\":1516:1541  approvals[msg.sender][id] */\n      dup2\n      mstore\n      0x20\n      add\n      swap1\n      dup2\n      mstore\n      0x20\n      add\n      0x00\n      keccak256\n      0x00\n      swap1\n      sload\n      swap1\n      0x0100\n      exp\n      swap1\n      div\n      0xff\n      and\n        /* \"contracts/Wallet.sol\":1516:1550  approvals[msg.sender][id] == false */\n      iszero\n      iszero\n      eq\n        /* \"contracts/Wallet.sol\":1508:1581  require(approvals[msg.sender][id] == false, \"Cannot Approver Transfer !\") */\n      tag_101\n      jumpi\n      mload(0x40)\n      0x08c379a000000000000000000000000000000000000000000000000000000000\n      dup2\n      mstore\n      0x04\n      add\n      tag_102\n      swap1\n      tag_103\n      jump\t// in\n    tag_102:\n      mload(0x40)\n      dup1\n      swap2\n      sub\n      swap1\n      revert\n    tag_101:\n        /* \"contracts/Wallet.sol\":1622:1626  true */\n      0x01\n        /* \"contracts/Wallet.sol\":1594:1603  approvals */\n      0x03\n        /* \"contracts/Wallet.sol\":1594:1615  approvals[msg.sender] */\n      0x00\n        /* \"contracts/Wallet.sol\":1604:1614  msg.sender */\n      caller\n        /* \"contracts/Wallet.sol\":1594:1615  approvals[msg.sender] */\n      0xffffffffffffffffffffffffffffffffffffffff\n      and\n      0xffffffffffffffffffffffffffffffffffffffff\n      and\n      dup2\n      mstore\n      0x20\n      add\n      swap1\n      dup2\n      mstore\n      0x20\n      add\n      0x00\n      keccak256\n        /* \"contracts/Wallet.sol\":1594:1619  approvals[msg.sender][id] */\n      0x00\n        /* \"contracts/Wallet.sol\":1616:1618  id */\n      dup5\n        /* \"contracts/Wallet.sol\":1594:1619  approvals[msg.sender][id] */\n      dup2\n      mstore\n      0x20\n      add\n      swap1\n      dup2\n      mstore\n      0x20\n      add\n      0x00\n      keccak256\n      0x00\n        /* \"contracts/Wallet.sol\":1594:1626  approvals[msg.sender][id] = true */\n      0x0100\n      exp\n      dup2\n      sload\n      dup2\n      0xff\n      mul\n      not\n      and\n      swap1\n      dup4\n      iszero\n      iszero\n      mul\n      or\n      swap1\n      sstore\n      pop\n        /* \"contracts/Wallet.sol\":1637:1646  transfers */\n      0x02\n        /* \"contracts/Wallet.sol\":1647:1649  id */\n      dup3\n        /* \"contracts/Wallet.sol\":1637:1650  transfers[id] */\n      dup2\n      sload\n      dup2\n      lt\n      tag_104\n      jumpi\n      tag_105\n      tag_68\n      jump\t// in\n    tag_105:\n    tag_104:\n      swap1\n      0x00\n      mstore\n      keccak256(0x00, 0x20)\n      swap1\n      0x05\n      mul\n      add\n        /* \"contracts/Wallet.sol\":1637:1660  transfers[id].approvals */\n      0x03\n      add\n      0x00\n        /* \"contracts/Wallet.sol\":1637:1662  transfers[id].approvals++ */\n      dup2\n      sload\n      dup1\n      swap3\n      swap2\n      swap1\n      tag_107\n      swap1\n      tag_72\n      jump\t// in\n    tag_107:\n      swap2\n      swap1\n      pop\n      sstore\n      pop\n        /* \"contracts/Wallet.sol\":1705:1711  quorum */\n      sload(0x01)\n        /* \"contracts/Wallet.sol\":1678:1687  transfers */\n      0x02\n        /* \"contracts/Wallet.sol\":1688:1690  id */\n      dup4\n        /* \"contracts/Wallet.sol\":1678:1691  transfers[id] */\n      dup2\n      sload\n      dup2\n      lt\n      tag_108\n      jumpi\n      tag_109\n      tag_68\n      jump\t// in\n    tag_109:\n    tag_108:\n      swap1\n      0x00\n      mstore\n      keccak256(0x00, 0x20)\n      swap1\n      0x05\n      mul\n      add\n        /* \"contracts/Wallet.sol\":1678:1701  transfers[id].approvals */\n      0x03\n      add\n      sload\n        /* \"contracts/Wallet.sol\":1678:1711  transfers[id].approvals >= quorum */\n      lt\n        /* \"contracts/Wallet.sol\":1675:1900  if(transfers[id].approvals >= quorum) {\r... */\n      tag_111\n      jumpi\n        /* \"contracts/Wallet.sol\":1749:1753  true */\n      0x01\n        /* \"contracts/Wallet.sol\":1728:1737  transfers */\n      0x02\n        /* \"contracts/Wallet.sol\":1738:1740  id */\n      dup4\n        /* \"contracts/Wallet.sol\":1728:1741  transfers[id] */\n      dup2\n      sload\n      dup2\n      lt\n      tag_112\n      jumpi\n      tag_113\n      tag_68\n      jump\t// in\n    tag_113:\n    tag_112:\n      swap1\n      0x00\n      mstore\n      keccak256(0x00, 0x20)\n      swap1\n      0x05\n      mul\n      add\n        /* \"contracts/Wallet.sol\":1728:1746  transfers[id].sent */\n      0x04\n      add\n      0x00\n        /* \"contracts/Wallet.sol\":1728:1753  transfers[id].sent = true */\n      0x0100\n      exp\n      dup2\n      sload\n      dup2\n      0xff\n      mul\n      not\n      and\n      swap1\n      dup4\n      iszero\n      iszero\n      mul\n      or\n      swap1\n      sstore\n      pop\n        /* \"contracts/Wallet.sol\":1768:1786  address payable to */\n      0x00\n        /* \"contracts/Wallet.sol\":1789:1798  transfers */\n      0x02\n        /* \"contracts/Wallet.sol\":1799:1801  id */\n      dup4\n        /* \"contracts/Wallet.sol\":1789:1802  transfers[id] */\n      dup2\n      sload\n      dup2\n      lt\n      tag_115\n      jumpi\n      tag_116\n      tag_68\n      jump\t// in\n    tag_116:\n    tag_115:\n      swap1\n      0x00\n      mstore\n      keccak256(0x00, 0x20)\n      swap1\n      0x05\n      mul\n      add\n        /* \"contracts/Wallet.sol\":1789:1805  transfers[id].to */\n      0x02\n      add\n      0x00\n      swap1\n      sload\n      swap1\n      0x0100\n      exp\n      swap1\n      div\n      0xffffffffffffffffffffffffffffffffffffffff\n      and\n        /* \"contracts/Wallet.sol\":1768:1805  address payable to = transfers[id].to */\n      swap1\n      pop\n        /* \"contracts/Wallet.sol\":1820:1831  uint amount */\n      0x00\n        /* \"contracts/Wallet.sol\":1834:1843  transfers */\n      0x02\n        /* \"contracts/Wallet.sol\":1844:1846  id */\n      dup5\n        /* \"contracts/Wallet.sol\":1834:1847  transfers[id] */\n      dup2\n      sload\n      dup2\n      lt\n      tag_118\n      jumpi\n      tag_119\n      tag_68\n      jump\t// in\n    tag_119:\n    tag_118:\n      swap1\n      0x00\n      mstore\n      keccak256(0x00, 0x20)\n      swap1\n      0x05\n      mul\n      add\n        /* \"contracts/Wallet.sol\":1834:1854  transfers[id].amount */\n      0x01\n      add\n      sload\n        /* \"contracts/Wallet.sol\":1820:1854  uint amount = transfers[id].amount */\n      swap1\n      pop\n        /* \"contracts/Wallet.sol\":1869:1871  to */\n      dup2\n        /* \"contracts/Wallet.sol\":1869:1880  to.transfer */\n      0xffffffffffffffffffffffffffffffffffffffff\n      and\n        /* \"contracts/Wallet.sol\":1869:1888  to.transfer(amount) */\n      0x08fc\n        /* \"contracts/Wallet.sol\":1881:1887  amount */\n      dup3\n        /* \"contracts/Wallet.sol\":1869:1888  to.transfer(amount) */\n      swap1\n      dup2\n      iszero\n      mul\n      swap1\n      mload(0x40)\n      0x00\n      mload(0x40)\n      dup1\n      dup4\n      sub\n      dup2\n      dup6\n      dup9\n      dup9\n      call\n      swap4\n      pop\n      pop\n      pop\n      pop\n      iszero\n      dup1\n      iszero\n      tag_122\n      jumpi\n      returndatasize\n      0x00\n      dup1\n      returndatacopy\n      revert(0x00, returndatasize)\n    tag_122:\n      pop\n        /* \"contracts/Wallet.sol\":1713:1900  {\r... */\n      pop\n      pop\n        /* \"contracts/Wallet.sol\":1675:1900  if(transfers[id].approvals >= quorum) {\r... */\n    tag_111:\n        /* \"contracts/Wallet.sol\":1980:2249  {\r... */\n      pop\n        /* \"contracts/Wallet.sol\":1360:1907  function approveTransfer(uint id) external onlyApprover() {\r... */\n      pop\n      jump\t// out\n        /* \"contracts/Wallet.sol\":122:148  address[] public approvers */\n    tag_48:\n      0x00\n      dup2\n      dup2\n      sload\n      dup2\n      lt\n      tag_123\n      jumpi\n      0x00\n      dup1\n      revert\n    tag_123:\n      swap1\n      0x00\n      mstore\n      keccak256(0x00, 0x20)\n      add\n      0x00\n      swap2\n      pop\n      sload\n      swap1\n      0x0100\n      exp\n      swap1\n      div\n      0xffffffffffffffffffffffffffffffffffffffff\n      and\n      dup2\n      jump\t// out\n        /* \"contracts/Wallet.sol\":358:416  mapping(address => mapping(uint => bool)) public approvals */\n    tag_55:\n      mstore(0x20, 0x03)\n      dup2\n      0x00\n      mstore\n      mstore(0x20, keccak256(0x00, 0x40))\n      dup1\n      0x00\n      mstore\n      keccak256(0x00, 0x40)\n      0x00\n      swap2\n      pop\n      swap2\n      pop\n      swap1\n      sload\n      swap1\n      0x0100\n      exp\n      swap1\n      div\n      0xff\n      and\n      dup2\n      jump\t// out\n        /* \"#utility.yul\":7:146   */\n    tag_126:\n        /* \"#utility.yul\":53:58   */\n      0x00\n        /* \"#utility.yul\":91:97   */\n      dup2\n        /* \"#utility.yul\":78:98   */\n      calldataload\n        /* \"#utility.yul\":69:98   */\n      swap1\n      pop\n        /* \"#utility.yul\":107:140   */\n      tag_128\n        /* \"#utility.yul\":134:139   */\n      dup2\n        /* \"#utility.yul\":107:140   */\n      tag_129\n      jump\t// in\n    tag_128:\n        /* \"#utility.yul\":7:146   */\n      swap3\n      swap2\n      pop\n      pop\n      jump\t// out\n        /* \"#utility.yul\":152:307   */\n    tag_130:\n        /* \"#utility.yul\":206:211   */\n      0x00\n        /* \"#utility.yul\":244:250   */\n      dup2\n        /* \"#utility.yul\":231:251   */\n      calldataload\n        /* \"#utility.yul\":222:251   */\n      swap1\n      pop\n        /* \"#utility.yul\":260:301   */\n      tag_132\n        /* \"#utility.yul\":295:300   */\n      dup2\n        /* \"#utility.yul\":260:301   */\n      tag_133\n      jump\t// in\n    tag_132:\n        /* \"#utility.yul\":152:307   */\n      swap3\n      swap2\n      pop\n      pop\n      jump\t// out\n        /* \"#utility.yul\":313:452   */\n    tag_134:\n        /* \"#utility.yul\":359:364   */\n      0x00\n        /* \"#utility.yul\":397:403   */\n      dup2\n        /* \"#utility.yul\":384:404   */\n      calldataload\n        /* \"#utility.yul\":375:404   */\n      swap1\n      pop\n        /* \"#utility.yul\":413:446   */\n      tag_136\n        /* \"#utility.yul\":440:445   */\n      dup2\n        /* \"#utility.yul\":413:446   */\n      tag_137\n      jump\t// in\n    tag_136:\n        /* \"#utility.yul\":313:452   */\n      swap3\n      swap2\n      pop\n      pop\n      jump\t// out\n        /* \"#utility.yul\":458:932   */\n    tag_54:\n        /* \"#utility.yul\":526:532   */\n      0x00\n        /* \"#utility.yul\":534:540   */\n      dup1\n        /* \"#utility.yul\":583:585   */\n      0x40\n        /* \"#utility.yul\":571:580   */\n      dup4\n        /* \"#utility.yul\":562:569   */\n      dup6\n        /* \"#utility.yul\":558:581   */\n      sub\n        /* \"#utility.yul\":554:586   */\n      slt\n        /* \"#utility.yul\":551:670   */\n      iszero\n      tag_139\n      jumpi\n        /* \"#utility.yul\":589:668   */\n      tag_140\n      tag_141\n      jump\t// in\n    tag_140:\n        /* \"#utility.yul\":551:670   */\n    tag_139:\n        /* \"#utility.yul\":709:710   */\n      0x00\n        /* \"#utility.yul\":734:787   */\n      tag_142\n        /* \"#utility.yul\":779:786   */\n      dup6\n        /* \"#utility.yul\":770:776   */\n      dup3\n        /* \"#utility.yul\":759:768   */\n      dup7\n        /* \"#utility.yul\":755:777   */\n      add\n        /* \"#utility.yul\":734:787   */\n      tag_126\n      jump\t// in\n    tag_142:\n        /* \"#utility.yul\":724:787   */\n      swap3\n      pop\n        /* \"#utility.yul\":680:797   */\n      pop\n        /* \"#utility.yul\":836:838   */\n      0x20\n        /* \"#utility.yul\":862:915   */\n      tag_143\n        /* \"#utility.yul\":907:914   */\n      dup6\n        /* \"#utility.yul\":898:904   */\n      dup3\n        /* \"#utility.yul\":887:896   */\n      dup7\n        /* \"#utility.yul\":883:905   */\n      add\n        /* \"#utility.yul\":862:915   */\n      tag_134\n      jump\t// in\n    tag_143:\n        /* \"#utility.yul\":852:915   */\n      swap2\n      pop\n        /* \"#utility.yul\":807:925   */\n      pop\n        /* \"#utility.yul\":458:932   */\n      swap3\n      pop\n      swap3\n      swap1\n      pop\n      jump\t// out\n        /* \"#utility.yul\":938:1267   */\n    tag_37:\n        /* \"#utility.yul\":997:1003   */\n      0x00\n        /* \"#utility.yul\":1046:1048   */\n      0x20\n        /* \"#utility.yul\":1034:1043   */\n      dup3\n        /* \"#utility.yul\":1025:1032   */\n      dup5\n        /* \"#utility.yul\":1021:1044   */\n      sub\n        /* \"#utility.yul\":1017:1049   */\n      slt\n        /* \"#utility.yul\":1014:1133   */\n      iszero\n      tag_145\n      jumpi\n        /* \"#utility.yul\":1052:1131   */\n      tag_146\n      tag_141\n      jump\t// in\n    tag_146:\n        /* \"#utility.yul\":1014:1133   */\n    tag_145:\n        /* \"#utility.yul\":1172:1173   */\n      0x00\n        /* \"#utility.yul\":1197:1250   */\n      tag_147\n        /* \"#utility.yul\":1242:1249   */\n      dup5\n        /* \"#utility.yul\":1233:1239   */\n      dup3\n        /* \"#utility.yul\":1222:1231   */\n      dup6\n        /* \"#utility.yul\":1218:1240   */\n      add\n        /* \"#utility.yul\":1197:1250   */\n      tag_134\n      jump\t// in\n    tag_147:\n        /* \"#utility.yul\":1187:1250   */\n      swap2\n      pop\n        /* \"#utility.yul\":1143:1260   */\n      pop\n        /* \"#utility.yul\":938:1267   */\n      swap3\n      swap2\n      pop\n      pop\n      jump\t// out\n        /* \"#utility.yul\":1273:1763   */\n    tag_27:\n        /* \"#utility.yul\":1349:1355   */\n      0x00\n        /* \"#utility.yul\":1357:1363   */\n      dup1\n        /* \"#utility.yul\":1406:1408   */\n      0x40\n        /* \"#utility.yul\":1394:1403   */\n      dup4\n        /* \"#utility.yul\":1385:1392   */\n      dup6\n        /* \"#utility.yul\":1381:1404   */\n      sub\n        /* \"#utility.yul\":1377:1409   */\n      slt\n        /* \"#utility.yul\":1374:1493   */\n      iszero\n      tag_149\n      jumpi\n        /* \"#utility.yul\":1412:1491   */\n      tag_150\n      tag_141\n      jump\t// in\n    tag_150:\n        /* \"#utility.yul\":1374:1493   */\n    tag_149:\n        /* \"#utility.yul\":1532:1533   */\n      0x00\n        /* \"#utility.yul\":1557:1610   */\n      tag_151\n        /* \"#utility.yul\":1602:1609   */\n      dup6\n        /* \"#utility.yul\":1593:1599   */\n      dup3\n        /* \"#utility.yul\":1582:1591   */\n      dup7\n        /* \"#utility.yul\":1578:1600   */\n      add\n        /* \"#utility.yul\":1557:1610   */\n      tag_134\n      jump\t// in\n    tag_151:\n        /* \"#utility.yul\":1547:1610   */\n      swap3\n      pop\n        /* \"#utility.yul\":1503:1620   */\n      pop\n        /* \"#utility.yul\":1659:1661   */\n      0x20\n        /* \"#utility.yul\":1685:1746   */\n      tag_152\n        /* \"#utility.yul\":1738:1745   */\n      dup6\n        /* \"#utility.yul\":1729:1735   */\n      dup3\n        /* \"#utility.yul\":1718:1727   */\n      dup7\n        /* \"#utility.yul\":1714:1736   */\n      add\n        /* \"#utility.yul\":1685:1746   */\n      tag_130\n      jump\t// in\n    tag_152:\n        /* \"#utility.yul\":1675:1746   */\n      swap2\n      pop\n        /* \"#utility.yul\":1630:1756   */\n      pop\n        /* \"#utility.yul\":1273:1763   */\n      swap3\n      pop\n      swap3\n      swap1\n      pop\n      jump\t// out\n        /* \"#utility.yul\":1769:1948   */\n    tag_153:\n        /* \"#utility.yul\":1838:1848   */\n      0x00\n        /* \"#utility.yul\":1859:1905   */\n      tag_155\n        /* \"#utility.yul\":1901:1904   */\n      dup4\n        /* \"#utility.yul\":1893:1899   */\n      dup4\n        /* \"#utility.yul\":1859:1905   */\n      tag_156\n      jump\t// in\n    tag_155:\n        /* \"#utility.yul\":1937:1941   */\n      0x20\n        /* \"#utility.yul\":1932:1935   */\n      dup4\n        /* \"#utility.yul\":1928:1942   */\n      add\n        /* \"#utility.yul\":1914:1942   */\n      swap1\n      pop\n        /* \"#utility.yul\":1769:1948   */\n      swap3\n      swap2\n      pop\n      pop\n      jump\t// out\n        /* \"#utility.yul\":1954:2229   */\n    tag_157:\n        /* \"#utility.yul\":2071:2081   */\n      0x00\n        /* \"#utility.yul\":2092:2186   */\n      tag_159\n        /* \"#utility.yul\":2182:2185   */\n      dup4\n        /* \"#utility.yul\":2174:2180   */\n      dup4\n        /* \"#utility.yul\":2092:2186   */\n      tag_160\n      jump\t// in\n    tag_159:\n        /* \"#utility.yul\":2218:2222   */\n      0xa0\n        /* \"#utility.yul\":2213:2216   */\n      dup4\n        /* \"#utility.yul\":2209:2223   */\n      add\n        /* \"#utility.yul\":2195:2223   */\n      swap1\n      pop\n        /* \"#utility.yul\":1954:2229   */\n      swap3\n      swap2\n      pop\n      pop\n      jump\t// out\n        /* \"#utility.yul\":2235:2367   */\n    tag_161:\n        /* \"#utility.yul\":2328:2360   */\n      tag_163\n        /* \"#utility.yul\":2354:2359   */\n      dup2\n        /* \"#utility.yul\":2328:2360   */\n      tag_164\n      jump\t// in\n    tag_163:\n        /* \"#utility.yul\":2323:2326   */\n      dup3\n        /* \"#utility.yul\":2316:2361   */\n      mstore\n        /* \"#utility.yul\":2235:2367   */\n      pop\n      pop\n      jump\t// out\n        /* \"#utility.yul\":2373:2515   */\n    tag_165:\n        /* \"#utility.yul\":2476:2508   */\n      tag_167\n        /* \"#utility.yul\":2502:2507   */\n      dup2\n        /* \"#utility.yul\":2476:2508   */\n      tag_164\n      jump\t// in\n    tag_167:\n        /* \"#utility.yul\":2471:2474   */\n      dup3\n        /* \"#utility.yul\":2464:2509   */\n      mstore\n        /* \"#utility.yul\":2373:2515   */\n      pop\n      pop\n      jump\t// out\n        /* \"#utility.yul\":2521:2629   */\n    tag_156:\n        /* \"#utility.yul\":2598:2622   */\n      tag_169\n        /* \"#utility.yul\":2616:2621   */\n      dup2\n        /* \"#utility.yul\":2598:2622   */\n      tag_170\n      jump\t// in\n    tag_169:\n        /* \"#utility.yul\":2593:2596   */\n      dup3\n        /* \"#utility.yul\":2586:2623   */\n      mstore\n        /* \"#utility.yul\":2521:2629   */\n      pop\n      pop\n      jump\t// out\n        /* \"#utility.yul\":2635:2753   */\n    tag_171:\n        /* \"#utility.yul\":2722:2746   */\n      tag_173\n        /* \"#utility.yul\":2740:2745   */\n      dup2\n        /* \"#utility.yul\":2722:2746   */\n      tag_170\n      jump\t// in\n    tag_173:\n        /* \"#utility.yul\":2717:2720   */\n      dup3\n        /* \"#utility.yul\":2710:2747   */\n      mstore\n        /* \"#utility.yul\":2635:2753   */\n      pop\n      pop\n      jump\t// out\n        /* \"#utility.yul\":2789:3521   */\n    tag_174:\n        /* \"#utility.yul\":2908:2911   */\n      0x00\n        /* \"#utility.yul\":2937:2991   */\n      tag_176\n        /* \"#utility.yul\":2985:2990   */\n      dup3\n        /* \"#utility.yul\":2937:2991   */\n      tag_177\n      jump\t// in\n    tag_176:\n        /* \"#utility.yul\":3007:3093   */\n      tag_178\n        /* \"#utility.yul\":3086:3092   */\n      dup2\n        /* \"#utility.yul\":3081:3084   */\n      dup6\n        /* \"#utility.yul\":3007:3093   */\n      tag_179\n      jump\t// in\n    tag_178:\n        /* \"#utility.yul\":3000:3093   */\n      swap4\n      pop\n        /* \"#utility.yul\":3117:3173   */\n      tag_180\n        /* \"#utility.yul\":3167:3172   */\n      dup4\n        /* \"#utility.yul\":3117:3173   */\n      tag_181\n      jump\t// in\n    tag_180:\n        /* \"#utility.yul\":3196:3203   */\n      dup1\n        /* \"#utility.yul\":3227:3228   */\n      0x00\n        /* \"#utility.yul\":3212:3496   */\n    tag_182:\n        /* \"#utility.yul\":3237:3243   */\n      dup4\n        /* \"#utility.yul\":3234:3235   */\n      dup2\n        /* \"#utility.yul\":3231:3244   */\n      lt\n        /* \"#utility.yul\":3212:3496   */\n      iszero\n      tag_184\n      jumpi\n        /* \"#utility.yul\":3313:3319   */\n      dup2\n        /* \"#utility.yul\":3307:3320   */\n      mload\n        /* \"#utility.yul\":3340:3403   */\n      tag_185\n        /* \"#utility.yul\":3399:3402   */\n      dup9\n        /* \"#utility.yul\":3384:3397   */\n      dup3\n        /* \"#utility.yul\":3340:3403   */\n      tag_153\n      jump\t// in\n    tag_185:\n        /* \"#utility.yul\":3333:3403   */\n      swap8\n      pop\n        /* \"#utility.yul\":3426:3486   */\n      tag_186\n        /* \"#utility.yul\":3479:3485   */\n      dup4\n        /* \"#utility.yul\":3426:3486   */\n      tag_187\n      jump\t// in\n    tag_186:\n        /* \"#utility.yul\":3416:3486   */\n      swap3\n      pop\n        /* \"#utility.yul\":3272:3496   */\n      pop\n        /* \"#utility.yul\":3259:3260   */\n      0x01\n        /* \"#utility.yul\":3256:3257   */\n      dup2\n        /* \"#utility.yul\":3252:3261   */\n      add\n        /* \"#utility.yul\":3247:3261   */\n      swap1\n      pop\n        /* \"#utility.yul\":3212:3496   */\n      jump(tag_182)\n    tag_184:\n        /* \"#utility.yul\":3216:3230   */\n      pop\n        /* \"#utility.yul\":3512:3515   */\n      dup6\n        /* \"#utility.yul\":3505:3515   */\n      swap4\n      pop\n        /* \"#utility.yul\":2913:3521   */\n      pop\n      pop\n      pop\n        /* \"#utility.yul\":2789:3521   */\n      swap3\n      swap2\n      pop\n      pop\n      jump\t// out\n        /* \"#utility.yul\":3587:4511   */\n    tag_188:\n        /* \"#utility.yul\":3754:3757   */\n      0x00\n        /* \"#utility.yul\":3783:3861   */\n      tag_190\n        /* \"#utility.yul\":3855:3860   */\n      dup3\n        /* \"#utility.yul\":3783:3861   */\n      tag_191\n      jump\t// in\n    tag_190:\n        /* \"#utility.yul\":3877:3987   */\n      tag_192\n        /* \"#utility.yul\":3980:3986   */\n      dup2\n        /* \"#utility.yul\":3975:3978   */\n      dup6\n        /* \"#utility.yul\":3877:3987   */\n      tag_193\n      jump\t// in\n    tag_192:\n        /* \"#utility.yul\":3870:3987   */\n      swap4\n      pop\n        /* \"#utility.yul\":4011:4091   */\n      tag_194\n        /* \"#utility.yul\":4085:4090   */\n      dup4\n        /* \"#utility.yul\":4011:4091   */\n      tag_195\n      jump\t// in\n    tag_194:\n        /* \"#utility.yul\":4114:4121   */\n      dup1\n        /* \"#utility.yul\":4145:4146   */\n      0x00\n        /* \"#utility.yul\":4130:4486   */\n    tag_196:\n        /* \"#utility.yul\":4155:4161   */\n      dup4\n        /* \"#utility.yul\":4152:4153   */\n      dup2\n        /* \"#utility.yul\":4149:4162   */\n      lt\n        /* \"#utility.yul\":4130:4486   */\n      iszero\n      tag_198\n      jumpi\n        /* \"#utility.yul\":4231:4237   */\n      dup2\n        /* \"#utility.yul\":4225:4238   */\n      mload\n        /* \"#utility.yul\":4258:4369   */\n      tag_199\n        /* \"#utility.yul\":4365:4368   */\n      dup9\n        /* \"#utility.yul\":4350:4363   */\n      dup3\n        /* \"#utility.yul\":4258:4369   */\n      tag_157\n      jump\t// in\n    tag_199:\n        /* \"#utility.yul\":4251:4369   */\n      swap8\n      pop\n        /* \"#utility.yul\":4392:4476   */\n      tag_200\n        /* \"#utility.yul\":4469:4475   */\n      dup4\n        /* \"#utility.yul\":4392:4476   */\n      tag_201\n      jump\t// in\n    tag_200:\n        /* \"#utility.yul\":4382:4476   */\n      swap3\n      pop\n        /* \"#utility.yul\":4190:4486   */\n      pop\n        /* \"#utility.yul\":4177:4178   */\n      0x01\n        /* \"#utility.yul\":4174:4175   */\n      dup2\n        /* \"#utility.yul\":4170:4179   */\n      add\n        /* \"#utility.yul\":4165:4179   */\n      swap1\n      pop\n        /* \"#utility.yul\":4130:4486   */\n      jump(tag_196)\n    tag_198:\n        /* \"#utility.yul\":4134:4148   */\n      pop\n        /* \"#utility.yul\":4502:4505   */\n      dup6\n        /* \"#utility.yul\":4495:4505   */\n      swap4\n      pop\n        /* \"#utility.yul\":3759:4511   */\n      pop\n      pop\n      pop\n        /* \"#utility.yul\":3587:4511   */\n      swap3\n      swap2\n      pop\n      pop\n      jump\t// out\n        /* \"#utility.yul\":4517:4616   */\n    tag_202:\n        /* \"#utility.yul\":4588:4609   */\n      tag_204\n        /* \"#utility.yul\":4603:4608   */\n      dup2\n        /* \"#utility.yul\":4588:4609   */\n      tag_205\n      jump\t// in\n    tag_204:\n        /* \"#utility.yul\":4583:4586   */\n      dup3\n        /* \"#utility.yul\":4576:4610   */\n      mstore\n        /* \"#utility.yul\":4517:4616   */\n      pop\n      pop\n      jump\t// out\n        /* \"#utility.yul\":4622:4731   */\n    tag_206:\n        /* \"#utility.yul\":4703:4724   */\n      tag_208\n        /* \"#utility.yul\":4718:4723   */\n      dup2\n        /* \"#utility.yul\":4703:4724   */\n      tag_205\n      jump\t// in\n    tag_208:\n        /* \"#utility.yul\":4698:4701   */\n      dup3\n        /* \"#utility.yul\":4691:4725   */\n      mstore\n        /* \"#utility.yul\":4622:4731   */\n      pop\n      pop\n      jump\t// out\n        /* \"#utility.yul\":4737:5103   */\n    tag_209:\n        /* \"#utility.yul\":4879:4882   */\n      0x00\n        /* \"#utility.yul\":4900:4967   */\n      tag_211\n        /* \"#utility.yul\":4964:4966   */\n      0x19\n        /* \"#utility.yul\":4959:4962   */\n      dup4\n        /* \"#utility.yul\":4900:4967   */\n      tag_212\n      jump\t// in\n    tag_211:\n        /* \"#utility.yul\":4893:4967   */\n      swap2\n      pop\n        /* \"#utility.yul\":4976:5069   */\n      tag_213\n        /* \"#utility.yul\":5065:5068   */\n      dup3\n        /* \"#utility.yul\":4976:5069   */\n      tag_214\n      jump\t// in\n    tag_213:\n        /* \"#utility.yul\":5094:5096   */\n      0x20\n        /* \"#utility.yul\":5089:5092   */\n      dup3\n        /* \"#utility.yul\":5085:5097   */\n      add\n        /* \"#utility.yul\":5078:5097   */\n      swap1\n      pop\n        /* \"#utility.yul\":4737:5103   */\n      swap2\n      swap1\n      pop\n      jump\t// out\n        /* \"#utility.yul\":5109:5475   */\n    tag_215:\n        /* \"#utility.yul\":5251:5254   */\n      0x00\n        /* \"#utility.yul\":5272:5339   */\n      tag_217\n        /* \"#utility.yul\":5336:5338   */\n      0x1a\n        /* \"#utility.yul\":5331:5334   */\n      dup4\n        /* \"#utility.yul\":5272:5339   */\n      tag_212\n      jump\t// in\n    tag_217:\n        /* \"#utility.yul\":5265:5339   */\n      swap2\n      pop\n        /* \"#utility.yul\":5348:5441   */\n      tag_218\n        /* \"#utility.yul\":5437:5440   */\n      dup3\n        /* \"#utility.yul\":5348:5441   */\n      tag_219\n      jump\t// in\n    tag_218:\n        /* \"#utility.yul\":5466:5468   */\n      0x20\n        /* \"#utility.yul\":5461:5464   */\n      dup3\n        /* \"#utility.yul\":5457:5469   */\n      add\n        /* \"#utility.yul\":5450:5469   */\n      swap1\n      pop\n        /* \"#utility.yul\":5109:5475   */\n      swap2\n      swap1\n      pop\n      jump\t// out\n        /* \"#utility.yul\":5481:5847   */\n    tag_220:\n        /* \"#utility.yul\":5623:5626   */\n      0x00\n        /* \"#utility.yul\":5644:5711   */\n      tag_222\n        /* \"#utility.yul\":5708:5710   */\n      0x1c\n        /* \"#utility.yul\":5703:5706   */\n      dup4\n        /* \"#utility.yul\":5644:5711   */\n      tag_212\n      jump\t// in\n    tag_222:\n        /* \"#utility.yul\":5637:5711   */\n      swap2\n      pop\n        /* \"#utility.yul\":5720:5813   */\n      tag_223\n        /* \"#utility.yul\":5809:5812   */\n      dup3\n        /* \"#utility.yul\":5720:5813   */\n      tag_224\n      jump\t// in\n    tag_223:\n        /* \"#utility.yul\":5838:5840   */\n      0x20\n        /* \"#utility.yul\":5833:5836   */\n      dup3\n        /* \"#utility.yul\":5829:5841   */\n      add\n        /* \"#utility.yul\":5822:5841   */\n      swap1\n      pop\n        /* \"#utility.yul\":5481:5847   */\n      swap2\n      swap1\n      pop\n      jump\t// out\n        /* \"#utility.yul\":5909:6939   */\n    tag_160:\n        /* \"#utility.yul\":6044:6048   */\n      0xa0\n        /* \"#utility.yul\":6039:6042   */\n      dup3\n        /* \"#utility.yul\":6035:6049   */\n      add\n        /* \"#utility.yul\":6129:6133   */\n      0x00\n        /* \"#utility.yul\":6122:6127   */\n      dup3\n        /* \"#utility.yul\":6118:6134   */\n      add\n        /* \"#utility.yul\":6112:6135   */\n      mload\n        /* \"#utility.yul\":6148:6211   */\n      tag_226\n        /* \"#utility.yul\":6205:6209   */\n      0x00\n        /* \"#utility.yul\":6200:6203   */\n      dup6\n        /* \"#utility.yul\":6196:6210   */\n      add\n        /* \"#utility.yul\":6182:6194   */\n      dup3\n        /* \"#utility.yul\":6148:6211   */\n      tag_227\n      jump\t// in\n    tag_226:\n        /* \"#utility.yul\":6059:6221   */\n      pop\n        /* \"#utility.yul\":6305:6309   */\n      0x20\n        /* \"#utility.yul\":6298:6303   */\n      dup3\n        /* \"#utility.yul\":6294:6310   */\n      add\n        /* \"#utility.yul\":6288:6311   */\n      mload\n        /* \"#utility.yul\":6324:6387   */\n      tag_228\n        /* \"#utility.yul\":6381:6385   */\n      0x20\n        /* \"#utility.yul\":6376:6379   */\n      dup6\n        /* \"#utility.yul\":6372:6386   */\n      add\n        /* \"#utility.yul\":6358:6370   */\n      dup3\n        /* \"#utility.yul\":6324:6387   */\n      tag_227\n      jump\t// in\n    tag_228:\n        /* \"#utility.yul\":6231:6397   */\n      pop\n        /* \"#utility.yul\":6477:6481   */\n      0x40\n        /* \"#utility.yul\":6470:6475   */\n      dup3\n        /* \"#utility.yul\":6466:6482   */\n      add\n        /* \"#utility.yul\":6460:6483   */\n      mload\n        /* \"#utility.yul\":6496:6575   */\n      tag_229\n        /* \"#utility.yul\":6569:6573   */\n      0x40\n        /* \"#utility.yul\":6564:6567   */\n      dup6\n        /* \"#utility.yul\":6560:6574   */\n      add\n        /* \"#utility.yul\":6546:6558   */\n      dup3\n        /* \"#utility.yul\":6496:6575   */\n      tag_161\n      jump\t// in\n    tag_229:\n        /* \"#utility.yul\":6407:6585   */\n      pop\n        /* \"#utility.yul\":6672:6676   */\n      0x60\n        /* \"#utility.yul\":6665:6670   */\n      dup3\n        /* \"#utility.yul\":6661:6677   */\n      add\n        /* \"#utility.yul\":6655:6678   */\n      mload\n        /* \"#utility.yul\":6691:6754   */\n      tag_230\n        /* \"#utility.yul\":6748:6752   */\n      0x60\n        /* \"#utility.yul\":6743:6746   */\n      dup6\n        /* \"#utility.yul\":6739:6753   */\n      add\n        /* \"#utility.yul\":6725:6737   */\n      dup3\n        /* \"#utility.yul\":6691:6754   */\n      tag_227\n      jump\t// in\n    tag_230:\n        /* \"#utility.yul\":6595:6764   */\n      pop\n        /* \"#utility.yul\":6846:6850   */\n      0x80\n        /* \"#utility.yul\":6839:6844   */\n      dup3\n        /* \"#utility.yul\":6835:6851   */\n      add\n        /* \"#utility.yul\":6829:6852   */\n      mload\n        /* \"#utility.yul\":6865:6922   */\n      tag_231\n        /* \"#utility.yul\":6916:6920   */\n      0x80\n        /* \"#utility.yul\":6911:6914   */\n      dup6\n        /* \"#utility.yul\":6907:6921   */\n      add\n        /* \"#utility.yul\":6893:6905   */\n      dup3\n        /* \"#utility.yul\":6865:6922   */\n      tag_202\n      jump\t// in\n    tag_231:\n        /* \"#utility.yul\":6774:6932   */\n      pop\n        /* \"#utility.yul\":6013:6939   */\n      pop\n        /* \"#utility.yul\":5909:6939   */\n      pop\n      pop\n      jump\t// out\n        /* \"#utility.yul\":6945:7053   */\n    tag_227:\n        /* \"#utility.yul\":7022:7046   */\n      tag_233\n        /* \"#utility.yul\":7040:7045   */\n      dup2\n        /* \"#utility.yul\":7022:7046   */\n      tag_234\n      jump\t// in\n    tag_233:\n        /* \"#utility.yul\":7017:7020   */\n      dup3\n        /* \"#utility.yul\":7010:7047   */\n      mstore\n        /* \"#utility.yul\":6945:7053   */\n      pop\n      pop\n      jump\t// out\n        /* \"#utility.yul\":7059:7177   */\n    tag_235:\n        /* \"#utility.yul\":7146:7170   */\n      tag_237\n        /* \"#utility.yul\":7164:7169   */\n      dup2\n        /* \"#utility.yul\":7146:7170   */\n      tag_234\n      jump\t// in\n    tag_237:\n        /* \"#utility.yul\":7141:7144   */\n      dup3\n        /* \"#utility.yul\":7134:7171   */\n      mstore\n        /* \"#utility.yul\":7059:7177   */\n      pop\n      pop\n      jump\t// out\n        /* \"#utility.yul\":7183:7405   */\n    tag_50:\n        /* \"#utility.yul\":7276:7280   */\n      0x00\n        /* \"#utility.yul\":7314:7316   */\n      0x20\n        /* \"#utility.yul\":7303:7312   */\n      dup3\n        /* \"#utility.yul\":7299:7317   */\n      add\n        /* \"#utility.yul\":7291:7317   */\n      swap1\n      pop\n        /* \"#utility.yul\":7327:7398   */\n      tag_239\n        /* \"#utility.yul\":7395:7396   */\n      0x00\n        /* \"#utility.yul\":7384:7393   */\n      dup4\n        /* \"#utility.yul\":7380:7397   */\n      add\n        /* \"#utility.yul\":7371:7377   */\n      dup5\n        /* \"#utility.yul\":7327:7398   */\n      tag_171\n      jump\t// in\n    tag_239:\n        /* \"#utility.yul\":7183:7405   */\n      swap3\n      swap2\n      pop\n      pop\n      jump\t// out\n        /* \"#utility.yul\":7411:7784   */\n    tag_33:\n        /* \"#utility.yul\":7554:7558   */\n      0x00\n        /* \"#utility.yul\":7592:7594   */\n      0x20\n        /* \"#utility.yul\":7581:7590   */\n      dup3\n        /* \"#utility.yul\":7577:7595   */\n      add\n        /* \"#utility.yul\":7569:7595   */\n      swap1\n      pop\n        /* \"#utility.yul\":7641:7650   */\n      dup2\n        /* \"#utility.yul\":7635:7639   */\n      dup2\n        /* \"#utility.yul\":7631:7651   */\n      sub\n        /* \"#utility.yul\":7627:7628   */\n      0x00\n        /* \"#utility.yul\":7616:7625   */\n      dup4\n        /* \"#utility.yul\":7612:7629   */\n      add\n        /* \"#utility.yul\":7605:7652   */\n      mstore\n        /* \"#utility.yul\":7669:7777   */\n      tag_241\n        /* \"#utility.yul\":7772:7776   */\n      dup2\n        /* \"#utility.yul\":7763:7769   */\n      dup5\n        /* \"#utility.yul\":7669:7777   */\n      tag_174\n      jump\t// in\n    tag_241:\n        /* \"#utility.yul\":7661:7777   */\n      swap1\n      pop\n        /* \"#utility.yul\":7411:7784   */\n      swap3\n      swap2\n      pop\n      pop\n      jump\t// out\n        /* \"#utility.yul\":7790:8259   */\n    tag_23:\n        /* \"#utility.yul\":7981:7985   */\n      0x00\n        /* \"#utility.yul\":8019:8021   */\n      0x20\n        /* \"#utility.yul\":8008:8017   */\n      dup3\n        /* \"#utility.yul\":8004:8022   */\n      add\n        /* \"#utility.yul\":7996:8022   */\n      swap1\n      pop\n        /* \"#utility.yul\":8068:8077   */\n      dup2\n        /* \"#utility.yul\":8062:8066   */\n      dup2\n        /* \"#utility.yul\":8058:8078   */\n      sub\n        /* \"#utility.yul\":8054:8055   */\n      0x00\n        /* \"#utility.yul\":8043:8052   */\n      dup4\n        /* \"#utility.yul\":8039:8056   */\n      add\n        /* \"#utility.yul\":8032:8079   */\n      mstore\n        /* \"#utility.yul\":8096:8252   */\n      tag_243\n        /* \"#utility.yul\":8247:8251   */\n      dup2\n        /* \"#utility.yul\":8238:8244   */\n      dup5\n        /* \"#utility.yul\":8096:8252   */\n      tag_188\n      jump\t// in\n    tag_243:\n        /* \"#utility.yul\":8088:8252   */\n      swap1\n      pop\n        /* \"#utility.yul\":7790:8259   */\n      swap3\n      swap2\n      pop\n      pop\n      jump\t// out\n        /* \"#utility.yul\":8265:8475   */\n    tag_57:\n        /* \"#utility.yul\":8352:8356   */\n      0x00\n        /* \"#utility.yul\":8390:8392   */\n      0x20\n        /* \"#utility.yul\":8379:8388   */\n      dup3\n        /* \"#utility.yul\":8375:8393   */\n      add\n        /* \"#utility.yul\":8367:8393   */\n      swap1\n      pop\n        /* \"#utility.yul\":8403:8468   */\n      tag_245\n        /* \"#utility.yul\":8465:8466   */\n      0x00\n        /* \"#utility.yul\":8454:8463   */\n      dup4\n        /* \"#utility.yul\":8450:8467   */\n      add\n        /* \"#utility.yul\":8441:8447   */\n      dup5\n        /* \"#utility.yul\":8403:8468   */\n      tag_206\n      jump\t// in\n    tag_245:\n        /* \"#utility.yul\":8265:8475   */\n      swap3\n      swap2\n      pop\n      pop\n      jump\t// out\n        /* \"#utility.yul\":8481:8900   */\n    tag_75:\n        /* \"#utility.yul\":8647:8651   */\n      0x00\n        /* \"#utility.yul\":8685:8687   */\n      0x20\n        /* \"#utility.yul\":8674:8683   */\n      dup3\n        /* \"#utility.yul\":8670:8688   */\n      add\n        /* \"#utility.yul\":8662:8688   */\n      swap1\n      pop\n        /* \"#utility.yul\":8734:8743   */\n      dup2\n        /* \"#utility.yul\":8728:8732   */\n      dup2\n        /* \"#utility.yul\":8724:8744   */\n      sub\n        /* \"#utility.yul\":8720:8721   */\n      0x00\n        /* \"#utility.yul\":8709:8718   */\n      dup4\n        /* \"#utility.yul\":8705:8722   */\n      add\n        /* \"#utility.yul\":8698:8745   */\n      mstore\n        /* \"#utility.yul\":8762:8893   */\n      tag_247\n        /* \"#utility.yul\":8888:8892   */\n      dup2\n        /* \"#utility.yul\":8762:8893   */\n      tag_209\n      jump\t// in\n    tag_247:\n        /* \"#utility.yul\":8754:8893   */\n      swap1\n      pop\n        /* \"#utility.yul\":8481:8900   */\n      swap2\n      swap1\n      pop\n      jump\t// out\n        /* \"#utility.yul\":8906:9325   */\n    tag_103:\n        /* \"#utility.yul\":9072:9076   */\n      0x00\n        /* \"#utility.yul\":9110:9112   */\n      0x20\n        /* \"#utility.yul\":9099:9108   */\n      dup3\n        /* \"#utility.yul\":9095:9113   */\n      add\n        /* \"#utility.yul\":9087:9113   */\n      swap1\n      pop\n        /* \"#utility.yul\":9159:9168   */\n      dup2\n        /* \"#utility.yul\":9153:9157   */\n      dup2\n        /* \"#utility.yul\":9149:9169   */\n      sub\n        /* \"#utility.yul\":9145:9146   */\n      0x00\n        /* \"#utility.yul\":9134:9143   */\n      dup4\n        /* \"#utility.yul\":9130:9147   */\n      add\n        /* \"#utility.yul\":9123:9170   */\n      mstore\n        /* \"#utility.yul\":9187:9318   */\n      tag_249\n        /* \"#utility.yul\":9313:9317   */\n      dup2\n        /* \"#utility.yul\":9187:9318   */\n      tag_215\n      jump\t// in\n    tag_249:\n        /* \"#utility.yul\":9179:9318   */\n      swap1\n      pop\n        /* \"#utility.yul\":8906:9325   */\n      swap2\n      swap1\n      pop\n      jump\t// out\n        /* \"#utility.yul\":9331:9750   */\n    tag_100:\n        /* \"#utility.yul\":9497:9501   */\n      0x00\n        /* \"#utility.yul\":9535:9537   */\n      0x20\n        /* \"#utility.yul\":9524:9533   */\n      dup3\n        /* \"#utility.yul\":9520:9538   */\n      add\n        /* \"#utility.yul\":9512:9538   */\n      swap1\n      pop\n        /* \"#utility.yul\":9584:9593   */\n      dup2\n        /* \"#utility.yul\":9578:9582   */\n      dup2\n        /* \"#utility.yul\":9574:9594   */\n      sub\n        /* \"#utility.yul\":9570:9571   */\n      0x00\n        /* \"#utility.yul\":9559:9568   */\n      dup4\n        /* \"#utility.yul\":9555:9572   */\n      add\n        /* \"#utility.yul\":9548:9595   */\n      mstore\n        /* \"#utility.yul\":9612:9743   */\n      tag_251\n        /* \"#utility.yul\":9738:9742   */\n      dup2\n        /* \"#utility.yul\":9612:9743   */\n      tag_220\n      jump\t// in\n    tag_251:\n        /* \"#utility.yul\":9604:9743   */\n      swap1\n      pop\n        /* \"#utility.yul\":9331:9750   */\n      swap2\n      swap1\n      pop\n      jump\t// out\n        /* \"#utility.yul\":9756:9978   */\n    tag_18:\n        /* \"#utility.yul\":9849:9853   */\n      0x00\n        /* \"#utility.yul\":9887:9889   */\n      0x20\n        /* \"#utility.yul\":9876:9885   */\n      dup3\n        /* \"#utility.yul\":9872:9890   */\n      add\n        /* \"#utility.yul\":9864:9890   */\n      swap1\n      pop\n        /* \"#utility.yul\":9900:9971   */\n      tag_253\n        /* \"#utility.yul\":9968:9969   */\n      0x00\n        /* \"#utility.yul\":9957:9966   */\n      dup4\n        /* \"#utility.yul\":9953:9970   */\n      add\n        /* \"#utility.yul\":9944:9950   */\n      dup5\n        /* \"#utility.yul\":9900:9971   */\n      tag_235\n      jump\t// in\n    tag_253:\n        /* \"#utility.yul\":9756:9978   */\n      swap3\n      swap2\n      pop\n      pop\n      jump\t// out\n        /* \"#utility.yul\":9984:10668   */\n    tag_40:\n        /* \"#utility.yul\":10199:10203   */\n      0x00\n        /* \"#utility.yul\":10237:10240   */\n      0xa0\n        /* \"#utility.yul\":10226:10235   */\n      dup3\n        /* \"#utility.yul\":10222:10241   */\n      add\n        /* \"#utility.yul\":10214:10241   */\n      swap1\n      pop\n        /* \"#utility.yul\":10251:10322   */\n      tag_255\n        /* \"#utility.yul\":10319:10320   */\n      0x00\n        /* \"#utility.yul\":10308:10317   */\n      dup4\n        /* \"#utility.yul\":10304:10321   */\n      add\n        /* \"#utility.yul\":10295:10301   */\n      dup9\n        /* \"#utility.yul\":10251:10322   */\n      tag_235\n      jump\t// in\n    tag_255:\n        /* \"#utility.yul\":10332:10404   */\n      tag_256\n        /* \"#utility.yul\":10400:10402   */\n      0x20\n        /* \"#utility.yul\":10389:10398   */\n      dup4\n        /* \"#utility.yul\":10385:10403   */\n      add\n        /* \"#utility.yul\":10376:10382   */\n      dup8\n        /* \"#utility.yul\":10332:10404   */\n      tag_235\n      jump\t// in\n    tag_256:\n        /* \"#utility.yul\":10414:10502   */\n      tag_257\n        /* \"#utility.yul\":10498:10500   */\n      0x40\n        /* \"#utility.yul\":10487:10496   */\n      dup4\n        /* \"#utility.yul\":10483:10501   */\n      add\n        /* \"#utility.yul\":10474:10480   */\n      dup7\n        /* \"#utility.yul\":10414:10502   */\n      tag_165\n      jump\t// in\n    tag_257:\n        /* \"#utility.yul\":10512:10584   */\n      tag_258\n        /* \"#utility.yul\":10580:10582   */\n      0x60\n        /* \"#utility.yul\":10569:10578   */\n      dup4\n        /* \"#utility.yul\":10565:10583   */\n      add\n        /* \"#utility.yul\":10556:10562   */\n      dup6\n        /* \"#utility.yul\":10512:10584   */\n      tag_235\n      jump\t// in\n    tag_258:\n        /* \"#utility.yul\":10594:10661   */\n      tag_259\n        /* \"#utility.yul\":10656:10659   */\n      0x80\n        /* \"#utility.yul\":10645:10654   */\n      dup4\n        /* \"#utility.yul\":10641:10660   */\n      add\n        /* \"#utility.yul\":10632:10638   */\n      dup5\n        /* \"#utility.yul\":10594:10661   */\n      tag_206\n      jump\t// in\n    tag_259:\n        /* \"#utility.yul\":9984:10668   */\n      swap7\n      swap6\n      pop\n      pop\n      pop\n      pop\n      pop\n      pop\n      jump\t// out\n        /* \"#utility.yul\":10755:10887   */\n    tag_181:\n        /* \"#utility.yul\":10822:10826   */\n      0x00\n        /* \"#utility.yul\":10845:10848   */\n      dup2\n        /* \"#utility.yul\":10837:10848   */\n      swap1\n      pop\n        /* \"#utility.yul\":10875:10879   */\n      0x20\n        /* \"#utility.yul\":10870:10873   */\n      dup3\n        /* \"#utility.yul\":10866:10880   */\n      add\n        /* \"#utility.yul\":10858:10880   */\n      swap1\n      pop\n        /* \"#utility.yul\":10755:10887   */\n      swap2\n      swap1\n      pop\n      jump\t// out\n        /* \"#utility.yul\":10893:11049   */\n    tag_195:\n        /* \"#utility.yul\":10984:10988   */\n      0x00\n        /* \"#utility.yul\":11007:11010   */\n      dup2\n        /* \"#utility.yul\":10999:11010   */\n      swap1\n      pop\n        /* \"#utility.yul\":11037:11041   */\n      0x20\n        /* \"#utility.yul\":11032:11035   */\n      dup3\n        /* \"#utility.yul\":11028:11042   */\n      add\n        /* \"#utility.yul\":11020:11042   */\n      swap1\n      pop\n        /* \"#utility.yul\":10893:11049   */\n      swap2\n      swap1\n      pop\n      jump\t// out\n        /* \"#utility.yul\":11055:11169   */\n    tag_177:\n        /* \"#utility.yul\":11122:11128   */\n      0x00\n        /* \"#utility.yul\":11156:11161   */\n      dup2\n        /* \"#utility.yul\":11150:11162   */\n      mload\n        /* \"#utility.yul\":11140:11162   */\n      swap1\n      pop\n        /* \"#utility.yul\":11055:11169   */\n      swap2\n      swap1\n      pop\n      jump\t// out\n        /* \"#utility.yul\":11175:11313   */\n    tag_191:\n        /* \"#utility.yul\":11266:11272   */\n      0x00\n        /* \"#utility.yul\":11300:11305   */\n      dup2\n        /* \"#utility.yul\":11294:11306   */\n      mload\n        /* \"#utility.yul\":11284:11306   */\n      swap1\n      pop\n        /* \"#utility.yul\":11175:11313   */\n      swap2\n      swap1\n      pop\n      jump\t// out\n        /* \"#utility.yul\":11319:11432   */\n    tag_187:\n        /* \"#utility.yul\":11389:11393   */\n      0x00\n        /* \"#utility.yul\":11421:11425   */\n      0x20\n        /* \"#utility.yul\":11416:11419   */\n      dup3\n        /* \"#utility.yul\":11412:11426   */\n      add\n        /* \"#utility.yul\":11404:11426   */\n      swap1\n      pop\n        /* \"#utility.yul\":11319:11432   */\n      swap2\n      swap1\n      pop\n      jump\t// out\n        /* \"#utility.yul\":11438:11575   */\n    tag_201:\n        /* \"#utility.yul\":11532:11536   */\n      0x00\n        /* \"#utility.yul\":11564:11568   */\n      0x20\n        /* \"#utility.yul\":11559:11562   */\n      dup3\n        /* \"#utility.yul\":11555:11569   */\n      add\n        /* \"#utility.yul\":11547:11569   */\n      swap1\n      pop\n        /* \"#utility.yul\":11438:11575   */\n      swap2\n      swap1\n      pop\n      jump\t// out\n        /* \"#utility.yul\":11581:11765   */\n    tag_179:\n        /* \"#utility.yul\":11680:11691   */\n      0x00\n        /* \"#utility.yul\":11714:11720   */\n      dup3\n        /* \"#utility.yul\":11709:11712   */\n      dup3\n        /* \"#utility.yul\":11702:11721   */\n      mstore\n        /* \"#utility.yul\":11754:11758   */\n      0x20\n        /* \"#utility.yul\":11749:11752   */\n      dup3\n        /* \"#utility.yul\":11745:11759   */\n      add\n        /* \"#utility.yul\":11730:11759   */\n      swap1\n      pop\n        /* \"#utility.yul\":11581:11765   */\n      swap3\n      swap2\n      pop\n      pop\n      jump\t// out\n        /* \"#utility.yul\":11771:11979   */\n    tag_193:\n        /* \"#utility.yul\":11894:11905   */\n      0x00\n        /* \"#utility.yul\":11928:11934   */\n      dup3\n        /* \"#utility.yul\":11923:11926   */\n      dup3\n        /* \"#utility.yul\":11916:11935   */\n      mstore\n        /* \"#utility.yul\":11968:11972   */\n      0x20\n        /* \"#utility.yul\":11963:11966   */\n      dup3\n        /* \"#utility.yul\":11959:11973   */\n      add\n        /* \"#utility.yul\":11944:11973   */\n      swap1\n      pop\n        /* \"#utility.yul\":11771:11979   */\n      swap3\n      swap2\n      pop\n      pop\n      jump\t// out\n        /* \"#utility.yul\":11985:12154   */\n    tag_212:\n        /* \"#utility.yul\":12069:12080   */\n      0x00\n        /* \"#utility.yul\":12103:12109   */\n      dup3\n        /* \"#utility.yul\":12098:12101   */\n      dup3\n        /* \"#utility.yul\":12091:12110   */\n      mstore\n        /* \"#utility.yul\":12143:12147   */\n      0x20\n        /* \"#utility.yul\":12138:12141   */\n      dup3\n        /* \"#utility.yul\":12134:12148   */\n      add\n        /* \"#utility.yul\":12119:12148   */\n      swap1\n      pop\n        /* \"#utility.yul\":11985:12154   */\n      swap3\n      swap2\n      pop\n      pop\n      jump\t// out\n        /* \"#utility.yul\":12160:12256   */\n    tag_170:\n        /* \"#utility.yul\":12197:12204   */\n      0x00\n        /* \"#utility.yul\":12226:12250   */\n      tag_272\n        /* \"#utility.yul\":12244:12249   */\n      dup3\n        /* \"#utility.yul\":12226:12250   */\n      tag_273\n      jump\t// in\n    tag_272:\n        /* \"#utility.yul\":12215:12250   */\n      swap1\n      pop\n        /* \"#utility.yul\":12160:12256   */\n      swap2\n      swap1\n      pop\n      jump\t// out\n        /* \"#utility.yul\":12262:12366   */\n    tag_164:\n        /* \"#utility.yul\":12307:12314   */\n      0x00\n        /* \"#utility.yul\":12336:12360   */\n      tag_275\n        /* \"#utility.yul\":12354:12359   */\n      dup3\n        /* \"#utility.yul\":12336:12360   */\n      tag_273\n      jump\t// in\n    tag_275:\n        /* \"#utility.yul\":12325:12360   */\n      swap1\n      pop\n        /* \"#utility.yul\":12262:12366   */\n      swap2\n      swap1\n      pop\n      jump\t// out\n        /* \"#utility.yul\":12372:12462   */\n    tag_205:\n        /* \"#utility.yul\":12406:12413   */\n      0x00\n        /* \"#utility.yul\":12449:12454   */\n      dup2\n        /* \"#utility.yul\":12442:12455   */\n      iszero\n        /* \"#utility.yul\":12435:12456   */\n      iszero\n        /* \"#utility.yul\":12424:12456   */\n      swap1\n      pop\n        /* \"#utility.yul\":12372:12462   */\n      swap2\n      swap1\n      pop\n      jump\t// out\n        /* \"#utility.yul\":12468:12594   */\n    tag_273:\n        /* \"#utility.yul\":12505:12512   */\n      0x00\n        /* \"#utility.yul\":12545:12587   */\n      0xffffffffffffffffffffffffffffffffffffffff\n        /* \"#utility.yul\":12538:12543   */\n      dup3\n        /* \"#utility.yul\":12534:12588   */\n      and\n        /* \"#utility.yul\":12523:12588   */\n      swap1\n      pop\n        /* \"#utility.yul\":12468:12594   */\n      swap2\n      swap1\n      pop\n      jump\t// out\n        /* \"#utility.yul\":12600:12677   */\n    tag_234:\n        /* \"#utility.yul\":12637:12644   */\n      0x00\n        /* \"#utility.yul\":12666:12671   */\n      dup2\n        /* \"#utility.yul\":12655:12671   */\n      swap1\n      pop\n        /* \"#utility.yul\":12600:12677   */\n      swap2\n      swap1\n      pop\n      jump\t// out\n        /* \"#utility.yul\":12683:12916   */\n    tag_72:\n        /* \"#utility.yul\":12722:12725   */\n      0x00\n        /* \"#utility.yul\":12745:12769   */\n      tag_280\n        /* \"#utility.yul\":12763:12768   */\n      dup3\n        /* \"#utility.yul\":12745:12769   */\n      tag_234\n      jump\t// in\n    tag_280:\n        /* \"#utility.yul\":12736:12769   */\n      swap2\n      pop\n        /* \"#utility.yul\":12791:12857   */\n      0xffffffffffffffffffffffffffffffffffffffffffffffffffffffffffffffff\n        /* \"#utility.yul\":12784:12789   */\n      dup3\n        /* \"#utility.yul\":12781:12858   */\n      eq\n        /* \"#utility.yul\":12778:12881   */\n      iszero\n      tag_281\n      jumpi\n        /* \"#utility.yul\":12861:12879   */\n      tag_282\n      tag_283\n      jump\t// in\n    tag_282:\n        /* \"#utility.yul\":12778:12881   */\n    tag_281:\n        /* \"#utility.yul\":12908:12909   */\n      0x01\n        /* \"#utility.yul\":12901:12906   */\n      dup3\n        /* \"#utility.yul\":12897:12910   */\n      add\n        /* \"#utility.yul\":12890:12910   */\n      swap1\n      pop\n        /* \"#utility.yul\":12683:12916   */\n      swap2\n      swap1\n      pop\n      jump\t// out\n        /* \"#utility.yul\":12922:13102   */\n    tag_283:\n        /* \"#utility.yul\":12970:13047   */\n      0x4e487b7100000000000000000000000000000000000000000000000000000000\n        /* \"#utility.yul\":12967:12968   */\n      0x00\n        /* \"#utility.yul\":12960:13048   */\n      mstore\n        /* \"#utility.yul\":13067:13071   */\n      0x11\n        /* \"#utility.yul\":13064:13065   */\n      0x04\n        /* \"#utility.yul\":13057:13072   */\n      mstore\n        /* \"#utility.yul\":13091:13095   */\n      0x24\n        /* \"#utility.yul\":13088:13089   */\n      0x00\n        /* \"#utility.yul\":13081:13096   */\n      revert\n        /* \"#utility.yul\":13108:13288   */\n    tag_68:\n        /* \"#utility.yul\":13156:13233   */\n      0x4e487b7100000000000000000000000000000000000000000000000000000000\n        /* \"#utility.yul\":13153:13154   */\n      0x00\n        /* \"#utility.yul\":13146:13234   */\n      mstore\n        /* \"#utility.yul\":13253:13257   */\n      0x32\n        /* \"#utility.yul\":13250:13251   */\n      0x04\n        /* \"#utility.yul\":13243:13258   */\n      mstore\n        /* \"#utility.yul\":13277:13281   */\n      0x24\n        /* \"#utility.yul\":13274:13275   */\n      0x00\n        /* \"#utility.yul\":13267:13282   */\n      revert\n        /* \"#utility.yul\":13417:13534   */\n    tag_141:\n        /* \"#utility.yul\":13526:13527   */\n      0x00\n        /* \"#utility.yul\":13523:13524   */\n      dup1\n        /* \"#utility.yul\":13516:13528   */\n      revert\n        /* \"#utility.yul\":13540:13715   */\n    tag_214:\n        /* \"#utility.yul\":13680:13707   */\n      0x4f6e6c7920417070726f76657220416c6c6f776564202e2e2100000000000000\n        /* \"#utility.yul\":13676:13677   */\n      0x00\n        /* \"#utility.yul\":13668:13674   */\n      dup3\n        /* \"#utility.yul\":13664:13678   */\n      add\n        /* \"#utility.yul\":13657:13708   */\n      mstore\n        /* \"#utility.yul\":13540:13715   */\n      pop\n      jump\t// out\n        /* \"#utility.yul\":13721:13897   */\n    tag_219:\n        /* \"#utility.yul\":13861:13889   */\n      0x43616e6e6f7420417070726f766572205472616e736665722021000000000000\n        /* \"#utility.yul\":13857:13858   */\n      0x00\n        /* \"#utility.yul\":13849:13855   */\n      dup3\n        /* \"#utility.yul\":13845:13859   */\n      add\n        /* \"#utility.yul\":13838:13890   */\n      mstore\n        /* \"#utility.yul\":13721:13897   */\n      pop\n      jump\t// out\n        /* \"#utility.yul\":13903:14081   */\n    tag_224:\n        /* \"#utility.yul\":14043:14073   */\n      0x5472616e73616374696f6e20416c726561647920446f6e652021212100000000\n        /* \"#utility.yul\":14039:14040   */\n      0x00\n        /* \"#utility.yul\":14031:14037   */\n      dup3\n        /* \"#utility.yul\":14027:14041   */\n      add\n        /* \"#utility.yul\":14020:14074   */\n      mstore\n        /* \"#utility.yul\":13903:14081   */\n      pop\n      jump\t// out\n        /* \"#utility.yul\":14087:14209   */\n    tag_129:\n        /* \"#utility.yul\":14160:14184   */\n      tag_293\n        /* \"#utility.yul\":14178:14183   */\n      dup2\n        /* \"#utility.yul\":14160:14184   */\n      tag_170\n      jump\t// in\n    tag_293:\n        /* \"#utility.yul\":14153:14158   */\n      dup2\n        /* \"#utility.yul\":14150:14185   */\n      eq\n        /* \"#utility.yul\":14140:14203   */\n      tag_294\n      jumpi\n        /* \"#utility.yul\":14199:14200   */\n      0x00\n        /* \"#utility.yul\":14196:14197   */\n      dup1\n        /* \"#utility.yul\":14189:14201   */\n      revert\n        /* \"#utility.yul\":14140:14203   */\n    tag_294:\n        /* \"#utility.yul\":14087:14209   */\n      pop\n      jump\t// out\n        /* \"#utility.yul\":14215:14353   */\n    tag_133:\n        /* \"#utility.yul\":14296:14328   */\n      tag_296\n        /* \"#utility.yul\":14322:14327   */\n      dup2\n        /* \"#utility.yul\":14296:14328   */\n      tag_164\n      jump\t// in\n    tag_296:\n        /* \"#utility.yul\":14289:14294   */\n      dup2\n        /* \"#utility.yul\":14286:14329   */\n      eq\n        /* \"#utility.yul\":14276:14347   */\n      tag_297\n      jumpi\n        /* \"#utility.yul\":14343:14344   */\n      0x00\n        /* \"#utility.yul\":14340:14341   */\n      dup1\n        /* \"#utility.yul\":14333:14345   */\n      revert\n        /* \"#utility.yul\":14276:14347   */\n    tag_297:\n        /* \"#utility.yul\":14215:14353   */\n      pop\n      jump\t// out\n        /* \"#utility.yul\":14359:14481   */\n    tag_137:\n        /* \"#utility.yul\":14432:14456   */\n      tag_299\n        /* \"#utility.yul\":14450:14455   */\n      dup2\n        /* \"#utility.yul\":14432:14456   */\n      tag_234\n      jump\t// in\n    tag_299:\n        /* \"#utility.yul\":14425:14430   */\n      dup2\n        /* \"#utility.yul\":14422:14457   */\n      eq\n        /* \"#utility.yul\":14412:14475   */\n      tag_300\n      jumpi\n        /* \"#utility.yul\":14471:14472   */\n      0x00\n        /* \"#utility.yul\":14468:14469   */\n      dup1\n        /* \"#utility.yul\":14461:14473   */\n      revert\n        /* \"#utility.yul\":14412:14475   */\n    tag_300:\n        /* \"#utility.yul\":14359:14481   */\n      pop\n      jump\t// out\n\n    auxdata: 0xa26469706673582212205d6529b143baadd9a721ede8a84e8969462c0e2dd21882717c3abc523368162364736f6c63430008070033\n}\n",
				"bytecode": {
					"linkReferences": {},
					"object": "60806040523480156200001157600080fd5b50604051620014c9380380620014c98339818101604052810190620000379190620001e9565b81600090805190602001906200004f9291906200005f565b50806001819055505050620003a3565b828054828255906000526020600020908101928215620000db579160200282015b82811115620000da5782518260006101000a81548173ffffffffffffffffffffffffffffffffffffffff021916908373ffffffffffffffffffffffffffffffffffffffff1602179055509160200191906001019062000080565b5b509050620000ea9190620000ee565b5090565b5b8082111562000109576000816000905550600101620000ef565b5090565b6000620001246200011e8462000278565b6200024f565b905080838252602082019050828560208602820111156200014a57620001496200034f565b5b60005b858110156200017e578162000163888262000188565b8452602084019350602083019250506001810190506200014d565b5050509392505050565b60008151905062000199816200036f565b92915050565b600082601f830112620001b757620001b66200034a565b5b8151620001c98482602086016200010d565b91505092915050565b600081519050620001e38162000389565b92915050565b6000806040838503121562000203576200020262000359565b5b600083015167ffffffffffffffff81111562000224576200022362000354565b5b62000232858286016200019f565b92505060206200024585828601620001d2565b9150509250929050565b60006200025b6200026e565b9050620002698282620002e5565b919050565b6000604051905090565b600067ffffffffffffffff8211156200029657620002956200031b565b5b602082029050602081019050919050565b6000620002b482620002bb565b9050919050565b600073ffffffffffffffffffffffffffffffffffffffff82169050919050565b6000819050919050565b620002f0826200035e565b810181811067ffffffffffffffff821117156200031257620003116200031b565b5b80604052505050565b7f4e487b7100000000000000000000000000000000000000000000000000000000600052604160045260246000fd5b600080fd5b600080fd5b600080fd5b600080fd5b6000601f19601f8301169050919050565b6200037a81620002a7565b81146200038657600080fd5b50565b6200039481620002db565b8114620003a057600080fd5b50565b61111680620003b36000396000f3fe60806040526004361061007f5760003560e01c80639377d7111161004e5780639377d71114610135578063cacca4a014610176578063d3650fb81461019f578063ffabc673146101dc57610086565b80631703a0181461008b5780632f65142c146100b65780634c12fa47146100e15780636cb3e8ef1461010a57610086565b3661008657005b600080fd5b34801561009757600080fd5b506100a0610219565b6040516100ad9190610e29565b60405180910390f35b3480156100c257600080fd5b506100cb61021f565b6040516100d89190610d8c565b60405180910390f35b3480156100ed57600080fd5b5061010860048036038101906101039190610ada565b61030d565b005b34801561011657600080fd5b5061011f6104ed565b60405161012c9190610d6a565b60405180910390f35b34801561014157600080fd5b5061015c60048036038101906101579190610aad565b61057b565b60405161016d959493929190610e44565b60405180910390f35b34801561018257600080fd5b5061019d60048036038101906101989190610aad565b6105ee565b005b3480156101ab57600080fd5b506101c660048036038101906101c19190610aad565b6109c0565b6040516101d39190610d4f565b60405180910390f35b3480156101e857600080fd5b5061020360048036038101906101fe9190610a6d565b6109ff565b6040516102109190610dae565b60405180910390f35b60015481565b60606002805480602002602001604051908101604052809291908181526020016000905b8282101561030457838290600052602060002090600502016040518060a001604052908160008201548152602001600182015481526020016002820160009054906101000a900473ffffffffffffffffffffffffffffffffffffffff1673ffffffffffffffffffffffffffffffffffffffff1673ffffffffffffffffffffffffffffffffffffffff168152602001600382015481526020016004820160009054906101000a900460ff16151515158152505081526020019060010190610243565b50505050905090565b6000805b6000805490508110156103a8573373ffffffffffffffffffffffffffffffffffffffff166000828154811061034957610348610fec565b5b9060005260206000200160009054906101000a900473ffffffffffffffffffffffffffffffffffffffff1673ffffffffffffffffffffffffffffffffffffffff16141561039557600191505b80806103a090610f74565b915050610311565b5060011515811515146103f0576040517f08c379a00000000000000000000000000000000000000000000000000000000081526004016103e790610dc9565b60405180910390fd5b60026040518060a0016040528060028054905081526020018581526020018473ffffffffffffffffffffffffffffffffffffffff16815260200160008152602001600015158152509080600181540180825580915050600190039060005260206000209060050201600090919091909150600082015181600001556020820151816001015560408201518160020160006101000a81548173ffffffffffffffffffffffffffffffffffffffff021916908373ffffffffffffffffffffffffffffffffffffffff1602179055506060820151816003015560808201518160040160006101000a81548160ff0219169083151502179055505050505050565b6060600080548060200260200160405190810160405280929190818152602001828054801561057157602002820191906000526020600020905b8160009054906101000a900473ffffffffffffffffffffffffffffffffffffffff1673ffffffffffffffffffffffffffffffffffffffff1681526020019060010190808311610527575b5050505050905090565b6002818154811061058b57600080fd5b90600052602060002090600502016000915090508060000154908060010154908060020160009054906101000a900473ffffffffffffffffffffffffffffffffffffffff16908060030154908060040160009054906101000a900460ff16905085565b6000805b600080549050811015610689573373ffffffffffffffffffffffffffffffffffffffff166000828154811061062a57610629610fec565b5b9060005260206000200160009054906101000a900473ffffffffffffffffffffffffffffffffffffffff1673ffffffffffffffffffffffffffffffffffffffff16141561067657600191505b808061068190610f74565b9150506105f2565b5060011515811515146106d1576040517f08c379a00000000000000000000000000000000000000000000000000000000081526004016106c890610dc9565b60405180910390fd5b60001515600283815481106106e9576106e8610fec565b5b906000526020600020906005020160040160009054906101000a900460ff1615151461074a576040517f08c379a000000000000000000000000000000000000000000000000000000000815260040161074190610e09565b60405180910390fd5b60001515600360003373ffffffffffffffffffffffffffffffffffffffff1673ffffffffffffffffffffffffffffffffffffffff168152602001908152602001600020600084815260200190815260200160002060009054906101000a900460ff161515146107ee576040517f08c379a00000000000000000000000000000000000000000000000000000000081526004016107e590610de9565b60405180910390fd5b6001600360003373ffffffffffffffffffffffffffffffffffffffff1673ffffffffffffffffffffffffffffffffffffffff168152602001908152602001600020600084815260200190815260200160002060006101000a81548160ff0219169083151502179055506002828154811061086b5761086a610fec565b5b9060005260206000209060050201600301600081548092919061088d90610f74565b9190505550600154600283815481106108a9576108a8610fec565b5b906000526020600020906005020160030154106109bc576001600283815481106108d6576108d5610fec565b5b906000526020600020906005020160040160006101000a81548160ff02191690831515021790555060006002838154811061091457610913610fec565b5b906000526020600020906005020160020160009054906101000a900473ffffffffffffffffffffffffffffffffffffffff16905060006002848154811061095e5761095d610fec565b5b90600052602060002090600502016001015490508173ffffffffffffffffffffffffffffffffffffffff166108fc829081150290604051600060405180830381858888f193505050501580156109b8573d6000803e3d6000fd5b5050505b5050565b600081815481106109d057600080fd5b906000526020600020016000915054906101000a900473ffffffffffffffffffffffffffffffffffffffff1681565b60036020528160005260406000206020528060005260406000206000915091509054906101000a900460ff1681565b600081359050610a3d8161109b565b92915050565b600081359050610a52816110b2565b92915050565b600081359050610a67816110c9565b92915050565b60008060408385031215610a8457610a8361101b565b5b6000610a9285828601610a2e565b9250506020610aa385828601610a58565b9150509250929050565b600060208284031215610ac357610ac261101b565b5b6000610ad184828501610a58565b91505092915050565b60008060408385031215610af157610af061101b565b5b6000610aff85828601610a58565b9250506020610b1085828601610a43565b9150509250929050565b6000610b268383610b68565b60208301905092915050565b6000610b3e8383610cc9565b60a08301905092915050565b610b5381610f2c565b82525050565b610b6281610f2c565b82525050565b610b7181610f1a565b82525050565b610b8081610f1a565b82525050565b6000610b9182610eb7565b610b9b8185610ee7565b9350610ba683610e97565b8060005b83811015610bd7578151610bbe8882610b1a565b9750610bc983610ecd565b925050600181019050610baa565b5085935050505092915050565b6000610bef82610ec2565b610bf98185610ef8565b9350610c0483610ea7565b8060005b83811015610c35578151610c1c8882610b32565b9750610c2783610eda565b925050600181019050610c08565b5085935050505092915050565b610c4b81610f3e565b82525050565b610c5a81610f3e565b82525050565b6000610c6d601983610f09565b9150610c7882611020565b602082019050919050565b6000610c90601a83610f09565b9150610c9b82611049565b602082019050919050565b6000610cb3601c83610f09565b9150610cbe82611072565b602082019050919050565b60a082016000820151610cdf6000850182610d31565b506020820151610cf26020850182610d31565b506040820151610d056040850182610b4a565b506060820151610d186060850182610d31565b506080820151610d2b6080850182610c42565b50505050565b610d3a81610f6a565b82525050565b610d4981610f6a565b82525050565b6000602082019050610d646000830184610b77565b92915050565b60006020820190508181036000830152610d848184610b86565b905092915050565b60006020820190508181036000830152610da68184610be4565b905092915050565b6000602082019050610dc36000830184610c51565b92915050565b60006020820190508181036000830152610de281610c60565b9050919050565b60006020820190508181036000830152610e0281610c83565b9050919050565b60006020820190508181036000830152610e2281610ca6565b9050919050565b6000602082019050610e3e6000830184610d40565b92915050565b600060a082019050610e596000830188610d40565b610e666020830187610d40565b610e736040830186610b59565b610e806060830185610d40565b610e8d6080830184610c51565b9695505050505050565b6000819050602082019050919050565b6000819050602082019050919050565b600081519050919050565b600081519050919050565b6000602082019050919050565b6000602082019050919050565b600082825260208201905092915050565b600082825260208201905092915050565b600082825260208201905092915050565b6000610f2582610f4a565b9050919050565b6000610f3782610f4a565b9050919050565b60008115159050919050565b600073ffffffffffffffffffffffffffffffffffffffff82169050919050565b6000819050919050565b6000610f7f82610f6a565b91507fffffffffffffffffffffffffffffffffffffffffffffffffffffffffffffffff821415610fb257610fb1610fbd565b5b600182019050919050565b7f4e487b7100000000000000000000000000000000000000000000000000000000600052601160045260246000fd5b7f4e487b7100000000000000000000000000000000000000000000000000000000600052603260045260246000fd5b600080fd5b7f4f6e6c7920417070726f76657220416c6c6f776564202e2e2100000000000000600082015250565b7f43616e6e6f7420417070726f766572205472616e736665722021000000000000600082015250565b7f5472616e73616374696f6e20416c726561647920446f6e652021212100000000600082015250565b6110a481610f1a565b81146110af57600080fd5b50565b6110bb81610f2c565b81146110c657600080fd5b50565b6110d281610f6a565b81146110dd57600080fd5b5056fea26469706673582212205d6529b143baadd9a721ede8a84e8969462c0e2dd21882717c3abc523368162364736f6c63430008070033",
					"opcodes": "PUSH1 0x80 PUSH1 0x40 MSTORE CALLVALUE DUP1 ISZERO PUSH3 0x11 JUMPI PUSH1 0x0 DUP1 REVERT JUMPDEST POP PUSH1 0x40 MLOAD PUSH3 0x14C9 CODESIZE SUB DUP1 PUSH3 0x14C9 DUP4 CODECOPY DUP2 DUP2 ADD PUSH1 0x40 MSTORE DUP2 ADD SWAP1 PUSH3 0x37 SWAP2 SWAP1 PUSH3 0x1E9 JUMP JUMPDEST DUP2 PUSH1 0x0 SWAP1 DUP1 MLOAD SWAP1 PUSH1 0x20 ADD SWAP1 PUSH3 0x4F SWAP3 SWAP2 SWAP1 PUSH3 0x5F JUMP JUMPDEST POP DUP1 PUSH1 0x1 DUP2 SWAP1 SSTORE POP POP POP PUSH3 0x3A3 JUMP JUMPDEST DUP3 DUP1 SLOAD DUP3 DUP3 SSTORE SWAP1 PUSH1 0x0 MSTORE PUSH1 0x20 PUSH1 0x0 KECCAK256 SWAP1 DUP2 ADD SWAP3 DUP3 ISZERO PUSH3 0xDB JUMPI SWAP2 PUSH1 0x20 MUL DUP3 ADD JUMPDEST DUP3 DUP2 GT ISZERO PUSH3 0xDA JUMPI DUP3 MLOAD DUP3 PUSH1 0x0 PUSH2 0x100 EXP DUP2 SLOAD DUP2 PUSH20 0xFFFFFFFFFFFFFFFFFFFFFFFFFFFFFFFFFFFFFFFF MUL NOT AND SWAP1 DUP4 PUSH20 0xFFFFFFFFFFFFFFFFFFFFFFFFFFFFFFFFFFFFFFFF AND MUL OR SWAP1 SSTORE POP SWAP2 PUSH1 0x20 ADD SWAP2 SWAP1 PUSH1 0x1 ADD SWAP1 PUSH3 0x80 JUMP JUMPDEST JUMPDEST POP SWAP1 POP PUSH3 0xEA SWAP2 SWAP1 PUSH3 0xEE JUMP JUMPDEST POP SWAP1 JUMP JUMPDEST JUMPDEST DUP1 DUP3 GT ISZERO PUSH3 0x109 JUMPI PUSH1 0x0 DUP2 PUSH1 0x0 SWAP1 SSTORE POP PUSH1 0x1 ADD PUSH3 0xEF JUMP JUMPDEST POP SWAP1 JUMP JUMPDEST PUSH1 0x0 PUSH3 0x124 PUSH3 0x11E DUP5 PUSH3 0x278 JUMP JUMPDEST PUSH3 0x24F JUMP JUMPDEST SWAP1 POP DUP1 DUP4 DUP3 MSTORE PUSH1 0x20 DUP3 ADD SWAP1 POP DUP3 DUP6 PUSH1 0x20 DUP7 MUL DUP3 ADD GT ISZERO PUSH3 0x14A JUMPI PUSH3 0x149 PUSH3 0x34F JUMP JUMPDEST JUMPDEST PUSH1 0x0 JUMPDEST DUP6 DUP2 LT ISZERO PUSH3 0x17E JUMPI DUP2 PUSH3 0x163 DUP9 DUP3 PUSH3 0x188 JUMP JUMPDEST DUP5 MSTORE PUSH1 0x20 DUP5 ADD SWAP4 POP PUSH1 0x20 DUP4 ADD SWAP3 POP POP PUSH1 0x1 DUP2 ADD SWAP1 POP PUSH3 0x14D JUMP JUMPDEST POP POP POP SWAP4 SWAP3 POP POP POP JUMP JUMPDEST PUSH1 0x0 DUP2 MLOAD SWAP1 POP PUSH3 0x199 DUP2 PUSH3 0x36F JUMP JUMPDEST SWAP3 SWAP2 POP POP JUMP JUMPDEST PUSH1 0x0 DUP3 PUSH1 0x1F DUP4 ADD SLT PUSH3 0x1B7 JUMPI PUSH3 0x1B6 PUSH3 0x34A JUMP JUMPDEST JUMPDEST DUP2 MLOAD PUSH3 0x1C9 DUP5 DUP3 PUSH1 0x20 DUP7 ADD PUSH3 0x10D JUMP JUMPDEST SWAP2 POP POP SWAP3 SWAP2 POP POP JUMP JUMPDEST PUSH1 0x0 DUP2 MLOAD SWAP1 POP PUSH3 0x1E3 DUP2 PUSH3 0x389 JUMP JUMPDEST SWAP3 SWAP2 POP POP JUMP JUMPDEST PUSH1 0x0 DUP1 PUSH1 0x40 DUP4 DUP6 SUB SLT ISZERO PUSH3 0x203 JUMPI PUSH3 0x202 PUSH3 0x359 JUMP JUMPDEST JUMPDEST PUSH1 0x0 DUP4 ADD MLOAD PUSH8 0xFFFFFFFFFFFFFFFF DUP2 GT ISZERO PUSH3 0x224 JUMPI PUSH3 0x223 PUSH3 0x354 JUMP JUMPDEST JUMPDEST PUSH3 0x232 DUP6 DUP3 DUP7 ADD PUSH3 0x19F JUMP JUMPDEST SWAP3 POP POP PUSH1 0x20 PUSH3 0x245 DUP6 DUP3 DUP7 ADD PUSH3 0x1D2 JUMP JUMPDEST SWAP2 POP POP SWAP3 POP SWAP3 SWAP1 POP JUMP JUMPDEST PUSH1 0x0 PUSH3 0x25B PUSH3 0x26E JUMP JUMPDEST SWAP1 POP PUSH3 0x269 DUP3 DUP3 PUSH3 0x2E5 JUMP JUMPDEST SWAP2 SWAP1 POP JUMP JUMPDEST PUSH1 0x0 PUSH1 0x40 MLOAD SWAP1 POP SWAP1 JUMP JUMPDEST PUSH1 0x0 PUSH8 0xFFFFFFFFFFFFFFFF DUP3 GT ISZERO PUSH3 0x296 JUMPI PUSH3 0x295 PUSH3 0x31B JUMP JUMPDEST JUMPDEST PUSH1 0x20 DUP3 MUL SWAP1 POP PUSH1 0x20 DUP2 ADD SWAP1 POP SWAP2 SWAP1 POP JUMP JUMPDEST PUSH1 0x0 PUSH3 0x2B4 DUP3 PUSH3 0x2BB JUMP JUMPDEST SWAP1 POP SWAP2 SWAP1 POP JUMP JUMPDEST PUSH1 0x0 PUSH20 0xFFFFFFFFFFFFFFFFFFFFFFFFFFFFFFFFFFFFFFFF DUP3 AND SWAP1 POP SWAP2 SWAP1 POP JUMP JUMPDEST PUSH1 0x0 DUP2 SWAP1 POP SWAP2 SWAP1 POP JUMP JUMPDEST PUSH3 0x2F0 DUP3 PUSH3 0x35E JUMP JUMPDEST DUP2 ADD DUP2 DUP2 LT PUSH8 0xFFFFFFFFFFFFFFFF DUP3 GT OR ISZERO PUSH3 0x312 JUMPI PUSH3 0x311 PUSH3 0x31B JUMP JUMPDEST JUMPDEST DUP1 PUSH1 0x40 MSTORE POP POP POP JUMP JUMPDEST PUSH32 0x4E487B7100000000000000000000000000000000000000000000000000000000 PUSH1 0x0 MSTORE PUSH1 0x41 PUSH1 0x4 MSTORE PUSH1 0x24 PUSH1 0x0 REVERT JUMPDEST PUSH1 0x0 DUP1 REVERT JUMPDEST PUSH1 0x0 DUP1 REVERT JUMPDEST PUSH1 0x0 DUP1 REVERT JUMPDEST PUSH1 0x0 DUP1 REVERT JUMPDEST PUSH1 0x0 PUSH1 0x1F NOT PUSH1 0x1F DUP4 ADD AND SWAP1 POP SWAP2 SWAP1 POP JUMP JUMPDEST PUSH3 0x37A DUP2 PUSH3 0x2A7 JUMP JUMPDEST DUP2 EQ PUSH3 0x386 JUMPI PUSH1 0x0 DUP1 REVERT JUMPDEST POP JUMP JUMPDEST PUSH3 0x394 DUP2 PUSH3 0x2DB JUMP JUMPDEST DUP2 EQ PUSH3 0x3A0 JUMPI PUSH1 0x0 DUP1 REVERT JUMPDEST POP JUMP JUMPDEST PUSH2 0x1116 DUP1 PUSH3 0x3B3 PUSH1 0x0 CODECOPY PUSH1 0x0 RETURN INVALID PUSH1 0x80 PUSH1 0x40 MSTORE PUSH1 0x4 CALLDATASIZE LT PUSH2 0x7F JUMPI PUSH1 0x0 CALLDATALOAD PUSH1 0xE0 SHR DUP1 PUSH4 0x9377D711 GT PUSH2 0x4E JUMPI DUP1 PUSH4 0x9377D711 EQ PUSH2 0x135 JUMPI DUP1 PUSH4 0xCACCA4A0 EQ PUSH2 0x176 JUMPI DUP1 PUSH4 0xD3650FB8 EQ PUSH2 0x19F JUMPI DUP1 PUSH4 0xFFABC673 EQ PUSH2 0x1DC JUMPI PUSH2 0x86 JUMP JUMPDEST DUP1 PUSH4 0x1703A018 EQ PUSH2 0x8B JUMPI DUP1 PUSH4 0x2F65142C EQ PUSH2 0xB6 JUMPI DUP1 PUSH4 0x4C12FA47 EQ PUSH2 0xE1 JUMPI DUP1 PUSH4 0x6CB3E8EF EQ PUSH2 0x10A JUMPI PUSH2 0x86 JUMP JUMPDEST CALLDATASIZE PUSH2 0x86 JUMPI STOP JUMPDEST PUSH1 0x0 DUP1 REVERT JUMPDEST CALLVALUE DUP1 ISZERO PUSH2 0x97 JUMPI PUSH1 0x0 DUP1 REVERT JUMPDEST POP PUSH2 0xA0 PUSH2 0x219 JUMP JUMPDEST PUSH1 0x40 MLOAD PUSH2 0xAD SWAP2 SWAP1 PUSH2 0xE29 JUMP JUMPDEST PUSH1 0x40 MLOAD DUP1 SWAP2 SUB SWAP1 RETURN JUMPDEST CALLVALUE DUP1 ISZERO PUSH2 0xC2 JUMPI PUSH1 0x0 DUP1 REVERT JUMPDEST POP PUSH2 0xCB PUSH2 0x21F JUMP JUMPDEST PUSH1 0x40 MLOAD PUSH2 0xD8 SWAP2 SWAP1 PUSH2 0xD8C JUMP JUMPDEST PUSH1 0x40 MLOAD DUP1 SWAP2 SUB SWAP1 RETURN JUMPDEST CALLVALUE DUP1 ISZERO PUSH2 0xED JUMPI PUSH1 0x0 DUP1 REVERT JUMPDEST POP PUSH2 0x108 PUSH1 0x4 DUP1 CALLDATASIZE SUB DUP2 ADD SWAP1 PUSH2 0x103 SWAP2 SWAP1 PUSH2 0xADA JUMP JUMPDEST PUSH2 0x30D JUMP JUMPDEST STOP JUMPDEST CALLVALUE DUP1 ISZERO PUSH2 0x116 JUMPI PUSH1 0x0 DUP1 REVERT JUMPDEST POP PUSH2 0x11F PUSH2 0x4ED JUMP JUMPDEST PUSH1 0x40 MLOAD PUSH2 0x12C SWAP2 SWAP1 PUSH2 0xD6A JUMP JUMPDEST PUSH1 0x40 MLOAD DUP1 SWAP2 SUB SWAP1 RETURN JUMPDEST CALLVALUE DUP1 ISZERO PUSH2 0x141 JUMPI PUSH1 0x0 DUP1 REVERT JUMPDEST POP PUSH2 0x15C PUSH1 0x4 DUP1 CALLDATASIZE SUB DUP2 ADD SWAP1 PUSH2 0x157 SWAP2 SWAP1 PUSH2 0xAAD JUMP JUMPDEST PUSH2 0x57B JUMP JUMPDEST PUSH1 0x40 MLOAD PUSH2 0x16D SWAP6 SWAP5 SWAP4 SWAP3 SWAP2 SWAP1 PUSH2 0xE44 JUMP JUMPDEST PUSH1 0x40 MLOAD DUP1 SWAP2 SUB SWAP1 RETURN JUMPDEST CALLVALUE DUP1 ISZERO PUSH2 0x182 JUMPI PUSH1 0x0 DUP1 REVERT JUMPDEST POP PUSH2 0x19D PUSH1 0x4 DUP1 CALLDATASIZE SUB DUP2 ADD SWAP1 PUSH2 0x198 SWAP2 SWAP1 PUSH2 0xAAD JUMP JUMPDEST PUSH2 0x5EE JUMP JUMPDEST STOP JUMPDEST CALLVALUE DUP1 ISZERO PUSH2 0x1AB JUMPI PUSH1 0x0 DUP1 REVERT JUMPDEST POP PUSH2 0x1C6 PUSH1 0x4 DUP1 CALLDATASIZE SUB DUP2 ADD SWAP1 PUSH2 0x1C1 SWAP2 SWAP1 PUSH2 0xAAD JUMP JUMPDEST PUSH2 0x9C0 JUMP JUMPDEST PUSH1 0x40 MLOAD PUSH2 0x1D3 SWAP2 SWAP1 PUSH2 0xD4F JUMP JUMPDEST PUSH1 0x40 MLOAD DUP1 SWAP2 SUB SWAP1 RETURN JUMPDEST CALLVALUE DUP1 ISZERO PUSH2 0x1E8 JUMPI PUSH1 0x0 DUP1 REVERT JUMPDEST POP PUSH2 0x203 PUSH1 0x4 DUP1 CALLDATASIZE SUB DUP2 ADD SWAP1 PUSH2 0x1FE SWAP2 SWAP1 PUSH2 0xA6D JUMP JUMPDEST PUSH2 0x9FF JUMP JUMPDEST PUSH1 0x40 MLOAD PUSH2 0x210 SWAP2 SWAP1 PUSH2 0xDAE JUMP JUMPDEST PUSH1 0x40 MLOAD DUP1 SWAP2 SUB SWAP1 RETURN JUMPDEST PUSH1 0x1 SLOAD DUP2 JUMP JUMPDEST PUSH1 0x60 PUSH1 0x2 DUP1 SLOAD DUP1 PUSH1 0x20 MUL PUSH1 0x20 ADD PUSH1 0x40 MLOAD SWAP1 DUP2 ADD PUSH1 0x40 MSTORE DUP1 SWAP3 SWAP2 SWAP1 DUP2 DUP2 MSTORE PUSH1 0x20 ADD PUSH1 0x0 SWAP1 JUMPDEST DUP3 DUP3 LT ISZERO PUSH2 0x304 JUMPI DUP4 DUP3 SWAP1 PUSH1 0x0 MSTORE PUSH1 0x20 PUSH1 0x0 KECCAK256 SWAP1 PUSH1 0x5 MUL ADD PUSH1 0x40 MLOAD DUP1 PUSH1 0xA0 ADD PUSH1 0x40 MSTORE SWAP1 DUP2 PUSH1 0x0 DUP3 ADD SLOAD DUP2 MSTORE PUSH1 0x20 ADD PUSH1 0x1 DUP3 ADD SLOAD DUP2 MSTORE PUSH1 0x20 ADD PUSH1 0x2 DUP3 ADD PUSH1 0x0 SWAP1 SLOAD SWAP1 PUSH2 0x100 EXP SWAP1 DIV PUSH20 0xFFFFFFFFFFFFFFFFFFFFFFFFFFFFFFFFFFFFFFFF AND PUSH20 0xFFFFFFFFFFFFFFFFFFFFFFFFFFFFFFFFFFFFFFFF AND PUSH20 0xFFFFFFFFFFFFFFFFFFFFFFFFFFFFFFFFFFFFFFFF AND DUP2 MSTORE PUSH1 0x20 ADD PUSH1 0x3 DUP3 ADD SLOAD DUP2 MSTORE PUSH1 0x20 ADD PUSH1 0x4 DUP3 ADD PUSH1 0x0 SWAP1 SLOAD SWAP1 PUSH2 0x100 EXP SWAP1 DIV PUSH1 0xFF AND ISZERO ISZERO ISZERO ISZERO DUP2 MSTORE POP POP DUP2 MSTORE PUSH1 0x20 ADD SWAP1 PUSH1 0x1 ADD SWAP1 PUSH2 0x243 JUMP JUMPDEST POP POP POP POP SWAP1 POP SWAP1 JUMP JUMPDEST PUSH1 0x0 DUP1 JUMPDEST PUSH1 0x0 DUP1 SLOAD SWAP1 POP DUP2 LT ISZERO PUSH2 0x3A8 JUMPI CALLER PUSH20 0xFFFFFFFFFFFFFFFFFFFFFFFFFFFFFFFFFFFFFFFF AND PUSH1 0x0 DUP3 DUP2 SLOAD DUP2 LT PUSH2 0x349 JUMPI PUSH2 0x348 PUSH2 0xFEC JUMP JUMPDEST JUMPDEST SWAP1 PUSH1 0x0 MSTORE PUSH1 0x20 PUSH1 0x0 KECCAK256 ADD PUSH1 0x0 SWAP1 SLOAD SWAP1 PUSH2 0x100 EXP SWAP1 DIV PUSH20 0xFFFFFFFFFFFFFFFFFFFFFFFFFFFFFFFFFFFFFFFF AND PUSH20 0xFFFFFFFFFFFFFFFFFFFFFFFFFFFFFFFFFFFFFFFF AND EQ ISZERO PUSH2 0x395 JUMPI PUSH1 0x1 SWAP2 POP JUMPDEST DUP1 DUP1 PUSH2 0x3A0 SWAP1 PUSH2 0xF74 JUMP JUMPDEST SWAP2 POP POP PUSH2 0x311 JUMP JUMPDEST POP PUSH1 0x1 ISZERO ISZERO DUP2 ISZERO ISZERO EQ PUSH2 0x3F0 JUMPI PUSH1 0x40 MLOAD PUSH32 0x8C379A000000000000000000000000000000000000000000000000000000000 DUP2 MSTORE PUSH1 0x4 ADD PUSH2 0x3E7 SWAP1 PUSH2 0xDC9 JUMP JUMPDEST PUSH1 0x40 MLOAD DUP1 SWAP2 SUB SWAP1 REVERT JUMPDEST PUSH1 0x2 PUSH1 0x40 MLOAD DUP1 PUSH1 0xA0 ADD PUSH1 0x40 MSTORE DUP1 PUSH1 0x2 DUP1 SLOAD SWAP1 POP DUP2 MSTORE PUSH1 0x20 ADD DUP6 DUP2 MSTORE PUSH1 0x20 ADD DUP5 PUSH20 0xFFFFFFFFFFFFFFFFFFFFFFFFFFFFFFFFFFFFFFFF AND DUP2 MSTORE PUSH1 0x20 ADD PUSH1 0x0 DUP2 MSTORE PUSH1 0x20 ADD PUSH1 0x0 ISZERO ISZERO DUP2 MSTORE POP SWAP1 DUP1 PUSH1 0x1 DUP2 SLOAD ADD DUP1 DUP3 SSTORE DUP1 SWAP2 POP POP PUSH1 0x1 SWAP1 SUB SWAP1 PUSH1 0x0 MSTORE PUSH1 0x20 PUSH1 0x0 KECCAK256 SWAP1 PUSH1 0x5 MUL ADD PUSH1 0x0 SWAP1 SWAP2 SWAP1 SWAP2 SWAP1 SWAP2 POP PUSH1 0x0 DUP3 ADD MLOAD DUP2 PUSH1 0x0 ADD SSTORE PUSH1 0x20 DUP3 ADD MLOAD DUP2 PUSH1 0x1 ADD SSTORE PUSH1 0x40 DUP3 ADD MLOAD DUP2 PUSH1 0x2 ADD PUSH1 0x0 PUSH2 0x100 EXP DUP2 SLOAD DUP2 PUSH20 0xFFFFFFFFFFFFFFFFFFFFFFFFFFFFFFFFFFFFFFFF MUL NOT AND SWAP1 DUP4 PUSH20 0xFFFFFFFFFFFFFFFFFFFFFFFFFFFFFFFFFFFFFFFF AND MUL OR SWAP1 SSTORE POP PUSH1 0x60 DUP3 ADD MLOAD DUP2 PUSH1 0x3 ADD SSTORE PUSH1 0x80 DUP3 ADD MLOAD DUP2 PUSH1 0x4 ADD PUSH1 0x0 PUSH2 0x100 EXP DUP2 SLOAD DUP2 PUSH1 0xFF MUL NOT AND SWAP1 DUP4 ISZERO ISZERO MUL OR SWAP1 SSTORE POP POP POP POP POP POP JUMP JUMPDEST PUSH1 0x60 PUSH1 0x0 DUP1 SLOAD DUP1 PUSH1 0x20 MUL PUSH1 0x20 ADD PUSH1 0x40 MLOAD SWAP1 DUP2 ADD PUSH1 0x40 MSTORE DUP1 SWAP3 SWAP2 SWAP1 DUP2 DUP2 MSTORE PUSH1 0x20 ADD DUP3 DUP1 SLOAD DUP1 ISZERO PUSH2 0x571 JUMPI PUSH1 0x20 MUL DUP3 ADD SWAP2 SWAP1 PUSH1 0x0 MSTORE PUSH1 0x20 PUSH1 0x0 KECCAK256 SWAP1 JUMPDEST DUP2 PUSH1 0x0 SWAP1 SLOAD SWAP1 PUSH2 0x100 EXP SWAP1 DIV PUSH20 0xFFFFFFFFFFFFFFFFFFFFFFFFFFFFFFFFFFFFFFFF AND PUSH20 0xFFFFFFFFFFFFFFFFFFFFFFFFFFFFFFFFFFFFFFFF AND DUP2 MSTORE PUSH1 0x20 ADD SWAP1 PUSH1 0x1 ADD SWAP1 DUP1 DUP4 GT PUSH2 0x527 JUMPI JUMPDEST POP POP POP POP POP SWAP1 POP SWAP1 JUMP JUMPDEST PUSH1 0x2 DUP2 DUP2 SLOAD DUP2 LT PUSH2 0x58B JUMPI PUSH1 0x0 DUP1 REVERT JUMPDEST SWAP1 PUSH1 0x0 MSTORE PUSH1 0x20 PUSH1 0x0 KECCAK256 SWAP1 PUSH1 0x5 MUL ADD PUSH1 0x0 SWAP2 POP SWAP1 POP DUP1 PUSH1 0x0 ADD SLOAD SWAP1 DUP1 PUSH1 0x1 ADD SLOAD SWAP1 DUP1 PUSH1 0x2 ADD PUSH1 0x0 SWAP1 SLOAD SWAP1 PUSH2 0x100 EXP SWAP1 DIV PUSH20 0xFFFFFFFFFFFFFFFFFFFFFFFFFFFFFFFFFFFFFFFF AND SWAP1 DUP1 PUSH1 0x3 ADD SLOAD SWAP1 DUP1 PUSH1 0x4 ADD PUSH1 0x0 SWAP1 SLOAD SWAP1 PUSH2 0x100 EXP SWAP1 DIV PUSH1 0xFF AND SWAP1 POP DUP6 JUMP JUMPDEST PUSH1 0x0 DUP1 JUMPDEST PUSH1 0x0 DUP1 SLOAD SWAP1 POP DUP2 LT ISZERO PUSH2 0x689 JUMPI CALLER PUSH20 0xFFFFFFFFFFFFFFFFFFFFFFFFFFFFFFFFFFFFFFFF AND PUSH1 0x0 DUP3 DUP2 SLOAD DUP2 LT PUSH2 0x62A JUMPI PUSH2 0x629 PUSH2 0xFEC JUMP JUMPDEST JUMPDEST SWAP1 PUSH1 0x0 MSTORE PUSH1 0x20 PUSH1 0x0 KECCAK256 ADD PUSH1 0x0 SWAP1 SLOAD SWAP1 PUSH2 0x100 EXP SWAP1 DIV PUSH20 0xFFFFFFFFFFFFFFFFFFFFFFFFFFFFFFFFFFFFFFFF AND PUSH20 0xFFFFFFFFFFFFFFFFFFFFFFFFFFFFFFFFFFFFFFFF AND EQ ISZERO PUSH2 0x676 JUMPI PUSH1 0x1 SWAP2 POP JUMPDEST DUP1 DUP1 PUSH2 0x681 SWAP1 PUSH2 0xF74 JUMP JUMPDEST SWAP2 POP POP PUSH2 0x5F2 JUMP JUMPDEST POP PUSH1 0x1 ISZERO ISZERO DUP2 ISZERO ISZERO EQ PUSH2 0x6D1 JUMPI PUSH1 0x40 MLOAD PUSH32 0x8C379A000000000000000000000000000000000000000000000000000000000 DUP2 MSTORE PUSH1 0x4 ADD PUSH2 0x6C8 SWAP1 PUSH2 0xDC9 JUMP JUMPDEST PUSH1 0x40 MLOAD DUP1 SWAP2 SUB SWAP1 REVERT JUMPDEST PUSH1 0x0 ISZERO ISZERO PUSH1 0x2 DUP4 DUP2 SLOAD DUP2 LT PUSH2 0x6E9 JUMPI PUSH2 0x6E8 PUSH2 0xFEC JUMP JUMPDEST JUMPDEST SWAP1 PUSH1 0x0 MSTORE PUSH1 0x20 PUSH1 0x0 KECCAK256 SWAP1 PUSH1 0x5 MUL ADD PUSH1 0x4 ADD PUSH1 0x0 SWAP1 SLOAD SWAP1 PUSH2 0x100 EXP SWAP1 DIV PUSH1 0xFF AND ISZERO ISZERO EQ PUSH2 0x74A JUMPI PUSH1 0x40 MLOAD PUSH32 0x8C379A000000000000000000000000000000000000000000000000000000000 DUP2 MSTORE PUSH1 0x4 ADD PUSH2 0x741 SWAP1 PUSH2 0xE09 JUMP JUMPDEST PUSH1 0x40 MLOAD DUP1 SWAP2 SUB SWAP1 REVERT JUMPDEST PUSH1 0x0 ISZERO ISZERO PUSH1 0x3 PUSH1 0x0 CALLER PUSH20 0xFFFFFFFFFFFFFFFFFFFFFFFFFFFFFFFFFFFFFFFF AND PUSH20 0xFFFFFFFFFFFFFFFFFFFFFFFFFFFFFFFFFFFFFFFF AND DUP2 MSTORE PUSH1 0x20 ADD SWAP1 DUP2 MSTORE PUSH1 0x20 ADD PUSH1 0x0 KECCAK256 PUSH1 0x0 DUP5 DUP2 MSTORE PUSH1 0x20 ADD SWAP1 DUP2 MSTORE PUSH1 0x20 ADD PUSH1 0x0 KECCAK256 PUSH1 0x0 SWAP1 SLOAD SWAP1 PUSH2 0x100 EXP SWAP1 DIV PUSH1 0xFF AND ISZERO ISZERO EQ PUSH2 0x7EE JUMPI PUSH1 0x40 MLOAD PUSH32 0x8C379A000000000000000000000000000000000000000000000000000000000 DUP2 MSTORE PUSH1 0x4 ADD PUSH2 0x7E5 SWAP1 PUSH2 0xDE9 JUMP JUMPDEST PUSH1 0x40 MLOAD DUP1 SWAP2 SUB SWAP1 REVERT JUMPDEST PUSH1 0x1 PUSH1 0x3 PUSH1 0x0 CALLER PUSH20 0xFFFFFFFFFFFFFFFFFFFFFFFFFFFFFFFFFFFFFFFF AND PUSH20 0xFFFFFFFFFFFFFFFFFFFFFFFFFFFFFFFFFFFFFFFF AND DUP2 MSTORE PUSH1 0x20 ADD SWAP1 DUP2 MSTORE PUSH1 0x20 ADD PUSH1 0x0 KECCAK256 PUSH1 0x0 DUP5 DUP2 MSTORE PUSH1 0x20 ADD SWAP1 DUP2 MSTORE PUSH1 0x20 ADD PUSH1 0x0 KECCAK256 PUSH1 0x0 PUSH2 0x100 EXP DUP2 SLOAD DUP2 PUSH1 0xFF MUL NOT AND SWAP1 DUP4 ISZERO ISZERO MUL OR SWAP1 SSTORE POP PUSH1 0x2 DUP3 DUP2 SLOAD DUP2 LT PUSH2 0x86B JUMPI PUSH2 0x86A PUSH2 0xFEC JUMP JUMPDEST JUMPDEST SWAP1 PUSH1 0x0 MSTORE PUSH1 0x20 PUSH1 0x0 KECCAK256 SWAP1 PUSH1 0x5 MUL ADD PUSH1 0x3 ADD PUSH1 0x0 DUP2 SLOAD DUP1 SWAP3 SWAP2 SWAP1 PUSH2 0x88D SWAP1 PUSH2 0xF74 JUMP JUMPDEST SWAP2 SWAP1 POP SSTORE POP PUSH1 0x1 SLOAD PUSH1 0x2 DUP4 DUP2 SLOAD DUP2 LT PUSH2 0x8A9 JUMPI PUSH2 0x8A8 PUSH2 0xFEC JUMP JUMPDEST JUMPDEST SWAP1 PUSH1 0x0 MSTORE PUSH1 0x20 PUSH1 0x0 KECCAK256 SWAP1 PUSH1 0x5 MUL ADD PUSH1 0x3 ADD SLOAD LT PUSH2 0x9BC JUMPI PUSH1 0x1 PUSH1 0x2 DUP4 DUP2 SLOAD DUP2 LT PUSH2 0x8D6 JUMPI PUSH2 0x8D5 PUSH2 0xFEC JUMP JUMPDEST JUMPDEST SWAP1 PUSH1 0x0 MSTORE PUSH1 0x20 PUSH1 0x0 KECCAK256 SWAP1 PUSH1 0x5 MUL ADD PUSH1 0x4 ADD PUSH1 0x0 PUSH2 0x100 EXP DUP2 SLOAD DUP2 PUSH1 0xFF MUL NOT AND SWAP1 DUP4 ISZERO ISZERO MUL OR SWAP1 SSTORE POP PUSH1 0x0 PUSH1 0x2 DUP4 DUP2 SLOAD DUP2 LT PUSH2 0x914 JUMPI PUSH2 0x913 PUSH2 0xFEC JUMP JUMPDEST JUMPDEST SWAP1 PUSH1 0x0 MSTORE PUSH1 0x20 PUSH1 0x0 KECCAK256 SWAP1 PUSH1 0x5 MUL ADD PUSH1 0x2 ADD PUSH1 0x0 SWAP1 SLOAD SWAP1 PUSH2 0x100 EXP SWAP1 DIV PUSH20 0xFFFFFFFFFFFFFFFFFFFFFFFFFFFFFFFFFFFFFFFF AND SWAP1 POP PUSH1 0x0 PUSH1 0x2 DUP5 DUP2 SLOAD DUP2 LT PUSH2 0x95E JUMPI PUSH2 0x95D PUSH2 0xFEC JUMP JUMPDEST JUMPDEST SWAP1 PUSH1 0x0 MSTORE PUSH1 0x20 PUSH1 0x0 KECCAK256 SWAP1 PUSH1 0x5 MUL ADD PUSH1 0x1 ADD SLOAD SWAP1 POP DUP2 PUSH20 0xFFFFFFFFFFFFFFFFFFFFFFFFFFFFFFFFFFFFFFFF AND PUSH2 0x8FC DUP3 SWAP1 DUP2 ISZERO MUL SWAP1 PUSH1 0x40 MLOAD PUSH1 0x0 PUSH1 0x40 MLOAD DUP1 DUP4 SUB DUP2 DUP6 DUP9 DUP9 CALL SWAP4 POP POP POP POP ISZERO DUP1 ISZERO PUSH2 0x9B8 JUMPI RETURNDATASIZE PUSH1 0x0 DUP1 RETURNDATACOPY RETURNDATASIZE PUSH1 0x0 REVERT JUMPDEST POP POP POP JUMPDEST POP POP JUMP JUMPDEST PUSH1 0x0 DUP2 DUP2 SLOAD DUP2 LT PUSH2 0x9D0 JUMPI PUSH1 0x0 DUP1 REVERT JUMPDEST SWAP1 PUSH1 0x0 MSTORE PUSH1 0x20 PUSH1 0x0 KECCAK256 ADD PUSH1 0x0 SWAP2 POP SLOAD SWAP1 PUSH2 0x100 EXP SWAP1 DIV PUSH20 0xFFFFFFFFFFFFFFFFFFFFFFFFFFFFFFFFFFFFFFFF AND DUP2 JUMP JUMPDEST PUSH1 0x3 PUSH1 0x20 MSTORE DUP2 PUSH1 0x0 MSTORE PUSH1 0x40 PUSH1 0x0 KECCAK256 PUSH1 0x20 MSTORE DUP1 PUSH1 0x0 MSTORE PUSH1 0x40 PUSH1 0x0 KECCAK256 PUSH1 0x0 SWAP2 POP SWAP2 POP SWAP1 SLOAD SWAP1 PUSH2 0x100 EXP SWAP1 DIV PUSH1 0xFF AND DUP2 JUMP JUMPDEST PUSH1 0x0 DUP2 CALLDATALOAD SWAP1 POP PUSH2 0xA3D DUP2 PUSH2 0x109B JUMP JUMPDEST SWAP3 SWAP2 POP POP JUMP JUMPDEST PUSH1 0x0 DUP2 CALLDATALOAD SWAP1 POP PUSH2 0xA52 DUP2 PUSH2 0x10B2 JUMP JUMPDEST SWAP3 SWAP2 POP POP JUMP JUMPDEST PUSH1 0x0 DUP2 CALLDATALOAD SWAP1 POP PUSH2 0xA67 DUP2 PUSH2 0x10C9 JUMP JUMPDEST SWAP3 SWAP2 POP POP JUMP JUMPDEST PUSH1 0x0 DUP1 PUSH1 0x40 DUP4 DUP6 SUB SLT ISZERO PUSH2 0xA84 JUMPI PUSH2 0xA83 PUSH2 0x101B JUMP JUMPDEST JUMPDEST PUSH1 0x0 PUSH2 0xA92 DUP6 DUP3 DUP7 ADD PUSH2 0xA2E JUMP JUMPDEST SWAP3 POP POP PUSH1 0x20 PUSH2 0xAA3 DUP6 DUP3 DUP7 ADD PUSH2 0xA58 JUMP JUMPDEST SWAP2 POP POP SWAP3 POP SWAP3 SWAP1 POP JUMP JUMPDEST PUSH1 0x0 PUSH1 0x20 DUP3 DUP5 SUB SLT ISZERO PUSH2 0xAC3 JUMPI PUSH2 0xAC2 PUSH2 0x101B JUMP JUMPDEST JUMPDEST PUSH1 0x0 PUSH2 0xAD1 DUP5 DUP3 DUP6 ADD PUSH2 0xA58 JUMP JUMPDEST SWAP2 POP POP SWAP3 SWAP2 POP POP JUMP JUMPDEST PUSH1 0x0 DUP1 PUSH1 0x40 DUP4 DUP6 SUB SLT ISZERO PUSH2 0xAF1 JUMPI PUSH2 0xAF0 PUSH2 0x101B JUMP JUMPDEST JUMPDEST PUSH1 0x0 PUSH2 0xAFF DUP6 DUP3 DUP7 ADD PUSH2 0xA58 JUMP JUMPDEST SWAP3 POP POP PUSH1 0x20 PUSH2 0xB10 DUP6 DUP3 DUP7 ADD PUSH2 0xA43 JUMP JUMPDEST SWAP2 POP POP SWAP3 POP SWAP3 SWAP1 POP JUMP JUMPDEST PUSH1 0x0 PUSH2 0xB26 DUP4 DUP4 PUSH2 0xB68 JUMP JUMPDEST PUSH1 0x20 DUP4 ADD SWAP1 POP SWAP3 SWAP2 POP POP JUMP JUMPDEST PUSH1 0x0 PUSH2 0xB3E DUP4 DUP4 PUSH2 0xCC9 JUMP JUMPDEST PUSH1 0xA0 DUP4 ADD SWAP1 POP SWAP3 SWAP2 POP POP JUMP JUMPDEST PUSH2 0xB53 DUP2 PUSH2 0xF2C JUMP JUMPDEST DUP3 MSTORE POP POP JUMP JUMPDEST PUSH2 0xB62 DUP2 PUSH2 0xF2C JUMP JUMPDEST DUP3 MSTORE POP POP JUMP JUMPDEST PUSH2 0xB71 DUP2 PUSH2 0xF1A JUMP JUMPDEST DUP3 MSTORE POP POP JUMP JUMPDEST PUSH2 0xB80 DUP2 PUSH2 0xF1A JUMP JUMPDEST DUP3 MSTORE POP POP JUMP JUMPDEST PUSH1 0x0 PUSH2 0xB91 DUP3 PUSH2 0xEB7 JUMP JUMPDEST PUSH2 0xB9B DUP2 DUP6 PUSH2 0xEE7 JUMP JUMPDEST SWAP4 POP PUSH2 0xBA6 DUP4 PUSH2 0xE97 JUMP JUMPDEST DUP1 PUSH1 0x0 JUMPDEST DUP4 DUP2 LT ISZERO PUSH2 0xBD7 JUMPI DUP2 MLOAD PUSH2 0xBBE DUP9 DUP3 PUSH2 0xB1A JUMP JUMPDEST SWAP8 POP PUSH2 0xBC9 DUP4 PUSH2 0xECD JUMP JUMPDEST SWAP3 POP POP PUSH1 0x1 DUP2 ADD SWAP1 POP PUSH2 0xBAA JUMP JUMPDEST POP DUP6 SWAP4 POP POP POP POP SWAP3 SWAP2 POP POP JUMP JUMPDEST PUSH1 0x0 PUSH2 0xBEF DUP3 PUSH2 0xEC2 JUMP JUMPDEST PUSH2 0xBF9 DUP2 DUP6 PUSH2 0xEF8 JUMP JUMPDEST SWAP4 POP PUSH2 0xC04 DUP4 PUSH2 0xEA7 JUMP JUMPDEST DUP1 PUSH1 0x0 JUMPDEST DUP4 DUP2 LT ISZERO PUSH2 0xC35 JUMPI DUP2 MLOAD PUSH2 0xC1C DUP9 DUP3 PUSH2 0xB32 JUMP JUMPDEST SWAP8 POP PUSH2 0xC27 DUP4 PUSH2 0xEDA JUMP JUMPDEST SWAP3 POP POP PUSH1 0x1 DUP2 ADD SWAP1 POP PUSH2 0xC08 JUMP JUMPDEST POP DUP6 SWAP4 POP POP POP POP SWAP3 SWAP2 POP POP JUMP JUMPDEST PUSH2 0xC4B DUP2 PUSH2 0xF3E JUMP JUMPDEST DUP3 MSTORE POP POP JUMP JUMPDEST PUSH2 0xC5A DUP2 PUSH2 0xF3E JUMP JUMPDEST DUP3 MSTORE POP POP JUMP JUMPDEST PUSH1 0x0 PUSH2 0xC6D PUSH1 0x19 DUP4 PUSH2 0xF09 JUMP JUMPDEST SWAP2 POP PUSH2 0xC78 DUP3 PUSH2 0x1020 JUMP JUMPDEST PUSH1 0x20 DUP3 ADD SWAP1 POP SWAP2 SWAP1 POP JUMP JUMPDEST PUSH1 0x0 PUSH2 0xC90 PUSH1 0x1A DUP4 PUSH2 0xF09 JUMP JUMPDEST SWAP2 POP PUSH2 0xC9B DUP3 PUSH2 0x1049 JUMP JUMPDEST PUSH1 0x20 DUP3 ADD SWAP1 POP SWAP2 SWAP1 POP JUMP JUMPDEST PUSH1 0x0 PUSH2 0xCB3 PUSH1 0x1C DUP4 PUSH2 0xF09 JUMP JUMPDEST SWAP2 POP PUSH2 0xCBE DUP3 PUSH2 0x1072 JUMP JUMPDEST PUSH1 0x20 DUP3 ADD SWAP1 POP SWAP2 SWAP1 POP JUMP JUMPDEST PUSH1 0xA0 DUP3 ADD PUSH1 0x0 DUP3 ADD MLOAD PUSH2 0xCDF PUSH1 0x0 DUP6 ADD DUP3 PUSH2 0xD31 JUMP JUMPDEST POP PUSH1 0x20 DUP3 ADD MLOAD PUSH2 0xCF2 PUSH1 0x20 DUP6 ADD DUP3 PUSH2 0xD31 JUMP JUMPDEST POP PUSH1 0x40 DUP3 ADD MLOAD PUSH2 0xD05 PUSH1 0x40 DUP6 ADD DUP3 PUSH2 0xB4A JUMP JUMPDEST POP PUSH1 0x60 DUP3 ADD MLOAD PUSH2 0xD18 PUSH1 0x60 DUP6 ADD DUP3 PUSH2 0xD31 JUMP JUMPDEST POP PUSH1 0x80 DUP3 ADD MLOAD PUSH2 0xD2B PUSH1 0x80 DUP6 ADD DUP3 PUSH2 0xC42 JUMP JUMPDEST POP POP POP POP JUMP JUMPDEST PUSH2 0xD3A DUP2 PUSH2 0xF6A JUMP JUMPDEST DUP3 MSTORE POP POP JUMP JUMPDEST PUSH2 0xD49 DUP2 PUSH2 0xF6A JUMP JUMPDEST DUP3 MSTORE POP POP JUMP JUMPDEST PUSH1 0x0 PUSH1 0x20 DUP3 ADD SWAP1 POP PUSH2 0xD64 PUSH1 0x0 DUP4 ADD DUP5 PUSH2 0xB77 JUMP JUMPDEST SWAP3 SWAP2 POP POP JUMP JUMPDEST PUSH1 0x0 PUSH1 0x20 DUP3 ADD SWAP1 POP DUP2 DUP2 SUB PUSH1 0x0 DUP4 ADD MSTORE PUSH2 0xD84 DUP2 DUP5 PUSH2 0xB86 JUMP JUMPDEST SWAP1 POP SWAP3 SWAP2 POP POP JUMP JUMPDEST PUSH1 0x0 PUSH1 0x20 DUP3 ADD SWAP1 POP DUP2 DUP2 SUB PUSH1 0x0 DUP4 ADD MSTORE PUSH2 0xDA6 DUP2 DUP5 PUSH2 0xBE4 JUMP JUMPDEST SWAP1 POP SWAP3 SWAP2 POP POP JUMP JUMPDEST PUSH1 0x0 PUSH1 0x20 DUP3 ADD SWAP1 POP PUSH2 0xDC3 PUSH1 0x0 DUP4 ADD DUP5 PUSH2 0xC51 JUMP JUMPDEST SWAP3 SWAP2 POP POP JUMP JUMPDEST PUSH1 0x0 PUSH1 0x20 DUP3 ADD SWAP1 POP DUP2 DUP2 SUB PUSH1 0x0 DUP4 ADD MSTORE PUSH2 0xDE2 DUP2 PUSH2 0xC60 JUMP JUMPDEST SWAP1 POP SWAP2 SWAP1 POP JUMP JUMPDEST PUSH1 0x0 PUSH1 0x20 DUP3 ADD SWAP1 POP DUP2 DUP2 SUB PUSH1 0x0 DUP4 ADD MSTORE PUSH2 0xE02 DUP2 PUSH2 0xC83 JUMP JUMPDEST SWAP1 POP SWAP2 SWAP1 POP JUMP JUMPDEST PUSH1 0x0 PUSH1 0x20 DUP3 ADD SWAP1 POP DUP2 DUP2 SUB PUSH1 0x0 DUP4 ADD MSTORE PUSH2 0xE22 DUP2 PUSH2 0xCA6 JUMP JUMPDEST SWAP1 POP SWAP2 SWAP1 POP JUMP JUMPDEST PUSH1 0x0 PUSH1 0x20 DUP3 ADD SWAP1 POP PUSH2 0xE3E PUSH1 0x0 DUP4 ADD DUP5 PUSH2 0xD40 JUMP JUMPDEST SWAP3 SWAP2 POP POP JUMP JUMPDEST PUSH1 0x0 PUSH1 0xA0 DUP3 ADD SWAP1 POP PUSH2 0xE59 PUSH1 0x0 DUP4 ADD DUP9 PUSH2 0xD40 JUMP JUMPDEST PUSH2 0xE66 PUSH1 0x20 DUP4 ADD DUP8 PUSH2 0xD40 JUMP JUMPDEST PUSH2 0xE73 PUSH1 0x40 DUP4 ADD DUP7 PUSH2 0xB59 JUMP JUMPDEST PUSH2 0xE80 PUSH1 0x60 DUP4 ADD DUP6 PUSH2 0xD40 JUMP JUMPDEST PUSH2 0xE8D PUSH1 0x80 DUP4 ADD DUP5 PUSH2 0xC51 JUMP JUMPDEST SWAP7 SWAP6 POP POP POP POP POP POP JUMP JUMPDEST PUSH1 0x0 DUP2 SWAP1 POP PUSH1 0x20 DUP3 ADD SWAP1 POP SWAP2 SWAP1 POP JUMP JUMPDEST PUSH1 0x0 DUP2 SWAP1 POP PUSH1 0x20 DUP3 ADD SWAP1 POP SWAP2 SWAP1 POP JUMP JUMPDEST PUSH1 0x0 DUP2 MLOAD SWAP1 POP SWAP2 SWAP1 POP JUMP JUMPDEST PUSH1 0x0 DUP2 MLOAD SWAP1 POP SWAP2 SWAP1 POP JUMP JUMPDEST PUSH1 0x0 PUSH1 0x20 DUP3 ADD SWAP1 POP SWAP2 SWAP1 POP JUMP JUMPDEST PUSH1 0x0 PUSH1 0x20 DUP3 ADD SWAP1 POP SWAP2 SWAP1 POP JUMP JUMPDEST PUSH1 0x0 DUP3 DUP3 MSTORE PUSH1 0x20 DUP3 ADD SWAP1 POP SWAP3 SWAP2 POP POP JUMP JUMPDEST PUSH1 0x0 DUP3 DUP3 MSTORE PUSH1 0x20 DUP3 ADD SWAP1 POP SWAP3 SWAP2 POP POP JUMP JUMPDEST PUSH1 0x0 DUP3 DUP3 MSTORE PUSH1 0x20 DUP3 ADD SWAP1 POP SWAP3 SWAP2 POP POP JUMP JUMPDEST PUSH1 0x0 PUSH2 0xF25 DUP3 PUSH2 0xF4A JUMP JUMPDEST SWAP1 POP SWAP2 SWAP1 POP JUMP JUMPDEST PUSH1 0x0 PUSH2 0xF37 DUP3 PUSH2 0xF4A JUMP JUMPDEST SWAP1 POP SWAP2 SWAP1 POP JUMP JUMPDEST PUSH1 0x0 DUP2 ISZERO ISZERO SWAP1 POP SWAP2 SWAP1 POP JUMP JUMPDEST PUSH1 0x0 PUSH20 0xFFFFFFFFFFFFFFFFFFFFFFFFFFFFFFFFFFFFFFFF DUP3 AND SWAP1 POP SWAP2 SWAP1 POP JUMP JUMPDEST PUSH1 0x0 DUP2 SWAP1 POP SWAP2 SWAP1 POP JUMP JUMPDEST PUSH1 0x0 PUSH2 0xF7F DUP3 PUSH2 0xF6A JUMP JUMPDEST SWAP2 POP PUSH32 0xFFFFFFFFFFFFFFFFFFFFFFFFFFFFFFFFFFFFFFFFFFFFFFFFFFFFFFFFFFFFFFFF DUP3 EQ ISZERO PUSH2 0xFB2 JUMPI PUSH2 0xFB1 PUSH2 0xFBD JUMP JUMPDEST JUMPDEST PUSH1 0x1 DUP3 ADD SWAP1 POP SWAP2 SWAP1 POP JUMP JUMPDEST PUSH32 0x4E487B7100000000000000000000000000000000000000000000000000000000 PUSH1 0x0 MSTORE PUSH1 0x11 PUSH1 0x4 MSTORE PUSH1 0x24 PUSH1 0x0 REVERT JUMPDEST PUSH32 0x4E487B7100000000000000000000000000000000000000000000000000000000 PUSH1 0x0 MSTORE PUSH1 0x32 PUSH1 0x4 MSTORE PUSH1 0x24 PUSH1 0x0 REVERT JUMPDEST PUSH1 0x0 DUP1 REVERT JUMPDEST PUSH32 0x4F6E6C7920417070726F76657220416C6C6F776564202E2E2100000000000000 PUSH1 0x0 DUP3 ADD MSTORE POP JUMP JUMPDEST PUSH32 0x43616E6E6F7420417070726F766572205472616E736665722021000000000000 PUSH1 0x0 DUP3 ADD MSTORE POP JUMP JUMPDEST PUSH32 0x5472616E73616374696F6E20416C726561647920446F6E652021212100000000 PUSH1 0x0 DUP3 ADD MSTORE POP JUMP JUMPDEST PUSH2 0x10A4 DUP2 PUSH2 0xF1A JUMP JUMPDEST DUP2 EQ PUSH2 0x10AF JUMPI PUSH1 0x0 DUP1 REVERT JUMPDEST POP JUMP JUMPDEST PUSH2 0x10BB DUP2 PUSH2 0xF2C JUMP JUMPDEST DUP2 EQ PUSH2 0x10C6 JUMPI PUSH1 0x0 DUP1 REVERT JUMPDEST POP JUMP JUMPDEST PUSH2 0x10D2 DUP2 PUSH2 0xF6A JUMP JUMPDEST DUP2 EQ PUSH2 0x10DD JUMPI PUSH1 0x0 DUP1 REVERT JUMPDEST POP JUMP INVALID LOG2 PUSH5 0x6970667358 0x22 SLT KECCAK256 0x5D PUSH6 0x29B143BAADD9 0xA7 0x21 0xED 0xE8 0xA8 0x4E DUP10 PUSH10 0x462C0E2DD21882717C3A 0xBC MSTORE CALLER PUSH9 0x162364736F6C634300 ADDMOD SMOD STOP CALLER "
				},
				"gasEstimates": {
					"creation": {
						"codeDepositCost": "874800",
						"executionCost": "infinite",
						"totalCost": "infinite"
					},
					"external": {
						"approvals(address,uint256)": "3153",
						"approveTransfer(uint256)": "infinite",
						"approvers(uint256)": "5000",
						"createTransfer(uint256,address)": "infinite",
						"getApprovers()": "infinite",
						"getTransfers()": "infinite",
						"quorum()": "2430",
						"transfers(uint256)": "infinite"
					}
				},
				"methodIdentifiers": {
					"approvals(address,uint256)": "ffabc673",
					"approveTransfer(uint256)": "cacca4a0",
					"approvers(uint256)": "d3650fb8",
					"createTransfer(uint256,address)": "4c12fa47",
					"getApprovers()": "6cb3e8ef",
					"getTransfers()": "2f65142c",
					"quorum()": "1703a018",
					"transfers(uint256)": "9377d711"
				}
			},
			"storageLayout": {
				"storage": [
					{
						"astId": 5,
						"contract": "contracts/Wallet.sol:Wallet",
						"label": "approvers",
						"offset": 0,
						"slot": "0",
						"type": "t_array(t_address)dyn_storage"
					},
					{
						"astId": 7,
						"contract": "contracts/Wallet.sol:Wallet",
						"label": "quorum",
						"offset": 0,
						"slot": "1",
						"type": "t_uint256"
					},
					{
						"astId": 22,
						"contract": "contracts/Wallet.sol:Wallet",
						"label": "transfers",
						"offset": 0,
						"slot": "2",
						"type": "t_array(t_struct(Transfer)18_storage)dyn_storage"
					},
					{
						"astId": 28,
						"contract": "contracts/Wallet.sol:Wallet",
						"label": "approvals",
						"offset": 0,
						"slot": "3",
						"type": "t_mapping(t_address,t_mapping(t_uint256,t_bool))"
					}
				],
				"types": {
					"t_address": {
						"encoding": "inplace",
						"label": "address",
						"numberOfBytes": "20"
					},
					"t_address_payable": {
						"encoding": "inplace",
						"label": "address payable",
						"numberOfBytes": "20"
					},
					"t_array(t_address)dyn_storage": {
						"base": "t_address",
						"encoding": "dynamic_array",
						"label": "address[]",
						"numberOfBytes": "32"
					},
					"t_array(t_struct(Transfer)18_storage)dyn_storage": {
						"base": "t_struct(Transfer)18_storage",
						"encoding": "dynamic_array",
						"label": "struct Wallet.Transfer[]",
						"numberOfBytes": "32"
					},
					"t_bool": {
						"encoding": "inplace",
						"label": "bool",
						"numberOfBytes": "1"
					},
					"t_mapping(t_address,t_mapping(t_uint256,t_bool))": {
						"encoding": "mapping",
						"key": "t_address",
						"label": "mapping(address => mapping(uint256 => bool))",
						"numberOfBytes": "32",
						"value": "t_mapping(t_uint256,t_bool)"
					},
					"t_mapping(t_uint256,t_bool)": {
						"encoding": "mapping",
						"key": "t_uint256",
						"label": "mapping(uint256 => bool)",
						"numberOfBytes": "32",
						"value": "t_bool"
					},
					"t_struct(Transfer)18_storage": {
						"encoding": "inplace",
						"label": "struct Wallet.Transfer",
						"members": [
							{
								"astId": 9,
								"contract": "contracts/Wallet.sol:Wallet",
								"label": "id",
								"offset": 0,
								"slot": "0",
								"type": "t_uint256"
							},
							{
								"astId": 11,
								"contract": "contracts/Wallet.sol:Wallet",
								"label": "amount",
								"offset": 0,
								"slot": "1",
								"type": "t_uint256"
							},
							{
								"astId": 13,
								"contract": "contracts/Wallet.sol:Wallet",
								"label": "to",
								"offset": 0,
								"slot": "2",
								"type": "t_address_payable"
							},
							{
								"astId": 15,
								"contract": "contracts/Wallet.sol:Wallet",
								"label": "approvals",
								"offset": 0,
								"slot": "3",
								"type": "t_uint256"
							},
							{
								"astId": 17,
								"contract": "contracts/Wallet.sol:Wallet",
								"label": "sent",
								"offset": 0,
								"slot": "4",
								"type": "t_bool"
							}
						],
						"numberOfBytes": "160"
					},
					"t_uint256": {
						"encoding": "inplace",
						"label": "uint256",
						"numberOfBytes": "32"
					}
				}
			},
			"userdoc": {
				"kind": "user",
				"methods": {},
				"version": 1
			}
		}
	}
}