{
	"contracts/Wallet.sol": {
		"Wallet": {
			"abi": [
				{
					"inputs": [
						{
							"internalType": "address[]",
							"name": "_approvers",
							"type": "address[]"
						},
						{
							"internalType": "uint256",
							"name": "_quorum",
							"type": "uint256"
						}
					],
					"stateMutability": "nonpayable",
					"type": "constructor"
				},
				{
					"inputs": [
						{
							"internalType": "uint256",
							"name": "",
							"type": "uint256"
						}
					],
					"name": "approvers",
					"outputs": [
						{
							"internalType": "address",
							"name": "",
							"type": "address"
						}
					],
					"stateMutability": "view",
					"type": "function"
				},
				{
					"inputs": [],
					"name": "getApprovers",
					"outputs": [
						{
							"internalType": "address[]",
							"name": "",
							"type": "address[]"
						}
					],
					"stateMutability": "view",
					"type": "function"
				},
				{
					"inputs": [],
					"name": "quorum",
					"outputs": [
						{
							"internalType": "uint256",
							"name": "",
							"type": "uint256"
						}
					],
					"stateMutability": "view",
					"type": "function"
				}
			],
			"devdoc": {
				"kind": "dev",
				"methods": {},
				"version": 1
			},
			"evm": {
				"assembly": "    /* \"contracts/Wallet.sol\":65:399  contract Wallet{\r... */\n  mstore(0x40, 0x80)\n    /* \"contracts/Wallet.sol\":153:285  constructor(address[] memory _approvers, uint _quorum) public{\r... */\n  callvalue\n  dup1\n  iszero\n  tag_1\n  jumpi\n  0x00\n  dup1\n  revert\ntag_1:\n  pop\n  mload(0x40)\n  sub(codesize, bytecodeSize)\n  dup1\n  bytecodeSize\n  dup4\n  codecopy\n  dup2\n  dup2\n  add\n  0x40\n  mstore\n  dup2\n  add\n  swap1\n  tag_2\n  swap2\n  swap1\n  tag_3\n  jump\t// in\ntag_2:\n    /* \"contracts/Wallet.sol\":237:247  _approvers */\n  dup2\n    /* \"contracts/Wallet.sol\":225:234  approvers */\n  0x00\n    /* \"contracts/Wallet.sol\":225:247  approvers = _approvers */\n  swap1\n  dup1\n  mload\n  swap1\n  0x20\n  add\n  swap1\n  tag_6\n  swap3\n  swap2\n  swap1\n  tag_7\n  jump\t// in\ntag_6:\n  pop\n    /* \"contracts/Wallet.sol\":270:277  _quorum */\n  dup1\n    /* \"contracts/Wallet.sol\":258:264  quorum */\n  0x01\n    /* \"contracts/Wallet.sol\":258:277  quorum    = _quorum */\n  dup2\n  swap1\n  sstore\n  pop\n    /* \"contracts/Wallet.sol\":153:285  constructor(address[] memory _approvers, uint _quorum) public{\r... */\n  pop\n  pop\n    /* \"contracts/Wallet.sol\":65:399  contract Wallet{\r... */\n  jump(tag_8)\ntag_7:\n  dup3\n  dup1\n  sload\n  dup3\n  dup3\n  sstore\n  swap1\n  0x00\n  mstore\n  keccak256(0x00, 0x20)\n  swap1\n  dup2\n  add\n  swap3\n  dup3\n  iszero\n  tag_9\n  jumpi\n  swap2\n  0x20\n  mul\n  dup3\n  add\ntag_10:\n  dup3\n  dup2\n  gt\n  iszero\n  tag_11\n  jumpi\n  dup3\n  mload\n  dup3\n  exp(0x0100, 0x00)\n  dup2\n  sload\n  dup2\n  0xffffffffffffffffffffffffffffffffffffffff\n  mul\n  not\n  and\n  swap1\n  dup4\n  0xffffffffffffffffffffffffffffffffffffffff\n  and\n  mul\n  or\n  swap1\n  sstore\n  pop\n  swap2\n  0x20\n  add\n  swap2\n  swap1\n  0x01\n  add\n  swap1\n  jump(tag_10)\ntag_11:\ntag_9:\n  pop\n  swap1\n  pop\n  tag_12\n  swap2\n  swap1\n  tag_13\n  jump\t// in\ntag_12:\n  pop\n  swap1\n  jump\t// out\ntag_13:\ntag_14:\n  dup1\n  dup3\n  gt\n  iszero\n  tag_15\n  jumpi\n  0x00\n  dup2\n  0x00\n  swap1\n  sstore\n  pop\n  0x01\n  add\n  jump(tag_14)\ntag_15:\n  pop\n  swap1\n  jump\t// out\n    /* \"#utility.yul\":24:768   */\ntag_17:\n    /* \"#utility.yul\":131:136   */\n  0x00\n    /* \"#utility.yul\":156:237   */\n  tag_19\n    /* \"#utility.yul\":172:236   */\n  tag_20\n    /* \"#utility.yul\":229:235   */\n  dup5\n    /* \"#utility.yul\":172:236   */\n  tag_21\n  jump\t// in\ntag_20:\n    /* \"#utility.yul\":156:237   */\n  tag_22\n  jump\t// in\ntag_19:\n    /* \"#utility.yul\":147:237   */\n  swap1\n  pop\n    /* \"#utility.yul\":257:262   */\n  dup1\n    /* \"#utility.yul\":286:292   */\n  dup4\n    /* \"#utility.yul\":279:284   */\n  dup3\n    /* \"#utility.yul\":272:293   */\n  mstore\n    /* \"#utility.yul\":320:324   */\n  0x20\n    /* \"#utility.yul\":313:318   */\n  dup3\n    /* \"#utility.yul\":309:325   */\n  add\n    /* \"#utility.yul\":302:325   */\n  swap1\n  pop\n    /* \"#utility.yul\":346:352   */\n  dup3\n    /* \"#utility.yul\":396:399   */\n  dup6\n    /* \"#utility.yul\":388:392   */\n  0x20\n    /* \"#utility.yul\":380:386   */\n  dup7\n    /* \"#utility.yul\":376:393   */\n  mul\n    /* \"#utility.yul\":371:374   */\n  dup3\n    /* \"#utility.yul\":367:394   */\n  add\n    /* \"#utility.yul\":364:400   */\n  gt\n    /* \"#utility.yul\":361:504   */\n  iszero\n  tag_23\n  jumpi\n    /* \"#utility.yul\":415:494   */\n  tag_24\n  tag_25\n  jump\t// in\ntag_24:\n    /* \"#utility.yul\":361:504   */\ntag_23:\n    /* \"#utility.yul\":528:529   */\n  0x00\n    /* \"#utility.yul\":513:762   */\ntag_26:\n    /* \"#utility.yul\":538:544   */\n  dup6\n    /* \"#utility.yul\":535:536   */\n  dup2\n    /* \"#utility.yul\":532:545   */\n  lt\n    /* \"#utility.yul\":513:762   */\n  iszero\n  tag_28\n  jumpi\n    /* \"#utility.yul\":606:609   */\n  dup2\n    /* \"#utility.yul\":635:683   */\n  tag_29\n    /* \"#utility.yul\":679:682   */\n  dup9\n    /* \"#utility.yul\":667:677   */\n  dup3\n    /* \"#utility.yul\":635:683   */\n  tag_30\n  jump\t// in\ntag_29:\n    /* \"#utility.yul\":630:633   */\n  dup5\n    /* \"#utility.yul\":623:684   */\n  mstore\n    /* \"#utility.yul\":713:717   */\n  0x20\n    /* \"#utility.yul\":708:711   */\n  dup5\n    /* \"#utility.yul\":704:718   */\n  add\n    /* \"#utility.yul\":697:718   */\n  swap4\n  pop\n    /* \"#utility.yul\":747:751   */\n  0x20\n    /* \"#utility.yul\":742:745   */\n  dup4\n    /* \"#utility.yul\":738:752   */\n  add\n    /* \"#utility.yul\":731:752   */\n  swap3\n  pop\n    /* \"#utility.yul\":573:762   */\n  pop\n    /* \"#utility.yul\":560:561   */\n  0x01\n    /* \"#utility.yul\":557:558   */\n  dup2\n    /* \"#utility.yul\":553:562   */\n  add\n    /* \"#utility.yul\":548:562   */\n  swap1\n  pop\n    /* \"#utility.yul\":513:762   */\n  jump(tag_26)\ntag_28:\n    /* \"#utility.yul\":517:531   */\n  pop\n    /* \"#utility.yul\":137:768   */\n  pop\n  pop\n    /* \"#utility.yul\":24:768   */\n  swap4\n  swap3\n  pop\n  pop\n  pop\n  jump\t// out\n    /* \"#utility.yul\":774:917   */\ntag_30:\n    /* \"#utility.yul\":831:836   */\n  0x00\n    /* \"#utility.yul\":862:868   */\n  dup2\n    /* \"#utility.yul\":856:869   */\n  mload\n    /* \"#utility.yul\":847:869   */\n  swap1\n  pop\n    /* \"#utility.yul\":878:911   */\n  tag_32\n    /* \"#utility.yul\":905:910   */\n  dup2\n    /* \"#utility.yul\":878:911   */\n  tag_33\n  jump\t// in\ntag_32:\n    /* \"#utility.yul\":774:917   */\n  swap3\n  swap2\n  pop\n  pop\n  jump\t// out\n    /* \"#utility.yul\":940:1325   */\ntag_34:\n    /* \"#utility.yul\":1022:1027   */\n  0x00\n    /* \"#utility.yul\":1071:1074   */\n  dup3\n    /* \"#utility.yul\":1064:1068   */\n  0x1f\n    /* \"#utility.yul\":1056:1062   */\n  dup4\n    /* \"#utility.yul\":1052:1069   */\n  add\n    /* \"#utility.yul\":1048:1075   */\n  slt\n    /* \"#utility.yul\":1038:1160   */\n  tag_36\n  jumpi\n    /* \"#utility.yul\":1079:1158   */\n  tag_37\n  tag_38\n  jump\t// in\ntag_37:\n    /* \"#utility.yul\":1038:1160   */\ntag_36:\n    /* \"#utility.yul\":1189:1195   */\n  dup2\n    /* \"#utility.yul\":1183:1196   */\n  mload\n    /* \"#utility.yul\":1214:1319   */\n  tag_39\n    /* \"#utility.yul\":1315:1318   */\n  dup5\n    /* \"#utility.yul\":1307:1313   */\n  dup3\n    /* \"#utility.yul\":1300:1304   */\n  0x20\n    /* \"#utility.yul\":1292:1298   */\n  dup7\n    /* \"#utility.yul\":1288:1305   */\n  add\n    /* \"#utility.yul\":1214:1319   */\n  tag_17\n  jump\t// in\ntag_39:\n    /* \"#utility.yul\":1205:1319   */\n  swap2\n  pop\n    /* \"#utility.yul\":1028:1325   */\n  pop\n    /* \"#utility.yul\":940:1325   */\n  swap3\n  swap2\n  pop\n  pop\n  jump\t// out\n    /* \"#utility.yul\":1331:1474   */\ntag_40:\n    /* \"#utility.yul\":1388:1393   */\n  0x00\n    /* \"#utility.yul\":1419:1425   */\n  dup2\n    /* \"#utility.yul\":1413:1426   */\n  mload\n    /* \"#utility.yul\":1404:1426   */\n  swap1\n  pop\n    /* \"#utility.yul\":1435:1468   */\n  tag_42\n    /* \"#utility.yul\":1462:1467   */\n  dup2\n    /* \"#utility.yul\":1435:1468   */\n  tag_43\n  jump\t// in\ntag_42:\n    /* \"#utility.yul\":1331:1474   */\n  swap3\n  swap2\n  pop\n  pop\n  jump\t// out\n    /* \"#utility.yul\":1480:2190   */\ntag_3:\n    /* \"#utility.yul\":1584:1590   */\n  0x00\n    /* \"#utility.yul\":1592:1598   */\n  dup1\n    /* \"#utility.yul\":1641:1643   */\n  0x40\n    /* \"#utility.yul\":1629:1638   */\n  dup4\n    /* \"#utility.yul\":1620:1627   */\n  dup6\n    /* \"#utility.yul\":1616:1639   */\n  sub\n    /* \"#utility.yul\":1612:1644   */\n  slt\n    /* \"#utility.yul\":1609:1728   */\n  iszero\n  tag_45\n  jumpi\n    /* \"#utility.yul\":1647:1726   */\n  tag_46\n  tag_47\n  jump\t// in\ntag_46:\n    /* \"#utility.yul\":1609:1728   */\ntag_45:\n    /* \"#utility.yul\":1788:1789   */\n  0x00\n    /* \"#utility.yul\":1777:1786   */\n  dup4\n    /* \"#utility.yul\":1773:1790   */\n  add\n    /* \"#utility.yul\":1767:1791   */\n  mload\n    /* \"#utility.yul\":1818:1836   */\n  0xffffffffffffffff\n    /* \"#utility.yul\":1810:1816   */\n  dup2\n    /* \"#utility.yul\":1807:1837   */\n  gt\n    /* \"#utility.yul\":1804:1921   */\n  iszero\n  tag_48\n  jumpi\n    /* \"#utility.yul\":1840:1919   */\n  tag_49\n  tag_50\n  jump\t// in\ntag_49:\n    /* \"#utility.yul\":1804:1921   */\ntag_48:\n    /* \"#utility.yul\":1945:2034   */\n  tag_51\n    /* \"#utility.yul\":2026:2033   */\n  dup6\n    /* \"#utility.yul\":2017:2023   */\n  dup3\n    /* \"#utility.yul\":2006:2015   */\n  dup7\n    /* \"#utility.yul\":2002:2024   */\n  add\n    /* \"#utility.yul\":1945:2034   */\n  tag_34\n  jump\t// in\ntag_51:\n    /* \"#utility.yul\":1935:2034   */\n  swap3\n  pop\n    /* \"#utility.yul\":1738:2044   */\n  pop\n    /* \"#utility.yul\":2083:2085   */\n  0x20\n    /* \"#utility.yul\":2109:2173   */\n  tag_52\n    /* \"#utility.yul\":2165:2172   */\n  dup6\n    /* \"#utility.yul\":2156:2162   */\n  dup3\n    /* \"#utility.yul\":2145:2154   */\n  dup7\n    /* \"#utility.yul\":2141:2163   */\n  add\n    /* \"#utility.yul\":2109:2173   */\n  tag_40\n  jump\t// in\ntag_52:\n    /* \"#utility.yul\":2099:2173   */\n  swap2\n  pop\n    /* \"#utility.yul\":2054:2183   */\n  pop\n    /* \"#utility.yul\":1480:2190   */\n  swap3\n  pop\n  swap3\n  swap1\n  pop\n  jump\t// out\n    /* \"#utility.yul\":2196:2325   */\ntag_22:\n    /* \"#utility.yul\":2230:2236   */\n  0x00\n    /* \"#utility.yul\":2257:2277   */\n  tag_54\n  tag_55\n  jump\t// in\ntag_54:\n    /* \"#utility.yul\":2247:2277   */\n  swap1\n  pop\n    /* \"#utility.yul\":2286:2319   */\n  tag_56\n    /* \"#utility.yul\":2314:2318   */\n  dup3\n    /* \"#utility.yul\":2306:2312   */\n  dup3\n    /* \"#utility.yul\":2286:2319   */\n  tag_57\n  jump\t// in\ntag_56:\n    /* \"#utility.yul\":2196:2325   */\n  swap2\n  swap1\n  pop\n  jump\t// out\n    /* \"#utility.yul\":2331:2406   */\ntag_55:\n    /* \"#utility.yul\":2364:2370   */\n  0x00\n    /* \"#utility.yul\":2397:2399   */\n  0x40\n    /* \"#utility.yul\":2391:2400   */\n  mload\n    /* \"#utility.yul\":2381:2400   */\n  swap1\n  pop\n    /* \"#utility.yul\":2331:2406   */\n  swap1\n  jump\t// out\n    /* \"#utility.yul\":2412:2723   */\ntag_21:\n    /* \"#utility.yul\":2489:2493   */\n  0x00\n    /* \"#utility.yul\":2579:2597   */\n  0xffffffffffffffff\n    /* \"#utility.yul\":2571:2577   */\n  dup3\n    /* \"#utility.yul\":2568:2598   */\n  gt\n    /* \"#utility.yul\":2565:2621   */\n  iszero\n  tag_60\n  jumpi\n    /* \"#utility.yul\":2601:2619   */\n  tag_61\n  tag_62\n  jump\t// in\ntag_61:\n    /* \"#utility.yul\":2565:2621   */\ntag_60:\n    /* \"#utility.yul\":2651:2655   */\n  0x20\n    /* \"#utility.yul\":2643:2649   */\n  dup3\n    /* \"#utility.yul\":2639:2656   */\n  mul\n    /* \"#utility.yul\":2631:2656   */\n  swap1\n  pop\n    /* \"#utility.yul\":2711:2715   */\n  0x20\n    /* \"#utility.yul\":2705:2709   */\n  dup2\n    /* \"#utility.yul\":2701:2716   */\n  add\n    /* \"#utility.yul\":2693:2716   */\n  swap1\n  pop\n    /* \"#utility.yul\":2412:2723   */\n  swap2\n  swap1\n  pop\n  jump\t// out\n    /* \"#utility.yul\":2729:2825   */\ntag_63:\n    /* \"#utility.yul\":2766:2773   */\n  0x00\n    /* \"#utility.yul\":2795:2819   */\n  tag_65\n    /* \"#utility.yul\":2813:2818   */\n  dup3\n    /* \"#utility.yul\":2795:2819   */\n  tag_66\n  jump\t// in\ntag_65:\n    /* \"#utility.yul\":2784:2819   */\n  swap1\n  pop\n    /* \"#utility.yul\":2729:2825   */\n  swap2\n  swap1\n  pop\n  jump\t// out\n    /* \"#utility.yul\":2831:2957   */\ntag_66:\n    /* \"#utility.yul\":2868:2875   */\n  0x00\n    /* \"#utility.yul\":2908:2950   */\n  0xffffffffffffffffffffffffffffffffffffffff\n    /* \"#utility.yul\":2901:2906   */\n  dup3\n    /* \"#utility.yul\":2897:2951   */\n  and\n    /* \"#utility.yul\":2886:2951   */\n  swap1\n  pop\n    /* \"#utility.yul\":2831:2957   */\n  swap2\n  swap1\n  pop\n  jump\t// out\n    /* \"#utility.yul\":2963:3040   */\ntag_68:\n    /* \"#utility.yul\":3000:3007   */\n  0x00\n    /* \"#utility.yul\":3029:3034   */\n  dup2\n    /* \"#utility.yul\":3018:3034   */\n  swap1\n  pop\n    /* \"#utility.yul\":2963:3040   */\n  swap2\n  swap1\n  pop\n  jump\t// out\n    /* \"#utility.yul\":3046:3327   */\ntag_57:\n    /* \"#utility.yul\":3129:3156   */\n  tag_71\n    /* \"#utility.yul\":3151:3155   */\n  dup3\n    /* \"#utility.yul\":3129:3156   */\n  tag_72\n  jump\t// in\ntag_71:\n    /* \"#utility.yul\":3121:3127   */\n  dup2\n    /* \"#utility.yul\":3117:3157   */\n  add\n    /* \"#utility.yul\":3259:3265   */\n  dup2\n    /* \"#utility.yul\":3247:3257   */\n  dup2\n    /* \"#utility.yul\":3244:3266   */\n  lt\n    /* \"#utility.yul\":3223:3241   */\n  0xffffffffffffffff\n    /* \"#utility.yul\":3211:3221   */\n  dup3\n    /* \"#utility.yul\":3208:3242   */\n  gt\n    /* \"#utility.yul\":3205:3267   */\n  or\n    /* \"#utility.yul\":3202:3290   */\n  iszero\n  tag_73\n  jumpi\n    /* \"#utility.yul\":3270:3288   */\n  tag_74\n  tag_62\n  jump\t// in\ntag_74:\n    /* \"#utility.yul\":3202:3290   */\ntag_73:\n    /* \"#utility.yul\":3310:3320   */\n  dup1\n    /* \"#utility.yul\":3306:3308   */\n  0x40\n    /* \"#utility.yul\":3299:3321   */\n  mstore\n    /* \"#utility.yul\":3089:3327   */\n  pop\n    /* \"#utility.yul\":3046:3327   */\n  pop\n  pop\n  jump\t// out\n    /* \"#utility.yul\":3333:3513   */\ntag_62:\n    /* \"#utility.yul\":3381:3458   */\n  0x4e487b7100000000000000000000000000000000000000000000000000000000\n    /* \"#utility.yul\":3378:3379   */\n  0x00\n    /* \"#utility.yul\":3371:3459   */\n  mstore\n    /* \"#utility.yul\":3478:3482   */\n  0x41\n    /* \"#utility.yul\":3475:3476   */\n  0x04\n    /* \"#utility.yul\":3468:3483   */\n  mstore\n    /* \"#utility.yul\":3502:3506   */\n  0x24\n    /* \"#utility.yul\":3499:3500   */\n  0x00\n    /* \"#utility.yul\":3492:3507   */\n  revert\n    /* \"#utility.yul\":3519:3636   */\ntag_38:\n    /* \"#utility.yul\":3628:3629   */\n  0x00\n    /* \"#utility.yul\":3625:3626   */\n  dup1\n    /* \"#utility.yul\":3618:3630   */\n  revert\n    /* \"#utility.yul\":3642:3759   */\ntag_25:\n    /* \"#utility.yul\":3751:3752   */\n  0x00\n    /* \"#utility.yul\":3748:3749   */\n  dup1\n    /* \"#utility.yul\":3741:3753   */\n  revert\n    /* \"#utility.yul\":3765:3882   */\ntag_50:\n    /* \"#utility.yul\":3874:3875   */\n  0x00\n    /* \"#utility.yul\":3871:3872   */\n  dup1\n    /* \"#utility.yul\":3864:3876   */\n  revert\n    /* \"#utility.yul\":3888:4005   */\ntag_47:\n    /* \"#utility.yul\":3997:3998   */\n  0x00\n    /* \"#utility.yul\":3994:3995   */\n  dup1\n    /* \"#utility.yul\":3987:3999   */\n  revert\n    /* \"#utility.yul\":4011:4113   */\ntag_72:\n    /* \"#utility.yul\":4052:4058   */\n  0x00\n    /* \"#utility.yul\":4103:4105   */\n  0x1f\n    /* \"#utility.yul\":4099:4106   */\n  not\n    /* \"#utility.yul\":4094:4096   */\n  0x1f\n    /* \"#utility.yul\":4087:4092   */\n  dup4\n    /* \"#utility.yul\":4083:4097   */\n  add\n    /* \"#utility.yul\":4079:4107   */\n  and\n    /* \"#utility.yul\":4069:4107   */\n  swap1\n  pop\n    /* \"#utility.yul\":4011:4113   */\n  swap2\n  swap1\n  pop\n  jump\t// out\n    /* \"#utility.yul\":4119:4241   */\ntag_33:\n    /* \"#utility.yul\":4192:4216   */\n  tag_82\n    /* \"#utility.yul\":4210:4215   */\n  dup2\n    /* \"#utility.yul\":4192:4216   */\n  tag_63\n  jump\t// in\ntag_82:\n    /* \"#utility.yul\":4185:4190   */\n  dup2\n    /* \"#utility.yul\":4182:4217   */\n  eq\n    /* \"#utility.yul\":4172:4235   */\n  tag_83\n  jumpi\n    /* \"#utility.yul\":4231:4232   */\n  0x00\n    /* \"#utility.yul\":4228:4229   */\n  dup1\n    /* \"#utility.yul\":4221:4233   */\n  revert\n    /* \"#utility.yul\":4172:4235   */\ntag_83:\n    /* \"#utility.yul\":4119:4241   */\n  pop\n  jump\t// out\n    /* \"#utility.yul\":4247:4369   */\ntag_43:\n    /* \"#utility.yul\":4320:4344   */\n  tag_85\n    /* \"#utility.yul\":4338:4343   */\n  dup2\n    /* \"#utility.yul\":4320:4344   */\n  tag_68\n  jump\t// in\ntag_85:\n    /* \"#utility.yul\":4313:4318   */\n  dup2\n    /* \"#utility.yul\":4310:4345   */\n  eq\n    /* \"#utility.yul\":4300:4363   */\n  tag_86\n  jumpi\n    /* \"#utility.yul\":4359:4360   */\n  0x00\n    /* \"#utility.yul\":4356:4357   */\n  dup1\n    /* \"#utility.yul\":4349:4361   */\n  revert\n    /* \"#utility.yul\":4300:4363   */\ntag_86:\n    /* \"#utility.yul\":4247:4369   */\n  pop\n  jump\t// out\n    /* \"contracts/Wallet.sol\":65:399  contract Wallet{\r... */\ntag_8:\n  dataSize(sub_0)\n  dup1\n  dataOffset(sub_0)\n  0x00\n  codecopy\n  0x00\n  return\nstop\n\nsub_0: assembly {\n        /* \"contracts/Wallet.sol\":65:399  contract Wallet{\r... */\n      mstore(0x40, 0x80)\n      callvalue\n      dup1\n      iszero\n      tag_1\n      jumpi\n      0x00\n      dup1\n      revert\n    tag_1:\n      pop\n      jumpi(tag_2, lt(calldatasize, 0x04))\n      shr(0xe0, calldataload(0x00))\n      dup1\n      0x1703a018\n      eq\n      tag_3\n      jumpi\n      dup1\n      0x6cb3e8ef\n      eq\n      tag_4\n      jumpi\n      dup1\n      0xd3650fb8\n      eq\n      tag_5\n      jumpi\n    tag_2:\n      0x00\n      dup1\n      revert\n        /* \"contracts/Wallet.sol\":120:138  uint public quorum */\n    tag_3:\n      tag_6\n      tag_7\n      jump\t// in\n    tag_6:\n      mload(0x40)\n      tag_8\n      swap2\n      swap1\n      tag_9\n      jump\t// in\n    tag_8:\n      mload(0x40)\n      dup1\n      swap2\n      sub\n      swap1\n      return\n        /* \"contracts/Wallet.sol\":291:390  function getApprovers() external view returns(address[] memory) {\r... */\n    tag_4:\n      tag_10\n      tag_11\n      jump\t// in\n    tag_10:\n      mload(0x40)\n      tag_12\n      swap2\n      swap1\n      tag_13\n      jump\t// in\n    tag_12:\n      mload(0x40)\n      dup1\n      swap2\n      sub\n      swap1\n      return\n        /* \"contracts/Wallet.sol\":87:113  address[] public approvers */\n    tag_5:\n      tag_14\n      0x04\n      dup1\n      calldatasize\n      sub\n      dup2\n      add\n      swap1\n      tag_15\n      swap2\n      swap1\n      tag_16\n      jump\t// in\n    tag_15:\n      tag_17\n      jump\t// in\n    tag_14:\n      mload(0x40)\n      tag_18\n      swap2\n      swap1\n      tag_19\n      jump\t// in\n    tag_18:\n      mload(0x40)\n      dup1\n      swap2\n      sub\n      swap1\n      return\n        /* \"contracts/Wallet.sol\":120:138  uint public quorum */\n    tag_7:\n      sload(0x01)\n      dup2\n      jump\t// out\n        /* \"contracts/Wallet.sol\":291:390  function getApprovers() external view returns(address[] memory) {\r... */\n    tag_11:\n        /* \"contracts/Wallet.sol\":337:353  address[] memory */\n      0x60\n        /* \"contracts/Wallet.sol\":373:382  approvers */\n      0x00\n        /* \"contracts/Wallet.sol\":366:382  return approvers */\n      dup1\n      sload\n      dup1\n      0x20\n      mul\n      0x20\n      add\n      mload(0x40)\n      swap1\n      dup2\n      add\n      0x40\n      mstore\n      dup1\n      swap3\n      swap2\n      swap1\n      dup2\n      dup2\n      mstore\n      0x20\n      add\n      dup3\n      dup1\n      sload\n      dup1\n      iszero\n      tag_21\n      jumpi\n      0x20\n      mul\n      dup3\n      add\n      swap2\n      swap1\n      0x00\n      mstore\n      keccak256(0x00, 0x20)\n      swap1\n    tag_22:\n      dup2\n      0x00\n      swap1\n      sload\n      swap1\n      0x0100\n      exp\n      swap1\n      div\n      0xffffffffffffffffffffffffffffffffffffffff\n      and\n      0xffffffffffffffffffffffffffffffffffffffff\n      and\n      dup2\n      mstore\n      0x20\n      add\n      swap1\n      0x01\n      add\n      swap1\n      dup1\n      dup4\n      gt\n      tag_22\n      jumpi\n    tag_21:\n      pop\n      pop\n      pop\n      pop\n      pop\n      swap1\n      pop\n        /* \"contracts/Wallet.sol\":291:390  function getApprovers() external view returns(address[] memory) {\r... */\n      swap1\n      jump\t// out\n        /* \"contracts/Wallet.sol\":87:113  address[] public approvers */\n    tag_17:\n      0x00\n      dup2\n      dup2\n      sload\n      dup2\n      lt\n      tag_23\n      jumpi\n      0x00\n      dup1\n      revert\n    tag_23:\n      swap1\n      0x00\n      mstore\n      keccak256(0x00, 0x20)\n      add\n      0x00\n      swap2\n      pop\n      sload\n      swap1\n      0x0100\n      exp\n      swap1\n      div\n      0xffffffffffffffffffffffffffffffffffffffff\n      and\n      dup2\n      jump\t// out\n        /* \"#utility.yul\":7:146   */\n    tag_26:\n        /* \"#utility.yul\":53:58   */\n      0x00\n        /* \"#utility.yul\":91:97   */\n      dup2\n        /* \"#utility.yul\":78:98   */\n      calldataload\n        /* \"#utility.yul\":69:98   */\n      swap1\n      pop\n        /* \"#utility.yul\":107:140   */\n      tag_28\n        /* \"#utility.yul\":134:139   */\n      dup2\n        /* \"#utility.yul\":107:140   */\n      tag_29\n      jump\t// in\n    tag_28:\n        /* \"#utility.yul\":7:146   */\n      swap3\n      swap2\n      pop\n      pop\n      jump\t// out\n        /* \"#utility.yul\":152:481   */\n    tag_16:\n        /* \"#utility.yul\":211:217   */\n      0x00\n        /* \"#utility.yul\":260:262   */\n      0x20\n        /* \"#utility.yul\":248:257   */\n      dup3\n        /* \"#utility.yul\":239:246   */\n      dup5\n        /* \"#utility.yul\":235:258   */\n      sub\n        /* \"#utility.yul\":231:263   */\n      slt\n        /* \"#utility.yul\":228:347   */\n      iszero\n      tag_31\n      jumpi\n        /* \"#utility.yul\":266:345   */\n      tag_32\n      tag_33\n      jump\t// in\n    tag_32:\n        /* \"#utility.yul\":228:347   */\n    tag_31:\n        /* \"#utility.yul\":386:387   */\n      0x00\n        /* \"#utility.yul\":411:464   */\n      tag_34\n        /* \"#utility.yul\":456:463   */\n      dup5\n        /* \"#utility.yul\":447:453   */\n      dup3\n        /* \"#utility.yul\":436:445   */\n      dup6\n        /* \"#utility.yul\":432:454   */\n      add\n        /* \"#utility.yul\":411:464   */\n      tag_26\n      jump\t// in\n    tag_34:\n        /* \"#utility.yul\":401:464   */\n      swap2\n      pop\n        /* \"#utility.yul\":357:474   */\n      pop\n        /* \"#utility.yul\":152:481   */\n      swap3\n      swap2\n      pop\n      pop\n      jump\t// out\n        /* \"#utility.yul\":487:666   */\n    tag_35:\n        /* \"#utility.yul\":556:566   */\n      0x00\n        /* \"#utility.yul\":577:623   */\n      tag_37\n        /* \"#utility.yul\":619:622   */\n      dup4\n        /* \"#utility.yul\":611:617   */\n      dup4\n        /* \"#utility.yul\":577:623   */\n      tag_38\n      jump\t// in\n    tag_37:\n        /* \"#utility.yul\":655:659   */\n      0x20\n        /* \"#utility.yul\":650:653   */\n      dup4\n        /* \"#utility.yul\":646:660   */\n      add\n        /* \"#utility.yul\":632:660   */\n      swap1\n      pop\n        /* \"#utility.yul\":487:666   */\n      swap3\n      swap2\n      pop\n      pop\n      jump\t// out\n        /* \"#utility.yul\":672:780   */\n    tag_38:\n        /* \"#utility.yul\":749:773   */\n      tag_40\n        /* \"#utility.yul\":767:772   */\n      dup2\n        /* \"#utility.yul\":749:773   */\n      tag_41\n      jump\t// in\n    tag_40:\n        /* \"#utility.yul\":744:747   */\n      dup3\n        /* \"#utility.yul\":737:774   */\n      mstore\n        /* \"#utility.yul\":672:780   */\n      pop\n      pop\n      jump\t// out\n        /* \"#utility.yul\":786:904   */\n    tag_42:\n        /* \"#utility.yul\":873:897   */\n      tag_44\n        /* \"#utility.yul\":891:896   */\n      dup2\n        /* \"#utility.yul\":873:897   */\n      tag_41\n      jump\t// in\n    tag_44:\n        /* \"#utility.yul\":868:871   */\n      dup3\n        /* \"#utility.yul\":861:898   */\n      mstore\n        /* \"#utility.yul\":786:904   */\n      pop\n      pop\n      jump\t// out\n        /* \"#utility.yul\":940:1672   */\n    tag_45:\n        /* \"#utility.yul\":1059:1062   */\n      0x00\n        /* \"#utility.yul\":1088:1142   */\n      tag_47\n        /* \"#utility.yul\":1136:1141   */\n      dup3\n        /* \"#utility.yul\":1088:1142   */\n      tag_48\n      jump\t// in\n    tag_47:\n        /* \"#utility.yul\":1158:1244   */\n      tag_49\n        /* \"#utility.yul\":1237:1243   */\n      dup2\n        /* \"#utility.yul\":1232:1235   */\n      dup6\n        /* \"#utility.yul\":1158:1244   */\n      tag_50\n      jump\t// in\n    tag_49:\n        /* \"#utility.yul\":1151:1244   */\n      swap4\n      pop\n        /* \"#utility.yul\":1268:1324   */\n      tag_51\n        /* \"#utility.yul\":1318:1323   */\n      dup4\n        /* \"#utility.yul\":1268:1324   */\n      tag_52\n      jump\t// in\n    tag_51:\n        /* \"#utility.yul\":1347:1354   */\n      dup1\n        /* \"#utility.yul\":1378:1379   */\n      0x00\n        /* \"#utility.yul\":1363:1647   */\n    tag_53:\n        /* \"#utility.yul\":1388:1394   */\n      dup4\n        /* \"#utility.yul\":1385:1386   */\n      dup2\n        /* \"#utility.yul\":1382:1395   */\n      lt\n        /* \"#utility.yul\":1363:1647   */\n      iszero\n      tag_55\n      jumpi\n        /* \"#utility.yul\":1464:1470   */\n      dup2\n        /* \"#utility.yul\":1458:1471   */\n      mload\n        /* \"#utility.yul\":1491:1554   */\n      tag_56\n        /* \"#utility.yul\":1550:1553   */\n      dup9\n        /* \"#utility.yul\":1535:1548   */\n      dup3\n        /* \"#utility.yul\":1491:1554   */\n      tag_35\n      jump\t// in\n    tag_56:\n        /* \"#utility.yul\":1484:1554   */\n      swap8\n      pop\n        /* \"#utility.yul\":1577:1637   */\n      tag_57\n        /* \"#utility.yul\":1630:1636   */\n      dup4\n        /* \"#utility.yul\":1577:1637   */\n      tag_58\n      jump\t// in\n    tag_57:\n        /* \"#utility.yul\":1567:1637   */\n      swap3\n      pop\n        /* \"#utility.yul\":1423:1647   */\n      pop\n        /* \"#utility.yul\":1410:1411   */\n      0x01\n        /* \"#utility.yul\":1407:1408   */\n      dup2\n        /* \"#utility.yul\":1403:1412   */\n      add\n        /* \"#utility.yul\":1398:1412   */\n      swap1\n      pop\n        /* \"#utility.yul\":1363:1647   */\n      jump(tag_53)\n    tag_55:\n        /* \"#utility.yul\":1367:1381   */\n      pop\n        /* \"#utility.yul\":1663:1666   */\n      dup6\n        /* \"#utility.yul\":1656:1666   */\n      swap4\n      pop\n        /* \"#utility.yul\":1064:1672   */\n      pop\n      pop\n      pop\n        /* \"#utility.yul\":940:1672   */\n      swap3\n      swap2\n      pop\n      pop\n      jump\t// out\n        /* \"#utility.yul\":1678:1796   */\n    tag_59:\n        /* \"#utility.yul\":1765:1789   */\n      tag_61\n        /* \"#utility.yul\":1783:1788   */\n      dup2\n        /* \"#utility.yul\":1765:1789   */\n      tag_62\n      jump\t// in\n    tag_61:\n        /* \"#utility.yul\":1760:1763   */\n      dup3\n        /* \"#utility.yul\":1753:1790   */\n      mstore\n        /* \"#utility.yul\":1678:1796   */\n      pop\n      pop\n      jump\t// out\n        /* \"#utility.yul\":1802:2024   */\n    tag_19:\n        /* \"#utility.yul\":1895:1899   */\n      0x00\n        /* \"#utility.yul\":1933:1935   */\n      0x20\n        /* \"#utility.yul\":1922:1931   */\n      dup3\n        /* \"#utility.yul\":1918:1936   */\n      add\n        /* \"#utility.yul\":1910:1936   */\n      swap1\n      pop\n        /* \"#utility.yul\":1946:2017   */\n      tag_64\n        /* \"#utility.yul\":2014:2015   */\n      0x00\n        /* \"#utility.yul\":2003:2012   */\n      dup4\n        /* \"#utility.yul\":1999:2016   */\n      add\n        /* \"#utility.yul\":1990:1996   */\n      dup5\n        /* \"#utility.yul\":1946:2017   */\n      tag_42\n      jump\t// in\n    tag_64:\n        /* \"#utility.yul\":1802:2024   */\n      swap3\n      swap2\n      pop\n      pop\n      jump\t// out\n        /* \"#utility.yul\":2030:2403   */\n    tag_13:\n        /* \"#utility.yul\":2173:2177   */\n      0x00\n        /* \"#utility.yul\":2211:2213   */\n      0x20\n        /* \"#utility.yul\":2200:2209   */\n      dup3\n        /* \"#utility.yul\":2196:2214   */\n      add\n        /* \"#utility.yul\":2188:2214   */\n      swap1\n      pop\n        /* \"#utility.yul\":2260:2269   */\n      dup2\n        /* \"#utility.yul\":2254:2258   */\n      dup2\n        /* \"#utility.yul\":2250:2270   */\n      sub\n        /* \"#utility.yul\":2246:2247   */\n      0x00\n        /* \"#utility.yul\":2235:2244   */\n      dup4\n        /* \"#utility.yul\":2231:2248   */\n      add\n        /* \"#utility.yul\":2224:2271   */\n      mstore\n        /* \"#utility.yul\":2288:2396   */\n      tag_66\n        /* \"#utility.yul\":2391:2395   */\n      dup2\n        /* \"#utility.yul\":2382:2388   */\n      dup5\n        /* \"#utility.yul\":2288:2396   */\n      tag_45\n      jump\t// in\n    tag_66:\n        /* \"#utility.yul\":2280:2396   */\n      swap1\n      pop\n        /* \"#utility.yul\":2030:2403   */\n      swap3\n      swap2\n      pop\n      pop\n      jump\t// out\n        /* \"#utility.yul\":2409:2631   */\n    tag_9:\n        /* \"#utility.yul\":2502:2506   */\n      0x00\n        /* \"#utility.yul\":2540:2542   */\n      0x20\n        /* \"#utility.yul\":2529:2538   */\n      dup3\n        /* \"#utility.yul\":2525:2543   */\n      add\n        /* \"#utility.yul\":2517:2543   */\n      swap1\n      pop\n        /* \"#utility.yul\":2553:2624   */\n      tag_68\n        /* \"#utility.yul\":2621:2622   */\n      0x00\n        /* \"#utility.yul\":2610:2619   */\n      dup4\n        /* \"#utility.yul\":2606:2623   */\n      add\n        /* \"#utility.yul\":2597:2603   */\n      dup5\n        /* \"#utility.yul\":2553:2624   */\n      tag_59\n      jump\t// in\n    tag_68:\n        /* \"#utility.yul\":2409:2631   */\n      swap3\n      swap2\n      pop\n      pop\n      jump\t// out\n        /* \"#utility.yul\":2718:2850   */\n    tag_52:\n        /* \"#utility.yul\":2785:2789   */\n      0x00\n        /* \"#utility.yul\":2808:2811   */\n      dup2\n        /* \"#utility.yul\":2800:2811   */\n      swap1\n      pop\n        /* \"#utility.yul\":2838:2842   */\n      0x20\n        /* \"#utility.yul\":2833:2836   */\n      dup3\n        /* \"#utility.yul\":2829:2843   */\n      add\n        /* \"#utility.yul\":2821:2843   */\n      swap1\n      pop\n        /* \"#utility.yul\":2718:2850   */\n      swap2\n      swap1\n      pop\n      jump\t// out\n        /* \"#utility.yul\":2856:2970   */\n    tag_48:\n        /* \"#utility.yul\":2923:2929   */\n      0x00\n        /* \"#utility.yul\":2957:2962   */\n      dup2\n        /* \"#utility.yul\":2951:2963   */\n      mload\n        /* \"#utility.yul\":2941:2963   */\n      swap1\n      pop\n        /* \"#utility.yul\":2856:2970   */\n      swap2\n      swap1\n      pop\n      jump\t// out\n        /* \"#utility.yul\":2976:3089   */\n    tag_58:\n        /* \"#utility.yul\":3046:3050   */\n      0x00\n        /* \"#utility.yul\":3078:3082   */\n      0x20\n        /* \"#utility.yul\":3073:3076   */\n      dup3\n        /* \"#utility.yul\":3069:3083   */\n      add\n        /* \"#utility.yul\":3061:3083   */\n      swap1\n      pop\n        /* \"#utility.yul\":2976:3089   */\n      swap2\n      swap1\n      pop\n      jump\t// out\n        /* \"#utility.yul\":3095:3279   */\n    tag_50:\n        /* \"#utility.yul\":3194:3205   */\n      0x00\n        /* \"#utility.yul\":3228:3234   */\n      dup3\n        /* \"#utility.yul\":3223:3226   */\n      dup3\n        /* \"#utility.yul\":3216:3235   */\n      mstore\n        /* \"#utility.yul\":3268:3272   */\n      0x20\n        /* \"#utility.yul\":3263:3266   */\n      dup3\n        /* \"#utility.yul\":3259:3273   */\n      add\n        /* \"#utility.yul\":3244:3273   */\n      swap1\n      pop\n        /* \"#utility.yul\":3095:3279   */\n      swap3\n      swap2\n      pop\n      pop\n      jump\t// out\n        /* \"#utility.yul\":3285:3381   */\n    tag_41:\n        /* \"#utility.yul\":3322:3329   */\n      0x00\n        /* \"#utility.yul\":3351:3375   */\n      tag_76\n        /* \"#utility.yul\":3369:3374   */\n      dup3\n        /* \"#utility.yul\":3351:3375   */\n      tag_77\n      jump\t// in\n    tag_76:\n        /* \"#utility.yul\":3340:3375   */\n      swap1\n      pop\n        /* \"#utility.yul\":3285:3381   */\n      swap2\n      swap1\n      pop\n      jump\t// out\n        /* \"#utility.yul\":3387:3513   */\n    tag_77:\n        /* \"#utility.yul\":3424:3431   */\n      0x00\n        /* \"#utility.yul\":3464:3506   */\n      0xffffffffffffffffffffffffffffffffffffffff\n        /* \"#utility.yul\":3457:3462   */\n      dup3\n        /* \"#utility.yul\":3453:3507   */\n      and\n        /* \"#utility.yul\":3442:3507   */\n      swap1\n      pop\n        /* \"#utility.yul\":3387:3513   */\n      swap2\n      swap1\n      pop\n      jump\t// out\n        /* \"#utility.yul\":3519:3596   */\n    tag_62:\n        /* \"#utility.yul\":3556:3563   */\n      0x00\n        /* \"#utility.yul\":3585:3590   */\n      dup2\n        /* \"#utility.yul\":3574:3590   */\n      swap1\n      pop\n        /* \"#utility.yul\":3519:3596   */\n      swap2\n      swap1\n      pop\n      jump\t// out\n        /* \"#utility.yul\":3725:3842   */\n    tag_33:\n        /* \"#utility.yul\":3834:3835   */\n      0x00\n        /* \"#utility.yul\":3831:3832   */\n      dup1\n        /* \"#utility.yul\":3824:3836   */\n      revert\n        /* \"#utility.yul\":3848:3970   */\n    tag_29:\n        /* \"#utility.yul\":3921:3945   */\n      tag_84\n        /* \"#utility.yul\":3939:3944   */\n      dup2\n        /* \"#utility.yul\":3921:3945   */\n      tag_62\n      jump\t// in\n    tag_84:\n        /* \"#utility.yul\":3914:3919   */\n      dup2\n        /* \"#utility.yul\":3911:3946   */\n      eq\n        /* \"#utility.yul\":3901:3964   */\n      tag_85\n      jumpi\n        /* \"#utility.yul\":3960:3961   */\n      0x00\n        /* \"#utility.yul\":3957:3958   */\n      dup1\n        /* \"#utility.yul\":3950:3962   */\n      revert\n        /* \"#utility.yul\":3901:3964   */\n    tag_85:\n        /* \"#utility.yul\":3848:3970   */\n      pop\n      jump\t// out\n\n    auxdata: 0xa26469706673582212207df34a5999d738ad444dac18a7f9d51f0e79cb3a663625c1954f6b4f15f22ae964736f6c63430008070033\n}\n",
				"bytecode": {
					"linkReferences": {},
					"object": "608060405234801561001057600080fd5b506040516106fa3803806106fa833981810160405281019061003291906101c6565b8160009080519060200190610048929190610057565b50806001819055505050610362565b8280548282559060005260206000209081019282156100d0579160200282015b828111156100cf5782518260006101000a81548173ffffffffffffffffffffffffffffffffffffffff021916908373ffffffffffffffffffffffffffffffffffffffff16021790555091602001919060010190610077565b5b5090506100dd91906100e1565b5090565b5b808211156100fa5760008160009055506001016100e2565b5090565b600061011161010c84610247565b610222565b9050808382526020820190508285602086028201111561013457610133610314565b5b60005b85811015610164578161014a888261016e565b845260208401935060208301925050600181019050610137565b5050509392505050565b60008151905061017d81610334565b92915050565b600082601f8301126101985761019761030f565b5b81516101a88482602086016100fe565b91505092915050565b6000815190506101c08161034b565b92915050565b600080604083850312156101dd576101dc61031e565b5b600083015167ffffffffffffffff8111156101fb576101fa610319565b5b61020785828601610183565b9250506020610218858286016101b1565b9150509250929050565b600061022c61023d565b905061023882826102af565b919050565b6000604051905090565b600067ffffffffffffffff821115610262576102616102e0565b5b602082029050602081019050919050565b600061027e82610285565b9050919050565b600073ffffffffffffffffffffffffffffffffffffffff82169050919050565b6000819050919050565b6102b882610323565b810181811067ffffffffffffffff821117156102d7576102d66102e0565b5b80604052505050565b7f4e487b7100000000000000000000000000000000000000000000000000000000600052604160045260246000fd5b600080fd5b600080fd5b600080fd5b600080fd5b6000601f19601f8301169050919050565b61033d81610273565b811461034857600080fd5b50565b610354816102a5565b811461035f57600080fd5b50565b610389806103716000396000f3fe608060405234801561001057600080fd5b50600436106100415760003560e01c80631703a018146100465780636cb3e8ef14610064578063d3650fb814610082575b600080fd5b61004e6100b2565b60405161005b91906102a7565b60405180910390f35b61006c6100b8565b6040516100799190610285565b60405180910390f35b61009c6004803603810190610097919061019a565b610146565b6040516100a9919061026a565b60405180910390f35b60015481565b6060600080548060200260200160405190810160405280929190818152602001828054801561013c57602002820191906000526020600020905b8160009054906101000a900473ffffffffffffffffffffffffffffffffffffffff1673ffffffffffffffffffffffffffffffffffffffff16815260200190600101908083116100f2575b5050505050905090565b6000818154811061015657600080fd5b906000526020600020016000915054906101000a900473ffffffffffffffffffffffffffffffffffffffff1681565b6000813590506101948161033c565b92915050565b6000602082840312156101b0576101af610337565b5b60006101be84828501610185565b91505092915050565b60006101d383836101df565b60208301905092915050565b6101e8816102fb565b82525050565b6101f7816102fb565b82525050565b6000610208826102d2565b61021281856102ea565b935061021d836102c2565b8060005b8381101561024e57815161023588826101c7565b9750610240836102dd565b925050600181019050610221565b5085935050505092915050565b6102648161032d565b82525050565b600060208201905061027f60008301846101ee565b92915050565b6000602082019050818103600083015261029f81846101fd565b905092915050565b60006020820190506102bc600083018461025b565b92915050565b6000819050602082019050919050565b600081519050919050565b6000602082019050919050565b600082825260208201905092915050565b60006103068261030d565b9050919050565b600073ffffffffffffffffffffffffffffffffffffffff82169050919050565b6000819050919050565b600080fd5b6103458161032d565b811461035057600080fd5b5056fea26469706673582212207df34a5999d738ad444dac18a7f9d51f0e79cb3a663625c1954f6b4f15f22ae964736f6c63430008070033",
					"opcodes": "PUSH1 0x80 PUSH1 0x40 MSTORE CALLVALUE DUP1 ISZERO PUSH2 0x10 JUMPI PUSH1 0x0 DUP1 REVERT JUMPDEST POP PUSH1 0x40 MLOAD PUSH2 0x6FA CODESIZE SUB DUP1 PUSH2 0x6FA DUP4 CODECOPY DUP2 DUP2 ADD PUSH1 0x40 MSTORE DUP2 ADD SWAP1 PUSH2 0x32 SWAP2 SWAP1 PUSH2 0x1C6 JUMP JUMPDEST DUP2 PUSH1 0x0 SWAP1 DUP1 MLOAD SWAP1 PUSH1 0x20 ADD SWAP1 PUSH2 0x48 SWAP3 SWAP2 SWAP1 PUSH2 0x57 JUMP JUMPDEST POP DUP1 PUSH1 0x1 DUP2 SWAP1 SSTORE POP POP POP PUSH2 0x362 JUMP JUMPDEST DUP3 DUP1 SLOAD DUP3 DUP3 SSTORE SWAP1 PUSH1 0x0 MSTORE PUSH1 0x20 PUSH1 0x0 KECCAK256 SWAP1 DUP2 ADD SWAP3 DUP3 ISZERO PUSH2 0xD0 JUMPI SWAP2 PUSH1 0x20 MUL DUP3 ADD JUMPDEST DUP3 DUP2 GT ISZERO PUSH2 0xCF JUMPI DUP3 MLOAD DUP3 PUSH1 0x0 PUSH2 0x100 EXP DUP2 SLOAD DUP2 PUSH20 0xFFFFFFFFFFFFFFFFFFFFFFFFFFFFFFFFFFFFFFFF MUL NOT AND SWAP1 DUP4 PUSH20 0xFFFFFFFFFFFFFFFFFFFFFFFFFFFFFFFFFFFFFFFF AND MUL OR SWAP1 SSTORE POP SWAP2 PUSH1 0x20 ADD SWAP2 SWAP1 PUSH1 0x1 ADD SWAP1 PUSH2 0x77 JUMP JUMPDEST JUMPDEST POP SWAP1 POP PUSH2 0xDD SWAP2 SWAP1 PUSH2 0xE1 JUMP JUMPDEST POP SWAP1 JUMP JUMPDEST JUMPDEST DUP1 DUP3 GT ISZERO PUSH2 0xFA JUMPI PUSH1 0x0 DUP2 PUSH1 0x0 SWAP1 SSTORE POP PUSH1 0x1 ADD PUSH2 0xE2 JUMP JUMPDEST POP SWAP1 JUMP JUMPDEST PUSH1 0x0 PUSH2 0x111 PUSH2 0x10C DUP5 PUSH2 0x247 JUMP JUMPDEST PUSH2 0x222 JUMP JUMPDEST SWAP1 POP DUP1 DUP4 DUP3 MSTORE PUSH1 0x20 DUP3 ADD SWAP1 POP DUP3 DUP6 PUSH1 0x20 DUP7 MUL DUP3 ADD GT ISZERO PUSH2 0x134 JUMPI PUSH2 0x133 PUSH2 0x314 JUMP JUMPDEST JUMPDEST PUSH1 0x0 JUMPDEST DUP6 DUP2 LT ISZERO PUSH2 0x164 JUMPI DUP2 PUSH2 0x14A DUP9 DUP3 PUSH2 0x16E JUMP JUMPDEST DUP5 MSTORE PUSH1 0x20 DUP5 ADD SWAP4 POP PUSH1 0x20 DUP4 ADD SWAP3 POP POP PUSH1 0x1 DUP2 ADD SWAP1 POP PUSH2 0x137 JUMP JUMPDEST POP POP POP SWAP4 SWAP3 POP POP POP JUMP JUMPDEST PUSH1 0x0 DUP2 MLOAD SWAP1 POP PUSH2 0x17D DUP2 PUSH2 0x334 JUMP JUMPDEST SWAP3 SWAP2 POP POP JUMP JUMPDEST PUSH1 0x0 DUP3 PUSH1 0x1F DUP4 ADD SLT PUSH2 0x198 JUMPI PUSH2 0x197 PUSH2 0x30F JUMP JUMPDEST JUMPDEST DUP2 MLOAD PUSH2 0x1A8 DUP5 DUP3 PUSH1 0x20 DUP7 ADD PUSH2 0xFE JUMP JUMPDEST SWAP2 POP POP SWAP3 SWAP2 POP POP JUMP JUMPDEST PUSH1 0x0 DUP2 MLOAD SWAP1 POP PUSH2 0x1C0 DUP2 PUSH2 0x34B JUMP JUMPDEST SWAP3 SWAP2 POP POP JUMP JUMPDEST PUSH1 0x0 DUP1 PUSH1 0x40 DUP4 DUP6 SUB SLT ISZERO PUSH2 0x1DD JUMPI PUSH2 0x1DC PUSH2 0x31E JUMP JUMPDEST JUMPDEST PUSH1 0x0 DUP4 ADD MLOAD PUSH8 0xFFFFFFFFFFFFFFFF DUP2 GT ISZERO PUSH2 0x1FB JUMPI PUSH2 0x1FA PUSH2 0x319 JUMP JUMPDEST JUMPDEST PUSH2 0x207 DUP6 DUP3 DUP7 ADD PUSH2 0x183 JUMP JUMPDEST SWAP3 POP POP PUSH1 0x20 PUSH2 0x218 DUP6 DUP3 DUP7 ADD PUSH2 0x1B1 JUMP JUMPDEST SWAP2 POP POP SWAP3 POP SWAP3 SWAP1 POP JUMP JUMPDEST PUSH1 0x0 PUSH2 0x22C PUSH2 0x23D JUMP JUMPDEST SWAP1 POP PUSH2 0x238 DUP3 DUP3 PUSH2 0x2AF JUMP JUMPDEST SWAP2 SWAP1 POP JUMP JUMPDEST PUSH1 0x0 PUSH1 0x40 MLOAD SWAP1 POP SWAP1 JUMP JUMPDEST PUSH1 0x0 PUSH8 0xFFFFFFFFFFFFFFFF DUP3 GT ISZERO PUSH2 0x262 JUMPI PUSH2 0x261 PUSH2 0x2E0 JUMP JUMPDEST JUMPDEST PUSH1 0x20 DUP3 MUL SWAP1 POP PUSH1 0x20 DUP2 ADD SWAP1 POP SWAP2 SWAP1 POP JUMP JUMPDEST PUSH1 0x0 PUSH2 0x27E DUP3 PUSH2 0x285 JUMP JUMPDEST SWAP1 POP SWAP2 SWAP1 POP JUMP JUMPDEST PUSH1 0x0 PUSH20 0xFFFFFFFFFFFFFFFFFFFFFFFFFFFFFFFFFFFFFFFF DUP3 AND SWAP1 POP SWAP2 SWAP1 POP JUMP JUMPDEST PUSH1 0x0 DUP2 SWAP1 POP SWAP2 SWAP1 POP JUMP JUMPDEST PUSH2 0x2B8 DUP3 PUSH2 0x323 JUMP JUMPDEST DUP2 ADD DUP2 DUP2 LT PUSH8 0xFFFFFFFFFFFFFFFF DUP3 GT OR ISZERO PUSH2 0x2D7 JUMPI PUSH2 0x2D6 PUSH2 0x2E0 JUMP JUMPDEST JUMPDEST DUP1 PUSH1 0x40 MSTORE POP POP POP JUMP JUMPDEST PUSH32 0x4E487B7100000000000000000000000000000000000000000000000000000000 PUSH1 0x0 MSTORE PUSH1 0x41 PUSH1 0x4 MSTORE PUSH1 0x24 PUSH1 0x0 REVERT JUMPDEST PUSH1 0x0 DUP1 REVERT JUMPDEST PUSH1 0x0 DUP1 REVERT JUMPDEST PUSH1 0x0 DUP1 REVERT JUMPDEST PUSH1 0x0 DUP1 REVERT JUMPDEST PUSH1 0x0 PUSH1 0x1F NOT PUSH1 0x1F DUP4 ADD AND SWAP1 POP SWAP2 SWAP1 POP JUMP JUMPDEST PUSH2 0x33D DUP2 PUSH2 0x273 JUMP JUMPDEST DUP2 EQ PUSH2 0x348 JUMPI PUSH1 0x0 DUP1 REVERT JUMPDEST POP JUMP JUMPDEST PUSH2 0x354 DUP2 PUSH2 0x2A5 JUMP JUMPDEST DUP2 EQ PUSH2 0x35F JUMPI PUSH1 0x0 DUP1 REVERT JUMPDEST POP JUMP JUMPDEST PUSH2 0x389 DUP1 PUSH2 0x371 PUSH1 0x0 CODECOPY PUSH1 0x0 RETURN INVALID PUSH1 0x80 PUSH1 0x40 MSTORE CALLVALUE DUP1 ISZERO PUSH2 0x10 JUMPI PUSH1 0x0 DUP1 REVERT JUMPDEST POP PUSH1 0x4 CALLDATASIZE LT PUSH2 0x41 JUMPI PUSH1 0x0 CALLDATALOAD PUSH1 0xE0 SHR DUP1 PUSH4 0x1703A018 EQ PUSH2 0x46 JUMPI DUP1 PUSH4 0x6CB3E8EF EQ PUSH2 0x64 JUMPI DUP1 PUSH4 0xD3650FB8 EQ PUSH2 0x82 JUMPI JUMPDEST PUSH1 0x0 DUP1 REVERT JUMPDEST PUSH2 0x4E PUSH2 0xB2 JUMP JUMPDEST PUSH1 0x40 MLOAD PUSH2 0x5B SWAP2 SWAP1 PUSH2 0x2A7 JUMP JUMPDEST PUSH1 0x40 MLOAD DUP1 SWAP2 SUB SWAP1 RETURN JUMPDEST PUSH2 0x6C PUSH2 0xB8 JUMP JUMPDEST PUSH1 0x40 MLOAD PUSH2 0x79 SWAP2 SWAP1 PUSH2 0x285 JUMP JUMPDEST PUSH1 0x40 MLOAD DUP1 SWAP2 SUB SWAP1 RETURN JUMPDEST PUSH2 0x9C PUSH1 0x4 DUP1 CALLDATASIZE SUB DUP2 ADD SWAP1 PUSH2 0x97 SWAP2 SWAP1 PUSH2 0x19A JUMP JUMPDEST PUSH2 0x146 JUMP JUMPDEST PUSH1 0x40 MLOAD PUSH2 0xA9 SWAP2 SWAP1 PUSH2 0x26A JUMP JUMPDEST PUSH1 0x40 MLOAD DUP1 SWAP2 SUB SWAP1 RETURN JUMPDEST PUSH1 0x1 SLOAD DUP2 JUMP JUMPDEST PUSH1 0x60 PUSH1 0x0 DUP1 SLOAD DUP1 PUSH1 0x20 MUL PUSH1 0x20 ADD PUSH1 0x40 MLOAD SWAP1 DUP2 ADD PUSH1 0x40 MSTORE DUP1 SWAP3 SWAP2 SWAP1 DUP2 DUP2 MSTORE PUSH1 0x20 ADD DUP3 DUP1 SLOAD DUP1 ISZERO PUSH2 0x13C JUMPI PUSH1 0x20 MUL DUP3 ADD SWAP2 SWAP1 PUSH1 0x0 MSTORE PUSH1 0x20 PUSH1 0x0 KECCAK256 SWAP1 JUMPDEST DUP2 PUSH1 0x0 SWAP1 SLOAD SWAP1 PUSH2 0x100 EXP SWAP1 DIV PUSH20 0xFFFFFFFFFFFFFFFFFFFFFFFFFFFFFFFFFFFFFFFF AND PUSH20 0xFFFFFFFFFFFFFFFFFFFFFFFFFFFFFFFFFFFFFFFF AND DUP2 MSTORE PUSH1 0x20 ADD SWAP1 PUSH1 0x1 ADD SWAP1 DUP1 DUP4 GT PUSH2 0xF2 JUMPI JUMPDEST POP POP POP POP POP SWAP1 POP SWAP1 JUMP JUMPDEST PUSH1 0x0 DUP2 DUP2 SLOAD DUP2 LT PUSH2 0x156 JUMPI PUSH1 0x0 DUP1 REVERT JUMPDEST SWAP1 PUSH1 0x0 MSTORE PUSH1 0x20 PUSH1 0x0 KECCAK256 ADD PUSH1 0x0 SWAP2 POP SLOAD SWAP1 PUSH2 0x100 EXP SWAP1 DIV PUSH20 0xFFFFFFFFFFFFFFFFFFFFFFFFFFFFFFFFFFFFFFFF AND DUP2 JUMP JUMPDEST PUSH1 0x0 DUP2 CALLDATALOAD SWAP1 POP PUSH2 0x194 DUP2 PUSH2 0x33C JUMP JUMPDEST SWAP3 SWAP2 POP POP JUMP JUMPDEST PUSH1 0x0 PUSH1 0x20 DUP3 DUP5 SUB SLT ISZERO PUSH2 0x1B0 JUMPI PUSH2 0x1AF PUSH2 0x337 JUMP JUMPDEST JUMPDEST PUSH1 0x0 PUSH2 0x1BE DUP5 DUP3 DUP6 ADD PUSH2 0x185 JUMP JUMPDEST SWAP2 POP POP SWAP3 SWAP2 POP POP JUMP JUMPDEST PUSH1 0x0 PUSH2 0x1D3 DUP4 DUP4 PUSH2 0x1DF JUMP JUMPDEST PUSH1 0x20 DUP4 ADD SWAP1 POP SWAP3 SWAP2 POP POP JUMP JUMPDEST PUSH2 0x1E8 DUP2 PUSH2 0x2FB JUMP JUMPDEST DUP3 MSTORE POP POP JUMP JUMPDEST PUSH2 0x1F7 DUP2 PUSH2 0x2FB JUMP JUMPDEST DUP3 MSTORE POP POP JUMP JUMPDEST PUSH1 0x0 PUSH2 0x208 DUP3 PUSH2 0x2D2 JUMP JUMPDEST PUSH2 0x212 DUP2 DUP6 PUSH2 0x2EA JUMP JUMPDEST SWAP4 POP PUSH2 0x21D DUP4 PUSH2 0x2C2 JUMP JUMPDEST DUP1 PUSH1 0x0 JUMPDEST DUP4 DUP2 LT ISZERO PUSH2 0x24E JUMPI DUP2 MLOAD PUSH2 0x235 DUP9 DUP3 PUSH2 0x1C7 JUMP JUMPDEST SWAP8 POP PUSH2 0x240 DUP4 PUSH2 0x2DD JUMP JUMPDEST SWAP3 POP POP PUSH1 0x1 DUP2 ADD SWAP1 POP PUSH2 0x221 JUMP JUMPDEST POP DUP6 SWAP4 POP POP POP POP SWAP3 SWAP2 POP POP JUMP JUMPDEST PUSH2 0x264 DUP2 PUSH2 0x32D JUMP JUMPDEST DUP3 MSTORE POP POP JUMP JUMPDEST PUSH1 0x0 PUSH1 0x20 DUP3 ADD SWAP1 POP PUSH2 0x27F PUSH1 0x0 DUP4 ADD DUP5 PUSH2 0x1EE JUMP JUMPDEST SWAP3 SWAP2 POP POP JUMP JUMPDEST PUSH1 0x0 PUSH1 0x20 DUP3 ADD SWAP1 POP DUP2 DUP2 SUB PUSH1 0x0 DUP4 ADD MSTORE PUSH2 0x29F DUP2 DUP5 PUSH2 0x1FD JUMP JUMPDEST SWAP1 POP SWAP3 SWAP2 POP POP JUMP JUMPDEST PUSH1 0x0 PUSH1 0x20 DUP3 ADD SWAP1 POP PUSH2 0x2BC PUSH1 0x0 DUP4 ADD DUP5 PUSH2 0x25B JUMP JUMPDEST SWAP3 SWAP2 POP POP JUMP JUMPDEST PUSH1 0x0 DUP2 SWAP1 POP PUSH1 0x20 DUP3 ADD SWAP1 POP SWAP2 SWAP1 POP JUMP JUMPDEST PUSH1 0x0 DUP2 MLOAD SWAP1 POP SWAP2 SWAP1 POP JUMP JUMPDEST PUSH1 0x0 PUSH1 0x20 DUP3 ADD SWAP1 POP SWAP2 SWAP1 POP JUMP JUMPDEST PUSH1 0x0 DUP3 DUP3 MSTORE PUSH1 0x20 DUP3 ADD SWAP1 POP SWAP3 SWAP2 POP POP JUMP JUMPDEST PUSH1 0x0 PUSH2 0x306 DUP3 PUSH2 0x30D JUMP JUMPDEST SWAP1 POP SWAP2 SWAP1 POP JUMP JUMPDEST PUSH1 0x0 PUSH20 0xFFFFFFFFFFFFFFFFFFFFFFFFFFFFFFFFFFFFFFFF DUP3 AND SWAP1 POP SWAP2 SWAP1 POP JUMP JUMPDEST PUSH1 0x0 DUP2 SWAP1 POP SWAP2 SWAP1 POP JUMP JUMPDEST PUSH1 0x0 DUP1 REVERT JUMPDEST PUSH2 0x345 DUP2 PUSH2 0x32D JUMP JUMPDEST DUP2 EQ PUSH2 0x350 JUMPI PUSH1 0x0 DUP1 REVERT JUMPDEST POP JUMP INVALID LOG2 PUSH5 0x6970667358 0x22 SLT KECCAK256 PUSH30 0xF34A5999D738AD444DAC18A7F9D51F0E79CB3A663625C1954F6B4F15F22A 0xE9 PUSH5 0x736F6C6343 STOP ADDMOD SMOD STOP CALLER "
				},
				"gasEstimates": {
					"creation": {
						"codeDepositCost": "181000",
						"executionCost": "infinite",
						"totalCost": "infinite"
					},
					"external": {
						"approvers(uint256)": "4978",
						"getApprovers()": "infinite",
						"quorum()": "2407"
					}
				},
				"methodIdentifiers": {
					"approvers(uint256)": "d3650fb8",
					"getApprovers()": "6cb3e8ef",
					"quorum()": "1703a018"
				}
			},
			"storageLayout": {
				"storage": [
					{
						"astId": 4,
						"contract": "contracts/Wallet.sol:Wallet",
						"label": "approvers",
						"offset": 0,
						"slot": "0",
						"type": "t_array(t_address)dyn_storage"
					},
					{
						"astId": 6,
						"contract": "contracts/Wallet.sol:Wallet",
						"label": "quorum",
						"offset": 0,
						"slot": "1",
						"type": "t_uint256"
					}
				],
				"types": {
					"t_address": {
						"encoding": "inplace",
						"label": "address",
						"numberOfBytes": "20"
					},
					"t_array(t_address)dyn_storage": {
						"base": "t_address",
						"encoding": "dynamic_array",
						"label": "address[]",
						"numberOfBytes": "32"
					},
					"t_uint256": {
						"encoding": "inplace",
						"label": "uint256",
						"numberOfBytes": "32"
					}
				}
			},
			"userdoc": {
				"kind": "user",
				"methods": {},
				"version": 1
			}
		}
	}
}