{
	"contracts/Wallet.sol": {
		"Wallet": {
			"abi": [
				{
					"inputs": [
						{
							"internalType": "address[]",
							"name": "_approvers",
							"type": "address[]"
						},
						{
							"internalType": "uint256",
							"name": "_quorum",
							"type": "uint256"
						}
					],
					"stateMutability": "nonpayable",
					"type": "constructor"
				},
				{
					"inputs": [
						{
							"internalType": "uint256",
							"name": "id",
							"type": "uint256"
						}
					],
					"name": "approveTransfer",
					"outputs": [],
					"stateMutability": "nonpayable",
					"type": "function"
				},
				{
					"inputs": [
						{
							"internalType": "uint256",
							"name": "",
							"type": "uint256"
						}
					],
					"name": "approvers",
					"outputs": [
						{
							"internalType": "address",
							"name": "",
							"type": "address"
						}
					],
					"stateMutability": "view",
					"type": "function"
				},
				{
					"inputs": [
						{
							"internalType": "uint256",
							"name": "amount",
							"type": "uint256"
						},
						{
							"internalType": "address payable",
							"name": "to",
							"type": "address"
						}
					],
					"name": "createTransfer",
					"outputs": [],
					"stateMutability": "nonpayable",
					"type": "function"
				},
				{
					"inputs": [],
					"name": "getApprovers",
					"outputs": [
						{
							"internalType": "address[]",
							"name": "",
							"type": "address[]"
						}
					],
					"stateMutability": "view",
					"type": "function"
				},
				{
					"inputs": [],
					"name": "quorum",
					"outputs": [
						{
							"internalType": "uint256",
							"name": "",
							"type": "uint256"
						}
					],
					"stateMutability": "view",
					"type": "function"
				},
				{
					"inputs": [
						{
							"internalType": "uint256",
							"name": "",
							"type": "uint256"
						}
					],
					"name": "transfers",
					"outputs": [
						{
							"internalType": "uint256",
							"name": "id",
							"type": "uint256"
						},
						{
							"internalType": "uint256",
							"name": "amount",
							"type": "uint256"
						},
						{
							"internalType": "address payable",
							"name": "to",
							"type": "address"
						},
						{
							"internalType": "uint256",
							"name": "approvals",
							"type": "uint256"
						},
						{
							"internalType": "bool",
							"name": "sent",
							"type": "bool"
						}
					],
					"stateMutability": "view",
					"type": "function"
				}
			],
			"devdoc": {
				"kind": "dev",
				"methods": {},
				"version": 1
			},
			"evm": {
				"assembly": "    /* \"contracts/Wallet.sol\":100:1315  contract Wallet{\r... */\n  mstore(0x40, 0x80)\n    /* \"contracts/Wallet.sol\":438:570  constructor(address[] memory _approvers, uint _quorum) public{\r... */\n  callvalue\n  dup1\n  iszero\n  tag_1\n  jumpi\n  0x00\n  dup1\n  revert\ntag_1:\n  pop\n  mload(0x40)\n  sub(codesize, bytecodeSize)\n  dup1\n  bytecodeSize\n  dup4\n  codecopy\n  dup2\n  dup2\n  add\n  0x40\n  mstore\n  dup2\n  add\n  swap1\n  tag_2\n  swap2\n  swap1\n  tag_3\n  jump\t// in\ntag_2:\n    /* \"contracts/Wallet.sol\":522:532  _approvers */\n  dup2\n    /* \"contracts/Wallet.sol\":510:519  approvers */\n  0x00\n    /* \"contracts/Wallet.sol\":510:532  approvers = _approvers */\n  swap1\n  dup1\n  mload\n  swap1\n  0x20\n  add\n  swap1\n  tag_6\n  swap3\n  swap2\n  swap1\n  tag_7\n  jump\t// in\ntag_6:\n  pop\n    /* \"contracts/Wallet.sol\":555:562  _quorum */\n  dup1\n    /* \"contracts/Wallet.sol\":543:549  quorum */\n  0x01\n    /* \"contracts/Wallet.sol\":543:562  quorum    = _quorum */\n  dup2\n  swap1\n  sstore\n  pop\n    /* \"contracts/Wallet.sol\":438:570  constructor(address[] memory _approvers, uint _quorum) public{\r... */\n  pop\n  pop\n    /* \"contracts/Wallet.sol\":100:1315  contract Wallet{\r... */\n  jump(tag_8)\ntag_7:\n  dup3\n  dup1\n  sload\n  dup3\n  dup3\n  sstore\n  swap1\n  0x00\n  mstore\n  keccak256(0x00, 0x20)\n  swap1\n  dup2\n  add\n  swap3\n  dup3\n  iszero\n  tag_9\n  jumpi\n  swap2\n  0x20\n  mul\n  dup3\n  add\ntag_10:\n  dup3\n  dup2\n  gt\n  iszero\n  tag_11\n  jumpi\n  dup3\n  mload\n  dup3\n  exp(0x0100, 0x00)\n  dup2\n  sload\n  dup2\n  0xffffffffffffffffffffffffffffffffffffffff\n  mul\n  not\n  and\n  swap1\n  dup4\n  0xffffffffffffffffffffffffffffffffffffffff\n  and\n  mul\n  or\n  swap1\n  sstore\n  pop\n  swap2\n  0x20\n  add\n  swap2\n  swap1\n  0x01\n  add\n  swap1\n  jump(tag_10)\ntag_11:\ntag_9:\n  pop\n  swap1\n  pop\n  tag_12\n  swap2\n  swap1\n  tag_13\n  jump\t// in\ntag_12:\n  pop\n  swap1\n  jump\t// out\ntag_13:\ntag_14:\n  dup1\n  dup3\n  gt\n  iszero\n  tag_15\n  jumpi\n  0x00\n  dup2\n  0x00\n  swap1\n  sstore\n  pop\n  0x01\n  add\n  jump(tag_14)\ntag_15:\n  pop\n  swap1\n  jump\t// out\n    /* \"#utility.yul\":24:768   */\ntag_17:\n    /* \"#utility.yul\":131:136   */\n  0x00\n    /* \"#utility.yul\":156:237   */\n  tag_19\n    /* \"#utility.yul\":172:236   */\n  tag_20\n    /* \"#utility.yul\":229:235   */\n  dup5\n    /* \"#utility.yul\":172:236   */\n  tag_21\n  jump\t// in\ntag_20:\n    /* \"#utility.yul\":156:237   */\n  tag_22\n  jump\t// in\ntag_19:\n    /* \"#utility.yul\":147:237   */\n  swap1\n  pop\n    /* \"#utility.yul\":257:262   */\n  dup1\n    /* \"#utility.yul\":286:292   */\n  dup4\n    /* \"#utility.yul\":279:284   */\n  dup3\n    /* \"#utility.yul\":272:293   */\n  mstore\n    /* \"#utility.yul\":320:324   */\n  0x20\n    /* \"#utility.yul\":313:318   */\n  dup3\n    /* \"#utility.yul\":309:325   */\n  add\n    /* \"#utility.yul\":302:325   */\n  swap1\n  pop\n    /* \"#utility.yul\":346:352   */\n  dup3\n    /* \"#utility.yul\":396:399   */\n  dup6\n    /* \"#utility.yul\":388:392   */\n  0x20\n    /* \"#utility.yul\":380:386   */\n  dup7\n    /* \"#utility.yul\":376:393   */\n  mul\n    /* \"#utility.yul\":371:374   */\n  dup3\n    /* \"#utility.yul\":367:394   */\n  add\n    /* \"#utility.yul\":364:400   */\n  gt\n    /* \"#utility.yul\":361:504   */\n  iszero\n  tag_23\n  jumpi\n    /* \"#utility.yul\":415:494   */\n  tag_24\n  tag_25\n  jump\t// in\ntag_24:\n    /* \"#utility.yul\":361:504   */\ntag_23:\n    /* \"#utility.yul\":528:529   */\n  0x00\n    /* \"#utility.yul\":513:762   */\ntag_26:\n    /* \"#utility.yul\":538:544   */\n  dup6\n    /* \"#utility.yul\":535:536   */\n  dup2\n    /* \"#utility.yul\":532:545   */\n  lt\n    /* \"#utility.yul\":513:762   */\n  iszero\n  tag_28\n  jumpi\n    /* \"#utility.yul\":606:609   */\n  dup2\n    /* \"#utility.yul\":635:683   */\n  tag_29\n    /* \"#utility.yul\":679:682   */\n  dup9\n    /* \"#utility.yul\":667:677   */\n  dup3\n    /* \"#utility.yul\":635:683   */\n  tag_30\n  jump\t// in\ntag_29:\n    /* \"#utility.yul\":630:633   */\n  dup5\n    /* \"#utility.yul\":623:684   */\n  mstore\n    /* \"#utility.yul\":713:717   */\n  0x20\n    /* \"#utility.yul\":708:711   */\n  dup5\n    /* \"#utility.yul\":704:718   */\n  add\n    /* \"#utility.yul\":697:718   */\n  swap4\n  pop\n    /* \"#utility.yul\":747:751   */\n  0x20\n    /* \"#utility.yul\":742:745   */\n  dup4\n    /* \"#utility.yul\":738:752   */\n  add\n    /* \"#utility.yul\":731:752   */\n  swap3\n  pop\n    /* \"#utility.yul\":573:762   */\n  pop\n    /* \"#utility.yul\":560:561   */\n  0x01\n    /* \"#utility.yul\":557:558   */\n  dup2\n    /* \"#utility.yul\":553:562   */\n  add\n    /* \"#utility.yul\":548:562   */\n  swap1\n  pop\n    /* \"#utility.yul\":513:762   */\n  jump(tag_26)\ntag_28:\n    /* \"#utility.yul\":517:531   */\n  pop\n    /* \"#utility.yul\":137:768   */\n  pop\n  pop\n    /* \"#utility.yul\":24:768   */\n  swap4\n  swap3\n  pop\n  pop\n  pop\n  jump\t// out\n    /* \"#utility.yul\":774:917   */\ntag_30:\n    /* \"#utility.yul\":831:836   */\n  0x00\n    /* \"#utility.yul\":862:868   */\n  dup2\n    /* \"#utility.yul\":856:869   */\n  mload\n    /* \"#utility.yul\":847:869   */\n  swap1\n  pop\n    /* \"#utility.yul\":878:911   */\n  tag_32\n    /* \"#utility.yul\":905:910   */\n  dup2\n    /* \"#utility.yul\":878:911   */\n  tag_33\n  jump\t// in\ntag_32:\n    /* \"#utility.yul\":774:917   */\n  swap3\n  swap2\n  pop\n  pop\n  jump\t// out\n    /* \"#utility.yul\":940:1325   */\ntag_34:\n    /* \"#utility.yul\":1022:1027   */\n  0x00\n    /* \"#utility.yul\":1071:1074   */\n  dup3\n    /* \"#utility.yul\":1064:1068   */\n  0x1f\n    /* \"#utility.yul\":1056:1062   */\n  dup4\n    /* \"#utility.yul\":1052:1069   */\n  add\n    /* \"#utility.yul\":1048:1075   */\n  slt\n    /* \"#utility.yul\":1038:1160   */\n  tag_36\n  jumpi\n    /* \"#utility.yul\":1079:1158   */\n  tag_37\n  tag_38\n  jump\t// in\ntag_37:\n    /* \"#utility.yul\":1038:1160   */\ntag_36:\n    /* \"#utility.yul\":1189:1195   */\n  dup2\n    /* \"#utility.yul\":1183:1196   */\n  mload\n    /* \"#utility.yul\":1214:1319   */\n  tag_39\n    /* \"#utility.yul\":1315:1318   */\n  dup5\n    /* \"#utility.yul\":1307:1313   */\n  dup3\n    /* \"#utility.yul\":1300:1304   */\n  0x20\n    /* \"#utility.yul\":1292:1298   */\n  dup7\n    /* \"#utility.yul\":1288:1305   */\n  add\n    /* \"#utility.yul\":1214:1319   */\n  tag_17\n  jump\t// in\ntag_39:\n    /* \"#utility.yul\":1205:1319   */\n  swap2\n  pop\n    /* \"#utility.yul\":1028:1325   */\n  pop\n    /* \"#utility.yul\":940:1325   */\n  swap3\n  swap2\n  pop\n  pop\n  jump\t// out\n    /* \"#utility.yul\":1331:1474   */\ntag_40:\n    /* \"#utility.yul\":1388:1393   */\n  0x00\n    /* \"#utility.yul\":1419:1425   */\n  dup2\n    /* \"#utility.yul\":1413:1426   */\n  mload\n    /* \"#utility.yul\":1404:1426   */\n  swap1\n  pop\n    /* \"#utility.yul\":1435:1468   */\n  tag_42\n    /* \"#utility.yul\":1462:1467   */\n  dup2\n    /* \"#utility.yul\":1435:1468   */\n  tag_43\n  jump\t// in\ntag_42:\n    /* \"#utility.yul\":1331:1474   */\n  swap3\n  swap2\n  pop\n  pop\n  jump\t// out\n    /* \"#utility.yul\":1480:2190   */\ntag_3:\n    /* \"#utility.yul\":1584:1590   */\n  0x00\n    /* \"#utility.yul\":1592:1598   */\n  dup1\n    /* \"#utility.yul\":1641:1643   */\n  0x40\n    /* \"#utility.yul\":1629:1638   */\n  dup4\n    /* \"#utility.yul\":1620:1627   */\n  dup6\n    /* \"#utility.yul\":1616:1639   */\n  sub\n    /* \"#utility.yul\":1612:1644   */\n  slt\n    /* \"#utility.yul\":1609:1728   */\n  iszero\n  tag_45\n  jumpi\n    /* \"#utility.yul\":1647:1726   */\n  tag_46\n  tag_47\n  jump\t// in\ntag_46:\n    /* \"#utility.yul\":1609:1728   */\ntag_45:\n    /* \"#utility.yul\":1788:1789   */\n  0x00\n    /* \"#utility.yul\":1777:1786   */\n  dup4\n    /* \"#utility.yul\":1773:1790   */\n  add\n    /* \"#utility.yul\":1767:1791   */\n  mload\n    /* \"#utility.yul\":1818:1836   */\n  0xffffffffffffffff\n    /* \"#utility.yul\":1810:1816   */\n  dup2\n    /* \"#utility.yul\":1807:1837   */\n  gt\n    /* \"#utility.yul\":1804:1921   */\n  iszero\n  tag_48\n  jumpi\n    /* \"#utility.yul\":1840:1919   */\n  tag_49\n  tag_50\n  jump\t// in\ntag_49:\n    /* \"#utility.yul\":1804:1921   */\ntag_48:\n    /* \"#utility.yul\":1945:2034   */\n  tag_51\n    /* \"#utility.yul\":2026:2033   */\n  dup6\n    /* \"#utility.yul\":2017:2023   */\n  dup3\n    /* \"#utility.yul\":2006:2015   */\n  dup7\n    /* \"#utility.yul\":2002:2024   */\n  add\n    /* \"#utility.yul\":1945:2034   */\n  tag_34\n  jump\t// in\ntag_51:\n    /* \"#utility.yul\":1935:2034   */\n  swap3\n  pop\n    /* \"#utility.yul\":1738:2044   */\n  pop\n    /* \"#utility.yul\":2083:2085   */\n  0x20\n    /* \"#utility.yul\":2109:2173   */\n  tag_52\n    /* \"#utility.yul\":2165:2172   */\n  dup6\n    /* \"#utility.yul\":2156:2162   */\n  dup3\n    /* \"#utility.yul\":2145:2154   */\n  dup7\n    /* \"#utility.yul\":2141:2163   */\n  add\n    /* \"#utility.yul\":2109:2173   */\n  tag_40\n  jump\t// in\ntag_52:\n    /* \"#utility.yul\":2099:2173   */\n  swap2\n  pop\n    /* \"#utility.yul\":2054:2183   */\n  pop\n    /* \"#utility.yul\":1480:2190   */\n  swap3\n  pop\n  swap3\n  swap1\n  pop\n  jump\t// out\n    /* \"#utility.yul\":2196:2325   */\ntag_22:\n    /* \"#utility.yul\":2230:2236   */\n  0x00\n    /* \"#utility.yul\":2257:2277   */\n  tag_54\n  tag_55\n  jump\t// in\ntag_54:\n    /* \"#utility.yul\":2247:2277   */\n  swap1\n  pop\n    /* \"#utility.yul\":2286:2319   */\n  tag_56\n    /* \"#utility.yul\":2314:2318   */\n  dup3\n    /* \"#utility.yul\":2306:2312   */\n  dup3\n    /* \"#utility.yul\":2286:2319   */\n  tag_57\n  jump\t// in\ntag_56:\n    /* \"#utility.yul\":2196:2325   */\n  swap2\n  swap1\n  pop\n  jump\t// out\n    /* \"#utility.yul\":2331:2406   */\ntag_55:\n    /* \"#utility.yul\":2364:2370   */\n  0x00\n    /* \"#utility.yul\":2397:2399   */\n  0x40\n    /* \"#utility.yul\":2391:2400   */\n  mload\n    /* \"#utility.yul\":2381:2400   */\n  swap1\n  pop\n    /* \"#utility.yul\":2331:2406   */\n  swap1\n  jump\t// out\n    /* \"#utility.yul\":2412:2723   */\ntag_21:\n    /* \"#utility.yul\":2489:2493   */\n  0x00\n    /* \"#utility.yul\":2579:2597   */\n  0xffffffffffffffff\n    /* \"#utility.yul\":2571:2577   */\n  dup3\n    /* \"#utility.yul\":2568:2598   */\n  gt\n    /* \"#utility.yul\":2565:2621   */\n  iszero\n  tag_60\n  jumpi\n    /* \"#utility.yul\":2601:2619   */\n  tag_61\n  tag_62\n  jump\t// in\ntag_61:\n    /* \"#utility.yul\":2565:2621   */\ntag_60:\n    /* \"#utility.yul\":2651:2655   */\n  0x20\n    /* \"#utility.yul\":2643:2649   */\n  dup3\n    /* \"#utility.yul\":2639:2656   */\n  mul\n    /* \"#utility.yul\":2631:2656   */\n  swap1\n  pop\n    /* \"#utility.yul\":2711:2715   */\n  0x20\n    /* \"#utility.yul\":2705:2709   */\n  dup2\n    /* \"#utility.yul\":2701:2716   */\n  add\n    /* \"#utility.yul\":2693:2716   */\n  swap1\n  pop\n    /* \"#utility.yul\":2412:2723   */\n  swap2\n  swap1\n  pop\n  jump\t// out\n    /* \"#utility.yul\":2729:2825   */\ntag_63:\n    /* \"#utility.yul\":2766:2773   */\n  0x00\n    /* \"#utility.yul\":2795:2819   */\n  tag_65\n    /* \"#utility.yul\":2813:2818   */\n  dup3\n    /* \"#utility.yul\":2795:2819   */\n  tag_66\n  jump\t// in\ntag_65:\n    /* \"#utility.yul\":2784:2819   */\n  swap1\n  pop\n    /* \"#utility.yul\":2729:2825   */\n  swap2\n  swap1\n  pop\n  jump\t// out\n    /* \"#utility.yul\":2831:2957   */\ntag_66:\n    /* \"#utility.yul\":2868:2875   */\n  0x00\n    /* \"#utility.yul\":2908:2950   */\n  0xffffffffffffffffffffffffffffffffffffffff\n    /* \"#utility.yul\":2901:2906   */\n  dup3\n    /* \"#utility.yul\":2897:2951   */\n  and\n    /* \"#utility.yul\":2886:2951   */\n  swap1\n  pop\n    /* \"#utility.yul\":2831:2957   */\n  swap2\n  swap1\n  pop\n  jump\t// out\n    /* \"#utility.yul\":2963:3040   */\ntag_68:\n    /* \"#utility.yul\":3000:3007   */\n  0x00\n    /* \"#utility.yul\":3029:3034   */\n  dup2\n    /* \"#utility.yul\":3018:3034   */\n  swap1\n  pop\n    /* \"#utility.yul\":2963:3040   */\n  swap2\n  swap1\n  pop\n  jump\t// out\n    /* \"#utility.yul\":3046:3327   */\ntag_57:\n    /* \"#utility.yul\":3129:3156   */\n  tag_71\n    /* \"#utility.yul\":3151:3155   */\n  dup3\n    /* \"#utility.yul\":3129:3156   */\n  tag_72\n  jump\t// in\ntag_71:\n    /* \"#utility.yul\":3121:3127   */\n  dup2\n    /* \"#utility.yul\":3117:3157   */\n  add\n    /* \"#utility.yul\":3259:3265   */\n  dup2\n    /* \"#utility.yul\":3247:3257   */\n  dup2\n    /* \"#utility.yul\":3244:3266   */\n  lt\n    /* \"#utility.yul\":3223:3241   */\n  0xffffffffffffffff\n    /* \"#utility.yul\":3211:3221   */\n  dup3\n    /* \"#utility.yul\":3208:3242   */\n  gt\n    /* \"#utility.yul\":3205:3267   */\n  or\n    /* \"#utility.yul\":3202:3290   */\n  iszero\n  tag_73\n  jumpi\n    /* \"#utility.yul\":3270:3288   */\n  tag_74\n  tag_62\n  jump\t// in\ntag_74:\n    /* \"#utility.yul\":3202:3290   */\ntag_73:\n    /* \"#utility.yul\":3310:3320   */\n  dup1\n    /* \"#utility.yul\":3306:3308   */\n  0x40\n    /* \"#utility.yul\":3299:3321   */\n  mstore\n    /* \"#utility.yul\":3089:3327   */\n  pop\n    /* \"#utility.yul\":3046:3327   */\n  pop\n  pop\n  jump\t// out\n    /* \"#utility.yul\":3333:3513   */\ntag_62:\n    /* \"#utility.yul\":3381:3458   */\n  0x4e487b7100000000000000000000000000000000000000000000000000000000\n    /* \"#utility.yul\":3378:3379   */\n  0x00\n    /* \"#utility.yul\":3371:3459   */\n  mstore\n    /* \"#utility.yul\":3478:3482   */\n  0x41\n    /* \"#utility.yul\":3475:3476   */\n  0x04\n    /* \"#utility.yul\":3468:3483   */\n  mstore\n    /* \"#utility.yul\":3502:3506   */\n  0x24\n    /* \"#utility.yul\":3499:3500   */\n  0x00\n    /* \"#utility.yul\":3492:3507   */\n  revert\n    /* \"#utility.yul\":3519:3636   */\ntag_38:\n    /* \"#utility.yul\":3628:3629   */\n  0x00\n    /* \"#utility.yul\":3625:3626   */\n  dup1\n    /* \"#utility.yul\":3618:3630   */\n  revert\n    /* \"#utility.yul\":3642:3759   */\ntag_25:\n    /* \"#utility.yul\":3751:3752   */\n  0x00\n    /* \"#utility.yul\":3748:3749   */\n  dup1\n    /* \"#utility.yul\":3741:3753   */\n  revert\n    /* \"#utility.yul\":3765:3882   */\ntag_50:\n    /* \"#utility.yul\":3874:3875   */\n  0x00\n    /* \"#utility.yul\":3871:3872   */\n  dup1\n    /* \"#utility.yul\":3864:3876   */\n  revert\n    /* \"#utility.yul\":3888:4005   */\ntag_47:\n    /* \"#utility.yul\":3997:3998   */\n  0x00\n    /* \"#utility.yul\":3994:3995   */\n  dup1\n    /* \"#utility.yul\":3987:3999   */\n  revert\n    /* \"#utility.yul\":4011:4113   */\ntag_72:\n    /* \"#utility.yul\":4052:4058   */\n  0x00\n    /* \"#utility.yul\":4103:4105   */\n  0x1f\n    /* \"#utility.yul\":4099:4106   */\n  not\n    /* \"#utility.yul\":4094:4096   */\n  0x1f\n    /* \"#utility.yul\":4087:4092   */\n  dup4\n    /* \"#utility.yul\":4083:4097   */\n  add\n    /* \"#utility.yul\":4079:4107   */\n  and\n    /* \"#utility.yul\":4069:4107   */\n  swap1\n  pop\n    /* \"#utility.yul\":4011:4113   */\n  swap2\n  swap1\n  pop\n  jump\t// out\n    /* \"#utility.yul\":4119:4241   */\ntag_33:\n    /* \"#utility.yul\":4192:4216   */\n  tag_82\n    /* \"#utility.yul\":4210:4215   */\n  dup2\n    /* \"#utility.yul\":4192:4216   */\n  tag_63\n  jump\t// in\ntag_82:\n    /* \"#utility.yul\":4185:4190   */\n  dup2\n    /* \"#utility.yul\":4182:4217   */\n  eq\n    /* \"#utility.yul\":4172:4235   */\n  tag_83\n  jumpi\n    /* \"#utility.yul\":4231:4232   */\n  0x00\n    /* \"#utility.yul\":4228:4229   */\n  dup1\n    /* \"#utility.yul\":4221:4233   */\n  revert\n    /* \"#utility.yul\":4172:4235   */\ntag_83:\n    /* \"#utility.yul\":4119:4241   */\n  pop\n  jump\t// out\n    /* \"#utility.yul\":4247:4369   */\ntag_43:\n    /* \"#utility.yul\":4320:4344   */\n  tag_85\n    /* \"#utility.yul\":4338:4343   */\n  dup2\n    /* \"#utility.yul\":4320:4344   */\n  tag_68\n  jump\t// in\ntag_85:\n    /* \"#utility.yul\":4313:4318   */\n  dup2\n    /* \"#utility.yul\":4310:4345   */\n  eq\n    /* \"#utility.yul\":4300:4363   */\n  tag_86\n  jumpi\n    /* \"#utility.yul\":4359:4360   */\n  0x00\n    /* \"#utility.yul\":4356:4357   */\n  dup1\n    /* \"#utility.yul\":4349:4361   */\n  revert\n    /* \"#utility.yul\":4300:4363   */\ntag_86:\n    /* \"#utility.yul\":4247:4369   */\n  pop\n  jump\t// out\n    /* \"contracts/Wallet.sol\":100:1315  contract Wallet{\r... */\ntag_8:\n  dataSize(sub_0)\n  dup1\n  dataOffset(sub_0)\n  0x00\n  codecopy\n  0x00\n  return\nstop\n\nsub_0: assembly {\n        /* \"contracts/Wallet.sol\":100:1315  contract Wallet{\r... */\n      mstore(0x40, 0x80)\n      callvalue\n      dup1\n      iszero\n      tag_1\n      jumpi\n      0x00\n      dup1\n      revert\n    tag_1:\n      pop\n      jumpi(tag_2, lt(calldatasize, 0x04))\n      shr(0xe0, calldataload(0x00))\n      dup1\n      0x1703a018\n      eq\n      tag_3\n      jumpi\n      dup1\n      0x4c12fa47\n      eq\n      tag_4\n      jumpi\n      dup1\n      0x6cb3e8ef\n      eq\n      tag_5\n      jumpi\n      dup1\n      0x9377d711\n      eq\n      tag_6\n      jumpi\n      dup1\n      0xcacca4a0\n      eq\n      tag_7\n      jumpi\n      dup1\n      0xd3650fb8\n      eq\n      tag_8\n      jumpi\n    tag_2:\n      0x00\n      dup1\n      revert\n        /* \"contracts/Wallet.sol\":155:173  uint public quorum */\n    tag_3:\n      tag_9\n      tag_10\n      jump\t// in\n    tag_9:\n      mload(0x40)\n      tag_11\n      swap2\n      swap1\n      tag_12\n      jump\t// in\n    tag_11:\n      mload(0x40)\n      dup1\n      swap2\n      sub\n      swap1\n      return\n        /* \"contracts/Wallet.sol\":681:906  function createTransfer(uint amount, address payable to) external {\r... */\n    tag_4:\n      tag_13\n      0x04\n      dup1\n      calldatasize\n      sub\n      dup2\n      add\n      swap1\n      tag_14\n      swap2\n      swap1\n      tag_15\n      jump\t// in\n    tag_14:\n      tag_16\n      jump\t// in\n    tag_13:\n      stop\n        /* \"contracts/Wallet.sol\":576:675  function getApprovers() external view returns(address[] memory) {\r... */\n    tag_5:\n      tag_17\n      tag_18\n      jump\t// in\n    tag_17:\n      mload(0x40)\n      tag_19\n      swap2\n      swap1\n      tag_20\n      jump\t// in\n    tag_19:\n      mload(0x40)\n      dup1\n      swap2\n      sub\n      swap1\n      return\n        /* \"contracts/Wallet.sol\":324:351  Transfer[] public transfers */\n    tag_6:\n      tag_21\n      0x04\n      dup1\n      calldatasize\n      sub\n      dup2\n      add\n      swap1\n      tag_22\n      swap2\n      swap1\n      tag_23\n      jump\t// in\n    tag_22:\n      tag_24\n      jump\t// in\n    tag_21:\n      mload(0x40)\n      tag_25\n      swap6\n      swap5\n      swap4\n      swap3\n      swap2\n      swap1\n      tag_26\n      jump\t// in\n    tag_25:\n      mload(0x40)\n      dup1\n      swap2\n      sub\n      swap1\n      return\n        /* \"contracts/Wallet.sol\":1174:1304  function approveTransfer(uint id) external {\r... */\n    tag_7:\n      tag_27\n      0x04\n      dup1\n      calldatasize\n      sub\n      dup2\n      add\n      swap1\n      tag_28\n      swap2\n      swap1\n      tag_23\n      jump\t// in\n    tag_28:\n      tag_29\n      jump\t// in\n    tag_27:\n      stop\n        /* \"contracts/Wallet.sol\":122:148  address[] public approvers */\n    tag_8:\n      tag_30\n      0x04\n      dup1\n      calldatasize\n      sub\n      dup2\n      add\n      swap1\n      tag_31\n      swap2\n      swap1\n      tag_23\n      jump\t// in\n    tag_31:\n      tag_32\n      jump\t// in\n    tag_30:\n      mload(0x40)\n      tag_33\n      swap2\n      swap1\n      tag_34\n      jump\t// in\n    tag_33:\n      mload(0x40)\n      dup1\n      swap2\n      sub\n      swap1\n      return\n        /* \"contracts/Wallet.sol\":155:173  uint public quorum */\n    tag_10:\n      sload(0x01)\n      dup2\n      jump\t// out\n        /* \"contracts/Wallet.sol\":681:906  function createTransfer(uint amount, address payable to) external {\r... */\n    tag_16:\n        /* \"contracts/Wallet.sol\":758:767  transfers */\n      0x02\n        /* \"contracts/Wallet.sol\":773:897  Transfer(\r... */\n      mload(0x40)\n      dup1\n      0xa0\n      add\n      0x40\n      mstore\n      dup1\n        /* \"contracts/Wallet.sol\":796:805  transfers */\n      0x02\n        /* \"contracts/Wallet.sol\":796:812  transfers.length */\n      dup1\n      sload\n      swap1\n      pop\n        /* \"contracts/Wallet.sol\":773:897  Transfer(\r... */\n      dup2\n      mstore\n      0x20\n      add\n        /* \"contracts/Wallet.sol\":827:833  amount */\n      dup5\n        /* \"contracts/Wallet.sol\":773:897  Transfer(\r... */\n      dup2\n      mstore\n      0x20\n      add\n        /* \"contracts/Wallet.sol\":848:850  to */\n      dup4\n        /* \"contracts/Wallet.sol\":773:897  Transfer(\r... */\n      0xffffffffffffffffffffffffffffffffffffffff\n      and\n      dup2\n      mstore\n      0x20\n      add\n        /* \"contracts/Wallet.sol\":865:866  0 */\n      0x00\n        /* \"contracts/Wallet.sol\":773:897  Transfer(\r... */\n      dup2\n      mstore\n      0x20\n      add\n        /* \"contracts/Wallet.sol\":881:886  false */\n      0x00\n        /* \"contracts/Wallet.sol\":773:897  Transfer(\r... */\n      iszero\n      iszero\n      dup2\n      mstore\n      pop\n        /* \"contracts/Wallet.sol\":758:898  transfers.push(Transfer(\r... */\n      swap1\n      dup1\n      0x01\n      dup2\n      sload\n      add\n      dup1\n      dup3\n      sstore\n      dup1\n      swap2\n      pop\n      pop\n      0x01\n      swap1\n      sub\n      swap1\n      0x00\n      mstore\n      keccak256(0x00, 0x20)\n      swap1\n      0x05\n      mul\n      add\n      0x00\n      swap1\n      swap2\n      swap1\n      swap2\n      swap1\n      swap2\n      pop\n      0x00\n      dup3\n      add\n      mload\n      dup2\n      0x00\n      add\n      sstore\n      0x20\n      dup3\n      add\n      mload\n      dup2\n      0x01\n      add\n      sstore\n      0x40\n      dup3\n      add\n      mload\n      dup2\n      0x02\n      add\n      exp(0x0100, 0x00)\n      dup2\n      sload\n      dup2\n      0xffffffffffffffffffffffffffffffffffffffff\n      mul\n      not\n      and\n      swap1\n      dup4\n      0xffffffffffffffffffffffffffffffffffffffff\n      and\n      mul\n      or\n      swap1\n      sstore\n      pop\n      0x60\n      dup3\n      add\n      mload\n      dup2\n      0x03\n      add\n      sstore\n      0x80\n      dup3\n      add\n      mload\n      dup2\n      0x04\n      add\n      exp(0x0100, 0x00)\n      dup2\n      sload\n      dup2\n      0xff\n      mul\n      not\n      and\n      swap1\n      dup4\n      iszero\n      iszero\n      mul\n      or\n      swap1\n      sstore\n      pop\n      pop\n      pop\n        /* \"contracts/Wallet.sol\":681:906  function createTransfer(uint amount, address payable to) external {\r... */\n      pop\n      pop\n      jump\t// out\n        /* \"contracts/Wallet.sol\":576:675  function getApprovers() external view returns(address[] memory) {\r... */\n    tag_18:\n        /* \"contracts/Wallet.sol\":622:638  address[] memory */\n      0x60\n        /* \"contracts/Wallet.sol\":658:667  approvers */\n      0x00\n        /* \"contracts/Wallet.sol\":651:667  return approvers */\n      dup1\n      sload\n      dup1\n      0x20\n      mul\n      0x20\n      add\n      mload(0x40)\n      swap1\n      dup2\n      add\n      0x40\n      mstore\n      dup1\n      swap3\n      swap2\n      swap1\n      dup2\n      dup2\n      mstore\n      0x20\n      add\n      dup3\n      dup1\n      sload\n      dup1\n      iszero\n      tag_38\n      jumpi\n      0x20\n      mul\n      dup3\n      add\n      swap2\n      swap1\n      0x00\n      mstore\n      keccak256(0x00, 0x20)\n      swap1\n    tag_39:\n      dup2\n      0x00\n      swap1\n      sload\n      swap1\n      0x0100\n      exp\n      swap1\n      div\n      0xffffffffffffffffffffffffffffffffffffffff\n      and\n      0xffffffffffffffffffffffffffffffffffffffff\n      and\n      dup2\n      mstore\n      0x20\n      add\n      swap1\n      0x01\n      add\n      swap1\n      dup1\n      dup4\n      gt\n      tag_39\n      jumpi\n    tag_38:\n      pop\n      pop\n      pop\n      pop\n      pop\n      swap1\n      pop\n        /* \"contracts/Wallet.sol\":576:675  function getApprovers() external view returns(address[] memory) {\r... */\n      swap1\n      jump\t// out\n        /* \"contracts/Wallet.sol\":324:351  Transfer[] public transfers */\n    tag_24:\n      0x02\n      dup2\n      dup2\n      sload\n      dup2\n      lt\n      tag_40\n      jumpi\n      0x00\n      dup1\n      revert\n    tag_40:\n      swap1\n      0x00\n      mstore\n      keccak256(0x00, 0x20)\n      swap1\n      0x05\n      mul\n      add\n      0x00\n      swap2\n      pop\n      swap1\n      pop\n      dup1\n      0x00\n      add\n      sload\n      swap1\n      dup1\n      0x01\n      add\n      sload\n      swap1\n      dup1\n      0x02\n      add\n      0x00\n      swap1\n      sload\n      swap1\n      0x0100\n      exp\n      swap1\n      div\n      0xffffffffffffffffffffffffffffffffffffffff\n      and\n      swap1\n      dup1\n      0x03\n      add\n      sload\n      swap1\n      dup1\n      0x04\n      add\n      0x00\n      swap1\n      sload\n      swap1\n      0x0100\n      exp\n      swap1\n      div\n      0xff\n      and\n      swap1\n      pop\n      dup6\n      jump\t// out\n        /* \"contracts/Wallet.sol\":1174:1304  function approveTransfer(uint id) external {\r... */\n    tag_29:\n        /* \"contracts/Wallet.sol\":1258:1263  false */\n      0x00\n        /* \"contracts/Wallet.sol\":1236:1263  transfers[id].sent == false */\n      iszero\n      iszero\n        /* \"contracts/Wallet.sol\":1236:1245  transfers */\n      0x02\n        /* \"contracts/Wallet.sol\":1246:1248  id */\n      dup3\n        /* \"contracts/Wallet.sol\":1236:1249  transfers[id] */\n      dup2\n      sload\n      dup2\n      lt\n      tag_43\n      jumpi\n      tag_44\n      tag_45\n      jump\t// in\n    tag_44:\n    tag_43:\n      swap1\n      0x00\n      mstore\n      keccak256(0x00, 0x20)\n      swap1\n      0x05\n      mul\n      add\n        /* \"contracts/Wallet.sol\":1236:1254  transfers[id].sent */\n      0x04\n      add\n      0x00\n      swap1\n      sload\n      swap1\n      0x0100\n      exp\n      swap1\n      div\n      0xff\n      and\n        /* \"contracts/Wallet.sol\":1236:1263  transfers[id].sent == false */\n      iszero\n      iszero\n      eq\n        /* \"contracts/Wallet.sol\":1228:1296  require(transfers[id].sent == false, \"Transaction Already Done !!!\") */\n      tag_47\n      jumpi\n      mload(0x40)\n      0x08c379a000000000000000000000000000000000000000000000000000000000\n      dup2\n      mstore\n      0x04\n      add\n      tag_48\n      swap1\n      tag_49\n      jump\t// in\n    tag_48:\n      mload(0x40)\n      dup1\n      swap2\n      sub\n      swap1\n      revert\n    tag_47:\n        /* \"contracts/Wallet.sol\":1174:1304  function approveTransfer(uint id) external {\r... */\n      pop\n      jump\t// out\n        /* \"contracts/Wallet.sol\":122:148  address[] public approvers */\n    tag_32:\n      0x00\n      dup2\n      dup2\n      sload\n      dup2\n      lt\n      tag_50\n      jumpi\n      0x00\n      dup1\n      revert\n    tag_50:\n      swap1\n      0x00\n      mstore\n      keccak256(0x00, 0x20)\n      add\n      0x00\n      swap2\n      pop\n      sload\n      swap1\n      0x0100\n      exp\n      swap1\n      div\n      0xffffffffffffffffffffffffffffffffffffffff\n      and\n      dup2\n      jump\t// out\n        /* \"#utility.yul\":7:162   */\n    tag_53:\n        /* \"#utility.yul\":61:66   */\n      0x00\n        /* \"#utility.yul\":99:105   */\n      dup2\n        /* \"#utility.yul\":86:106   */\n      calldataload\n        /* \"#utility.yul\":77:106   */\n      swap1\n      pop\n        /* \"#utility.yul\":115:156   */\n      tag_55\n        /* \"#utility.yul\":150:155   */\n      dup2\n        /* \"#utility.yul\":115:156   */\n      tag_56\n      jump\t// in\n    tag_55:\n        /* \"#utility.yul\":7:162   */\n      swap3\n      swap2\n      pop\n      pop\n      jump\t// out\n        /* \"#utility.yul\":168:307   */\n    tag_57:\n        /* \"#utility.yul\":214:219   */\n      0x00\n        /* \"#utility.yul\":252:258   */\n      dup2\n        /* \"#utility.yul\":239:259   */\n      calldataload\n        /* \"#utility.yul\":230:259   */\n      swap1\n      pop\n        /* \"#utility.yul\":268:301   */\n      tag_59\n        /* \"#utility.yul\":295:300   */\n      dup2\n        /* \"#utility.yul\":268:301   */\n      tag_60\n      jump\t// in\n    tag_59:\n        /* \"#utility.yul\":168:307   */\n      swap3\n      swap2\n      pop\n      pop\n      jump\t// out\n        /* \"#utility.yul\":313:642   */\n    tag_23:\n        /* \"#utility.yul\":372:378   */\n      0x00\n        /* \"#utility.yul\":421:423   */\n      0x20\n        /* \"#utility.yul\":409:418   */\n      dup3\n        /* \"#utility.yul\":400:407   */\n      dup5\n        /* \"#utility.yul\":396:419   */\n      sub\n        /* \"#utility.yul\":392:424   */\n      slt\n        /* \"#utility.yul\":389:508   */\n      iszero\n      tag_62\n      jumpi\n        /* \"#utility.yul\":427:506   */\n      tag_63\n      tag_64\n      jump\t// in\n    tag_63:\n        /* \"#utility.yul\":389:508   */\n    tag_62:\n        /* \"#utility.yul\":547:548   */\n      0x00\n        /* \"#utility.yul\":572:625   */\n      tag_65\n        /* \"#utility.yul\":617:624   */\n      dup5\n        /* \"#utility.yul\":608:614   */\n      dup3\n        /* \"#utility.yul\":597:606   */\n      dup6\n        /* \"#utility.yul\":593:615   */\n      add\n        /* \"#utility.yul\":572:625   */\n      tag_57\n      jump\t// in\n    tag_65:\n        /* \"#utility.yul\":562:625   */\n      swap2\n      pop\n        /* \"#utility.yul\":518:635   */\n      pop\n        /* \"#utility.yul\":313:642   */\n      swap3\n      swap2\n      pop\n      pop\n      jump\t// out\n        /* \"#utility.yul\":648:1138   */\n    tag_15:\n        /* \"#utility.yul\":724:730   */\n      0x00\n        /* \"#utility.yul\":732:738   */\n      dup1\n        /* \"#utility.yul\":781:783   */\n      0x40\n        /* \"#utility.yul\":769:778   */\n      dup4\n        /* \"#utility.yul\":760:767   */\n      dup6\n        /* \"#utility.yul\":756:779   */\n      sub\n        /* \"#utility.yul\":752:784   */\n      slt\n        /* \"#utility.yul\":749:868   */\n      iszero\n      tag_67\n      jumpi\n        /* \"#utility.yul\":787:866   */\n      tag_68\n      tag_64\n      jump\t// in\n    tag_68:\n        /* \"#utility.yul\":749:868   */\n    tag_67:\n        /* \"#utility.yul\":907:908   */\n      0x00\n        /* \"#utility.yul\":932:985   */\n      tag_69\n        /* \"#utility.yul\":977:984   */\n      dup6\n        /* \"#utility.yul\":968:974   */\n      dup3\n        /* \"#utility.yul\":957:966   */\n      dup7\n        /* \"#utility.yul\":953:975   */\n      add\n        /* \"#utility.yul\":932:985   */\n      tag_57\n      jump\t// in\n    tag_69:\n        /* \"#utility.yul\":922:985   */\n      swap3\n      pop\n        /* \"#utility.yul\":878:995   */\n      pop\n        /* \"#utility.yul\":1034:1036   */\n      0x20\n        /* \"#utility.yul\":1060:1121   */\n      tag_70\n        /* \"#utility.yul\":1113:1120   */\n      dup6\n        /* \"#utility.yul\":1104:1110   */\n      dup3\n        /* \"#utility.yul\":1093:1102   */\n      dup7\n        /* \"#utility.yul\":1089:1111   */\n      add\n        /* \"#utility.yul\":1060:1121   */\n      tag_53\n      jump\t// in\n    tag_70:\n        /* \"#utility.yul\":1050:1121   */\n      swap2\n      pop\n        /* \"#utility.yul\":1005:1131   */\n      pop\n        /* \"#utility.yul\":648:1138   */\n      swap3\n      pop\n      swap3\n      swap1\n      pop\n      jump\t// out\n        /* \"#utility.yul\":1144:1323   */\n    tag_71:\n        /* \"#utility.yul\":1213:1223   */\n      0x00\n        /* \"#utility.yul\":1234:1280   */\n      tag_73\n        /* \"#utility.yul\":1276:1279   */\n      dup4\n        /* \"#utility.yul\":1268:1274   */\n      dup4\n        /* \"#utility.yul\":1234:1280   */\n      tag_74\n      jump\t// in\n    tag_73:\n        /* \"#utility.yul\":1312:1316   */\n      0x20\n        /* \"#utility.yul\":1307:1310   */\n      dup4\n        /* \"#utility.yul\":1303:1317   */\n      add\n        /* \"#utility.yul\":1289:1317   */\n      swap1\n      pop\n        /* \"#utility.yul\":1144:1323   */\n      swap3\n      swap2\n      pop\n      pop\n      jump\t// out\n        /* \"#utility.yul\":1329:1471   */\n    tag_75:\n        /* \"#utility.yul\":1432:1464   */\n      tag_77\n        /* \"#utility.yul\":1458:1463   */\n      dup2\n        /* \"#utility.yul\":1432:1464   */\n      tag_78\n      jump\t// in\n    tag_77:\n        /* \"#utility.yul\":1427:1430   */\n      dup3\n        /* \"#utility.yul\":1420:1465   */\n      mstore\n        /* \"#utility.yul\":1329:1471   */\n      pop\n      pop\n      jump\t// out\n        /* \"#utility.yul\":1477:1585   */\n    tag_74:\n        /* \"#utility.yul\":1554:1578   */\n      tag_80\n        /* \"#utility.yul\":1572:1577   */\n      dup2\n        /* \"#utility.yul\":1554:1578   */\n      tag_81\n      jump\t// in\n    tag_80:\n        /* \"#utility.yul\":1549:1552   */\n      dup3\n        /* \"#utility.yul\":1542:1579   */\n      mstore\n        /* \"#utility.yul\":1477:1585   */\n      pop\n      pop\n      jump\t// out\n        /* \"#utility.yul\":1591:1709   */\n    tag_82:\n        /* \"#utility.yul\":1678:1702   */\n      tag_84\n        /* \"#utility.yul\":1696:1701   */\n      dup2\n        /* \"#utility.yul\":1678:1702   */\n      tag_81\n      jump\t// in\n    tag_84:\n        /* \"#utility.yul\":1673:1676   */\n      dup3\n        /* \"#utility.yul\":1666:1703   */\n      mstore\n        /* \"#utility.yul\":1591:1709   */\n      pop\n      pop\n      jump\t// out\n        /* \"#utility.yul\":1745:2477   */\n    tag_85:\n        /* \"#utility.yul\":1864:1867   */\n      0x00\n        /* \"#utility.yul\":1893:1947   */\n      tag_87\n        /* \"#utility.yul\":1941:1946   */\n      dup3\n        /* \"#utility.yul\":1893:1947   */\n      tag_88\n      jump\t// in\n    tag_87:\n        /* \"#utility.yul\":1963:2049   */\n      tag_89\n        /* \"#utility.yul\":2042:2048   */\n      dup2\n        /* \"#utility.yul\":2037:2040   */\n      dup6\n        /* \"#utility.yul\":1963:2049   */\n      tag_90\n      jump\t// in\n    tag_89:\n        /* \"#utility.yul\":1956:2049   */\n      swap4\n      pop\n        /* \"#utility.yul\":2073:2129   */\n      tag_91\n        /* \"#utility.yul\":2123:2128   */\n      dup4\n        /* \"#utility.yul\":2073:2129   */\n      tag_92\n      jump\t// in\n    tag_91:\n        /* \"#utility.yul\":2152:2159   */\n      dup1\n        /* \"#utility.yul\":2183:2184   */\n      0x00\n        /* \"#utility.yul\":2168:2452   */\n    tag_93:\n        /* \"#utility.yul\":2193:2199   */\n      dup4\n        /* \"#utility.yul\":2190:2191   */\n      dup2\n        /* \"#utility.yul\":2187:2200   */\n      lt\n        /* \"#utility.yul\":2168:2452   */\n      iszero\n      tag_95\n      jumpi\n        /* \"#utility.yul\":2269:2275   */\n      dup2\n        /* \"#utility.yul\":2263:2276   */\n      mload\n        /* \"#utility.yul\":2296:2359   */\n      tag_96\n        /* \"#utility.yul\":2355:2358   */\n      dup9\n        /* \"#utility.yul\":2340:2353   */\n      dup3\n        /* \"#utility.yul\":2296:2359   */\n      tag_71\n      jump\t// in\n    tag_96:\n        /* \"#utility.yul\":2289:2359   */\n      swap8\n      pop\n        /* \"#utility.yul\":2382:2442   */\n      tag_97\n        /* \"#utility.yul\":2435:2441   */\n      dup4\n        /* \"#utility.yul\":2382:2442   */\n      tag_98\n      jump\t// in\n    tag_97:\n        /* \"#utility.yul\":2372:2442   */\n      swap3\n      pop\n        /* \"#utility.yul\":2228:2452   */\n      pop\n        /* \"#utility.yul\":2215:2216   */\n      0x01\n        /* \"#utility.yul\":2212:2213   */\n      dup2\n        /* \"#utility.yul\":2208:2217   */\n      add\n        /* \"#utility.yul\":2203:2217   */\n      swap1\n      pop\n        /* \"#utility.yul\":2168:2452   */\n      jump(tag_93)\n    tag_95:\n        /* \"#utility.yul\":2172:2186   */\n      pop\n        /* \"#utility.yul\":2468:2471   */\n      dup6\n        /* \"#utility.yul\":2461:2471   */\n      swap4\n      pop\n        /* \"#utility.yul\":1869:2477   */\n      pop\n      pop\n      pop\n        /* \"#utility.yul\":1745:2477   */\n      swap3\n      swap2\n      pop\n      pop\n      jump\t// out\n        /* \"#utility.yul\":2483:2592   */\n    tag_99:\n        /* \"#utility.yul\":2564:2585   */\n      tag_101\n        /* \"#utility.yul\":2579:2584   */\n      dup2\n        /* \"#utility.yul\":2564:2585   */\n      tag_102\n      jump\t// in\n    tag_101:\n        /* \"#utility.yul\":2559:2562   */\n      dup3\n        /* \"#utility.yul\":2552:2586   */\n      mstore\n        /* \"#utility.yul\":2483:2592   */\n      pop\n      pop\n      jump\t// out\n        /* \"#utility.yul\":2598:2964   */\n    tag_103:\n        /* \"#utility.yul\":2740:2743   */\n      0x00\n        /* \"#utility.yul\":2761:2828   */\n      tag_105\n        /* \"#utility.yul\":2825:2827   */\n      0x1c\n        /* \"#utility.yul\":2820:2823   */\n      dup4\n        /* \"#utility.yul\":2761:2828   */\n      tag_106\n      jump\t// in\n    tag_105:\n        /* \"#utility.yul\":2754:2828   */\n      swap2\n      pop\n        /* \"#utility.yul\":2837:2930   */\n      tag_107\n        /* \"#utility.yul\":2926:2929   */\n      dup3\n        /* \"#utility.yul\":2837:2930   */\n      tag_108\n      jump\t// in\n    tag_107:\n        /* \"#utility.yul\":2955:2957   */\n      0x20\n        /* \"#utility.yul\":2950:2953   */\n      dup3\n        /* \"#utility.yul\":2946:2958   */\n      add\n        /* \"#utility.yul\":2939:2958   */\n      swap1\n      pop\n        /* \"#utility.yul\":2598:2964   */\n      swap2\n      swap1\n      pop\n      jump\t// out\n        /* \"#utility.yul\":2970:3088   */\n    tag_109:\n        /* \"#utility.yul\":3057:3081   */\n      tag_111\n        /* \"#utility.yul\":3075:3080   */\n      dup2\n        /* \"#utility.yul\":3057:3081   */\n      tag_112\n      jump\t// in\n    tag_111:\n        /* \"#utility.yul\":3052:3055   */\n      dup3\n        /* \"#utility.yul\":3045:3082   */\n      mstore\n        /* \"#utility.yul\":2970:3088   */\n      pop\n      pop\n      jump\t// out\n        /* \"#utility.yul\":3094:3316   */\n    tag_34:\n        /* \"#utility.yul\":3187:3191   */\n      0x00\n        /* \"#utility.yul\":3225:3227   */\n      0x20\n        /* \"#utility.yul\":3214:3223   */\n      dup3\n        /* \"#utility.yul\":3210:3228   */\n      add\n        /* \"#utility.yul\":3202:3228   */\n      swap1\n      pop\n        /* \"#utility.yul\":3238:3309   */\n      tag_114\n        /* \"#utility.yul\":3306:3307   */\n      0x00\n        /* \"#utility.yul\":3295:3304   */\n      dup4\n        /* \"#utility.yul\":3291:3308   */\n      add\n        /* \"#utility.yul\":3282:3288   */\n      dup5\n        /* \"#utility.yul\":3238:3309   */\n      tag_82\n      jump\t// in\n    tag_114:\n        /* \"#utility.yul\":3094:3316   */\n      swap3\n      swap2\n      pop\n      pop\n      jump\t// out\n        /* \"#utility.yul\":3322:3695   */\n    tag_20:\n        /* \"#utility.yul\":3465:3469   */\n      0x00\n        /* \"#utility.yul\":3503:3505   */\n      0x20\n        /* \"#utility.yul\":3492:3501   */\n      dup3\n        /* \"#utility.yul\":3488:3506   */\n      add\n        /* \"#utility.yul\":3480:3506   */\n      swap1\n      pop\n        /* \"#utility.yul\":3552:3561   */\n      dup2\n        /* \"#utility.yul\":3546:3550   */\n      dup2\n        /* \"#utility.yul\":3542:3562   */\n      sub\n        /* \"#utility.yul\":3538:3539   */\n      0x00\n        /* \"#utility.yul\":3527:3536   */\n      dup4\n        /* \"#utility.yul\":3523:3540   */\n      add\n        /* \"#utility.yul\":3516:3563   */\n      mstore\n        /* \"#utility.yul\":3580:3688   */\n      tag_116\n        /* \"#utility.yul\":3683:3687   */\n      dup2\n        /* \"#utility.yul\":3674:3680   */\n      dup5\n        /* \"#utility.yul\":3580:3688   */\n      tag_85\n      jump\t// in\n    tag_116:\n        /* \"#utility.yul\":3572:3688   */\n      swap1\n      pop\n        /* \"#utility.yul\":3322:3695   */\n      swap3\n      swap2\n      pop\n      pop\n      jump\t// out\n        /* \"#utility.yul\":3701:4120   */\n    tag_49:\n        /* \"#utility.yul\":3867:3871   */\n      0x00\n        /* \"#utility.yul\":3905:3907   */\n      0x20\n        /* \"#utility.yul\":3894:3903   */\n      dup3\n        /* \"#utility.yul\":3890:3908   */\n      add\n        /* \"#utility.yul\":3882:3908   */\n      swap1\n      pop\n        /* \"#utility.yul\":3954:3963   */\n      dup2\n        /* \"#utility.yul\":3948:3952   */\n      dup2\n        /* \"#utility.yul\":3944:3964   */\n      sub\n        /* \"#utility.yul\":3940:3941   */\n      0x00\n        /* \"#utility.yul\":3929:3938   */\n      dup4\n        /* \"#utility.yul\":3925:3942   */\n      add\n        /* \"#utility.yul\":3918:3965   */\n      mstore\n        /* \"#utility.yul\":3982:4113   */\n      tag_118\n        /* \"#utility.yul\":4108:4112   */\n      dup2\n        /* \"#utility.yul\":3982:4113   */\n      tag_103\n      jump\t// in\n    tag_118:\n        /* \"#utility.yul\":3974:4113   */\n      swap1\n      pop\n        /* \"#utility.yul\":3701:4120   */\n      swap2\n      swap1\n      pop\n      jump\t// out\n        /* \"#utility.yul\":4126:4348   */\n    tag_12:\n        /* \"#utility.yul\":4219:4223   */\n      0x00\n        /* \"#utility.yul\":4257:4259   */\n      0x20\n        /* \"#utility.yul\":4246:4255   */\n      dup3\n        /* \"#utility.yul\":4242:4260   */\n      add\n        /* \"#utility.yul\":4234:4260   */\n      swap1\n      pop\n        /* \"#utility.yul\":4270:4341   */\n      tag_120\n        /* \"#utility.yul\":4338:4339   */\n      0x00\n        /* \"#utility.yul\":4327:4336   */\n      dup4\n        /* \"#utility.yul\":4323:4340   */\n      add\n        /* \"#utility.yul\":4314:4320   */\n      dup5\n        /* \"#utility.yul\":4270:4341   */\n      tag_109\n      jump\t// in\n    tag_120:\n        /* \"#utility.yul\":4126:4348   */\n      swap3\n      swap2\n      pop\n      pop\n      jump\t// out\n        /* \"#utility.yul\":4354:5038   */\n    tag_26:\n        /* \"#utility.yul\":4569:4573   */\n      0x00\n        /* \"#utility.yul\":4607:4610   */\n      0xa0\n        /* \"#utility.yul\":4596:4605   */\n      dup3\n        /* \"#utility.yul\":4592:4611   */\n      add\n        /* \"#utility.yul\":4584:4611   */\n      swap1\n      pop\n        /* \"#utility.yul\":4621:4692   */\n      tag_122\n        /* \"#utility.yul\":4689:4690   */\n      0x00\n        /* \"#utility.yul\":4678:4687   */\n      dup4\n        /* \"#utility.yul\":4674:4691   */\n      add\n        /* \"#utility.yul\":4665:4671   */\n      dup9\n        /* \"#utility.yul\":4621:4692   */\n      tag_109\n      jump\t// in\n    tag_122:\n        /* \"#utility.yul\":4702:4774   */\n      tag_123\n        /* \"#utility.yul\":4770:4772   */\n      0x20\n        /* \"#utility.yul\":4759:4768   */\n      dup4\n        /* \"#utility.yul\":4755:4773   */\n      add\n        /* \"#utility.yul\":4746:4752   */\n      dup8\n        /* \"#utility.yul\":4702:4774   */\n      tag_109\n      jump\t// in\n    tag_123:\n        /* \"#utility.yul\":4784:4872   */\n      tag_124\n        /* \"#utility.yul\":4868:4870   */\n      0x40\n        /* \"#utility.yul\":4857:4866   */\n      dup4\n        /* \"#utility.yul\":4853:4871   */\n      add\n        /* \"#utility.yul\":4844:4850   */\n      dup7\n        /* \"#utility.yul\":4784:4872   */\n      tag_75\n      jump\t// in\n    tag_124:\n        /* \"#utility.yul\":4882:4954   */\n      tag_125\n        /* \"#utility.yul\":4950:4952   */\n      0x60\n        /* \"#utility.yul\":4939:4948   */\n      dup4\n        /* \"#utility.yul\":4935:4953   */\n      add\n        /* \"#utility.yul\":4926:4932   */\n      dup6\n        /* \"#utility.yul\":4882:4954   */\n      tag_109\n      jump\t// in\n    tag_125:\n        /* \"#utility.yul\":4964:5031   */\n      tag_126\n        /* \"#utility.yul\":5026:5029   */\n      0x80\n        /* \"#utility.yul\":5015:5024   */\n      dup4\n        /* \"#utility.yul\":5011:5030   */\n      add\n        /* \"#utility.yul\":5002:5008   */\n      dup5\n        /* \"#utility.yul\":4964:5031   */\n      tag_99\n      jump\t// in\n    tag_126:\n        /* \"#utility.yul\":4354:5038   */\n      swap7\n      swap6\n      pop\n      pop\n      pop\n      pop\n      pop\n      pop\n      jump\t// out\n        /* \"#utility.yul\":5125:5257   */\n    tag_92:\n        /* \"#utility.yul\":5192:5196   */\n      0x00\n        /* \"#utility.yul\":5215:5218   */\n      dup2\n        /* \"#utility.yul\":5207:5218   */\n      swap1\n      pop\n        /* \"#utility.yul\":5245:5249   */\n      0x20\n        /* \"#utility.yul\":5240:5243   */\n      dup3\n        /* \"#utility.yul\":5236:5250   */\n      add\n        /* \"#utility.yul\":5228:5250   */\n      swap1\n      pop\n        /* \"#utility.yul\":5125:5257   */\n      swap2\n      swap1\n      pop\n      jump\t// out\n        /* \"#utility.yul\":5263:5377   */\n    tag_88:\n        /* \"#utility.yul\":5330:5336   */\n      0x00\n        /* \"#utility.yul\":5364:5369   */\n      dup2\n        /* \"#utility.yul\":5358:5370   */\n      mload\n        /* \"#utility.yul\":5348:5370   */\n      swap1\n      pop\n        /* \"#utility.yul\":5263:5377   */\n      swap2\n      swap1\n      pop\n      jump\t// out\n        /* \"#utility.yul\":5383:5496   */\n    tag_98:\n        /* \"#utility.yul\":5453:5457   */\n      0x00\n        /* \"#utility.yul\":5485:5489   */\n      0x20\n        /* \"#utility.yul\":5480:5483   */\n      dup3\n        /* \"#utility.yul\":5476:5490   */\n      add\n        /* \"#utility.yul\":5468:5490   */\n      swap1\n      pop\n        /* \"#utility.yul\":5383:5496   */\n      swap2\n      swap1\n      pop\n      jump\t// out\n        /* \"#utility.yul\":5502:5686   */\n    tag_90:\n        /* \"#utility.yul\":5601:5612   */\n      0x00\n        /* \"#utility.yul\":5635:5641   */\n      dup3\n        /* \"#utility.yul\":5630:5633   */\n      dup3\n        /* \"#utility.yul\":5623:5642   */\n      mstore\n        /* \"#utility.yul\":5675:5679   */\n      0x20\n        /* \"#utility.yul\":5670:5673   */\n      dup3\n        /* \"#utility.yul\":5666:5680   */\n      add\n        /* \"#utility.yul\":5651:5680   */\n      swap1\n      pop\n        /* \"#utility.yul\":5502:5686   */\n      swap3\n      swap2\n      pop\n      pop\n      jump\t// out\n        /* \"#utility.yul\":5692:5861   */\n    tag_106:\n        /* \"#utility.yul\":5776:5787   */\n      0x00\n        /* \"#utility.yul\":5810:5816   */\n      dup3\n        /* \"#utility.yul\":5805:5808   */\n      dup3\n        /* \"#utility.yul\":5798:5817   */\n      mstore\n        /* \"#utility.yul\":5850:5854   */\n      0x20\n        /* \"#utility.yul\":5845:5848   */\n      dup3\n        /* \"#utility.yul\":5841:5855   */\n      add\n        /* \"#utility.yul\":5826:5855   */\n      swap1\n      pop\n        /* \"#utility.yul\":5692:5861   */\n      swap3\n      swap2\n      pop\n      pop\n      jump\t// out\n        /* \"#utility.yul\":5867:5963   */\n    tag_81:\n        /* \"#utility.yul\":5904:5911   */\n      0x00\n        /* \"#utility.yul\":5933:5957   */\n      tag_135\n        /* \"#utility.yul\":5951:5956   */\n      dup3\n        /* \"#utility.yul\":5933:5957   */\n      tag_136\n      jump\t// in\n    tag_135:\n        /* \"#utility.yul\":5922:5957   */\n      swap1\n      pop\n        /* \"#utility.yul\":5867:5963   */\n      swap2\n      swap1\n      pop\n      jump\t// out\n        /* \"#utility.yul\":5969:6073   */\n    tag_78:\n        /* \"#utility.yul\":6014:6021   */\n      0x00\n        /* \"#utility.yul\":6043:6067   */\n      tag_138\n        /* \"#utility.yul\":6061:6066   */\n      dup3\n        /* \"#utility.yul\":6043:6067   */\n      tag_136\n      jump\t// in\n    tag_138:\n        /* \"#utility.yul\":6032:6067   */\n      swap1\n      pop\n        /* \"#utility.yul\":5969:6073   */\n      swap2\n      swap1\n      pop\n      jump\t// out\n        /* \"#utility.yul\":6079:6169   */\n    tag_102:\n        /* \"#utility.yul\":6113:6120   */\n      0x00\n        /* \"#utility.yul\":6156:6161   */\n      dup2\n        /* \"#utility.yul\":6149:6162   */\n      iszero\n        /* \"#utility.yul\":6142:6163   */\n      iszero\n        /* \"#utility.yul\":6131:6163   */\n      swap1\n      pop\n        /* \"#utility.yul\":6079:6169   */\n      swap2\n      swap1\n      pop\n      jump\t// out\n        /* \"#utility.yul\":6175:6301   */\n    tag_136:\n        /* \"#utility.yul\":6212:6219   */\n      0x00\n        /* \"#utility.yul\":6252:6294   */\n      0xffffffffffffffffffffffffffffffffffffffff\n        /* \"#utility.yul\":6245:6250   */\n      dup3\n        /* \"#utility.yul\":6241:6295   */\n      and\n        /* \"#utility.yul\":6230:6295   */\n      swap1\n      pop\n        /* \"#utility.yul\":6175:6301   */\n      swap2\n      swap1\n      pop\n      jump\t// out\n        /* \"#utility.yul\":6307:6384   */\n    tag_112:\n        /* \"#utility.yul\":6344:6351   */\n      0x00\n        /* \"#utility.yul\":6373:6378   */\n      dup2\n        /* \"#utility.yul\":6362:6378   */\n      swap1\n      pop\n        /* \"#utility.yul\":6307:6384   */\n      swap2\n      swap1\n      pop\n      jump\t// out\n        /* \"#utility.yul\":6390:6570   */\n    tag_45:\n        /* \"#utility.yul\":6438:6515   */\n      0x4e487b7100000000000000000000000000000000000000000000000000000000\n        /* \"#utility.yul\":6435:6436   */\n      0x00\n        /* \"#utility.yul\":6428:6516   */\n      mstore\n        /* \"#utility.yul\":6535:6539   */\n      0x32\n        /* \"#utility.yul\":6532:6533   */\n      0x04\n        /* \"#utility.yul\":6525:6540   */\n      mstore\n        /* \"#utility.yul\":6559:6563   */\n      0x24\n        /* \"#utility.yul\":6556:6557   */\n      0x00\n        /* \"#utility.yul\":6549:6564   */\n      revert\n        /* \"#utility.yul\":6699:6816   */\n    tag_64:\n        /* \"#utility.yul\":6808:6809   */\n      0x00\n        /* \"#utility.yul\":6805:6806   */\n      dup1\n        /* \"#utility.yul\":6798:6810   */\n      revert\n        /* \"#utility.yul\":6822:7000   */\n    tag_108:\n        /* \"#utility.yul\":6962:6992   */\n      0x5472616e73616374696f6e20416c726561647920446f6e652021212100000000\n        /* \"#utility.yul\":6958:6959   */\n      0x00\n        /* \"#utility.yul\":6950:6956   */\n      dup3\n        /* \"#utility.yul\":6946:6960   */\n      add\n        /* \"#utility.yul\":6939:6993   */\n      mstore\n        /* \"#utility.yul\":6822:7000   */\n      pop\n      jump\t// out\n        /* \"#utility.yul\":7006:7144   */\n    tag_56:\n        /* \"#utility.yul\":7087:7119   */\n      tag_148\n        /* \"#utility.yul\":7113:7118   */\n      dup2\n        /* \"#utility.yul\":7087:7119   */\n      tag_78\n      jump\t// in\n    tag_148:\n        /* \"#utility.yul\":7080:7085   */\n      dup2\n        /* \"#utility.yul\":7077:7120   */\n      eq\n        /* \"#utility.yul\":7067:7138   */\n      tag_149\n      jumpi\n        /* \"#utility.yul\":7134:7135   */\n      0x00\n        /* \"#utility.yul\":7131:7132   */\n      dup1\n        /* \"#utility.yul\":7124:7136   */\n      revert\n        /* \"#utility.yul\":7067:7138   */\n    tag_149:\n        /* \"#utility.yul\":7006:7144   */\n      pop\n      jump\t// out\n        /* \"#utility.yul\":7150:7272   */\n    tag_60:\n        /* \"#utility.yul\":7223:7247   */\n      tag_151\n        /* \"#utility.yul\":7241:7246   */\n      dup2\n        /* \"#utility.yul\":7223:7247   */\n      tag_112\n      jump\t// in\n    tag_151:\n        /* \"#utility.yul\":7216:7221   */\n      dup2\n        /* \"#utility.yul\":7213:7248   */\n      eq\n        /* \"#utility.yul\":7203:7266   */\n      tag_152\n      jumpi\n        /* \"#utility.yul\":7262:7263   */\n      0x00\n        /* \"#utility.yul\":7259:7260   */\n      dup1\n        /* \"#utility.yul\":7252:7264   */\n      revert\n        /* \"#utility.yul\":7203:7266   */\n    tag_152:\n        /* \"#utility.yul\":7150:7272   */\n      pop\n      jump\t// out\n\n    auxdata: 0xa26469706673582212204b83b701ae7531d08387b09ad197a91e0c2e6a56554167046cd9eba0c427d49264736f6c63430008070033\n}\n",
				"bytecode": {
					"linkReferences": {},
					"object": "60806040523480156200001157600080fd5b5060405162000b5b38038062000b5b8339818101604052810190620000379190620001e9565b81600090805190602001906200004f9291906200005f565b50806001819055505050620003a3565b828054828255906000526020600020908101928215620000db579160200282015b82811115620000da5782518260006101000a81548173ffffffffffffffffffffffffffffffffffffffff021916908373ffffffffffffffffffffffffffffffffffffffff1602179055509160200191906001019062000080565b5b509050620000ea9190620000ee565b5090565b5b8082111562000109576000816000905550600101620000ef565b5090565b6000620001246200011e8462000278565b6200024f565b905080838252602082019050828560208602820111156200014a57620001496200034f565b5b60005b858110156200017e578162000163888262000188565b8452602084019350602083019250506001810190506200014d565b5050509392505050565b60008151905062000199816200036f565b92915050565b600082601f830112620001b757620001b66200034a565b5b8151620001c98482602086016200010d565b91505092915050565b600081519050620001e38162000389565b92915050565b6000806040838503121562000203576200020262000359565b5b600083015167ffffffffffffffff81111562000224576200022362000354565b5b62000232858286016200019f565b92505060206200024585828601620001d2565b9150509250929050565b60006200025b6200026e565b9050620002698282620002e5565b919050565b6000604051905090565b600067ffffffffffffffff8211156200029657620002956200031b565b5b602082029050602081019050919050565b6000620002b482620002bb565b9050919050565b600073ffffffffffffffffffffffffffffffffffffffff82169050919050565b6000819050919050565b620002f0826200035e565b810181811067ffffffffffffffff821117156200031257620003116200031b565b5b80604052505050565b7f4e487b7100000000000000000000000000000000000000000000000000000000600052604160045260246000fd5b600080fd5b600080fd5b600080fd5b600080fd5b6000601f19601f8301169050919050565b6200037a81620002a7565b81146200038657600080fd5b50565b6200039481620002db565b8114620003a057600080fd5b50565b6107a880620003b36000396000f3fe608060405234801561001057600080fd5b50600436106100625760003560e01c80631703a018146100675780634c12fa47146100855780636cb3e8ef146100a15780639377d711146100bf578063cacca4a0146100f3578063d3650fb81461010f575b600080fd5b61006f61013f565b60405161007c91906105d5565b60405180910390f35b61009f600480360381019061009a9190610454565b610145565b005b6100a9610241565b6040516100b69190610593565b60405180910390f35b6100d960048036038101906100d49190610427565b6102cf565b6040516100ea9594939291906105f0565b60405180910390f35b61010d60048036038101906101089190610427565b610342565b005b61012960048036038101906101249190610427565b6103be565b6040516101369190610578565b60405180910390f35b60015481565b60026040518060a0016040528060028054905081526020018481526020018373ffffffffffffffffffffffffffffffffffffffff16815260200160008152602001600015158152509080600181540180825580915050600190039060005260206000209060050201600090919091909150600082015181600001556020820151816001015560408201518160020160006101000a81548173ffffffffffffffffffffffffffffffffffffffff021916908373ffffffffffffffffffffffffffffffffffffffff1602179055506060820151816003015560808201518160040160006101000a81548160ff02191690831515021790555050505050565b606060008054806020026020016040519081016040528092919081815260200182805480156102c557602002820191906000526020600020905b8160009054906101000a900473ffffffffffffffffffffffffffffffffffffffff1673ffffffffffffffffffffffffffffffffffffffff168152602001906001019080831161027b575b5050505050905090565b600281815481106102df57600080fd5b90600052602060002090600502016000915090508060000154908060010154908060020160009054906101000a900473ffffffffffffffffffffffffffffffffffffffff16908060030154908060040160009054906101000a900460ff16905085565b600015156002828154811061035a576103596106e7565b5b906000526020600020906005020160040160009054906101000a900460ff161515146103bb576040517f08c379a00000000000000000000000000000000000000000000000000000000081526004016103b2906105b5565b60405180910390fd5b50565b600081815481106103ce57600080fd5b906000526020600020016000915054906101000a900473ffffffffffffffffffffffffffffffffffffffff1681565b60008135905061040c81610744565b92915050565b6000813590506104218161075b565b92915050565b60006020828403121561043d5761043c610716565b5b600061044b84828501610412565b91505092915050565b6000806040838503121561046b5761046a610716565b5b600061047985828601610412565b925050602061048a858286016103fd565b9150509250929050565b60006104a083836104bb565b60208301905092915050565b6104b58161069f565b82525050565b6104c48161068d565b82525050565b6104d38161068d565b82525050565b60006104e482610653565b6104ee818561066b565b93506104f983610643565b8060005b8381101561052a5781516105118882610494565b975061051c8361065e565b9250506001810190506104fd565b5085935050505092915050565b610540816106b1565b82525050565b6000610553601c8361067c565b915061055e8261071b565b602082019050919050565b610572816106dd565b82525050565b600060208201905061058d60008301846104ca565b92915050565b600060208201905081810360008301526105ad81846104d9565b905092915050565b600060208201905081810360008301526105ce81610546565b9050919050565b60006020820190506105ea6000830184610569565b92915050565b600060a0820190506106056000830188610569565b6106126020830187610569565b61061f60408301866104ac565b61062c6060830185610569565b6106396080830184610537565b9695505050505050565b6000819050602082019050919050565b600081519050919050565b6000602082019050919050565b600082825260208201905092915050565b600082825260208201905092915050565b6000610698826106bd565b9050919050565b60006106aa826106bd565b9050919050565b60008115159050919050565b600073ffffffffffffffffffffffffffffffffffffffff82169050919050565b6000819050919050565b7f4e487b7100000000000000000000000000000000000000000000000000000000600052603260045260246000fd5b600080fd5b7f5472616e73616374696f6e20416c726561647920446f6e652021212100000000600082015250565b61074d8161069f565b811461075857600080fd5b50565b610764816106dd565b811461076f57600080fd5b5056fea26469706673582212204b83b701ae7531d08387b09ad197a91e0c2e6a56554167046cd9eba0c427d49264736f6c63430008070033",
					"opcodes": "PUSH1 0x80 PUSH1 0x40 MSTORE CALLVALUE DUP1 ISZERO PUSH3 0x11 JUMPI PUSH1 0x0 DUP1 REVERT JUMPDEST POP PUSH1 0x40 MLOAD PUSH3 0xB5B CODESIZE SUB DUP1 PUSH3 0xB5B DUP4 CODECOPY DUP2 DUP2 ADD PUSH1 0x40 MSTORE DUP2 ADD SWAP1 PUSH3 0x37 SWAP2 SWAP1 PUSH3 0x1E9 JUMP JUMPDEST DUP2 PUSH1 0x0 SWAP1 DUP1 MLOAD SWAP1 PUSH1 0x20 ADD SWAP1 PUSH3 0x4F SWAP3 SWAP2 SWAP1 PUSH3 0x5F JUMP JUMPDEST POP DUP1 PUSH1 0x1 DUP2 SWAP1 SSTORE POP POP POP PUSH3 0x3A3 JUMP JUMPDEST DUP3 DUP1 SLOAD DUP3 DUP3 SSTORE SWAP1 PUSH1 0x0 MSTORE PUSH1 0x20 PUSH1 0x0 KECCAK256 SWAP1 DUP2 ADD SWAP3 DUP3 ISZERO PUSH3 0xDB JUMPI SWAP2 PUSH1 0x20 MUL DUP3 ADD JUMPDEST DUP3 DUP2 GT ISZERO PUSH3 0xDA JUMPI DUP3 MLOAD DUP3 PUSH1 0x0 PUSH2 0x100 EXP DUP2 SLOAD DUP2 PUSH20 0xFFFFFFFFFFFFFFFFFFFFFFFFFFFFFFFFFFFFFFFF MUL NOT AND SWAP1 DUP4 PUSH20 0xFFFFFFFFFFFFFFFFFFFFFFFFFFFFFFFFFFFFFFFF AND MUL OR SWAP1 SSTORE POP SWAP2 PUSH1 0x20 ADD SWAP2 SWAP1 PUSH1 0x1 ADD SWAP1 PUSH3 0x80 JUMP JUMPDEST JUMPDEST POP SWAP1 POP PUSH3 0xEA SWAP2 SWAP1 PUSH3 0xEE JUMP JUMPDEST POP SWAP1 JUMP JUMPDEST JUMPDEST DUP1 DUP3 GT ISZERO PUSH3 0x109 JUMPI PUSH1 0x0 DUP2 PUSH1 0x0 SWAP1 SSTORE POP PUSH1 0x1 ADD PUSH3 0xEF JUMP JUMPDEST POP SWAP1 JUMP JUMPDEST PUSH1 0x0 PUSH3 0x124 PUSH3 0x11E DUP5 PUSH3 0x278 JUMP JUMPDEST PUSH3 0x24F JUMP JUMPDEST SWAP1 POP DUP1 DUP4 DUP3 MSTORE PUSH1 0x20 DUP3 ADD SWAP1 POP DUP3 DUP6 PUSH1 0x20 DUP7 MUL DUP3 ADD GT ISZERO PUSH3 0x14A JUMPI PUSH3 0x149 PUSH3 0x34F JUMP JUMPDEST JUMPDEST PUSH1 0x0 JUMPDEST DUP6 DUP2 LT ISZERO PUSH3 0x17E JUMPI DUP2 PUSH3 0x163 DUP9 DUP3 PUSH3 0x188 JUMP JUMPDEST DUP5 MSTORE PUSH1 0x20 DUP5 ADD SWAP4 POP PUSH1 0x20 DUP4 ADD SWAP3 POP POP PUSH1 0x1 DUP2 ADD SWAP1 POP PUSH3 0x14D JUMP JUMPDEST POP POP POP SWAP4 SWAP3 POP POP POP JUMP JUMPDEST PUSH1 0x0 DUP2 MLOAD SWAP1 POP PUSH3 0x199 DUP2 PUSH3 0x36F JUMP JUMPDEST SWAP3 SWAP2 POP POP JUMP JUMPDEST PUSH1 0x0 DUP3 PUSH1 0x1F DUP4 ADD SLT PUSH3 0x1B7 JUMPI PUSH3 0x1B6 PUSH3 0x34A JUMP JUMPDEST JUMPDEST DUP2 MLOAD PUSH3 0x1C9 DUP5 DUP3 PUSH1 0x20 DUP7 ADD PUSH3 0x10D JUMP JUMPDEST SWAP2 POP POP SWAP3 SWAP2 POP POP JUMP JUMPDEST PUSH1 0x0 DUP2 MLOAD SWAP1 POP PUSH3 0x1E3 DUP2 PUSH3 0x389 JUMP JUMPDEST SWAP3 SWAP2 POP POP JUMP JUMPDEST PUSH1 0x0 DUP1 PUSH1 0x40 DUP4 DUP6 SUB SLT ISZERO PUSH3 0x203 JUMPI PUSH3 0x202 PUSH3 0x359 JUMP JUMPDEST JUMPDEST PUSH1 0x0 DUP4 ADD MLOAD PUSH8 0xFFFFFFFFFFFFFFFF DUP2 GT ISZERO PUSH3 0x224 JUMPI PUSH3 0x223 PUSH3 0x354 JUMP JUMPDEST JUMPDEST PUSH3 0x232 DUP6 DUP3 DUP7 ADD PUSH3 0x19F JUMP JUMPDEST SWAP3 POP POP PUSH1 0x20 PUSH3 0x245 DUP6 DUP3 DUP7 ADD PUSH3 0x1D2 JUMP JUMPDEST SWAP2 POP POP SWAP3 POP SWAP3 SWAP1 POP JUMP JUMPDEST PUSH1 0x0 PUSH3 0x25B PUSH3 0x26E JUMP JUMPDEST SWAP1 POP PUSH3 0x269 DUP3 DUP3 PUSH3 0x2E5 JUMP JUMPDEST SWAP2 SWAP1 POP JUMP JUMPDEST PUSH1 0x0 PUSH1 0x40 MLOAD SWAP1 POP SWAP1 JUMP JUMPDEST PUSH1 0x0 PUSH8 0xFFFFFFFFFFFFFFFF DUP3 GT ISZERO PUSH3 0x296 JUMPI PUSH3 0x295 PUSH3 0x31B JUMP JUMPDEST JUMPDEST PUSH1 0x20 DUP3 MUL SWAP1 POP PUSH1 0x20 DUP2 ADD SWAP1 POP SWAP2 SWAP1 POP JUMP JUMPDEST PUSH1 0x0 PUSH3 0x2B4 DUP3 PUSH3 0x2BB JUMP JUMPDEST SWAP1 POP SWAP2 SWAP1 POP JUMP JUMPDEST PUSH1 0x0 PUSH20 0xFFFFFFFFFFFFFFFFFFFFFFFFFFFFFFFFFFFFFFFF DUP3 AND SWAP1 POP SWAP2 SWAP1 POP JUMP JUMPDEST PUSH1 0x0 DUP2 SWAP1 POP SWAP2 SWAP1 POP JUMP JUMPDEST PUSH3 0x2F0 DUP3 PUSH3 0x35E JUMP JUMPDEST DUP2 ADD DUP2 DUP2 LT PUSH8 0xFFFFFFFFFFFFFFFF DUP3 GT OR ISZERO PUSH3 0x312 JUMPI PUSH3 0x311 PUSH3 0x31B JUMP JUMPDEST JUMPDEST DUP1 PUSH1 0x40 MSTORE POP POP POP JUMP JUMPDEST PUSH32 0x4E487B7100000000000000000000000000000000000000000000000000000000 PUSH1 0x0 MSTORE PUSH1 0x41 PUSH1 0x4 MSTORE PUSH1 0x24 PUSH1 0x0 REVERT JUMPDEST PUSH1 0x0 DUP1 REVERT JUMPDEST PUSH1 0x0 DUP1 REVERT JUMPDEST PUSH1 0x0 DUP1 REVERT JUMPDEST PUSH1 0x0 DUP1 REVERT JUMPDEST PUSH1 0x0 PUSH1 0x1F NOT PUSH1 0x1F DUP4 ADD AND SWAP1 POP SWAP2 SWAP1 POP JUMP JUMPDEST PUSH3 0x37A DUP2 PUSH3 0x2A7 JUMP JUMPDEST DUP2 EQ PUSH3 0x386 JUMPI PUSH1 0x0 DUP1 REVERT JUMPDEST POP JUMP JUMPDEST PUSH3 0x394 DUP2 PUSH3 0x2DB JUMP JUMPDEST DUP2 EQ PUSH3 0x3A0 JUMPI PUSH1 0x0 DUP1 REVERT JUMPDEST POP JUMP JUMPDEST PUSH2 0x7A8 DUP1 PUSH3 0x3B3 PUSH1 0x0 CODECOPY PUSH1 0x0 RETURN INVALID PUSH1 0x80 PUSH1 0x40 MSTORE CALLVALUE DUP1 ISZERO PUSH2 0x10 JUMPI PUSH1 0x0 DUP1 REVERT JUMPDEST POP PUSH1 0x4 CALLDATASIZE LT PUSH2 0x62 JUMPI PUSH1 0x0 CALLDATALOAD PUSH1 0xE0 SHR DUP1 PUSH4 0x1703A018 EQ PUSH2 0x67 JUMPI DUP1 PUSH4 0x4C12FA47 EQ PUSH2 0x85 JUMPI DUP1 PUSH4 0x6CB3E8EF EQ PUSH2 0xA1 JUMPI DUP1 PUSH4 0x9377D711 EQ PUSH2 0xBF JUMPI DUP1 PUSH4 0xCACCA4A0 EQ PUSH2 0xF3 JUMPI DUP1 PUSH4 0xD3650FB8 EQ PUSH2 0x10F JUMPI JUMPDEST PUSH1 0x0 DUP1 REVERT JUMPDEST PUSH2 0x6F PUSH2 0x13F JUMP JUMPDEST PUSH1 0x40 MLOAD PUSH2 0x7C SWAP2 SWAP1 PUSH2 0x5D5 JUMP JUMPDEST PUSH1 0x40 MLOAD DUP1 SWAP2 SUB SWAP1 RETURN JUMPDEST PUSH2 0x9F PUSH1 0x4 DUP1 CALLDATASIZE SUB DUP2 ADD SWAP1 PUSH2 0x9A SWAP2 SWAP1 PUSH2 0x454 JUMP JUMPDEST PUSH2 0x145 JUMP JUMPDEST STOP JUMPDEST PUSH2 0xA9 PUSH2 0x241 JUMP JUMPDEST PUSH1 0x40 MLOAD PUSH2 0xB6 SWAP2 SWAP1 PUSH2 0x593 JUMP JUMPDEST PUSH1 0x40 MLOAD DUP1 SWAP2 SUB SWAP1 RETURN JUMPDEST PUSH2 0xD9 PUSH1 0x4 DUP1 CALLDATASIZE SUB DUP2 ADD SWAP1 PUSH2 0xD4 SWAP2 SWAP1 PUSH2 0x427 JUMP JUMPDEST PUSH2 0x2CF JUMP JUMPDEST PUSH1 0x40 MLOAD PUSH2 0xEA SWAP6 SWAP5 SWAP4 SWAP3 SWAP2 SWAP1 PUSH2 0x5F0 JUMP JUMPDEST PUSH1 0x40 MLOAD DUP1 SWAP2 SUB SWAP1 RETURN JUMPDEST PUSH2 0x10D PUSH1 0x4 DUP1 CALLDATASIZE SUB DUP2 ADD SWAP1 PUSH2 0x108 SWAP2 SWAP1 PUSH2 0x427 JUMP JUMPDEST PUSH2 0x342 JUMP JUMPDEST STOP JUMPDEST PUSH2 0x129 PUSH1 0x4 DUP1 CALLDATASIZE SUB DUP2 ADD SWAP1 PUSH2 0x124 SWAP2 SWAP1 PUSH2 0x427 JUMP JUMPDEST PUSH2 0x3BE JUMP JUMPDEST PUSH1 0x40 MLOAD PUSH2 0x136 SWAP2 SWAP1 PUSH2 0x578 JUMP JUMPDEST PUSH1 0x40 MLOAD DUP1 SWAP2 SUB SWAP1 RETURN JUMPDEST PUSH1 0x1 SLOAD DUP2 JUMP JUMPDEST PUSH1 0x2 PUSH1 0x40 MLOAD DUP1 PUSH1 0xA0 ADD PUSH1 0x40 MSTORE DUP1 PUSH1 0x2 DUP1 SLOAD SWAP1 POP DUP2 MSTORE PUSH1 0x20 ADD DUP5 DUP2 MSTORE PUSH1 0x20 ADD DUP4 PUSH20 0xFFFFFFFFFFFFFFFFFFFFFFFFFFFFFFFFFFFFFFFF AND DUP2 MSTORE PUSH1 0x20 ADD PUSH1 0x0 DUP2 MSTORE PUSH1 0x20 ADD PUSH1 0x0 ISZERO ISZERO DUP2 MSTORE POP SWAP1 DUP1 PUSH1 0x1 DUP2 SLOAD ADD DUP1 DUP3 SSTORE DUP1 SWAP2 POP POP PUSH1 0x1 SWAP1 SUB SWAP1 PUSH1 0x0 MSTORE PUSH1 0x20 PUSH1 0x0 KECCAK256 SWAP1 PUSH1 0x5 MUL ADD PUSH1 0x0 SWAP1 SWAP2 SWAP1 SWAP2 SWAP1 SWAP2 POP PUSH1 0x0 DUP3 ADD MLOAD DUP2 PUSH1 0x0 ADD SSTORE PUSH1 0x20 DUP3 ADD MLOAD DUP2 PUSH1 0x1 ADD SSTORE PUSH1 0x40 DUP3 ADD MLOAD DUP2 PUSH1 0x2 ADD PUSH1 0x0 PUSH2 0x100 EXP DUP2 SLOAD DUP2 PUSH20 0xFFFFFFFFFFFFFFFFFFFFFFFFFFFFFFFFFFFFFFFF MUL NOT AND SWAP1 DUP4 PUSH20 0xFFFFFFFFFFFFFFFFFFFFFFFFFFFFFFFFFFFFFFFF AND MUL OR SWAP1 SSTORE POP PUSH1 0x60 DUP3 ADD MLOAD DUP2 PUSH1 0x3 ADD SSTORE PUSH1 0x80 DUP3 ADD MLOAD DUP2 PUSH1 0x4 ADD PUSH1 0x0 PUSH2 0x100 EXP DUP2 SLOAD DUP2 PUSH1 0xFF MUL NOT AND SWAP1 DUP4 ISZERO ISZERO MUL OR SWAP1 SSTORE POP POP POP POP POP JUMP JUMPDEST PUSH1 0x60 PUSH1 0x0 DUP1 SLOAD DUP1 PUSH1 0x20 MUL PUSH1 0x20 ADD PUSH1 0x40 MLOAD SWAP1 DUP2 ADD PUSH1 0x40 MSTORE DUP1 SWAP3 SWAP2 SWAP1 DUP2 DUP2 MSTORE PUSH1 0x20 ADD DUP3 DUP1 SLOAD DUP1 ISZERO PUSH2 0x2C5 JUMPI PUSH1 0x20 MUL DUP3 ADD SWAP2 SWAP1 PUSH1 0x0 MSTORE PUSH1 0x20 PUSH1 0x0 KECCAK256 SWAP1 JUMPDEST DUP2 PUSH1 0x0 SWAP1 SLOAD SWAP1 PUSH2 0x100 EXP SWAP1 DIV PUSH20 0xFFFFFFFFFFFFFFFFFFFFFFFFFFFFFFFFFFFFFFFF AND PUSH20 0xFFFFFFFFFFFFFFFFFFFFFFFFFFFFFFFFFFFFFFFF AND DUP2 MSTORE PUSH1 0x20 ADD SWAP1 PUSH1 0x1 ADD SWAP1 DUP1 DUP4 GT PUSH2 0x27B JUMPI JUMPDEST POP POP POP POP POP SWAP1 POP SWAP1 JUMP JUMPDEST PUSH1 0x2 DUP2 DUP2 SLOAD DUP2 LT PUSH2 0x2DF JUMPI PUSH1 0x0 DUP1 REVERT JUMPDEST SWAP1 PUSH1 0x0 MSTORE PUSH1 0x20 PUSH1 0x0 KECCAK256 SWAP1 PUSH1 0x5 MUL ADD PUSH1 0x0 SWAP2 POP SWAP1 POP DUP1 PUSH1 0x0 ADD SLOAD SWAP1 DUP1 PUSH1 0x1 ADD SLOAD SWAP1 DUP1 PUSH1 0x2 ADD PUSH1 0x0 SWAP1 SLOAD SWAP1 PUSH2 0x100 EXP SWAP1 DIV PUSH20 0xFFFFFFFFFFFFFFFFFFFFFFFFFFFFFFFFFFFFFFFF AND SWAP1 DUP1 PUSH1 0x3 ADD SLOAD SWAP1 DUP1 PUSH1 0x4 ADD PUSH1 0x0 SWAP1 SLOAD SWAP1 PUSH2 0x100 EXP SWAP1 DIV PUSH1 0xFF AND SWAP1 POP DUP6 JUMP JUMPDEST PUSH1 0x0 ISZERO ISZERO PUSH1 0x2 DUP3 DUP2 SLOAD DUP2 LT PUSH2 0x35A JUMPI PUSH2 0x359 PUSH2 0x6E7 JUMP JUMPDEST JUMPDEST SWAP1 PUSH1 0x0 MSTORE PUSH1 0x20 PUSH1 0x0 KECCAK256 SWAP1 PUSH1 0x5 MUL ADD PUSH1 0x4 ADD PUSH1 0x0 SWAP1 SLOAD SWAP1 PUSH2 0x100 EXP SWAP1 DIV PUSH1 0xFF AND ISZERO ISZERO EQ PUSH2 0x3BB JUMPI PUSH1 0x40 MLOAD PUSH32 0x8C379A000000000000000000000000000000000000000000000000000000000 DUP2 MSTORE PUSH1 0x4 ADD PUSH2 0x3B2 SWAP1 PUSH2 0x5B5 JUMP JUMPDEST PUSH1 0x40 MLOAD DUP1 SWAP2 SUB SWAP1 REVERT JUMPDEST POP JUMP JUMPDEST PUSH1 0x0 DUP2 DUP2 SLOAD DUP2 LT PUSH2 0x3CE JUMPI PUSH1 0x0 DUP1 REVERT JUMPDEST SWAP1 PUSH1 0x0 MSTORE PUSH1 0x20 PUSH1 0x0 KECCAK256 ADD PUSH1 0x0 SWAP2 POP SLOAD SWAP1 PUSH2 0x100 EXP SWAP1 DIV PUSH20 0xFFFFFFFFFFFFFFFFFFFFFFFFFFFFFFFFFFFFFFFF AND DUP2 JUMP JUMPDEST PUSH1 0x0 DUP2 CALLDATALOAD SWAP1 POP PUSH2 0x40C DUP2 PUSH2 0x744 JUMP JUMPDEST SWAP3 SWAP2 POP POP JUMP JUMPDEST PUSH1 0x0 DUP2 CALLDATALOAD SWAP1 POP PUSH2 0x421 DUP2 PUSH2 0x75B JUMP JUMPDEST SWAP3 SWAP2 POP POP JUMP JUMPDEST PUSH1 0x0 PUSH1 0x20 DUP3 DUP5 SUB SLT ISZERO PUSH2 0x43D JUMPI PUSH2 0x43C PUSH2 0x716 JUMP JUMPDEST JUMPDEST PUSH1 0x0 PUSH2 0x44B DUP5 DUP3 DUP6 ADD PUSH2 0x412 JUMP JUMPDEST SWAP2 POP POP SWAP3 SWAP2 POP POP JUMP JUMPDEST PUSH1 0x0 DUP1 PUSH1 0x40 DUP4 DUP6 SUB SLT ISZERO PUSH2 0x46B JUMPI PUSH2 0x46A PUSH2 0x716 JUMP JUMPDEST JUMPDEST PUSH1 0x0 PUSH2 0x479 DUP6 DUP3 DUP7 ADD PUSH2 0x412 JUMP JUMPDEST SWAP3 POP POP PUSH1 0x20 PUSH2 0x48A DUP6 DUP3 DUP7 ADD PUSH2 0x3FD JUMP JUMPDEST SWAP2 POP POP SWAP3 POP SWAP3 SWAP1 POP JUMP JUMPDEST PUSH1 0x0 PUSH2 0x4A0 DUP4 DUP4 PUSH2 0x4BB JUMP JUMPDEST PUSH1 0x20 DUP4 ADD SWAP1 POP SWAP3 SWAP2 POP POP JUMP JUMPDEST PUSH2 0x4B5 DUP2 PUSH2 0x69F JUMP JUMPDEST DUP3 MSTORE POP POP JUMP JUMPDEST PUSH2 0x4C4 DUP2 PUSH2 0x68D JUMP JUMPDEST DUP3 MSTORE POP POP JUMP JUMPDEST PUSH2 0x4D3 DUP2 PUSH2 0x68D JUMP JUMPDEST DUP3 MSTORE POP POP JUMP JUMPDEST PUSH1 0x0 PUSH2 0x4E4 DUP3 PUSH2 0x653 JUMP JUMPDEST PUSH2 0x4EE DUP2 DUP6 PUSH2 0x66B JUMP JUMPDEST SWAP4 POP PUSH2 0x4F9 DUP4 PUSH2 0x643 JUMP JUMPDEST DUP1 PUSH1 0x0 JUMPDEST DUP4 DUP2 LT ISZERO PUSH2 0x52A JUMPI DUP2 MLOAD PUSH2 0x511 DUP9 DUP3 PUSH2 0x494 JUMP JUMPDEST SWAP8 POP PUSH2 0x51C DUP4 PUSH2 0x65E JUMP JUMPDEST SWAP3 POP POP PUSH1 0x1 DUP2 ADD SWAP1 POP PUSH2 0x4FD JUMP JUMPDEST POP DUP6 SWAP4 POP POP POP POP SWAP3 SWAP2 POP POP JUMP JUMPDEST PUSH2 0x540 DUP2 PUSH2 0x6B1 JUMP JUMPDEST DUP3 MSTORE POP POP JUMP JUMPDEST PUSH1 0x0 PUSH2 0x553 PUSH1 0x1C DUP4 PUSH2 0x67C JUMP JUMPDEST SWAP2 POP PUSH2 0x55E DUP3 PUSH2 0x71B JUMP JUMPDEST PUSH1 0x20 DUP3 ADD SWAP1 POP SWAP2 SWAP1 POP JUMP JUMPDEST PUSH2 0x572 DUP2 PUSH2 0x6DD JUMP JUMPDEST DUP3 MSTORE POP POP JUMP JUMPDEST PUSH1 0x0 PUSH1 0x20 DUP3 ADD SWAP1 POP PUSH2 0x58D PUSH1 0x0 DUP4 ADD DUP5 PUSH2 0x4CA JUMP JUMPDEST SWAP3 SWAP2 POP POP JUMP JUMPDEST PUSH1 0x0 PUSH1 0x20 DUP3 ADD SWAP1 POP DUP2 DUP2 SUB PUSH1 0x0 DUP4 ADD MSTORE PUSH2 0x5AD DUP2 DUP5 PUSH2 0x4D9 JUMP JUMPDEST SWAP1 POP SWAP3 SWAP2 POP POP JUMP JUMPDEST PUSH1 0x0 PUSH1 0x20 DUP3 ADD SWAP1 POP DUP2 DUP2 SUB PUSH1 0x0 DUP4 ADD MSTORE PUSH2 0x5CE DUP2 PUSH2 0x546 JUMP JUMPDEST SWAP1 POP SWAP2 SWAP1 POP JUMP JUMPDEST PUSH1 0x0 PUSH1 0x20 DUP3 ADD SWAP1 POP PUSH2 0x5EA PUSH1 0x0 DUP4 ADD DUP5 PUSH2 0x569 JUMP JUMPDEST SWAP3 SWAP2 POP POP JUMP JUMPDEST PUSH1 0x0 PUSH1 0xA0 DUP3 ADD SWAP1 POP PUSH2 0x605 PUSH1 0x0 DUP4 ADD DUP9 PUSH2 0x569 JUMP JUMPDEST PUSH2 0x612 PUSH1 0x20 DUP4 ADD DUP8 PUSH2 0x569 JUMP JUMPDEST PUSH2 0x61F PUSH1 0x40 DUP4 ADD DUP7 PUSH2 0x4AC JUMP JUMPDEST PUSH2 0x62C PUSH1 0x60 DUP4 ADD DUP6 PUSH2 0x569 JUMP JUMPDEST PUSH2 0x639 PUSH1 0x80 DUP4 ADD DUP5 PUSH2 0x537 JUMP JUMPDEST SWAP7 SWAP6 POP POP POP POP POP POP JUMP JUMPDEST PUSH1 0x0 DUP2 SWAP1 POP PUSH1 0x20 DUP3 ADD SWAP1 POP SWAP2 SWAP1 POP JUMP JUMPDEST PUSH1 0x0 DUP2 MLOAD SWAP1 POP SWAP2 SWAP1 POP JUMP JUMPDEST PUSH1 0x0 PUSH1 0x20 DUP3 ADD SWAP1 POP SWAP2 SWAP1 POP JUMP JUMPDEST PUSH1 0x0 DUP3 DUP3 MSTORE PUSH1 0x20 DUP3 ADD SWAP1 POP SWAP3 SWAP2 POP POP JUMP JUMPDEST PUSH1 0x0 DUP3 DUP3 MSTORE PUSH1 0x20 DUP3 ADD SWAP1 POP SWAP3 SWAP2 POP POP JUMP JUMPDEST PUSH1 0x0 PUSH2 0x698 DUP3 PUSH2 0x6BD JUMP JUMPDEST SWAP1 POP SWAP2 SWAP1 POP JUMP JUMPDEST PUSH1 0x0 PUSH2 0x6AA DUP3 PUSH2 0x6BD JUMP JUMPDEST SWAP1 POP SWAP2 SWAP1 POP JUMP JUMPDEST PUSH1 0x0 DUP2 ISZERO ISZERO SWAP1 POP SWAP2 SWAP1 POP JUMP JUMPDEST PUSH1 0x0 PUSH20 0xFFFFFFFFFFFFFFFFFFFFFFFFFFFFFFFFFFFFFFFF DUP3 AND SWAP1 POP SWAP2 SWAP1 POP JUMP JUMPDEST PUSH1 0x0 DUP2 SWAP1 POP SWAP2 SWAP1 POP JUMP JUMPDEST PUSH32 0x4E487B7100000000000000000000000000000000000000000000000000000000 PUSH1 0x0 MSTORE PUSH1 0x32 PUSH1 0x4 MSTORE PUSH1 0x24 PUSH1 0x0 REVERT JUMPDEST PUSH1 0x0 DUP1 REVERT JUMPDEST PUSH32 0x5472616E73616374696F6E20416C726561647920446F6E652021212100000000 PUSH1 0x0 DUP3 ADD MSTORE POP JUMP JUMPDEST PUSH2 0x74D DUP2 PUSH2 0x69F JUMP JUMPDEST DUP2 EQ PUSH2 0x758 JUMPI PUSH1 0x0 DUP1 REVERT JUMPDEST POP JUMP JUMPDEST PUSH2 0x764 DUP2 PUSH2 0x6DD JUMP JUMPDEST DUP2 EQ PUSH2 0x76F JUMPI PUSH1 0x0 DUP1 REVERT JUMPDEST POP JUMP INVALID LOG2 PUSH5 0x6970667358 0x22 SLT KECCAK256 0x4B DUP4 0xB7 ADD 0xAE PUSH22 0x31D08387B09AD197A91E0C2E6A56554167046CD9EBA0 0xC4 0x27 0xD4 SWAP3 PUSH5 0x736F6C6343 STOP ADDMOD SMOD STOP CALLER "
				},
				"gasEstimates": {
					"creation": {
						"codeDepositCost": "392000",
						"executionCost": "infinite",
						"totalCost": "infinite"
					},
					"external": {
						"approveTransfer(uint256)": "5127",
						"approvers(uint256)": "5044",
						"createTransfer(uint256,address)": "125023",
						"getApprovers()": "infinite",
						"quorum()": "2407",
						"transfers(uint256)": "infinite"
					}
				},
				"methodIdentifiers": {
					"approveTransfer(uint256)": "cacca4a0",
					"approvers(uint256)": "d3650fb8",
					"createTransfer(uint256,address)": "4c12fa47",
					"getApprovers()": "6cb3e8ef",
					"quorum()": "1703a018",
					"transfers(uint256)": "9377d711"
				}
			},
			"storageLayout": {
				"storage": [
					{
						"astId": 5,
						"contract": "contracts/Wallet.sol:Wallet",
						"label": "approvers",
						"offset": 0,
						"slot": "0",
						"type": "t_array(t_address)dyn_storage"
					},
					{
						"astId": 7,
						"contract": "contracts/Wallet.sol:Wallet",
						"label": "quorum",
						"offset": 0,
						"slot": "1",
						"type": "t_uint256"
					},
					{
						"astId": 22,
						"contract": "contracts/Wallet.sol:Wallet",
						"label": "transfers",
						"offset": 0,
						"slot": "2",
						"type": "t_array(t_struct(Transfer)18_storage)dyn_storage"
					}
				],
				"types": {
					"t_address": {
						"encoding": "inplace",
						"label": "address",
						"numberOfBytes": "20"
					},
					"t_address_payable": {
						"encoding": "inplace",
						"label": "address payable",
						"numberOfBytes": "20"
					},
					"t_array(t_address)dyn_storage": {
						"base": "t_address",
						"encoding": "dynamic_array",
						"label": "address[]",
						"numberOfBytes": "32"
					},
					"t_array(t_struct(Transfer)18_storage)dyn_storage": {
						"base": "t_struct(Transfer)18_storage",
						"encoding": "dynamic_array",
						"label": "struct Wallet.Transfer[]",
						"numberOfBytes": "32"
					},
					"t_bool": {
						"encoding": "inplace",
						"label": "bool",
						"numberOfBytes": "1"
					},
					"t_struct(Transfer)18_storage": {
						"encoding": "inplace",
						"label": "struct Wallet.Transfer",
						"members": [
							{
								"astId": 9,
								"contract": "contracts/Wallet.sol:Wallet",
								"label": "id",
								"offset": 0,
								"slot": "0",
								"type": "t_uint256"
							},
							{
								"astId": 11,
								"contract": "contracts/Wallet.sol:Wallet",
								"label": "amount",
								"offset": 0,
								"slot": "1",
								"type": "t_uint256"
							},
							{
								"astId": 13,
								"contract": "contracts/Wallet.sol:Wallet",
								"label": "to",
								"offset": 0,
								"slot": "2",
								"type": "t_address_payable"
							},
							{
								"astId": 15,
								"contract": "contracts/Wallet.sol:Wallet",
								"label": "approvals",
								"offset": 0,
								"slot": "3",
								"type": "t_uint256"
							},
							{
								"astId": 17,
								"contract": "contracts/Wallet.sol:Wallet",
								"label": "sent",
								"offset": 0,
								"slot": "4",
								"type": "t_bool"
							}
						],
						"numberOfBytes": "160"
					},
					"t_uint256": {
						"encoding": "inplace",
						"label": "uint256",
						"numberOfBytes": "32"
					}
				}
			},
			"userdoc": {
				"kind": "user",
				"methods": {},
				"version": 1
			}
		}
	}
}