{
	"contracts/Wallet.sol": {
		"Wallet": {
			"abi": [
				{
					"inputs": [
						{
							"internalType": "address[]",
							"name": "_approvers",
							"type": "address[]"
						},
						{
							"internalType": "uint256",
							"name": "_quorum",
							"type": "uint256"
						}
					],
					"stateMutability": "nonpayable",
					"type": "constructor"
				},
				{
					"inputs": [
						{
							"internalType": "uint256",
							"name": "",
							"type": "uint256"
						}
					],
					"name": "approvers",
					"outputs": [
						{
							"internalType": "address",
							"name": "",
							"type": "address"
						}
					],
					"stateMutability": "view",
					"type": "function"
				},
				{
					"inputs": [],
					"name": "getApprovers",
					"outputs": [
						{
							"internalType": "address[]",
							"name": "",
							"type": "address[]"
						}
					],
					"stateMutability": "view",
					"type": "function"
				},
				{
					"inputs": [],
					"name": "nextId",
					"outputs": [
						{
							"internalType": "uint256",
							"name": "",
							"type": "uint256"
						}
					],
					"stateMutability": "view",
					"type": "function"
				},
				{
					"inputs": [],
					"name": "quorum",
					"outputs": [
						{
							"internalType": "uint256",
							"name": "",
							"type": "uint256"
						}
					],
					"stateMutability": "view",
					"type": "function"
				},
				{
					"inputs": [
						{
							"internalType": "uint256",
							"name": "",
							"type": "uint256"
						}
					],
					"name": "transfers",
					"outputs": [
						{
							"internalType": "uint256",
							"name": "id",
							"type": "uint256"
						},
						{
							"internalType": "uint256",
							"name": "amount",
							"type": "uint256"
						},
						{
							"internalType": "address payable",
							"name": "to",
							"type": "address"
						},
						{
							"internalType": "uint256",
							"name": "approvals",
							"type": "uint256"
						},
						{
							"internalType": "bool",
							"name": "sent",
							"type": "bool"
						}
					],
					"stateMutability": "view",
					"type": "function"
				}
			],
			"devdoc": {
				"kind": "dev",
				"methods": {},
				"version": 1
			},
			"evm": {
				"assembly": "    /* \"contracts/Wallet.sol\":65:617  contract Wallet{\r... */\n  mstore(0x40, 0x80)\n    /* \"contracts/Wallet.sol\":365:497  constructor(address[] memory _approvers, uint _quorum) public{\r... */\n  callvalue\n  dup1\n  iszero\n  tag_1\n  jumpi\n  0x00\n  dup1\n  revert\ntag_1:\n  pop\n  mload(0x40)\n  sub(codesize, bytecodeSize)\n  dup1\n  bytecodeSize\n  dup4\n  codecopy\n  dup2\n  dup2\n  add\n  0x40\n  mstore\n  dup2\n  add\n  swap1\n  tag_2\n  swap2\n  swap1\n  tag_3\n  jump\t// in\ntag_2:\n    /* \"contracts/Wallet.sol\":449:459  _approvers */\n  dup2\n    /* \"contracts/Wallet.sol\":437:446  approvers */\n  0x00\n    /* \"contracts/Wallet.sol\":437:459  approvers = _approvers */\n  swap1\n  dup1\n  mload\n  swap1\n  0x20\n  add\n  swap1\n  tag_6\n  swap3\n  swap2\n  swap1\n  tag_7\n  jump\t// in\ntag_6:\n  pop\n    /* \"contracts/Wallet.sol\":482:489  _quorum */\n  dup1\n    /* \"contracts/Wallet.sol\":470:476  quorum */\n  0x01\n    /* \"contracts/Wallet.sol\":470:489  quorum    = _quorum */\n  dup2\n  swap1\n  sstore\n  pop\n    /* \"contracts/Wallet.sol\":365:497  constructor(address[] memory _approvers, uint _quorum) public{\r... */\n  pop\n  pop\n    /* \"contracts/Wallet.sol\":65:617  contract Wallet{\r... */\n  jump(tag_8)\ntag_7:\n  dup3\n  dup1\n  sload\n  dup3\n  dup3\n  sstore\n  swap1\n  0x00\n  mstore\n  keccak256(0x00, 0x20)\n  swap1\n  dup2\n  add\n  swap3\n  dup3\n  iszero\n  tag_9\n  jumpi\n  swap2\n  0x20\n  mul\n  dup3\n  add\ntag_10:\n  dup3\n  dup2\n  gt\n  iszero\n  tag_11\n  jumpi\n  dup3\n  mload\n  dup3\n  exp(0x0100, 0x00)\n  dup2\n  sload\n  dup2\n  0xffffffffffffffffffffffffffffffffffffffff\n  mul\n  not\n  and\n  swap1\n  dup4\n  0xffffffffffffffffffffffffffffffffffffffff\n  and\n  mul\n  or\n  swap1\n  sstore\n  pop\n  swap2\n  0x20\n  add\n  swap2\n  swap1\n  0x01\n  add\n  swap1\n  jump(tag_10)\ntag_11:\ntag_9:\n  pop\n  swap1\n  pop\n  tag_12\n  swap2\n  swap1\n  tag_13\n  jump\t// in\ntag_12:\n  pop\n  swap1\n  jump\t// out\ntag_13:\ntag_14:\n  dup1\n  dup3\n  gt\n  iszero\n  tag_15\n  jumpi\n  0x00\n  dup2\n  0x00\n  swap1\n  sstore\n  pop\n  0x01\n  add\n  jump(tag_14)\ntag_15:\n  pop\n  swap1\n  jump\t// out\n    /* \"#utility.yul\":24:768   */\ntag_17:\n    /* \"#utility.yul\":131:136   */\n  0x00\n    /* \"#utility.yul\":156:237   */\n  tag_19\n    /* \"#utility.yul\":172:236   */\n  tag_20\n    /* \"#utility.yul\":229:235   */\n  dup5\n    /* \"#utility.yul\":172:236   */\n  tag_21\n  jump\t// in\ntag_20:\n    /* \"#utility.yul\":156:237   */\n  tag_22\n  jump\t// in\ntag_19:\n    /* \"#utility.yul\":147:237   */\n  swap1\n  pop\n    /* \"#utility.yul\":257:262   */\n  dup1\n    /* \"#utility.yul\":286:292   */\n  dup4\n    /* \"#utility.yul\":279:284   */\n  dup3\n    /* \"#utility.yul\":272:293   */\n  mstore\n    /* \"#utility.yul\":320:324   */\n  0x20\n    /* \"#utility.yul\":313:318   */\n  dup3\n    /* \"#utility.yul\":309:325   */\n  add\n    /* \"#utility.yul\":302:325   */\n  swap1\n  pop\n    /* \"#utility.yul\":346:352   */\n  dup3\n    /* \"#utility.yul\":396:399   */\n  dup6\n    /* \"#utility.yul\":388:392   */\n  0x20\n    /* \"#utility.yul\":380:386   */\n  dup7\n    /* \"#utility.yul\":376:393   */\n  mul\n    /* \"#utility.yul\":371:374   */\n  dup3\n    /* \"#utility.yul\":367:394   */\n  add\n    /* \"#utility.yul\":364:400   */\n  gt\n    /* \"#utility.yul\":361:504   */\n  iszero\n  tag_23\n  jumpi\n    /* \"#utility.yul\":415:494   */\n  tag_24\n  tag_25\n  jump\t// in\ntag_24:\n    /* \"#utility.yul\":361:504   */\ntag_23:\n    /* \"#utility.yul\":528:529   */\n  0x00\n    /* \"#utility.yul\":513:762   */\ntag_26:\n    /* \"#utility.yul\":538:544   */\n  dup6\n    /* \"#utility.yul\":535:536   */\n  dup2\n    /* \"#utility.yul\":532:545   */\n  lt\n    /* \"#utility.yul\":513:762   */\n  iszero\n  tag_28\n  jumpi\n    /* \"#utility.yul\":606:609   */\n  dup2\n    /* \"#utility.yul\":635:683   */\n  tag_29\n    /* \"#utility.yul\":679:682   */\n  dup9\n    /* \"#utility.yul\":667:677   */\n  dup3\n    /* \"#utility.yul\":635:683   */\n  tag_30\n  jump\t// in\ntag_29:\n    /* \"#utility.yul\":630:633   */\n  dup5\n    /* \"#utility.yul\":623:684   */\n  mstore\n    /* \"#utility.yul\":713:717   */\n  0x20\n    /* \"#utility.yul\":708:711   */\n  dup5\n    /* \"#utility.yul\":704:718   */\n  add\n    /* \"#utility.yul\":697:718   */\n  swap4\n  pop\n    /* \"#utility.yul\":747:751   */\n  0x20\n    /* \"#utility.yul\":742:745   */\n  dup4\n    /* \"#utility.yul\":738:752   */\n  add\n    /* \"#utility.yul\":731:752   */\n  swap3\n  pop\n    /* \"#utility.yul\":573:762   */\n  pop\n    /* \"#utility.yul\":560:561   */\n  0x01\n    /* \"#utility.yul\":557:558   */\n  dup2\n    /* \"#utility.yul\":553:562   */\n  add\n    /* \"#utility.yul\":548:562   */\n  swap1\n  pop\n    /* \"#utility.yul\":513:762   */\n  jump(tag_26)\ntag_28:\n    /* \"#utility.yul\":517:531   */\n  pop\n    /* \"#utility.yul\":137:768   */\n  pop\n  pop\n    /* \"#utility.yul\":24:768   */\n  swap4\n  swap3\n  pop\n  pop\n  pop\n  jump\t// out\n    /* \"#utility.yul\":774:917   */\ntag_30:\n    /* \"#utility.yul\":831:836   */\n  0x00\n    /* \"#utility.yul\":862:868   */\n  dup2\n    /* \"#utility.yul\":856:869   */\n  mload\n    /* \"#utility.yul\":847:869   */\n  swap1\n  pop\n    /* \"#utility.yul\":878:911   */\n  tag_32\n    /* \"#utility.yul\":905:910   */\n  dup2\n    /* \"#utility.yul\":878:911   */\n  tag_33\n  jump\t// in\ntag_32:\n    /* \"#utility.yul\":774:917   */\n  swap3\n  swap2\n  pop\n  pop\n  jump\t// out\n    /* \"#utility.yul\":940:1325   */\ntag_34:\n    /* \"#utility.yul\":1022:1027   */\n  0x00\n    /* \"#utility.yul\":1071:1074   */\n  dup3\n    /* \"#utility.yul\":1064:1068   */\n  0x1f\n    /* \"#utility.yul\":1056:1062   */\n  dup4\n    /* \"#utility.yul\":1052:1069   */\n  add\n    /* \"#utility.yul\":1048:1075   */\n  slt\n    /* \"#utility.yul\":1038:1160   */\n  tag_36\n  jumpi\n    /* \"#utility.yul\":1079:1158   */\n  tag_37\n  tag_38\n  jump\t// in\ntag_37:\n    /* \"#utility.yul\":1038:1160   */\ntag_36:\n    /* \"#utility.yul\":1189:1195   */\n  dup2\n    /* \"#utility.yul\":1183:1196   */\n  mload\n    /* \"#utility.yul\":1214:1319   */\n  tag_39\n    /* \"#utility.yul\":1315:1318   */\n  dup5\n    /* \"#utility.yul\":1307:1313   */\n  dup3\n    /* \"#utility.yul\":1300:1304   */\n  0x20\n    /* \"#utility.yul\":1292:1298   */\n  dup7\n    /* \"#utility.yul\":1288:1305   */\n  add\n    /* \"#utility.yul\":1214:1319   */\n  tag_17\n  jump\t// in\ntag_39:\n    /* \"#utility.yul\":1205:1319   */\n  swap2\n  pop\n    /* \"#utility.yul\":1028:1325   */\n  pop\n    /* \"#utility.yul\":940:1325   */\n  swap3\n  swap2\n  pop\n  pop\n  jump\t// out\n    /* \"#utility.yul\":1331:1474   */\ntag_40:\n    /* \"#utility.yul\":1388:1393   */\n  0x00\n    /* \"#utility.yul\":1419:1425   */\n  dup2\n    /* \"#utility.yul\":1413:1426   */\n  mload\n    /* \"#utility.yul\":1404:1426   */\n  swap1\n  pop\n    /* \"#utility.yul\":1435:1468   */\n  tag_42\n    /* \"#utility.yul\":1462:1467   */\n  dup2\n    /* \"#utility.yul\":1435:1468   */\n  tag_43\n  jump\t// in\ntag_42:\n    /* \"#utility.yul\":1331:1474   */\n  swap3\n  swap2\n  pop\n  pop\n  jump\t// out\n    /* \"#utility.yul\":1480:2190   */\ntag_3:\n    /* \"#utility.yul\":1584:1590   */\n  0x00\n    /* \"#utility.yul\":1592:1598   */\n  dup1\n    /* \"#utility.yul\":1641:1643   */\n  0x40\n    /* \"#utility.yul\":1629:1638   */\n  dup4\n    /* \"#utility.yul\":1620:1627   */\n  dup6\n    /* \"#utility.yul\":1616:1639   */\n  sub\n    /* \"#utility.yul\":1612:1644   */\n  slt\n    /* \"#utility.yul\":1609:1728   */\n  iszero\n  tag_45\n  jumpi\n    /* \"#utility.yul\":1647:1726   */\n  tag_46\n  tag_47\n  jump\t// in\ntag_46:\n    /* \"#utility.yul\":1609:1728   */\ntag_45:\n    /* \"#utility.yul\":1788:1789   */\n  0x00\n    /* \"#utility.yul\":1777:1786   */\n  dup4\n    /* \"#utility.yul\":1773:1790   */\n  add\n    /* \"#utility.yul\":1767:1791   */\n  mload\n    /* \"#utility.yul\":1818:1836   */\n  0xffffffffffffffff\n    /* \"#utility.yul\":1810:1816   */\n  dup2\n    /* \"#utility.yul\":1807:1837   */\n  gt\n    /* \"#utility.yul\":1804:1921   */\n  iszero\n  tag_48\n  jumpi\n    /* \"#utility.yul\":1840:1919   */\n  tag_49\n  tag_50\n  jump\t// in\ntag_49:\n    /* \"#utility.yul\":1804:1921   */\ntag_48:\n    /* \"#utility.yul\":1945:2034   */\n  tag_51\n    /* \"#utility.yul\":2026:2033   */\n  dup6\n    /* \"#utility.yul\":2017:2023   */\n  dup3\n    /* \"#utility.yul\":2006:2015   */\n  dup7\n    /* \"#utility.yul\":2002:2024   */\n  add\n    /* \"#utility.yul\":1945:2034   */\n  tag_34\n  jump\t// in\ntag_51:\n    /* \"#utility.yul\":1935:2034   */\n  swap3\n  pop\n    /* \"#utility.yul\":1738:2044   */\n  pop\n    /* \"#utility.yul\":2083:2085   */\n  0x20\n    /* \"#utility.yul\":2109:2173   */\n  tag_52\n    /* \"#utility.yul\":2165:2172   */\n  dup6\n    /* \"#utility.yul\":2156:2162   */\n  dup3\n    /* \"#utility.yul\":2145:2154   */\n  dup7\n    /* \"#utility.yul\":2141:2163   */\n  add\n    /* \"#utility.yul\":2109:2173   */\n  tag_40\n  jump\t// in\ntag_52:\n    /* \"#utility.yul\":2099:2173   */\n  swap2\n  pop\n    /* \"#utility.yul\":2054:2183   */\n  pop\n    /* \"#utility.yul\":1480:2190   */\n  swap3\n  pop\n  swap3\n  swap1\n  pop\n  jump\t// out\n    /* \"#utility.yul\":2196:2325   */\ntag_22:\n    /* \"#utility.yul\":2230:2236   */\n  0x00\n    /* \"#utility.yul\":2257:2277   */\n  tag_54\n  tag_55\n  jump\t// in\ntag_54:\n    /* \"#utility.yul\":2247:2277   */\n  swap1\n  pop\n    /* \"#utility.yul\":2286:2319   */\n  tag_56\n    /* \"#utility.yul\":2314:2318   */\n  dup3\n    /* \"#utility.yul\":2306:2312   */\n  dup3\n    /* \"#utility.yul\":2286:2319   */\n  tag_57\n  jump\t// in\ntag_56:\n    /* \"#utility.yul\":2196:2325   */\n  swap2\n  swap1\n  pop\n  jump\t// out\n    /* \"#utility.yul\":2331:2406   */\ntag_55:\n    /* \"#utility.yul\":2364:2370   */\n  0x00\n    /* \"#utility.yul\":2397:2399   */\n  0x40\n    /* \"#utility.yul\":2391:2400   */\n  mload\n    /* \"#utility.yul\":2381:2400   */\n  swap1\n  pop\n    /* \"#utility.yul\":2331:2406   */\n  swap1\n  jump\t// out\n    /* \"#utility.yul\":2412:2723   */\ntag_21:\n    /* \"#utility.yul\":2489:2493   */\n  0x00\n    /* \"#utility.yul\":2579:2597   */\n  0xffffffffffffffff\n    /* \"#utility.yul\":2571:2577   */\n  dup3\n    /* \"#utility.yul\":2568:2598   */\n  gt\n    /* \"#utility.yul\":2565:2621   */\n  iszero\n  tag_60\n  jumpi\n    /* \"#utility.yul\":2601:2619   */\n  tag_61\n  tag_62\n  jump\t// in\ntag_61:\n    /* \"#utility.yul\":2565:2621   */\ntag_60:\n    /* \"#utility.yul\":2651:2655   */\n  0x20\n    /* \"#utility.yul\":2643:2649   */\n  dup3\n    /* \"#utility.yul\":2639:2656   */\n  mul\n    /* \"#utility.yul\":2631:2656   */\n  swap1\n  pop\n    /* \"#utility.yul\":2711:2715   */\n  0x20\n    /* \"#utility.yul\":2705:2709   */\n  dup2\n    /* \"#utility.yul\":2701:2716   */\n  add\n    /* \"#utility.yul\":2693:2716   */\n  swap1\n  pop\n    /* \"#utility.yul\":2412:2723   */\n  swap2\n  swap1\n  pop\n  jump\t// out\n    /* \"#utility.yul\":2729:2825   */\ntag_63:\n    /* \"#utility.yul\":2766:2773   */\n  0x00\n    /* \"#utility.yul\":2795:2819   */\n  tag_65\n    /* \"#utility.yul\":2813:2818   */\n  dup3\n    /* \"#utility.yul\":2795:2819   */\n  tag_66\n  jump\t// in\ntag_65:\n    /* \"#utility.yul\":2784:2819   */\n  swap1\n  pop\n    /* \"#utility.yul\":2729:2825   */\n  swap2\n  swap1\n  pop\n  jump\t// out\n    /* \"#utility.yul\":2831:2957   */\ntag_66:\n    /* \"#utility.yul\":2868:2875   */\n  0x00\n    /* \"#utility.yul\":2908:2950   */\n  0xffffffffffffffffffffffffffffffffffffffff\n    /* \"#utility.yul\":2901:2906   */\n  dup3\n    /* \"#utility.yul\":2897:2951   */\n  and\n    /* \"#utility.yul\":2886:2951   */\n  swap1\n  pop\n    /* \"#utility.yul\":2831:2957   */\n  swap2\n  swap1\n  pop\n  jump\t// out\n    /* \"#utility.yul\":2963:3040   */\ntag_68:\n    /* \"#utility.yul\":3000:3007   */\n  0x00\n    /* \"#utility.yul\":3029:3034   */\n  dup2\n    /* \"#utility.yul\":3018:3034   */\n  swap1\n  pop\n    /* \"#utility.yul\":2963:3040   */\n  swap2\n  swap1\n  pop\n  jump\t// out\n    /* \"#utility.yul\":3046:3327   */\ntag_57:\n    /* \"#utility.yul\":3129:3156   */\n  tag_71\n    /* \"#utility.yul\":3151:3155   */\n  dup3\n    /* \"#utility.yul\":3129:3156   */\n  tag_72\n  jump\t// in\ntag_71:\n    /* \"#utility.yul\":3121:3127   */\n  dup2\n    /* \"#utility.yul\":3117:3157   */\n  add\n    /* \"#utility.yul\":3259:3265   */\n  dup2\n    /* \"#utility.yul\":3247:3257   */\n  dup2\n    /* \"#utility.yul\":3244:3266   */\n  lt\n    /* \"#utility.yul\":3223:3241   */\n  0xffffffffffffffff\n    /* \"#utility.yul\":3211:3221   */\n  dup3\n    /* \"#utility.yul\":3208:3242   */\n  gt\n    /* \"#utility.yul\":3205:3267   */\n  or\n    /* \"#utility.yul\":3202:3290   */\n  iszero\n  tag_73\n  jumpi\n    /* \"#utility.yul\":3270:3288   */\n  tag_74\n  tag_62\n  jump\t// in\ntag_74:\n    /* \"#utility.yul\":3202:3290   */\ntag_73:\n    /* \"#utility.yul\":3310:3320   */\n  dup1\n    /* \"#utility.yul\":3306:3308   */\n  0x40\n    /* \"#utility.yul\":3299:3321   */\n  mstore\n    /* \"#utility.yul\":3089:3327   */\n  pop\n    /* \"#utility.yul\":3046:3327   */\n  pop\n  pop\n  jump\t// out\n    /* \"#utility.yul\":3333:3513   */\ntag_62:\n    /* \"#utility.yul\":3381:3458   */\n  0x4e487b7100000000000000000000000000000000000000000000000000000000\n    /* \"#utility.yul\":3378:3379   */\n  0x00\n    /* \"#utility.yul\":3371:3459   */\n  mstore\n    /* \"#utility.yul\":3478:3482   */\n  0x41\n    /* \"#utility.yul\":3475:3476   */\n  0x04\n    /* \"#utility.yul\":3468:3483   */\n  mstore\n    /* \"#utility.yul\":3502:3506   */\n  0x24\n    /* \"#utility.yul\":3499:3500   */\n  0x00\n    /* \"#utility.yul\":3492:3507   */\n  revert\n    /* \"#utility.yul\":3519:3636   */\ntag_38:\n    /* \"#utility.yul\":3628:3629   */\n  0x00\n    /* \"#utility.yul\":3625:3626   */\n  dup1\n    /* \"#utility.yul\":3618:3630   */\n  revert\n    /* \"#utility.yul\":3642:3759   */\ntag_25:\n    /* \"#utility.yul\":3751:3752   */\n  0x00\n    /* \"#utility.yul\":3748:3749   */\n  dup1\n    /* \"#utility.yul\":3741:3753   */\n  revert\n    /* \"#utility.yul\":3765:3882   */\ntag_50:\n    /* \"#utility.yul\":3874:3875   */\n  0x00\n    /* \"#utility.yul\":3871:3872   */\n  dup1\n    /* \"#utility.yul\":3864:3876   */\n  revert\n    /* \"#utility.yul\":3888:4005   */\ntag_47:\n    /* \"#utility.yul\":3997:3998   */\n  0x00\n    /* \"#utility.yul\":3994:3995   */\n  dup1\n    /* \"#utility.yul\":3987:3999   */\n  revert\n    /* \"#utility.yul\":4011:4113   */\ntag_72:\n    /* \"#utility.yul\":4052:4058   */\n  0x00\n    /* \"#utility.yul\":4103:4105   */\n  0x1f\n    /* \"#utility.yul\":4099:4106   */\n  not\n    /* \"#utility.yul\":4094:4096   */\n  0x1f\n    /* \"#utility.yul\":4087:4092   */\n  dup4\n    /* \"#utility.yul\":4083:4097   */\n  add\n    /* \"#utility.yul\":4079:4107   */\n  and\n    /* \"#utility.yul\":4069:4107   */\n  swap1\n  pop\n    /* \"#utility.yul\":4011:4113   */\n  swap2\n  swap1\n  pop\n  jump\t// out\n    /* \"#utility.yul\":4119:4241   */\ntag_33:\n    /* \"#utility.yul\":4192:4216   */\n  tag_82\n    /* \"#utility.yul\":4210:4215   */\n  dup2\n    /* \"#utility.yul\":4192:4216   */\n  tag_63\n  jump\t// in\ntag_82:\n    /* \"#utility.yul\":4185:4190   */\n  dup2\n    /* \"#utility.yul\":4182:4217   */\n  eq\n    /* \"#utility.yul\":4172:4235   */\n  tag_83\n  jumpi\n    /* \"#utility.yul\":4231:4232   */\n  0x00\n    /* \"#utility.yul\":4228:4229   */\n  dup1\n    /* \"#utility.yul\":4221:4233   */\n  revert\n    /* \"#utility.yul\":4172:4235   */\ntag_83:\n    /* \"#utility.yul\":4119:4241   */\n  pop\n  jump\t// out\n    /* \"#utility.yul\":4247:4369   */\ntag_43:\n    /* \"#utility.yul\":4320:4344   */\n  tag_85\n    /* \"#utility.yul\":4338:4343   */\n  dup2\n    /* \"#utility.yul\":4320:4344   */\n  tag_68\n  jump\t// in\ntag_85:\n    /* \"#utility.yul\":4313:4318   */\n  dup2\n    /* \"#utility.yul\":4310:4345   */\n  eq\n    /* \"#utility.yul\":4300:4363   */\n  tag_86\n  jumpi\n    /* \"#utility.yul\":4359:4360   */\n  0x00\n    /* \"#utility.yul\":4356:4357   */\n  dup1\n    /* \"#utility.yul\":4349:4361   */\n  revert\n    /* \"#utility.yul\":4300:4363   */\ntag_86:\n    /* \"#utility.yul\":4247:4369   */\n  pop\n  jump\t// out\n    /* \"contracts/Wallet.sol\":65:617  contract Wallet{\r... */\ntag_8:\n  dataSize(sub_0)\n  dup1\n  dataOffset(sub_0)\n  0x00\n  codecopy\n  0x00\n  return\nstop\n\nsub_0: assembly {\n        /* \"contracts/Wallet.sol\":65:617  contract Wallet{\r... */\n      mstore(0x40, 0x80)\n      callvalue\n      dup1\n      iszero\n      tag_1\n      jumpi\n      0x00\n      dup1\n      revert\n    tag_1:\n      pop\n      jumpi(tag_2, lt(calldatasize, 0x04))\n      shr(0xe0, calldataload(0x00))\n      dup1\n      0x1703a018\n      eq\n      tag_3\n      jumpi\n      dup1\n      0x61b8ce8c\n      eq\n      tag_4\n      jumpi\n      dup1\n      0x6cb3e8ef\n      eq\n      tag_5\n      jumpi\n      dup1\n      0x9377d711\n      eq\n      tag_6\n      jumpi\n      dup1\n      0xd3650fb8\n      eq\n      tag_7\n      jumpi\n    tag_2:\n      0x00\n      dup1\n      revert\n        /* \"contracts/Wallet.sol\":120:138  uint public quorum */\n    tag_3:\n      tag_8\n      tag_9\n      jump\t// in\n    tag_8:\n      mload(0x40)\n      tag_10\n      swap2\n      swap1\n      tag_11\n      jump\t// in\n    tag_10:\n      mload(0x40)\n      dup1\n      swap2\n      sub\n      swap1\n      return\n        /* \"contracts/Wallet.sol\":338:356  uint public nextId */\n    tag_4:\n      tag_12\n      tag_13\n      jump\t// in\n    tag_12:\n      mload(0x40)\n      tag_14\n      swap2\n      swap1\n      tag_11\n      jump\t// in\n    tag_14:\n      mload(0x40)\n      dup1\n      swap2\n      sub\n      swap1\n      return\n        /* \"contracts/Wallet.sol\":503:602  function getApprovers() external view returns(address[] memory) {\r... */\n    tag_5:\n      tag_15\n      tag_16\n      jump\t// in\n    tag_15:\n      mload(0x40)\n      tag_17\n      swap2\n      swap1\n      tag_18\n      jump\t// in\n    tag_17:\n      mload(0x40)\n      dup1\n      swap2\n      sub\n      swap1\n      return\n        /* \"contracts/Wallet.sol\":289:331  mapping(uint => Transfer) public transfers */\n    tag_6:\n      tag_19\n      0x04\n      dup1\n      calldatasize\n      sub\n      dup2\n      add\n      swap1\n      tag_20\n      swap2\n      swap1\n      tag_21\n      jump\t// in\n    tag_20:\n      tag_22\n      jump\t// in\n    tag_19:\n      mload(0x40)\n      tag_23\n      swap6\n      swap5\n      swap4\n      swap3\n      swap2\n      swap1\n      tag_24\n      jump\t// in\n    tag_23:\n      mload(0x40)\n      dup1\n      swap2\n      sub\n      swap1\n      return\n        /* \"contracts/Wallet.sol\":87:113  address[] public approvers */\n    tag_7:\n      tag_25\n      0x04\n      dup1\n      calldatasize\n      sub\n      dup2\n      add\n      swap1\n      tag_26\n      swap2\n      swap1\n      tag_21\n      jump\t// in\n    tag_26:\n      tag_27\n      jump\t// in\n    tag_25:\n      mload(0x40)\n      tag_28\n      swap2\n      swap1\n      tag_29\n      jump\t// in\n    tag_28:\n      mload(0x40)\n      dup1\n      swap2\n      sub\n      swap1\n      return\n        /* \"contracts/Wallet.sol\":120:138  uint public quorum */\n    tag_9:\n      sload(0x01)\n      dup2\n      jump\t// out\n        /* \"contracts/Wallet.sol\":338:356  uint public nextId */\n    tag_13:\n      sload(0x03)\n      dup2\n      jump\t// out\n        /* \"contracts/Wallet.sol\":503:602  function getApprovers() external view returns(address[] memory) {\r... */\n    tag_16:\n        /* \"contracts/Wallet.sol\":549:565  address[] memory */\n      0x60\n        /* \"contracts/Wallet.sol\":585:594  approvers */\n      0x00\n        /* \"contracts/Wallet.sol\":578:594  return approvers */\n      dup1\n      sload\n      dup1\n      0x20\n      mul\n      0x20\n      add\n      mload(0x40)\n      swap1\n      dup2\n      add\n      0x40\n      mstore\n      dup1\n      swap3\n      swap2\n      swap1\n      dup2\n      dup2\n      mstore\n      0x20\n      add\n      dup3\n      dup1\n      sload\n      dup1\n      iszero\n      tag_31\n      jumpi\n      0x20\n      mul\n      dup3\n      add\n      swap2\n      swap1\n      0x00\n      mstore\n      keccak256(0x00, 0x20)\n      swap1\n    tag_32:\n      dup2\n      0x00\n      swap1\n      sload\n      swap1\n      0x0100\n      exp\n      swap1\n      div\n      0xffffffffffffffffffffffffffffffffffffffff\n      and\n      0xffffffffffffffffffffffffffffffffffffffff\n      and\n      dup2\n      mstore\n      0x20\n      add\n      swap1\n      0x01\n      add\n      swap1\n      dup1\n      dup4\n      gt\n      tag_32\n      jumpi\n    tag_31:\n      pop\n      pop\n      pop\n      pop\n      pop\n      swap1\n      pop\n        /* \"contracts/Wallet.sol\":503:602  function getApprovers() external view returns(address[] memory) {\r... */\n      swap1\n      jump\t// out\n        /* \"contracts/Wallet.sol\":289:331  mapping(uint => Transfer) public transfers */\n    tag_22:\n      mstore(0x20, 0x02)\n      dup1\n      0x00\n      mstore\n      keccak256(0x00, 0x40)\n      0x00\n      swap2\n      pop\n      swap1\n      pop\n      dup1\n      0x00\n      add\n      sload\n      swap1\n      dup1\n      0x01\n      add\n      sload\n      swap1\n      dup1\n      0x02\n      add\n      0x00\n      swap1\n      sload\n      swap1\n      0x0100\n      exp\n      swap1\n      div\n      0xffffffffffffffffffffffffffffffffffffffff\n      and\n      swap1\n      dup1\n      0x03\n      add\n      sload\n      swap1\n      dup1\n      0x04\n      add\n      0x00\n      swap1\n      sload\n      swap1\n      0x0100\n      exp\n      swap1\n      div\n      0xff\n      and\n      swap1\n      pop\n      dup6\n      jump\t// out\n        /* \"contracts/Wallet.sol\":87:113  address[] public approvers */\n    tag_27:\n      0x00\n      dup2\n      dup2\n      sload\n      dup2\n      lt\n      tag_33\n      jumpi\n      0x00\n      dup1\n      revert\n    tag_33:\n      swap1\n      0x00\n      mstore\n      keccak256(0x00, 0x20)\n      add\n      0x00\n      swap2\n      pop\n      sload\n      swap1\n      0x0100\n      exp\n      swap1\n      div\n      0xffffffffffffffffffffffffffffffffffffffff\n      and\n      dup2\n      jump\t// out\n        /* \"#utility.yul\":7:146   */\n    tag_36:\n        /* \"#utility.yul\":53:58   */\n      0x00\n        /* \"#utility.yul\":91:97   */\n      dup2\n        /* \"#utility.yul\":78:98   */\n      calldataload\n        /* \"#utility.yul\":69:98   */\n      swap1\n      pop\n        /* \"#utility.yul\":107:140   */\n      tag_38\n        /* \"#utility.yul\":134:139   */\n      dup2\n        /* \"#utility.yul\":107:140   */\n      tag_39\n      jump\t// in\n    tag_38:\n        /* \"#utility.yul\":7:146   */\n      swap3\n      swap2\n      pop\n      pop\n      jump\t// out\n        /* \"#utility.yul\":152:481   */\n    tag_21:\n        /* \"#utility.yul\":211:217   */\n      0x00\n        /* \"#utility.yul\":260:262   */\n      0x20\n        /* \"#utility.yul\":248:257   */\n      dup3\n        /* \"#utility.yul\":239:246   */\n      dup5\n        /* \"#utility.yul\":235:258   */\n      sub\n        /* \"#utility.yul\":231:263   */\n      slt\n        /* \"#utility.yul\":228:347   */\n      iszero\n      tag_41\n      jumpi\n        /* \"#utility.yul\":266:345   */\n      tag_42\n      tag_43\n      jump\t// in\n    tag_42:\n        /* \"#utility.yul\":228:347   */\n    tag_41:\n        /* \"#utility.yul\":386:387   */\n      0x00\n        /* \"#utility.yul\":411:464   */\n      tag_44\n        /* \"#utility.yul\":456:463   */\n      dup5\n        /* \"#utility.yul\":447:453   */\n      dup3\n        /* \"#utility.yul\":436:445   */\n      dup6\n        /* \"#utility.yul\":432:454   */\n      add\n        /* \"#utility.yul\":411:464   */\n      tag_36\n      jump\t// in\n    tag_44:\n        /* \"#utility.yul\":401:464   */\n      swap2\n      pop\n        /* \"#utility.yul\":357:474   */\n      pop\n        /* \"#utility.yul\":152:481   */\n      swap3\n      swap2\n      pop\n      pop\n      jump\t// out\n        /* \"#utility.yul\":487:666   */\n    tag_45:\n        /* \"#utility.yul\":556:566   */\n      0x00\n        /* \"#utility.yul\":577:623   */\n      tag_47\n        /* \"#utility.yul\":619:622   */\n      dup4\n        /* \"#utility.yul\":611:617   */\n      dup4\n        /* \"#utility.yul\":577:623   */\n      tag_48\n      jump\t// in\n    tag_47:\n        /* \"#utility.yul\":655:659   */\n      0x20\n        /* \"#utility.yul\":650:653   */\n      dup4\n        /* \"#utility.yul\":646:660   */\n      add\n        /* \"#utility.yul\":632:660   */\n      swap1\n      pop\n        /* \"#utility.yul\":487:666   */\n      swap3\n      swap2\n      pop\n      pop\n      jump\t// out\n        /* \"#utility.yul\":672:814   */\n    tag_49:\n        /* \"#utility.yul\":775:807   */\n      tag_51\n        /* \"#utility.yul\":801:806   */\n      dup2\n        /* \"#utility.yul\":775:807   */\n      tag_52\n      jump\t// in\n    tag_51:\n        /* \"#utility.yul\":770:773   */\n      dup3\n        /* \"#utility.yul\":763:808   */\n      mstore\n        /* \"#utility.yul\":672:814   */\n      pop\n      pop\n      jump\t// out\n        /* \"#utility.yul\":820:928   */\n    tag_48:\n        /* \"#utility.yul\":897:921   */\n      tag_54\n        /* \"#utility.yul\":915:920   */\n      dup2\n        /* \"#utility.yul\":897:921   */\n      tag_55\n      jump\t// in\n    tag_54:\n        /* \"#utility.yul\":892:895   */\n      dup3\n        /* \"#utility.yul\":885:922   */\n      mstore\n        /* \"#utility.yul\":820:928   */\n      pop\n      pop\n      jump\t// out\n        /* \"#utility.yul\":934:1052   */\n    tag_56:\n        /* \"#utility.yul\":1021:1045   */\n      tag_58\n        /* \"#utility.yul\":1039:1044   */\n      dup2\n        /* \"#utility.yul\":1021:1045   */\n      tag_55\n      jump\t// in\n    tag_58:\n        /* \"#utility.yul\":1016:1019   */\n      dup3\n        /* \"#utility.yul\":1009:1046   */\n      mstore\n        /* \"#utility.yul\":934:1052   */\n      pop\n      pop\n      jump\t// out\n        /* \"#utility.yul\":1088:1820   */\n    tag_59:\n        /* \"#utility.yul\":1207:1210   */\n      0x00\n        /* \"#utility.yul\":1236:1290   */\n      tag_61\n        /* \"#utility.yul\":1284:1289   */\n      dup3\n        /* \"#utility.yul\":1236:1290   */\n      tag_62\n      jump\t// in\n    tag_61:\n        /* \"#utility.yul\":1306:1392   */\n      tag_63\n        /* \"#utility.yul\":1385:1391   */\n      dup2\n        /* \"#utility.yul\":1380:1383   */\n      dup6\n        /* \"#utility.yul\":1306:1392   */\n      tag_64\n      jump\t// in\n    tag_63:\n        /* \"#utility.yul\":1299:1392   */\n      swap4\n      pop\n        /* \"#utility.yul\":1416:1472   */\n      tag_65\n        /* \"#utility.yul\":1466:1471   */\n      dup4\n        /* \"#utility.yul\":1416:1472   */\n      tag_66\n      jump\t// in\n    tag_65:\n        /* \"#utility.yul\":1495:1502   */\n      dup1\n        /* \"#utility.yul\":1526:1527   */\n      0x00\n        /* \"#utility.yul\":1511:1795   */\n    tag_67:\n        /* \"#utility.yul\":1536:1542   */\n      dup4\n        /* \"#utility.yul\":1533:1534   */\n      dup2\n        /* \"#utility.yul\":1530:1543   */\n      lt\n        /* \"#utility.yul\":1511:1795   */\n      iszero\n      tag_69\n      jumpi\n        /* \"#utility.yul\":1612:1618   */\n      dup2\n        /* \"#utility.yul\":1606:1619   */\n      mload\n        /* \"#utility.yul\":1639:1702   */\n      tag_70\n        /* \"#utility.yul\":1698:1701   */\n      dup9\n        /* \"#utility.yul\":1683:1696   */\n      dup3\n        /* \"#utility.yul\":1639:1702   */\n      tag_45\n      jump\t// in\n    tag_70:\n        /* \"#utility.yul\":1632:1702   */\n      swap8\n      pop\n        /* \"#utility.yul\":1725:1785   */\n      tag_71\n        /* \"#utility.yul\":1778:1784   */\n      dup4\n        /* \"#utility.yul\":1725:1785   */\n      tag_72\n      jump\t// in\n    tag_71:\n        /* \"#utility.yul\":1715:1785   */\n      swap3\n      pop\n        /* \"#utility.yul\":1571:1795   */\n      pop\n        /* \"#utility.yul\":1558:1559   */\n      0x01\n        /* \"#utility.yul\":1555:1556   */\n      dup2\n        /* \"#utility.yul\":1551:1560   */\n      add\n        /* \"#utility.yul\":1546:1560   */\n      swap1\n      pop\n        /* \"#utility.yul\":1511:1795   */\n      jump(tag_67)\n    tag_69:\n        /* \"#utility.yul\":1515:1529   */\n      pop\n        /* \"#utility.yul\":1811:1814   */\n      dup6\n        /* \"#utility.yul\":1804:1814   */\n      swap4\n      pop\n        /* \"#utility.yul\":1212:1820   */\n      pop\n      pop\n      pop\n        /* \"#utility.yul\":1088:1820   */\n      swap3\n      swap2\n      pop\n      pop\n      jump\t// out\n        /* \"#utility.yul\":1826:1935   */\n    tag_73:\n        /* \"#utility.yul\":1907:1928   */\n      tag_75\n        /* \"#utility.yul\":1922:1927   */\n      dup2\n        /* \"#utility.yul\":1907:1928   */\n      tag_76\n      jump\t// in\n    tag_75:\n        /* \"#utility.yul\":1902:1905   */\n      dup3\n        /* \"#utility.yul\":1895:1929   */\n      mstore\n        /* \"#utility.yul\":1826:1935   */\n      pop\n      pop\n      jump\t// out\n        /* \"#utility.yul\":1941:2059   */\n    tag_77:\n        /* \"#utility.yul\":2028:2052   */\n      tag_79\n        /* \"#utility.yul\":2046:2051   */\n      dup2\n        /* \"#utility.yul\":2028:2052   */\n      tag_80\n      jump\t// in\n    tag_79:\n        /* \"#utility.yul\":2023:2026   */\n      dup3\n        /* \"#utility.yul\":2016:2053   */\n      mstore\n        /* \"#utility.yul\":1941:2059   */\n      pop\n      pop\n      jump\t// out\n        /* \"#utility.yul\":2065:2287   */\n    tag_29:\n        /* \"#utility.yul\":2158:2162   */\n      0x00\n        /* \"#utility.yul\":2196:2198   */\n      0x20\n        /* \"#utility.yul\":2185:2194   */\n      dup3\n        /* \"#utility.yul\":2181:2199   */\n      add\n        /* \"#utility.yul\":2173:2199   */\n      swap1\n      pop\n        /* \"#utility.yul\":2209:2280   */\n      tag_82\n        /* \"#utility.yul\":2277:2278   */\n      0x00\n        /* \"#utility.yul\":2266:2275   */\n      dup4\n        /* \"#utility.yul\":2262:2279   */\n      add\n        /* \"#utility.yul\":2253:2259   */\n      dup5\n        /* \"#utility.yul\":2209:2280   */\n      tag_56\n      jump\t// in\n    tag_82:\n        /* \"#utility.yul\":2065:2287   */\n      swap3\n      swap2\n      pop\n      pop\n      jump\t// out\n        /* \"#utility.yul\":2293:2666   */\n    tag_18:\n        /* \"#utility.yul\":2436:2440   */\n      0x00\n        /* \"#utility.yul\":2474:2476   */\n      0x20\n        /* \"#utility.yul\":2463:2472   */\n      dup3\n        /* \"#utility.yul\":2459:2477   */\n      add\n        /* \"#utility.yul\":2451:2477   */\n      swap1\n      pop\n        /* \"#utility.yul\":2523:2532   */\n      dup2\n        /* \"#utility.yul\":2517:2521   */\n      dup2\n        /* \"#utility.yul\":2513:2533   */\n      sub\n        /* \"#utility.yul\":2509:2510   */\n      0x00\n        /* \"#utility.yul\":2498:2507   */\n      dup4\n        /* \"#utility.yul\":2494:2511   */\n      add\n        /* \"#utility.yul\":2487:2534   */\n      mstore\n        /* \"#utility.yul\":2551:2659   */\n      tag_84\n        /* \"#utility.yul\":2654:2658   */\n      dup2\n        /* \"#utility.yul\":2645:2651   */\n      dup5\n        /* \"#utility.yul\":2551:2659   */\n      tag_59\n      jump\t// in\n    tag_84:\n        /* \"#utility.yul\":2543:2659   */\n      swap1\n      pop\n        /* \"#utility.yul\":2293:2666   */\n      swap3\n      swap2\n      pop\n      pop\n      jump\t// out\n        /* \"#utility.yul\":2672:2894   */\n    tag_11:\n        /* \"#utility.yul\":2765:2769   */\n      0x00\n        /* \"#utility.yul\":2803:2805   */\n      0x20\n        /* \"#utility.yul\":2792:2801   */\n      dup3\n        /* \"#utility.yul\":2788:2806   */\n      add\n        /* \"#utility.yul\":2780:2806   */\n      swap1\n      pop\n        /* \"#utility.yul\":2816:2887   */\n      tag_86\n        /* \"#utility.yul\":2884:2885   */\n      0x00\n        /* \"#utility.yul\":2873:2882   */\n      dup4\n        /* \"#utility.yul\":2869:2886   */\n      add\n        /* \"#utility.yul\":2860:2866   */\n      dup5\n        /* \"#utility.yul\":2816:2887   */\n      tag_77\n      jump\t// in\n    tag_86:\n        /* \"#utility.yul\":2672:2894   */\n      swap3\n      swap2\n      pop\n      pop\n      jump\t// out\n        /* \"#utility.yul\":2900:3584   */\n    tag_24:\n        /* \"#utility.yul\":3115:3119   */\n      0x00\n        /* \"#utility.yul\":3153:3156   */\n      0xa0\n        /* \"#utility.yul\":3142:3151   */\n      dup3\n        /* \"#utility.yul\":3138:3157   */\n      add\n        /* \"#utility.yul\":3130:3157   */\n      swap1\n      pop\n        /* \"#utility.yul\":3167:3238   */\n      tag_88\n        /* \"#utility.yul\":3235:3236   */\n      0x00\n        /* \"#utility.yul\":3224:3233   */\n      dup4\n        /* \"#utility.yul\":3220:3237   */\n      add\n        /* \"#utility.yul\":3211:3217   */\n      dup9\n        /* \"#utility.yul\":3167:3238   */\n      tag_77\n      jump\t// in\n    tag_88:\n        /* \"#utility.yul\":3248:3320   */\n      tag_89\n        /* \"#utility.yul\":3316:3318   */\n      0x20\n        /* \"#utility.yul\":3305:3314   */\n      dup4\n        /* \"#utility.yul\":3301:3319   */\n      add\n        /* \"#utility.yul\":3292:3298   */\n      dup8\n        /* \"#utility.yul\":3248:3320   */\n      tag_77\n      jump\t// in\n    tag_89:\n        /* \"#utility.yul\":3330:3418   */\n      tag_90\n        /* \"#utility.yul\":3414:3416   */\n      0x40\n        /* \"#utility.yul\":3403:3412   */\n      dup4\n        /* \"#utility.yul\":3399:3417   */\n      add\n        /* \"#utility.yul\":3390:3396   */\n      dup7\n        /* \"#utility.yul\":3330:3418   */\n      tag_49\n      jump\t// in\n    tag_90:\n        /* \"#utility.yul\":3428:3500   */\n      tag_91\n        /* \"#utility.yul\":3496:3498   */\n      0x60\n        /* \"#utility.yul\":3485:3494   */\n      dup4\n        /* \"#utility.yul\":3481:3499   */\n      add\n        /* \"#utility.yul\":3472:3478   */\n      dup6\n        /* \"#utility.yul\":3428:3500   */\n      tag_77\n      jump\t// in\n    tag_91:\n        /* \"#utility.yul\":3510:3577   */\n      tag_92\n        /* \"#utility.yul\":3572:3575   */\n      0x80\n        /* \"#utility.yul\":3561:3570   */\n      dup4\n        /* \"#utility.yul\":3557:3576   */\n      add\n        /* \"#utility.yul\":3548:3554   */\n      dup5\n        /* \"#utility.yul\":3510:3577   */\n      tag_73\n      jump\t// in\n    tag_92:\n        /* \"#utility.yul\":2900:3584   */\n      swap7\n      swap6\n      pop\n      pop\n      pop\n      pop\n      pop\n      pop\n      jump\t// out\n        /* \"#utility.yul\":3671:3803   */\n    tag_66:\n        /* \"#utility.yul\":3738:3742   */\n      0x00\n        /* \"#utility.yul\":3761:3764   */\n      dup2\n        /* \"#utility.yul\":3753:3764   */\n      swap1\n      pop\n        /* \"#utility.yul\":3791:3795   */\n      0x20\n        /* \"#utility.yul\":3786:3789   */\n      dup3\n        /* \"#utility.yul\":3782:3796   */\n      add\n        /* \"#utility.yul\":3774:3796   */\n      swap1\n      pop\n        /* \"#utility.yul\":3671:3803   */\n      swap2\n      swap1\n      pop\n      jump\t// out\n        /* \"#utility.yul\":3809:3923   */\n    tag_62:\n        /* \"#utility.yul\":3876:3882   */\n      0x00\n        /* \"#utility.yul\":3910:3915   */\n      dup2\n        /* \"#utility.yul\":3904:3916   */\n      mload\n        /* \"#utility.yul\":3894:3916   */\n      swap1\n      pop\n        /* \"#utility.yul\":3809:3923   */\n      swap2\n      swap1\n      pop\n      jump\t// out\n        /* \"#utility.yul\":3929:4042   */\n    tag_72:\n        /* \"#utility.yul\":3999:4003   */\n      0x00\n        /* \"#utility.yul\":4031:4035   */\n      0x20\n        /* \"#utility.yul\":4026:4029   */\n      dup3\n        /* \"#utility.yul\":4022:4036   */\n      add\n        /* \"#utility.yul\":4014:4036   */\n      swap1\n      pop\n        /* \"#utility.yul\":3929:4042   */\n      swap2\n      swap1\n      pop\n      jump\t// out\n        /* \"#utility.yul\":4048:4232   */\n    tag_64:\n        /* \"#utility.yul\":4147:4158   */\n      0x00\n        /* \"#utility.yul\":4181:4187   */\n      dup3\n        /* \"#utility.yul\":4176:4179   */\n      dup3\n        /* \"#utility.yul\":4169:4188   */\n      mstore\n        /* \"#utility.yul\":4221:4225   */\n      0x20\n        /* \"#utility.yul\":4216:4219   */\n      dup3\n        /* \"#utility.yul\":4212:4226   */\n      add\n        /* \"#utility.yul\":4197:4226   */\n      swap1\n      pop\n        /* \"#utility.yul\":4048:4232   */\n      swap3\n      swap2\n      pop\n      pop\n      jump\t// out\n        /* \"#utility.yul\":4238:4334   */\n    tag_55:\n        /* \"#utility.yul\":4275:4282   */\n      0x00\n        /* \"#utility.yul\":4304:4328   */\n      tag_100\n        /* \"#utility.yul\":4322:4327   */\n      dup3\n        /* \"#utility.yul\":4304:4328   */\n      tag_101\n      jump\t// in\n    tag_100:\n        /* \"#utility.yul\":4293:4328   */\n      swap1\n      pop\n        /* \"#utility.yul\":4238:4334   */\n      swap2\n      swap1\n      pop\n      jump\t// out\n        /* \"#utility.yul\":4340:4444   */\n    tag_52:\n        /* \"#utility.yul\":4385:4392   */\n      0x00\n        /* \"#utility.yul\":4414:4438   */\n      tag_103\n        /* \"#utility.yul\":4432:4437   */\n      dup3\n        /* \"#utility.yul\":4414:4438   */\n      tag_101\n      jump\t// in\n    tag_103:\n        /* \"#utility.yul\":4403:4438   */\n      swap1\n      pop\n        /* \"#utility.yul\":4340:4444   */\n      swap2\n      swap1\n      pop\n      jump\t// out\n        /* \"#utility.yul\":4450:4540   */\n    tag_76:\n        /* \"#utility.yul\":4484:4491   */\n      0x00\n        /* \"#utility.yul\":4527:4532   */\n      dup2\n        /* \"#utility.yul\":4520:4533   */\n      iszero\n        /* \"#utility.yul\":4513:4534   */\n      iszero\n        /* \"#utility.yul\":4502:4534   */\n      swap1\n      pop\n        /* \"#utility.yul\":4450:4540   */\n      swap2\n      swap1\n      pop\n      jump\t// out\n        /* \"#utility.yul\":4546:4672   */\n    tag_101:\n        /* \"#utility.yul\":4583:4590   */\n      0x00\n        /* \"#utility.yul\":4623:4665   */\n      0xffffffffffffffffffffffffffffffffffffffff\n        /* \"#utility.yul\":4616:4621   */\n      dup3\n        /* \"#utility.yul\":4612:4666   */\n      and\n        /* \"#utility.yul\":4601:4666   */\n      swap1\n      pop\n        /* \"#utility.yul\":4546:4672   */\n      swap2\n      swap1\n      pop\n      jump\t// out\n        /* \"#utility.yul\":4678:4755   */\n    tag_80:\n        /* \"#utility.yul\":4715:4722   */\n      0x00\n        /* \"#utility.yul\":4744:4749   */\n      dup2\n        /* \"#utility.yul\":4733:4749   */\n      swap1\n      pop\n        /* \"#utility.yul\":4678:4755   */\n      swap2\n      swap1\n      pop\n      jump\t// out\n        /* \"#utility.yul\":4884:5001   */\n    tag_43:\n        /* \"#utility.yul\":4993:4994   */\n      0x00\n        /* \"#utility.yul\":4990:4991   */\n      dup1\n        /* \"#utility.yul\":4983:4995   */\n      revert\n        /* \"#utility.yul\":5007:5129   */\n    tag_39:\n        /* \"#utility.yul\":5080:5104   */\n      tag_111\n        /* \"#utility.yul\":5098:5103   */\n      dup2\n        /* \"#utility.yul\":5080:5104   */\n      tag_80\n      jump\t// in\n    tag_111:\n        /* \"#utility.yul\":5073:5078   */\n      dup2\n        /* \"#utility.yul\":5070:5105   */\n      eq\n        /* \"#utility.yul\":5060:5123   */\n      tag_112\n      jumpi\n        /* \"#utility.yul\":5119:5120   */\n      0x00\n        /* \"#utility.yul\":5116:5117   */\n      dup1\n        /* \"#utility.yul\":5109:5121   */\n      revert\n        /* \"#utility.yul\":5060:5123   */\n    tag_112:\n        /* \"#utility.yul\":5007:5129   */\n      pop\n      jump\t// out\n\n    auxdata: 0xa26469706673582212206f4262bbf381b4997d39e241b67a5e7c23718a9ab42d2b708f058a2b9e9d2a4f64736f6c63430008070033\n}\n",
				"bytecode": {
					"linkReferences": {},
					"object": "60806040523480156200001157600080fd5b506040516200089c3803806200089c8339818101604052810190620000379190620001e9565b81600090805190602001906200004f9291906200005f565b50806001819055505050620003a3565b828054828255906000526020600020908101928215620000db579160200282015b82811115620000da5782518260006101000a81548173ffffffffffffffffffffffffffffffffffffffff021916908373ffffffffffffffffffffffffffffffffffffffff1602179055509160200191906001019062000080565b5b509050620000ea9190620000ee565b5090565b5b8082111562000109576000816000905550600101620000ef565b5090565b6000620001246200011e8462000278565b6200024f565b905080838252602082019050828560208602820111156200014a57620001496200034f565b5b60005b858110156200017e578162000163888262000188565b8452602084019350602083019250506001810190506200014d565b5050509392505050565b60008151905062000199816200036f565b92915050565b600082601f830112620001b757620001b66200034a565b5b8151620001c98482602086016200010d565b91505092915050565b600081519050620001e38162000389565b92915050565b6000806040838503121562000203576200020262000359565b5b600083015167ffffffffffffffff81111562000224576200022362000354565b5b62000232858286016200019f565b92505060206200024585828601620001d2565b9150509250929050565b60006200025b6200026e565b9050620002698282620002e5565b919050565b6000604051905090565b600067ffffffffffffffff8211156200029657620002956200031b565b5b602082029050602081019050919050565b6000620002b482620002bb565b9050919050565b600073ffffffffffffffffffffffffffffffffffffffff82169050919050565b6000819050919050565b620002f0826200035e565b810181811067ffffffffffffffff821117156200031257620003116200031b565b5b80604052505050565b7f4e487b7100000000000000000000000000000000000000000000000000000000600052604160045260246000fd5b600080fd5b600080fd5b600080fd5b600080fd5b6000601f19601f8301169050919050565b6200037a81620002a7565b81146200038657600080fd5b50565b6200039481620002db565b8114620003a057600080fd5b50565b6104e980620003b36000396000f3fe608060405234801561001057600080fd5b50600436106100575760003560e01c80631703a0181461005c57806361b8ce8c1461007a5780636cb3e8ef146100985780639377d711146100b6578063d3650fb8146100ea575b600080fd5b61006461011a565b6040516100719190610396565b60405180910390f35b610082610120565b60405161008f9190610396565b60405180910390f35b6100a0610126565b6040516100ad9190610374565b60405180910390f35b6100d060048036038101906100cb919061026b565b6101b4565b6040516100e19594939291906103b1565b60405180910390f35b61010460048036038101906100ff919061026b565b610217565b6040516101119190610359565b60405180910390f35b60015481565b60035481565b606060008054806020026020016040519081016040528092919081815260200182805480156101aa57602002820191906000526020600020905b8160009054906101000a900473ffffffffffffffffffffffffffffffffffffffff1673ffffffffffffffffffffffffffffffffffffffff1681526020019060010190808311610160575b5050505050905090565b60026020528060005260406000206000915090508060000154908060010154908060020160009054906101000a900473ffffffffffffffffffffffffffffffffffffffff16908060030154908060040160009054906101000a900460ff16905085565b6000818154811061022757600080fd5b906000526020600020016000915054906101000a900473ffffffffffffffffffffffffffffffffffffffff1681565b6000813590506102658161049c565b92915050565b60006020828403121561028157610280610497565b5b600061028f84828501610256565b91505092915050565b60006102a483836102bf565b60208301905092915050565b6102b98161044f565b82525050565b6102c88161043d565b82525050565b6102d78161043d565b82525050565b60006102e882610414565b6102f2818561042c565b93506102fd83610404565b8060005b8381101561032e5781516103158882610298565b97506103208361041f565b925050600181019050610301565b5085935050505092915050565b61034481610461565b82525050565b6103538161048d565b82525050565b600060208201905061036e60008301846102ce565b92915050565b6000602082019050818103600083015261038e81846102dd565b905092915050565b60006020820190506103ab600083018461034a565b92915050565b600060a0820190506103c6600083018861034a565b6103d3602083018761034a565b6103e060408301866102b0565b6103ed606083018561034a565b6103fa608083018461033b565b9695505050505050565b6000819050602082019050919050565b600081519050919050565b6000602082019050919050565b600082825260208201905092915050565b60006104488261046d565b9050919050565b600061045a8261046d565b9050919050565b60008115159050919050565b600073ffffffffffffffffffffffffffffffffffffffff82169050919050565b6000819050919050565b600080fd5b6104a58161048d565b81146104b057600080fd5b5056fea26469706673582212206f4262bbf381b4997d39e241b67a5e7c23718a9ab42d2b708f058a2b9e9d2a4f64736f6c63430008070033",
					"opcodes": "PUSH1 0x80 PUSH1 0x40 MSTORE CALLVALUE DUP1 ISZERO PUSH3 0x11 JUMPI PUSH1 0x0 DUP1 REVERT JUMPDEST POP PUSH1 0x40 MLOAD PUSH3 0x89C CODESIZE SUB DUP1 PUSH3 0x89C DUP4 CODECOPY DUP2 DUP2 ADD PUSH1 0x40 MSTORE DUP2 ADD SWAP1 PUSH3 0x37 SWAP2 SWAP1 PUSH3 0x1E9 JUMP JUMPDEST DUP2 PUSH1 0x0 SWAP1 DUP1 MLOAD SWAP1 PUSH1 0x20 ADD SWAP1 PUSH3 0x4F SWAP3 SWAP2 SWAP1 PUSH3 0x5F JUMP JUMPDEST POP DUP1 PUSH1 0x1 DUP2 SWAP1 SSTORE POP POP POP PUSH3 0x3A3 JUMP JUMPDEST DUP3 DUP1 SLOAD DUP3 DUP3 SSTORE SWAP1 PUSH1 0x0 MSTORE PUSH1 0x20 PUSH1 0x0 KECCAK256 SWAP1 DUP2 ADD SWAP3 DUP3 ISZERO PUSH3 0xDB JUMPI SWAP2 PUSH1 0x20 MUL DUP3 ADD JUMPDEST DUP3 DUP2 GT ISZERO PUSH3 0xDA JUMPI DUP3 MLOAD DUP3 PUSH1 0x0 PUSH2 0x100 EXP DUP2 SLOAD DUP2 PUSH20 0xFFFFFFFFFFFFFFFFFFFFFFFFFFFFFFFFFFFFFFFF MUL NOT AND SWAP1 DUP4 PUSH20 0xFFFFFFFFFFFFFFFFFFFFFFFFFFFFFFFFFFFFFFFF AND MUL OR SWAP1 SSTORE POP SWAP2 PUSH1 0x20 ADD SWAP2 SWAP1 PUSH1 0x1 ADD SWAP1 PUSH3 0x80 JUMP JUMPDEST JUMPDEST POP SWAP1 POP PUSH3 0xEA SWAP2 SWAP1 PUSH3 0xEE JUMP JUMPDEST POP SWAP1 JUMP JUMPDEST JUMPDEST DUP1 DUP3 GT ISZERO PUSH3 0x109 JUMPI PUSH1 0x0 DUP2 PUSH1 0x0 SWAP1 SSTORE POP PUSH1 0x1 ADD PUSH3 0xEF JUMP JUMPDEST POP SWAP1 JUMP JUMPDEST PUSH1 0x0 PUSH3 0x124 PUSH3 0x11E DUP5 PUSH3 0x278 JUMP JUMPDEST PUSH3 0x24F JUMP JUMPDEST SWAP1 POP DUP1 DUP4 DUP3 MSTORE PUSH1 0x20 DUP3 ADD SWAP1 POP DUP3 DUP6 PUSH1 0x20 DUP7 MUL DUP3 ADD GT ISZERO PUSH3 0x14A JUMPI PUSH3 0x149 PUSH3 0x34F JUMP JUMPDEST JUMPDEST PUSH1 0x0 JUMPDEST DUP6 DUP2 LT ISZERO PUSH3 0x17E JUMPI DUP2 PUSH3 0x163 DUP9 DUP3 PUSH3 0x188 JUMP JUMPDEST DUP5 MSTORE PUSH1 0x20 DUP5 ADD SWAP4 POP PUSH1 0x20 DUP4 ADD SWAP3 POP POP PUSH1 0x1 DUP2 ADD SWAP1 POP PUSH3 0x14D JUMP JUMPDEST POP POP POP SWAP4 SWAP3 POP POP POP JUMP JUMPDEST PUSH1 0x0 DUP2 MLOAD SWAP1 POP PUSH3 0x199 DUP2 PUSH3 0x36F JUMP JUMPDEST SWAP3 SWAP2 POP POP JUMP JUMPDEST PUSH1 0x0 DUP3 PUSH1 0x1F DUP4 ADD SLT PUSH3 0x1B7 JUMPI PUSH3 0x1B6 PUSH3 0x34A JUMP JUMPDEST JUMPDEST DUP2 MLOAD PUSH3 0x1C9 DUP5 DUP3 PUSH1 0x20 DUP7 ADD PUSH3 0x10D JUMP JUMPDEST SWAP2 POP POP SWAP3 SWAP2 POP POP JUMP JUMPDEST PUSH1 0x0 DUP2 MLOAD SWAP1 POP PUSH3 0x1E3 DUP2 PUSH3 0x389 JUMP JUMPDEST SWAP3 SWAP2 POP POP JUMP JUMPDEST PUSH1 0x0 DUP1 PUSH1 0x40 DUP4 DUP6 SUB SLT ISZERO PUSH3 0x203 JUMPI PUSH3 0x202 PUSH3 0x359 JUMP JUMPDEST JUMPDEST PUSH1 0x0 DUP4 ADD MLOAD PUSH8 0xFFFFFFFFFFFFFFFF DUP2 GT ISZERO PUSH3 0x224 JUMPI PUSH3 0x223 PUSH3 0x354 JUMP JUMPDEST JUMPDEST PUSH3 0x232 DUP6 DUP3 DUP7 ADD PUSH3 0x19F JUMP JUMPDEST SWAP3 POP POP PUSH1 0x20 PUSH3 0x245 DUP6 DUP3 DUP7 ADD PUSH3 0x1D2 JUMP JUMPDEST SWAP2 POP POP SWAP3 POP SWAP3 SWAP1 POP JUMP JUMPDEST PUSH1 0x0 PUSH3 0x25B PUSH3 0x26E JUMP JUMPDEST SWAP1 POP PUSH3 0x269 DUP3 DUP3 PUSH3 0x2E5 JUMP JUMPDEST SWAP2 SWAP1 POP JUMP JUMPDEST PUSH1 0x0 PUSH1 0x40 MLOAD SWAP1 POP SWAP1 JUMP JUMPDEST PUSH1 0x0 PUSH8 0xFFFFFFFFFFFFFFFF DUP3 GT ISZERO PUSH3 0x296 JUMPI PUSH3 0x295 PUSH3 0x31B JUMP JUMPDEST JUMPDEST PUSH1 0x20 DUP3 MUL SWAP1 POP PUSH1 0x20 DUP2 ADD SWAP1 POP SWAP2 SWAP1 POP JUMP JUMPDEST PUSH1 0x0 PUSH3 0x2B4 DUP3 PUSH3 0x2BB JUMP JUMPDEST SWAP1 POP SWAP2 SWAP1 POP JUMP JUMPDEST PUSH1 0x0 PUSH20 0xFFFFFFFFFFFFFFFFFFFFFFFFFFFFFFFFFFFFFFFF DUP3 AND SWAP1 POP SWAP2 SWAP1 POP JUMP JUMPDEST PUSH1 0x0 DUP2 SWAP1 POP SWAP2 SWAP1 POP JUMP JUMPDEST PUSH3 0x2F0 DUP3 PUSH3 0x35E JUMP JUMPDEST DUP2 ADD DUP2 DUP2 LT PUSH8 0xFFFFFFFFFFFFFFFF DUP3 GT OR ISZERO PUSH3 0x312 JUMPI PUSH3 0x311 PUSH3 0x31B JUMP JUMPDEST JUMPDEST DUP1 PUSH1 0x40 MSTORE POP POP POP JUMP JUMPDEST PUSH32 0x4E487B7100000000000000000000000000000000000000000000000000000000 PUSH1 0x0 MSTORE PUSH1 0x41 PUSH1 0x4 MSTORE PUSH1 0x24 PUSH1 0x0 REVERT JUMPDEST PUSH1 0x0 DUP1 REVERT JUMPDEST PUSH1 0x0 DUP1 REVERT JUMPDEST PUSH1 0x0 DUP1 REVERT JUMPDEST PUSH1 0x0 DUP1 REVERT JUMPDEST PUSH1 0x0 PUSH1 0x1F NOT PUSH1 0x1F DUP4 ADD AND SWAP1 POP SWAP2 SWAP1 POP JUMP JUMPDEST PUSH3 0x37A DUP2 PUSH3 0x2A7 JUMP JUMPDEST DUP2 EQ PUSH3 0x386 JUMPI PUSH1 0x0 DUP1 REVERT JUMPDEST POP JUMP JUMPDEST PUSH3 0x394 DUP2 PUSH3 0x2DB JUMP JUMPDEST DUP2 EQ PUSH3 0x3A0 JUMPI PUSH1 0x0 DUP1 REVERT JUMPDEST POP JUMP JUMPDEST PUSH2 0x4E9 DUP1 PUSH3 0x3B3 PUSH1 0x0 CODECOPY PUSH1 0x0 RETURN INVALID PUSH1 0x80 PUSH1 0x40 MSTORE CALLVALUE DUP1 ISZERO PUSH2 0x10 JUMPI PUSH1 0x0 DUP1 REVERT JUMPDEST POP PUSH1 0x4 CALLDATASIZE LT PUSH2 0x57 JUMPI PUSH1 0x0 CALLDATALOAD PUSH1 0xE0 SHR DUP1 PUSH4 0x1703A018 EQ PUSH2 0x5C JUMPI DUP1 PUSH4 0x61B8CE8C EQ PUSH2 0x7A JUMPI DUP1 PUSH4 0x6CB3E8EF EQ PUSH2 0x98 JUMPI DUP1 PUSH4 0x9377D711 EQ PUSH2 0xB6 JUMPI DUP1 PUSH4 0xD3650FB8 EQ PUSH2 0xEA JUMPI JUMPDEST PUSH1 0x0 DUP1 REVERT JUMPDEST PUSH2 0x64 PUSH2 0x11A JUMP JUMPDEST PUSH1 0x40 MLOAD PUSH2 0x71 SWAP2 SWAP1 PUSH2 0x396 JUMP JUMPDEST PUSH1 0x40 MLOAD DUP1 SWAP2 SUB SWAP1 RETURN JUMPDEST PUSH2 0x82 PUSH2 0x120 JUMP JUMPDEST PUSH1 0x40 MLOAD PUSH2 0x8F SWAP2 SWAP1 PUSH2 0x396 JUMP JUMPDEST PUSH1 0x40 MLOAD DUP1 SWAP2 SUB SWAP1 RETURN JUMPDEST PUSH2 0xA0 PUSH2 0x126 JUMP JUMPDEST PUSH1 0x40 MLOAD PUSH2 0xAD SWAP2 SWAP1 PUSH2 0x374 JUMP JUMPDEST PUSH1 0x40 MLOAD DUP1 SWAP2 SUB SWAP1 RETURN JUMPDEST PUSH2 0xD0 PUSH1 0x4 DUP1 CALLDATASIZE SUB DUP2 ADD SWAP1 PUSH2 0xCB SWAP2 SWAP1 PUSH2 0x26B JUMP JUMPDEST PUSH2 0x1B4 JUMP JUMPDEST PUSH1 0x40 MLOAD PUSH2 0xE1 SWAP6 SWAP5 SWAP4 SWAP3 SWAP2 SWAP1 PUSH2 0x3B1 JUMP JUMPDEST PUSH1 0x40 MLOAD DUP1 SWAP2 SUB SWAP1 RETURN JUMPDEST PUSH2 0x104 PUSH1 0x4 DUP1 CALLDATASIZE SUB DUP2 ADD SWAP1 PUSH2 0xFF SWAP2 SWAP1 PUSH2 0x26B JUMP JUMPDEST PUSH2 0x217 JUMP JUMPDEST PUSH1 0x40 MLOAD PUSH2 0x111 SWAP2 SWAP1 PUSH2 0x359 JUMP JUMPDEST PUSH1 0x40 MLOAD DUP1 SWAP2 SUB SWAP1 RETURN JUMPDEST PUSH1 0x1 SLOAD DUP2 JUMP JUMPDEST PUSH1 0x3 SLOAD DUP2 JUMP JUMPDEST PUSH1 0x60 PUSH1 0x0 DUP1 SLOAD DUP1 PUSH1 0x20 MUL PUSH1 0x20 ADD PUSH1 0x40 MLOAD SWAP1 DUP2 ADD PUSH1 0x40 MSTORE DUP1 SWAP3 SWAP2 SWAP1 DUP2 DUP2 MSTORE PUSH1 0x20 ADD DUP3 DUP1 SLOAD DUP1 ISZERO PUSH2 0x1AA JUMPI PUSH1 0x20 MUL DUP3 ADD SWAP2 SWAP1 PUSH1 0x0 MSTORE PUSH1 0x20 PUSH1 0x0 KECCAK256 SWAP1 JUMPDEST DUP2 PUSH1 0x0 SWAP1 SLOAD SWAP1 PUSH2 0x100 EXP SWAP1 DIV PUSH20 0xFFFFFFFFFFFFFFFFFFFFFFFFFFFFFFFFFFFFFFFF AND PUSH20 0xFFFFFFFFFFFFFFFFFFFFFFFFFFFFFFFFFFFFFFFF AND DUP2 MSTORE PUSH1 0x20 ADD SWAP1 PUSH1 0x1 ADD SWAP1 DUP1 DUP4 GT PUSH2 0x160 JUMPI JUMPDEST POP POP POP POP POP SWAP1 POP SWAP1 JUMP JUMPDEST PUSH1 0x2 PUSH1 0x20 MSTORE DUP1 PUSH1 0x0 MSTORE PUSH1 0x40 PUSH1 0x0 KECCAK256 PUSH1 0x0 SWAP2 POP SWAP1 POP DUP1 PUSH1 0x0 ADD SLOAD SWAP1 DUP1 PUSH1 0x1 ADD SLOAD SWAP1 DUP1 PUSH1 0x2 ADD PUSH1 0x0 SWAP1 SLOAD SWAP1 PUSH2 0x100 EXP SWAP1 DIV PUSH20 0xFFFFFFFFFFFFFFFFFFFFFFFFFFFFFFFFFFFFFFFF AND SWAP1 DUP1 PUSH1 0x3 ADD SLOAD SWAP1 DUP1 PUSH1 0x4 ADD PUSH1 0x0 SWAP1 SLOAD SWAP1 PUSH2 0x100 EXP SWAP1 DIV PUSH1 0xFF AND SWAP1 POP DUP6 JUMP JUMPDEST PUSH1 0x0 DUP2 DUP2 SLOAD DUP2 LT PUSH2 0x227 JUMPI PUSH1 0x0 DUP1 REVERT JUMPDEST SWAP1 PUSH1 0x0 MSTORE PUSH1 0x20 PUSH1 0x0 KECCAK256 ADD PUSH1 0x0 SWAP2 POP SLOAD SWAP1 PUSH2 0x100 EXP SWAP1 DIV PUSH20 0xFFFFFFFFFFFFFFFFFFFFFFFFFFFFFFFFFFFFFFFF AND DUP2 JUMP JUMPDEST PUSH1 0x0 DUP2 CALLDATALOAD SWAP1 POP PUSH2 0x265 DUP2 PUSH2 0x49C JUMP JUMPDEST SWAP3 SWAP2 POP POP JUMP JUMPDEST PUSH1 0x0 PUSH1 0x20 DUP3 DUP5 SUB SLT ISZERO PUSH2 0x281 JUMPI PUSH2 0x280 PUSH2 0x497 JUMP JUMPDEST JUMPDEST PUSH1 0x0 PUSH2 0x28F DUP5 DUP3 DUP6 ADD PUSH2 0x256 JUMP JUMPDEST SWAP2 POP POP SWAP3 SWAP2 POP POP JUMP JUMPDEST PUSH1 0x0 PUSH2 0x2A4 DUP4 DUP4 PUSH2 0x2BF JUMP JUMPDEST PUSH1 0x20 DUP4 ADD SWAP1 POP SWAP3 SWAP2 POP POP JUMP JUMPDEST PUSH2 0x2B9 DUP2 PUSH2 0x44F JUMP JUMPDEST DUP3 MSTORE POP POP JUMP JUMPDEST PUSH2 0x2C8 DUP2 PUSH2 0x43D JUMP JUMPDEST DUP3 MSTORE POP POP JUMP JUMPDEST PUSH2 0x2D7 DUP2 PUSH2 0x43D JUMP JUMPDEST DUP3 MSTORE POP POP JUMP JUMPDEST PUSH1 0x0 PUSH2 0x2E8 DUP3 PUSH2 0x414 JUMP JUMPDEST PUSH2 0x2F2 DUP2 DUP6 PUSH2 0x42C JUMP JUMPDEST SWAP4 POP PUSH2 0x2FD DUP4 PUSH2 0x404 JUMP JUMPDEST DUP1 PUSH1 0x0 JUMPDEST DUP4 DUP2 LT ISZERO PUSH2 0x32E JUMPI DUP2 MLOAD PUSH2 0x315 DUP9 DUP3 PUSH2 0x298 JUMP JUMPDEST SWAP8 POP PUSH2 0x320 DUP4 PUSH2 0x41F JUMP JUMPDEST SWAP3 POP POP PUSH1 0x1 DUP2 ADD SWAP1 POP PUSH2 0x301 JUMP JUMPDEST POP DUP6 SWAP4 POP POP POP POP SWAP3 SWAP2 POP POP JUMP JUMPDEST PUSH2 0x344 DUP2 PUSH2 0x461 JUMP JUMPDEST DUP3 MSTORE POP POP JUMP JUMPDEST PUSH2 0x353 DUP2 PUSH2 0x48D JUMP JUMPDEST DUP3 MSTORE POP POP JUMP JUMPDEST PUSH1 0x0 PUSH1 0x20 DUP3 ADD SWAP1 POP PUSH2 0x36E PUSH1 0x0 DUP4 ADD DUP5 PUSH2 0x2CE JUMP JUMPDEST SWAP3 SWAP2 POP POP JUMP JUMPDEST PUSH1 0x0 PUSH1 0x20 DUP3 ADD SWAP1 POP DUP2 DUP2 SUB PUSH1 0x0 DUP4 ADD MSTORE PUSH2 0x38E DUP2 DUP5 PUSH2 0x2DD JUMP JUMPDEST SWAP1 POP SWAP3 SWAP2 POP POP JUMP JUMPDEST PUSH1 0x0 PUSH1 0x20 DUP3 ADD SWAP1 POP PUSH2 0x3AB PUSH1 0x0 DUP4 ADD DUP5 PUSH2 0x34A JUMP JUMPDEST SWAP3 SWAP2 POP POP JUMP JUMPDEST PUSH1 0x0 PUSH1 0xA0 DUP3 ADD SWAP1 POP PUSH2 0x3C6 PUSH1 0x0 DUP4 ADD DUP9 PUSH2 0x34A JUMP JUMPDEST PUSH2 0x3D3 PUSH1 0x20 DUP4 ADD DUP8 PUSH2 0x34A JUMP JUMPDEST PUSH2 0x3E0 PUSH1 0x40 DUP4 ADD DUP7 PUSH2 0x2B0 JUMP JUMPDEST PUSH2 0x3ED PUSH1 0x60 DUP4 ADD DUP6 PUSH2 0x34A JUMP JUMPDEST PUSH2 0x3FA PUSH1 0x80 DUP4 ADD DUP5 PUSH2 0x33B JUMP JUMPDEST SWAP7 SWAP6 POP POP POP POP POP POP JUMP JUMPDEST PUSH1 0x0 DUP2 SWAP1 POP PUSH1 0x20 DUP3 ADD SWAP1 POP SWAP2 SWAP1 POP JUMP JUMPDEST PUSH1 0x0 DUP2 MLOAD SWAP1 POP SWAP2 SWAP1 POP JUMP JUMPDEST PUSH1 0x0 PUSH1 0x20 DUP3 ADD SWAP1 POP SWAP2 SWAP1 POP JUMP JUMPDEST PUSH1 0x0 DUP3 DUP3 MSTORE PUSH1 0x20 DUP3 ADD SWAP1 POP SWAP3 SWAP2 POP POP JUMP JUMPDEST PUSH1 0x0 PUSH2 0x448 DUP3 PUSH2 0x46D JUMP JUMPDEST SWAP1 POP SWAP2 SWAP1 POP JUMP JUMPDEST PUSH1 0x0 PUSH2 0x45A DUP3 PUSH2 0x46D JUMP JUMPDEST SWAP1 POP SWAP2 SWAP1 POP JUMP JUMPDEST PUSH1 0x0 DUP2 ISZERO ISZERO SWAP1 POP SWAP2 SWAP1 POP JUMP JUMPDEST PUSH1 0x0 PUSH20 0xFFFFFFFFFFFFFFFFFFFFFFFFFFFFFFFFFFFFFFFF DUP3 AND SWAP1 POP SWAP2 SWAP1 POP JUMP JUMPDEST PUSH1 0x0 DUP2 SWAP1 POP SWAP2 SWAP1 POP JUMP JUMPDEST PUSH1 0x0 DUP1 REVERT JUMPDEST PUSH2 0x4A5 DUP2 PUSH2 0x48D JUMP JUMPDEST DUP2 EQ PUSH2 0x4B0 JUMPI PUSH1 0x0 DUP1 REVERT JUMPDEST POP JUMP INVALID LOG2 PUSH5 0x6970667358 0x22 SLT KECCAK256 PUSH16 0x4262BBF381B4997D39E241B67A5E7C23 PUSH18 0x8A9AB42D2B708F058A2B9E9D2A4F64736F6C PUSH4 0x43000807 STOP CALLER "
				},
				"gasEstimates": {
					"creation": {
						"codeDepositCost": "251400",
						"executionCost": "infinite",
						"totalCost": "infinite"
					},
					"external": {
						"approvers(uint256)": "5022",
						"getApprovers()": "infinite",
						"nextId()": "2429",
						"quorum()": "2407",
						"transfers(uint256)": "infinite"
					}
				},
				"methodIdentifiers": {
					"approvers(uint256)": "d3650fb8",
					"getApprovers()": "6cb3e8ef",
					"nextId()": "61b8ce8c",
					"quorum()": "1703a018",
					"transfers(uint256)": "9377d711"
				}
			},
			"storageLayout": {
				"storage": [
					{
						"astId": 4,
						"contract": "contracts/Wallet.sol:Wallet",
						"label": "approvers",
						"offset": 0,
						"slot": "0",
						"type": "t_array(t_address)dyn_storage"
					},
					{
						"astId": 6,
						"contract": "contracts/Wallet.sol:Wallet",
						"label": "quorum",
						"offset": 0,
						"slot": "1",
						"type": "t_uint256"
					},
					{
						"astId": 22,
						"contract": "contracts/Wallet.sol:Wallet",
						"label": "transfers",
						"offset": 0,
						"slot": "2",
						"type": "t_mapping(t_uint256,t_struct(Transfer)17_storage)"
					},
					{
						"astId": 24,
						"contract": "contracts/Wallet.sol:Wallet",
						"label": "nextId",
						"offset": 0,
						"slot": "3",
						"type": "t_uint256"
					}
				],
				"types": {
					"t_address": {
						"encoding": "inplace",
						"label": "address",
						"numberOfBytes": "20"
					},
					"t_address_payable": {
						"encoding": "inplace",
						"label": "address payable",
						"numberOfBytes": "20"
					},
					"t_array(t_address)dyn_storage": {
						"base": "t_address",
						"encoding": "dynamic_array",
						"label": "address[]",
						"numberOfBytes": "32"
					},
					"t_bool": {
						"encoding": "inplace",
						"label": "bool",
						"numberOfBytes": "1"
					},
					"t_mapping(t_uint256,t_struct(Transfer)17_storage)": {
						"encoding": "mapping",
						"key": "t_uint256",
						"label": "mapping(uint256 => struct Wallet.Transfer)",
						"numberOfBytes": "32",
						"value": "t_struct(Transfer)17_storage"
					},
					"t_struct(Transfer)17_storage": {
						"encoding": "inplace",
						"label": "struct Wallet.Transfer",
						"members": [
							{
								"astId": 8,
								"contract": "contracts/Wallet.sol:Wallet",
								"label": "id",
								"offset": 0,
								"slot": "0",
								"type": "t_uint256"
							},
							{
								"astId": 10,
								"contract": "contracts/Wallet.sol:Wallet",
								"label": "amount",
								"offset": 0,
								"slot": "1",
								"type": "t_uint256"
							},
							{
								"astId": 12,
								"contract": "contracts/Wallet.sol:Wallet",
								"label": "to",
								"offset": 0,
								"slot": "2",
								"type": "t_address_payable"
							},
							{
								"astId": 14,
								"contract": "contracts/Wallet.sol:Wallet",
								"label": "approvals",
								"offset": 0,
								"slot": "3",
								"type": "t_uint256"
							},
							{
								"astId": 16,
								"contract": "contracts/Wallet.sol:Wallet",
								"label": "sent",
								"offset": 0,
								"slot": "4",
								"type": "t_bool"
							}
						],
						"numberOfBytes": "160"
					},
					"t_uint256": {
						"encoding": "inplace",
						"label": "uint256",
						"numberOfBytes": "32"
					}
				}
			},
			"userdoc": {
				"kind": "user",
				"methods": {},
				"version": 1
			}
		}
	}
}